{
	"NummoraCore.sol": {
		"NummoraCore": {
			"abi": [
				{
					"inputs": [
						{
							"internalType": "address",
							"name": "_numus",
							"type": "address"
						},
						{
							"internalType": "address",
							"name": "_nft",
							"type": "address"
						}
					],
					"stateMutability": "nonpayable",
					"type": "constructor"
				},
				{
					"inputs": [
						{
							"internalType": "address",
							"name": "owner",
							"type": "address"
						}
					],
					"name": "OwnableInvalidOwner",
					"type": "error"
				},
				{
					"inputs": [
						{
							"internalType": "address",
							"name": "account",
							"type": "address"
						}
					],
					"name": "OwnableUnauthorizedAccount",
					"type": "error"
				},
				{
					"anonymous": false,
					"inputs": [
						{
							"indexed": false,
							"internalType": "address",
							"name": "borrower",
							"type": "address"
						}
					],
					"name": "BorrowerRegistered",
					"type": "event"
				},
				{
					"anonymous": false,
					"inputs": [
						{
							"indexed": true,
							"internalType": "uint256",
							"name": "loanId",
							"type": "uint256"
						},
						{
							"indexed": false,
							"internalType": "uint256",
							"name": "amount",
							"type": "uint256"
						},
						{
							"indexed": false,
							"internalType": "uint256",
							"name": "daysUsed",
							"type": "uint256"
						}
					],
					"name": "EarlyPaymentMade",
					"type": "event"
				},
				{
					"anonymous": false,
					"inputs": [
						{
							"indexed": false,
							"internalType": "address",
							"name": "lender",
							"type": "address"
						}
					],
					"name": "LenderRegistered",
					"type": "event"
				},
				{
					"anonymous": false,
					"inputs": [
						{
							"indexed": false,
							"internalType": "uint256",
							"name": "loanId",
							"type": "uint256"
						}
					],
					"name": "LoanCompleted",
					"type": "event"
				},
				{
					"anonymous": false,
					"inputs": [
						{
							"indexed": false,
							"internalType": "uint256",
							"name": "loanId",
							"type": "uint256"
						},
						{
							"indexed": false,
							"internalType": "address",
							"name": "lender",
							"type": "address"
						},
						{
							"indexed": false,
							"internalType": "address",
							"name": "borrower",
							"type": "address"
						},
						{
							"indexed": false,
							"internalType": "uint256",
							"name": "amount",
							"type": "uint256"
						}
					],
					"name": "LoanCreated",
					"type": "event"
				},
				{
					"anonymous": false,
					"inputs": [
						{
							"indexed": true,
							"internalType": "address",
							"name": "previousOwner",
							"type": "address"
						},
						{
							"indexed": true,
							"internalType": "address",
							"name": "newOwner",
							"type": "address"
						}
					],
					"name": "OwnershipTransferred",
					"type": "event"
				},
				{
					"anonymous": false,
					"inputs": [
						{
							"indexed": false,
							"internalType": "uint256",
							"name": "loanId",
							"type": "uint256"
						},
						{
							"indexed": false,
							"internalType": "uint256",
							"name": "amount",
							"type": "uint256"
						}
					],
					"name": "PaymentMade",
					"type": "event"
				},
				{
					"inputs": [
						{
							"internalType": "address",
							"name": "token",
							"type": "address"
						}
					],
					"name": "addStablecoin",
					"outputs": [],
					"stateMutability": "nonpayable",
					"type": "function"
				},
				{
					"inputs": [
						{
							"internalType": "address",
							"name": "",
							"type": "address"
						}
					],
					"name": "borrowers",
					"outputs": [
						{
							"internalType": "bool",
							"name": "",
							"type": "bool"
						}
					],
					"stateMutability": "view",
					"type": "function"
				},
				{
					"inputs": [
						{
							"internalType": "address",
							"name": "lender",
							"type": "address"
						},
						{
							"internalType": "address",
							"name": "borrower",
							"type": "address"
						},
						{
							"internalType": "address",
							"name": "token",
							"type": "address"
						},
						{
							"internalType": "uint256",
							"name": "amount",
							"type": "uint256"
						},
						{
							"internalType": "uint256",
							"name": "interest",
							"type": "uint256"
						},
						{
							"internalType": "uint256",
							"name": "installments",
							"type": "uint256"
						},
						{
							"internalType": "uint256",
							"name": "platformFee",
							"type": "uint256"
						}
					],
					"name": "createLoan",
					"outputs": [
						{
							"internalType": "uint256",
							"name": "",
							"type": "uint256"
						}
					],
					"stateMutability": "nonpayable",
					"type": "function"
				},
				{
					"inputs": [
						{
							"internalType": "address",
							"name": "token",
							"type": "address"
						},
						{
							"internalType": "uint256",
							"name": "amount",
							"type": "uint256"
						}
					],
					"name": "deposit",
					"outputs": [],
					"stateMutability": "nonpayable",
					"type": "function"
				},
				{
					"inputs": [
						{
							"internalType": "address",
							"name": "token",
							"type": "address"
						},
						{
							"internalType": "uint256",
							"name": "amount",
							"type": "uint256"
						}
					],
					"name": "emergencyWithdraw",
					"outputs": [],
					"stateMutability": "nonpayable",
					"type": "function"
				},
				{
					"inputs": [],
					"name": "fee",
					"outputs": [
						{
							"internalType": "uint256",
							"name": "",
							"type": "uint256"
						}
					],
					"stateMutability": "view",
					"type": "function"
				},
				{
					"inputs": [
						{
							"internalType": "address",
							"name": "user",
							"type": "address"
						}
					],
					"name": "getBalance",
					"outputs": [
						{
							"internalType": "uint256",
							"name": "",
							"type": "uint256"
						}
					],
					"stateMutability": "view",
					"type": "function"
				},
				{
					"inputs": [
						{
							"internalType": "uint256",
							"name": "loanId",
							"type": "uint256"
						}
					],
					"name": "getLoan",
					"outputs": [
						{
							"components": [
								{
									"internalType": "address",
									"name": "lender",
									"type": "address"
								},
								{
									"internalType": "address",
									"name": "borrower",
									"type": "address"
								},
								{
									"internalType": "address",
									"name": "stablecoin",
									"type": "address"
								},
								{
									"internalType": "uint256",
									"name": "amount",
									"type": "uint256"
								},
								{
									"internalType": "uint256",
									"name": "totalToPay",
									"type": "uint256"
								},
								{
									"internalType": "uint256",
									"name": "totalPaid",
									"type": "uint256"
								},
								{
									"internalType": "uint256",
									"name": "startTime",
									"type": "uint256"
								},
								{
									"internalType": "uint256",
									"name": "installments",
									"type": "uint256"
								},
								{
									"internalType": "uint256",
									"name": "installmentAmount",
									"type": "uint256"
								},
								{
									"internalType": "uint256",
									"name": "installmentsPaid",
									"type": "uint256"
								},
								{
									"internalType": "bool",
									"name": "active",
									"type": "bool"
								},
								{
									"internalType": "uint256",
									"name": "platformFee",
									"type": "uint256"
								}
							],
							"internalType": "struct NummoraCore.Loan",
							"name": "",
							"type": "tuple"
						}
					],
					"stateMutability": "view",
					"type": "function"
				},
				{
					"inputs": [
						{
							"internalType": "address",
							"name": "user",
							"type": "address"
						}
					],
					"name": "isBorrower",
					"outputs": [
						{
							"internalType": "bool",
							"name": "",
							"type": "bool"
						}
					],
					"stateMutability": "view",
					"type": "function"
				},
				{
					"inputs": [
						{
							"internalType": "address",
							"name": "user",
							"type": "address"
						}
					],
					"name": "isLender",
					"outputs": [
						{
							"internalType": "bool",
							"name": "",
							"type": "bool"
						}
					],
					"stateMutability": "view",
					"type": "function"
				},
				{
					"inputs": [
						{
							"internalType": "address",
							"name": "",
							"type": "address"
						}
					],
					"name": "lenders",
					"outputs": [
						{
							"internalType": "bool",
							"name": "",
							"type": "bool"
						}
					],
					"stateMutability": "view",
					"type": "function"
				},
				{
					"inputs": [],
					"name": "loanNFT",
					"outputs": [
						{
							"internalType": "contract ILoanNFT",
							"name": "",
							"type": "address"
						}
					],
					"stateMutability": "view",
					"type": "function"
				},
				{
					"inputs": [
						{
							"internalType": "uint256",
							"name": "",
							"type": "uint256"
						}
					],
					"name": "loans",
					"outputs": [
						{
							"internalType": "address",
							"name": "lender",
							"type": "address"
						},
						{
							"internalType": "address",
							"name": "borrower",
							"type": "address"
						},
						{
							"internalType": "address",
							"name": "stablecoin",
							"type": "address"
						},
						{
							"internalType": "uint256",
							"name": "amount",
							"type": "uint256"
						},
						{
							"internalType": "uint256",
							"name": "totalToPay",
							"type": "uint256"
						},
						{
							"internalType": "uint256",
							"name": "totalPaid",
							"type": "uint256"
						},
						{
							"internalType": "uint256",
							"name": "startTime",
							"type": "uint256"
						},
						{
							"internalType": "uint256",
							"name": "installments",
							"type": "uint256"
						},
						{
							"internalType": "uint256",
							"name": "installmentAmount",
							"type": "uint256"
						},
						{
							"internalType": "uint256",
							"name": "installmentsPaid",
							"type": "uint256"
						},
						{
							"internalType": "bool",
							"name": "active",
							"type": "bool"
						},
						{
							"internalType": "uint256",
							"name": "platformFee",
							"type": "uint256"
						}
					],
					"stateMutability": "view",
					"type": "function"
				},
				{
					"inputs": [],
					"name": "nextLoanId",
					"outputs": [
						{
							"internalType": "uint256",
							"name": "",
							"type": "uint256"
						}
					],
					"stateMutability": "view",
					"type": "function"
				},
				{
					"inputs": [],
					"name": "numusToken",
					"outputs": [
						{
							"internalType": "contract INUMUSToken",
							"name": "",
							"type": "address"
						}
					],
					"stateMutability": "view",
					"type": "function"
				},
				{
					"inputs": [],
					"name": "owner",
					"outputs": [
						{
							"internalType": "address",
							"name": "",
							"type": "address"
						}
					],
					"stateMutability": "view",
					"type": "function"
				},
				{
					"inputs": [
						{
							"internalType": "uint256",
							"name": "loanId",
							"type": "uint256"
						}
					],
					"name": "payEarly",
					"outputs": [],
					"stateMutability": "nonpayable",
					"type": "function"
				},
				{
					"inputs": [
						{
							"internalType": "uint256",
							"name": "loanId",
							"type": "uint256"
						}
					],
					"name": "payInstallment",
					"outputs": [],
					"stateMutability": "nonpayable",
					"type": "function"
				},
				{
					"inputs": [],
					"name": "registerBorrower",
					"outputs": [],
					"stateMutability": "nonpayable",
					"type": "function"
				},
				{
					"inputs": [],
					"name": "registerLender",
					"outputs": [],
					"stateMutability": "nonpayable",
					"type": "function"
				},
				{
					"inputs": [],
					"name": "renounceOwnership",
					"outputs": [],
					"stateMutability": "nonpayable",
					"type": "function"
				},
				{
					"inputs": [
						{
							"internalType": "address",
							"name": "",
							"type": "address"
						}
					],
					"name": "stablecoins",
					"outputs": [
						{
							"internalType": "bool",
							"name": "",
							"type": "bool"
						}
					],
					"stateMutability": "view",
					"type": "function"
				},
				{
					"inputs": [
						{
							"internalType": "address",
							"name": "newOwner",
							"type": "address"
						}
					],
					"name": "transferOwnership",
					"outputs": [],
					"stateMutability": "nonpayable",
					"type": "function"
				},
				{
					"inputs": [
						{
							"internalType": "uint256",
							"name": "newFee",
							"type": "uint256"
						}
					],
					"name": "updateFee",
					"outputs": [],
					"stateMutability": "nonpayable",
					"type": "function"
				},
				{
					"inputs": [
						{
							"internalType": "address",
							"name": "token",
							"type": "address"
						},
						{
							"internalType": "uint256",
							"name": "amount",
							"type": "uint256"
						}
					],
					"name": "withdraw",
					"outputs": [],
					"stateMutability": "nonpayable",
					"type": "function"
				}
			],
			"devdoc": {
				"errors": {
					"OwnableInvalidOwner(address)": [
						{
							"details": "The owner is not a valid owner account. (eg. `address(0)`)"
						}
					],
					"OwnableUnauthorizedAccount(address)": [
						{
							"details": "The caller account is not authorized to perform an operation."
						}
					]
				},
				"kind": "dev",
				"methods": {
					"owner()": {
						"details": "Returns the address of the current owner."
					},
					"renounceOwnership()": {
						"details": "Leaves the contract without owner. It will not be possible to call `onlyOwner` functions. Can only be called by the current owner. NOTE: Renouncing ownership will leave the contract without an owner, thereby disabling any functionality that is only available to the owner."
					},
					"transferOwnership(address)": {
						"details": "Transfers ownership of the contract to a new account (`newOwner`). Can only be called by the current owner."
					}
				},
				"version": 1
			},
			"evm": {
				"assembly": "    /* \"NummoraCore.sol\":642:8175  contract NummoraCore is ReentrancyGuard, Ownable {... */\n  mstore(0x40, 0x80)\n    /* \"NummoraCore.sol\":1376:1377  1 */\n  0x01\n    /* \"NummoraCore.sol\":1348:1377  uint256 public nextLoanId = 1 */\n  0x08\n  sstore\n    /* \"NummoraCore.sol\":1405:1408  200 */\n  0xc8\n    /* \"NummoraCore.sol\":1384:1408  uint256 public fee = 200 */\n  0x09\n  sstore\n    /* \"NummoraCore.sol\":1842:2445  constructor(address _numus, address _nft) Ownable(msg.sender) {... */\n  callvalue\n  dup1\n  iszero\n  tag_1\n  jumpi\n  revert(0x00, 0x00)\ntag_1:\n  pop\n  mload(0x40)\n  sub(codesize, bytecodeSize)\n  dup1\n  bytecodeSize\n  dup4\n  codecopy\n  dup2\n  dup2\n  add\n  0x40\n  mstore\n  dup2\n  add\n  swap1\n  tag_2\n  swap2\n  swap1\n  tag_3\n  jump\t// in\ntag_2:\n    /* \"NummoraCore.sol\":1892:1902  msg.sender */\n  caller\n    /* \"@openzeppelin/contracts/security/ReentrancyGuard.sol\":1716:1717  1 */\n  0x01\n    /* \"@openzeppelin/contracts/security/ReentrancyGuard.sol\":1821:1828  _status */\n  0x00\n    /* \"@openzeppelin/contracts/security/ReentrancyGuard.sol\":1821:1843  _status = _NOT_ENTERED */\n  dup2\n  swap1\n  sstore\n  pop\n    /* \"@openzeppelin/contracts/access/Ownable.sol\":1297:1298  0 */\n  0x00\n    /* \"@openzeppelin/contracts/access/Ownable.sol\":1273:1299  initialOwner == address(0) */\n  0xffffffffffffffffffffffffffffffffffffffff\n  and\n    /* \"@openzeppelin/contracts/access/Ownable.sol\":1273:1285  initialOwner */\n  dup2\n    /* \"@openzeppelin/contracts/access/Ownable.sol\":1273:1299  initialOwner == address(0) */\n  0xffffffffffffffffffffffffffffffffffffffff\n  and\n  sub\n    /* \"@openzeppelin/contracts/access/Ownable.sol\":1269:1364  if (initialOwner == address(0)) {... */\n  tag_9\n  jumpi\n    /* \"@openzeppelin/contracts/access/Ownable.sol\":1350:1351  0 */\n  0x00\n    /* \"@openzeppelin/contracts/access/Ownable.sol\":1322:1353  OwnableInvalidOwner(address(0)) */\n  mload(0x40)\n  0x1e4fbdf700000000000000000000000000000000000000000000000000000000\n  dup2\n  mstore\n  0x04\n  add\n  tag_10\n  swap2\n  swap1\n  tag_11\n  jump\t// in\ntag_10:\n  mload(0x40)\n  dup1\n  swap2\n  sub\n  swap1\n  revert\n    /* \"@openzeppelin/contracts/access/Ownable.sol\":1269:1364  if (initialOwner == address(0)) {... */\ntag_9:\n    /* \"@openzeppelin/contracts/access/Ownable.sol\":1373:1405  _transferOwnership(initialOwner) */\n  tag_12\n    /* \"@openzeppelin/contracts/access/Ownable.sol\":1392:1404  initialOwner */\n  dup2\n    /* \"@openzeppelin/contracts/access/Ownable.sol\":1373:1391  _transferOwnership */\n  shl(0x20, tag_13)\n    /* \"@openzeppelin/contracts/access/Ownable.sol\":1373:1405  _transferOwnership(initialOwner) */\n  0x20\n  shr\n  jump\t// in\ntag_12:\n    /* \"@openzeppelin/contracts/access/Ownable.sol\":1225:1412  constructor(address initialOwner) {... */\n  pop\n    /* \"NummoraCore.sol\":1940:1946  _numus */\n  dup2\n    /* \"NummoraCore.sol\":1915:1925  numusToken */\n  0x02\n  0x00\n    /* \"NummoraCore.sol\":1915:1947  numusToken = INUMUSToken(_numus) */\n  0x0100\n  exp\n  dup2\n  sload\n  dup2\n  0xffffffffffffffffffffffffffffffffffffffff\n  mul\n  not\n  and\n  swap1\n  dup4\n  0xffffffffffffffffffffffffffffffffffffffff\n  and\n  mul\n  or\n  swap1\n  sstore\n  pop\n    /* \"NummoraCore.sol\":1977:1981  _nft */\n  dup1\n    /* \"NummoraCore.sol\":1958:1965  loanNFT */\n  0x03\n  0x00\n    /* \"NummoraCore.sol\":1958:1982  loanNFT = ILoanNFT(_nft) */\n  0x0100\n  exp\n  dup2\n  sload\n  dup2\n  0xffffffffffffffffffffffffffffffffffffffff\n  mul\n  not\n  and\n  swap1\n  dup4\n  0xffffffffffffffffffffffffffffffffffffffff\n  and\n  mul\n  or\n  swap1\n  sstore\n  pop\n    /* \"NummoraCore.sol\":2100:2104  true */\n  0x01\n    /* \"NummoraCore.sol\":2042:2053  stablecoins */\n  0x07\n    /* \"NummoraCore.sol\":2042:2097  stablecoins[0xe6A57340f0df6E020c1c0a80bC6E13048601f0d4] */\n  0x00\n    /* \"NummoraCore.sol\":2054:2096  0xe6A57340f0df6E020c1c0a80bC6E13048601f0d4 */\n  0xe6a57340f0df6e020c1c0a80bc6e13048601f0d4\n    /* \"NummoraCore.sol\":2042:2097  stablecoins[0xe6A57340f0df6E020c1c0a80bC6E13048601f0d4] */\n  0xffffffffffffffffffffffffffffffffffffffff\n  and\n  0xffffffffffffffffffffffffffffffffffffffff\n  and\n  dup2\n  mstore\n  0x20\n  add\n  swap1\n  dup2\n  mstore\n  0x20\n  add\n  0x00\n  keccak256\n  0x00\n    /* \"NummoraCore.sol\":2042:2104  stablecoins[0xe6A57340f0df6E020c1c0a80bC6E13048601f0d4] = true */\n  0x0100\n  exp\n  dup2\n  sload\n  dup2\n  0xff\n  mul\n  not\n  and\n  swap1\n  dup4\n  iszero\n  iszero\n  mul\n  or\n  swap1\n  sstore\n  pop\n    /* \"NummoraCore.sol\":2183:2188  false */\n  0x00\n    /* \"NummoraCore.sol\":2125:2136  stablecoins */\n  0x07\n    /* \"NummoraCore.sol\":2125:2180  stablecoins[0x641b9a432fEccAA89123951339D1941D792bf65f] */\n  0x00\n    /* \"NummoraCore.sol\":2137:2179  0x641b9a432fEccAA89123951339D1941D792bf65f */\n  0x641b9a432feccaa89123951339d1941d792bf65f\n    /* \"NummoraCore.sol\":2125:2180  stablecoins[0x641b9a432fEccAA89123951339D1941D792bf65f] */\n  0xffffffffffffffffffffffffffffffffffffffff\n  and\n  0xffffffffffffffffffffffffffffffffffffffff\n  and\n  dup2\n  mstore\n  0x20\n  add\n  swap1\n  dup2\n  mstore\n  0x20\n  add\n  0x00\n  keccak256\n  0x00\n    /* \"NummoraCore.sol\":2125:2188  stablecoins[0x641b9a432fEccAA89123951339D1941D792bf65f] = false */\n  0x0100\n  exp\n  dup2\n  sload\n  dup2\n  0xff\n  mul\n  not\n  and\n  swap1\n  dup4\n  iszero\n  iszero\n  mul\n  or\n  swap1\n  sstore\n  pop\n    /* \"NummoraCore.sol\":2271:2275  true */\n  0x01\n    /* \"NummoraCore.sol\":2213:2224  stablecoins */\n  0x07\n    /* \"NummoraCore.sol\":2213:2268  stablecoins[0xB4630414268949dd89D335a66be40819D2db0C5c] */\n  0x00\n    /* \"NummoraCore.sol\":2225:2267  0xB4630414268949dd89D335a66be40819D2db0C5c */\n  0xb4630414268949dd89d335a66be40819d2db0c5c\n    /* \"NummoraCore.sol\":2213:2268  stablecoins[0xB4630414268949dd89D335a66be40819D2db0C5c] */\n  0xffffffffffffffffffffffffffffffffffffffff\n  and\n  0xffffffffffffffffffffffffffffffffffffffff\n  and\n  dup2\n  mstore\n  0x20\n  add\n  swap1\n  dup2\n  mstore\n  0x20\n  add\n  0x00\n  keccak256\n  0x00\n    /* \"NummoraCore.sol\":2213:2275  stablecoins[0xB4630414268949dd89D335a66be40819D2db0C5c] = true */\n  0x0100\n  exp\n  dup2\n  sload\n  dup2\n  0xff\n  mul\n  not\n  and\n  swap1\n  dup4\n  iszero\n  iszero\n  mul\n  or\n  swap1\n  sstore\n  pop\n    /* \"NummoraCore.sol\":1842:2445  constructor(address _numus, address _nft) Ownable(msg.sender) {... */\n  pop\n  pop\n    /* \"NummoraCore.sol\":642:8175  contract NummoraCore is ReentrancyGuard, Ownable {... */\n  jump(tag_15)\n    /* \"@openzeppelin/contracts/access/Ownable.sol\":2912:3099  function _transferOwnership(address newOwner) internal virtual {... */\ntag_13:\n    /* \"@openzeppelin/contracts/access/Ownable.sol\":2985:3001  address oldOwner */\n  0x00\n    /* \"@openzeppelin/contracts/access/Ownable.sol\":3004:3010  _owner */\n  0x01\n  0x00\n  swap1\n  sload\n  swap1\n  0x0100\n  exp\n  swap1\n  div\n  0xffffffffffffffffffffffffffffffffffffffff\n  and\n    /* \"@openzeppelin/contracts/access/Ownable.sol\":2985:3010  address oldOwner = _owner */\n  swap1\n  pop\n    /* \"@openzeppelin/contracts/access/Ownable.sol\":3029:3037  newOwner */\n  dup2\n    /* \"@openzeppelin/contracts/access/Ownable.sol\":3020:3026  _owner */\n  0x01\n  0x00\n    /* \"@openzeppelin/contracts/access/Ownable.sol\":3020:3037  _owner = newOwner */\n  0x0100\n  exp\n  dup2\n  sload\n  dup2\n  0xffffffffffffffffffffffffffffffffffffffff\n  mul\n  not\n  and\n  swap1\n  dup4\n  0xffffffffffffffffffffffffffffffffffffffff\n  and\n  mul\n  or\n  swap1\n  sstore\n  pop\n    /* \"@openzeppelin/contracts/access/Ownable.sol\":3083:3091  newOwner */\n  dup2\n    /* \"@openzeppelin/contracts/access/Ownable.sol\":3052:3092  OwnershipTransferred(oldOwner, newOwner) */\n  0xffffffffffffffffffffffffffffffffffffffff\n  and\n    /* \"@openzeppelin/contracts/access/Ownable.sol\":3073:3081  oldOwner */\n  dup2\n    /* \"@openzeppelin/contracts/access/Ownable.sol\":3052:3092  OwnershipTransferred(oldOwner, newOwner) */\n  0xffffffffffffffffffffffffffffffffffffffff\n  and\n  0x8be0079c531659141344cd1fd0a4f28419497f9722a3daafe3b4186f6b6457e0\n  mload(0x40)\n  mload(0x40)\n  dup1\n  swap2\n  sub\n  swap1\n  log3\n    /* \"@openzeppelin/contracts/access/Ownable.sol\":2975:3099  {... */\n  pop\n    /* \"@openzeppelin/contracts/access/Ownable.sol\":2912:3099  function _transferOwnership(address newOwner) internal virtual {... */\n  pop\n  jump\t// out\n    /* \"#utility.yul\":88:205   */\ntag_18:\n    /* \"#utility.yul\":197:198   */\n  0x00\n    /* \"#utility.yul\":194:195   */\n  0x00\n    /* \"#utility.yul\":187:199   */\n  revert\n    /* \"#utility.yul\":334:460   */\ntag_20:\n    /* \"#utility.yul\":371:378   */\n  0x00\n    /* \"#utility.yul\":411:453   */\n  0xffffffffffffffffffffffffffffffffffffffff\n    /* \"#utility.yul\":404:409   */\n  dup3\n    /* \"#utility.yul\":400:454   */\n  and\n    /* \"#utility.yul\":389:454   */\n  swap1\n  pop\n    /* \"#utility.yul\":334:460   */\n  swap2\n  swap1\n  pop\n  jump\t// out\n    /* \"#utility.yul\":466:562   */\ntag_21:\n    /* \"#utility.yul\":503:510   */\n  0x00\n    /* \"#utility.yul\":532:556   */\n  tag_31\n    /* \"#utility.yul\":550:555   */\n  dup3\n    /* \"#utility.yul\":532:556   */\n  tag_20\n  jump\t// in\ntag_31:\n    /* \"#utility.yul\":521:556   */\n  swap1\n  pop\n    /* \"#utility.yul\":466:562   */\n  swap2\n  swap1\n  pop\n  jump\t// out\n    /* \"#utility.yul\":568:690   */\ntag_22:\n    /* \"#utility.yul\":641:665   */\n  tag_33\n    /* \"#utility.yul\":659:664   */\n  dup2\n    /* \"#utility.yul\":641:665   */\n  tag_21\n  jump\t// in\ntag_33:\n    /* \"#utility.yul\":634:639   */\n  dup2\n    /* \"#utility.yul\":631:666   */\n  eq\n    /* \"#utility.yul\":621:684   */\n  tag_34\n  jumpi\n    /* \"#utility.yul\":680:681   */\n  0x00\n    /* \"#utility.yul\":677:678   */\n  0x00\n    /* \"#utility.yul\":670:682   */\n  revert\n    /* \"#utility.yul\":621:684   */\ntag_34:\n    /* \"#utility.yul\":568:690   */\n  pop\n  jump\t// out\n    /* \"#utility.yul\":696:839   */\ntag_23:\n    /* \"#utility.yul\":753:758   */\n  0x00\n    /* \"#utility.yul\":784:790   */\n  dup2\n    /* \"#utility.yul\":778:791   */\n  mload\n    /* \"#utility.yul\":769:791   */\n  swap1\n  pop\n    /* \"#utility.yul\":800:833   */\n  tag_36\n    /* \"#utility.yul\":827:832   */\n  dup2\n    /* \"#utility.yul\":800:833   */\n  tag_22\n  jump\t// in\ntag_36:\n    /* \"#utility.yul\":696:839   */\n  swap3\n  swap2\n  pop\n  pop\n  jump\t// out\n    /* \"#utility.yul\":845:1352   */\ntag_3:\n    /* \"#utility.yul\":924:930   */\n  0x00\n    /* \"#utility.yul\":932:938   */\n  0x00\n    /* \"#utility.yul\":981:983   */\n  0x40\n    /* \"#utility.yul\":969:978   */\n  dup4\n    /* \"#utility.yul\":960:967   */\n  dup6\n    /* \"#utility.yul\":956:979   */\n  sub\n    /* \"#utility.yul\":952:984   */\n  slt\n    /* \"#utility.yul\":949:1068   */\n  iszero\n  tag_38\n  jumpi\n    /* \"#utility.yul\":987:1066   */\n  tag_39\n  tag_18\n  jump\t// in\ntag_39:\n    /* \"#utility.yul\":949:1068   */\ntag_38:\n    /* \"#utility.yul\":1107:1108   */\n  0x00\n    /* \"#utility.yul\":1132:1196   */\n  tag_40\n    /* \"#utility.yul\":1188:1195   */\n  dup6\n    /* \"#utility.yul\":1179:1185   */\n  dup3\n    /* \"#utility.yul\":1168:1177   */\n  dup7\n    /* \"#utility.yul\":1164:1186   */\n  add\n    /* \"#utility.yul\":1132:1196   */\n  tag_23\n  jump\t// in\ntag_40:\n    /* \"#utility.yul\":1122:1196   */\n  swap3\n  pop\n    /* \"#utility.yul\":1078:1206   */\n  pop\n    /* \"#utility.yul\":1245:1247   */\n  0x20\n    /* \"#utility.yul\":1271:1335   */\n  tag_41\n    /* \"#utility.yul\":1327:1334   */\n  dup6\n    /* \"#utility.yul\":1318:1324   */\n  dup3\n    /* \"#utility.yul\":1307:1316   */\n  dup7\n    /* \"#utility.yul\":1303:1325   */\n  add\n    /* \"#utility.yul\":1271:1335   */\n  tag_23\n  jump\t// in\ntag_41:\n    /* \"#utility.yul\":1261:1335   */\n  swap2\n  pop\n    /* \"#utility.yul\":1216:1345   */\n  pop\n    /* \"#utility.yul\":845:1352   */\n  swap3\n  pop\n  swap3\n  swap1\n  pop\n  jump\t// out\n    /* \"#utility.yul\":1358:1476   */\ntag_24:\n    /* \"#utility.yul\":1445:1469   */\n  tag_43\n    /* \"#utility.yul\":1463:1468   */\n  dup2\n    /* \"#utility.yul\":1445:1469   */\n  tag_21\n  jump\t// in\ntag_43:\n    /* \"#utility.yul\":1440:1443   */\n  dup3\n    /* \"#utility.yul\":1433:1470   */\n  mstore\n    /* \"#utility.yul\":1358:1476   */\n  pop\n  pop\n  jump\t// out\n    /* \"#utility.yul\":1482:1704   */\ntag_11:\n    /* \"#utility.yul\":1575:1579   */\n  0x00\n    /* \"#utility.yul\":1613:1615   */\n  0x20\n    /* \"#utility.yul\":1602:1611   */\n  dup3\n    /* \"#utility.yul\":1598:1616   */\n  add\n    /* \"#utility.yul\":1590:1616   */\n  swap1\n  pop\n    /* \"#utility.yul\":1626:1697   */\n  tag_45\n    /* \"#utility.yul\":1694:1695   */\n  0x00\n    /* \"#utility.yul\":1683:1692   */\n  dup4\n    /* \"#utility.yul\":1679:1696   */\n  add\n    /* \"#utility.yul\":1670:1676   */\n  dup5\n    /* \"#utility.yul\":1626:1697   */\n  tag_24\n  jump\t// in\ntag_45:\n    /* \"#utility.yul\":1482:1704   */\n  swap3\n  swap2\n  pop\n  pop\n  jump\t// out\n    /* \"NummoraCore.sol\":642:8175  contract NummoraCore is ReentrancyGuard, Ownable {... */\ntag_15:\n  dataSize(sub_0)\n  dup1\n  dataOffset(sub_0)\n  0x00\n  codecopy\n  0x00\n  return\nstop\n\nsub_0: assembly {\n        /* \"NummoraCore.sol\":642:8175  contract NummoraCore is ReentrancyGuard, Ownable {... */\n      mstore(0x40, 0x80)\n      callvalue\n      dup1\n      iszero\n      tag_1\n      jumpi\n      revert(0x00, 0x00)\n    tag_1:\n      pop\n      jumpi(tag_2, lt(calldatasize, 0x04))\n      shr(0xe0, calldataload(0x00))\n      dup1\n      0x95ccea67\n      gt\n      tag_28\n      jumpi\n      dup1\n      0xe831878d\n      gt\n      tag_29\n      jumpi\n      dup1\n      0xf3fef3a3\n      gt\n      tag_30\n      jumpi\n      dup1\n      0xf3fef3a3\n      eq\n      tag_24\n      jumpi\n      dup1\n      0xf8b2cb4f\n      eq\n      tag_25\n      jumpi\n      dup1\n      0xfa847836\n      eq\n      tag_26\n      jumpi\n      dup1\n      0xfbfd9a77\n      eq\n      tag_27\n      jumpi\n      jump(tag_2)\n    tag_30:\n      dup1\n      0xe831878d\n      eq\n      tag_21\n      jumpi\n      dup1\n      0xeaf6e483\n      eq\n      tag_22\n      jumpi\n      dup1\n      0xf2fde38b\n      eq\n      tag_23\n      jumpi\n      jump(tag_2)\n    tag_29:\n      dup1\n      0x95ccea67\n      eq\n      tag_15\n      jumpi\n      dup1\n      0xbf5d50c4\n      eq\n      tag_16\n      jumpi\n      dup1\n      0xddca3f43\n      eq\n      tag_17\n      jumpi\n      dup1\n      0xe04640d2\n      eq\n      tag_18\n      jumpi\n      dup1\n      0xe1ec3c68\n      eq\n      tag_19\n      jumpi\n      dup1\n      0xe2f8a017\n      eq\n      tag_20\n      jumpi\n      jump(tag_2)\n    tag_28:\n      dup1\n      0x709b8961\n      gt\n      tag_31\n      jumpi\n      dup1\n      0x709b8961\n      eq\n      tag_9\n      jumpi\n      dup1\n      0x715018a6\n      eq\n      tag_10\n      jumpi\n      dup1\n      0x7df21f7a\n      eq\n      tag_11\n      jumpi\n      dup1\n      0x87c51459\n      eq\n      tag_12\n      jumpi\n      dup1\n      0x8da5cb5b\n      eq\n      tag_13\n      jumpi\n      dup1\n      0x9012c4a8\n      eq\n      tag_14\n      jumpi\n      jump(tag_2)\n    tag_31:\n      dup1\n      0x0418945a\n      eq\n      tag_3\n      jumpi\n      dup1\n      0x28fd10d7\n      eq\n      tag_4\n      jumpi\n      dup1\n      0x2cf340af\n      eq\n      tag_5\n      jumpi\n      dup1\n      0x34a41177\n      eq\n      tag_6\n      jumpi\n      dup1\n      0x47e7ef24\n      eq\n      tag_7\n      jumpi\n      dup1\n      0x504006ca\n      eq\n      tag_8\n      jumpi\n    tag_2:\n      revert(0x00, 0x00)\n        /* \"NummoraCore.sol\":7775:7876  function addStablecoin(address token) external onlyOwner {... */\n    tag_3:\n      tag_32\n      0x04\n      dup1\n      calldatasize\n      sub\n      dup2\n      add\n      swap1\n      tag_33\n      swap2\n      swap1\n      tag_34\n      jump\t// in\n    tag_33:\n      tag_35\n      jump\t// in\n    tag_32:\n      stop\n        /* \"NummoraCore.sol\":1202:1241  mapping(address => bool) public lenders */\n    tag_4:\n      tag_36\n      0x04\n      dup1\n      calldatasize\n      sub\n      dup2\n      add\n      swap1\n      tag_37\n      swap2\n      swap1\n      tag_34\n      jump\t// in\n    tag_37:\n      tag_38\n      jump\t// in\n    tag_36:\n      mload(0x40)\n      tag_39\n      swap2\n      swap1\n      tag_40\n      jump\t// in\n    tag_39:\n      mload(0x40)\n      dup1\n      swap2\n      sub\n      swap1\n      return\n        /* \"NummoraCore.sol\":5722:6868  function payEarly(uint256 loanId) external nonReentrant {... */\n    tag_5:\n      tag_41\n      0x04\n      dup1\n      calldatasize\n      sub\n      dup2\n      add\n      swap1\n      tag_42\n      swap2\n      swap1\n      tag_43\n      jump\t// in\n    tag_42:\n      tag_44\n      jump\t// in\n    tag_41:\n      stop\n        /* \"NummoraCore.sol\":1126:1149  ILoanNFT public loanNFT */\n    tag_6:\n      tag_45\n      tag_46\n      jump\t// in\n    tag_45:\n      mload(0x40)\n      tag_47\n      swap2\n      swap1\n      tag_48\n      jump\t// in\n    tag_47:\n      mload(0x40)\n      dup1\n      swap2\n      sub\n      swap1\n      return\n        /* \"NummoraCore.sol\":2776:3152  function deposit(address token, uint256 amount) external nonReentrant {... */\n    tag_7:\n      tag_49\n      0x04\n      dup1\n      calldatasize\n      sub\n      dup2\n      add\n      swap1\n      tag_50\n      swap2\n      swap1\n      tag_51\n      jump\t// in\n    tag_50:\n      tag_52\n      jump\t// in\n    tag_49:\n      stop\n        /* \"NummoraCore.sol\":7251:7359  function getLoan(uint256 loanId) external view returns (Loan memory) {... */\n    tag_8:\n      tag_53\n      0x04\n      dup1\n      calldatasize\n      sub\n      dup2\n      add\n      swap1\n      tag_54\n      swap2\n      swap1\n      tag_43\n      jump\t// in\n    tag_54:\n      tag_55\n      jump\t// in\n    tag_53:\n      mload(0x40)\n      tag_56\n      swap2\n      swap1\n      tag_57\n      jump\t// in\n    tag_56:\n      mload(0x40)\n      dup1\n      swap2\n      sub\n      swap1\n      return\n        /* \"NummoraCore.sol\":7501:7601  function isLender(address user) external view returns (bool) {... */\n    tag_9:\n      tag_58\n      0x04\n      dup1\n      calldatasize\n      sub\n      dup2\n      add\n      swap1\n      tag_59\n      swap2\n      swap1\n      tag_34\n      jump\t// in\n    tag_59:\n      tag_60\n      jump\t// in\n    tag_58:\n      mload(0x40)\n      tag_61\n      swap2\n      swap1\n      tag_40\n      jump\t// in\n    tag_61:\n      mload(0x40)\n      dup1\n      swap2\n      sub\n      swap1\n      return\n        /* \"@openzeppelin/contracts/access/Ownable.sol\":2293:2394  function renounceOwnership() public virtual onlyOwner {... */\n    tag_10:\n      tag_62\n      tag_63\n      jump\t// in\n    tag_62:\n      stop\n        /* \"NummoraCore.sol\":2502:2626  function registerLender() external {... */\n    tag_11:\n      tag_64\n      tag_65\n      jump\t// in\n    tag_64:\n      stop\n        /* \"NummoraCore.sol\":1348:1377  uint256 public nextLoanId = 1 */\n    tag_12:\n      tag_66\n      tag_67\n      jump\t// in\n    tag_66:\n      mload(0x40)\n      tag_68\n      swap2\n      swap1\n      tag_69\n      jump\t// in\n    tag_68:\n      mload(0x40)\n      dup1\n      swap2\n      sub\n      swap1\n      return\n        /* \"@openzeppelin/contracts/access/Ownable.sol\":1638:1723  function owner() public view virtual returns (address) {... */\n    tag_13:\n      tag_70\n      tag_71\n      jump\t// in\n    tag_70:\n      mload(0x40)\n      tag_72\n      swap2\n      swap1\n      tag_73\n      jump\t// in\n    tag_72:\n      mload(0x40)\n      dup1\n      swap2\n      sub\n      swap1\n      return\n        /* \"NummoraCore.sol\":7888:8023  function updateFee(uint256 newFee) external onlyOwner {... */\n    tag_14:\n      tag_74\n      0x04\n      dup1\n      calldatasize\n      sub\n      dup2\n      add\n      swap1\n      tag_75\n      swap2\n      swap1\n      tag_43\n      jump\t// in\n    tag_75:\n      tag_76\n      jump\t// in\n    tag_74:\n      stop\n        /* \"NummoraCore.sol\":8035:8170  function emergencyWithdraw(address token, uint256 amount) external onlyOwner {... */\n    tag_15:\n      tag_77\n      0x04\n      dup1\n      calldatasize\n      sub\n      dup2\n      add\n      swap1\n      tag_78\n      swap2\n      swap1\n      tag_51\n      jump\t// in\n    tag_78:\n      tag_79\n      jump\t// in\n    tag_77:\n      stop\n        /* \"NummoraCore.sol\":1248:1289  mapping(address => bool) public borrowers */\n    tag_16:\n      tag_80\n      0x04\n      dup1\n      calldatasize\n      sub\n      dup2\n      add\n      swap1\n      tag_81\n      swap2\n      swap1\n      tag_34\n      jump\t// in\n    tag_81:\n      tag_82\n      jump\t// in\n    tag_80:\n      mload(0x40)\n      tag_83\n      swap2\n      swap1\n      tag_40\n      jump\t// in\n    tag_83:\n      mload(0x40)\n      dup1\n      swap2\n      sub\n      swap1\n      return\n        /* \"NummoraCore.sol\":1384:1408  uint256 public fee = 200 */\n    tag_17:\n      tag_84\n      tag_85\n      jump\t// in\n    tag_84:\n      mload(0x40)\n      tag_86\n      swap2\n      swap1\n      tag_69\n      jump\t// in\n    tag_86:\n      mload(0x40)\n      dup1\n      swap2\n      sub\n      swap1\n      return\n        /* \"NummoraCore.sol\":3575:5013  function createLoan(... */\n    tag_18:\n      tag_87\n      0x04\n      dup1\n      calldatasize\n      sub\n      dup2\n      add\n      swap1\n      tag_88\n      swap2\n      swap1\n      tag_89\n      jump\t// in\n    tag_88:\n      tag_90\n      jump\t// in\n    tag_87:\n      mload(0x40)\n      tag_91\n      swap2\n      swap1\n      tag_69\n      jump\t// in\n    tag_91:\n      mload(0x40)\n      dup1\n      swap2\n      sub\n      swap1\n      return\n        /* \"NummoraCore.sol\":1158:1195  mapping(uint256 => Loan) public loans */\n    tag_19:\n      tag_92\n      0x04\n      dup1\n      calldatasize\n      sub\n      dup2\n      add\n      swap1\n      tag_93\n      swap2\n      swap1\n      tag_43\n      jump\t// in\n    tag_93:\n      tag_94\n      jump\t// in\n    tag_92:\n      mload(0x40)\n      tag_95\n      swap13\n      swap12\n      swap11\n      swap10\n      swap9\n      swap8\n      swap7\n      swap6\n      swap5\n      swap4\n      swap3\n      swap2\n      swap1\n      tag_96\n      jump\t// in\n    tag_95:\n      mload(0x40)\n      dup1\n      swap2\n      sub\n      swap1\n      return\n        /* \"NummoraCore.sol\":5021:5710  function payInstallment(uint256 loanId) external nonReentrant {... */\n    tag_20:\n      tag_97\n      0x04\n      dup1\n      calldatasize\n      sub\n      dup2\n      add\n      swap1\n      tag_98\n      swap2\n      swap1\n      tag_43\n      jump\t// in\n    tag_98:\n      tag_99\n      jump\t// in\n    tag_97:\n      stop\n        /* \"NummoraCore.sol\":2638:2768  function registerBorrower() external {... */\n    tag_21:\n      tag_100\n      tag_101\n      jump\t// in\n    tag_100:\n      stop\n        /* \"NummoraCore.sol\":7613:7717  function isBorrower(address user) external view returns (bool) {... */\n    tag_22:\n      tag_102\n      0x04\n      dup1\n      calldatasize\n      sub\n      dup2\n      add\n      swap1\n      tag_103\n      swap2\n      swap1\n      tag_34\n      jump\t// in\n    tag_103:\n      tag_104\n      jump\t// in\n    tag_102:\n      mload(0x40)\n      tag_105\n      swap2\n      swap1\n      tag_40\n      jump\t// in\n    tag_105:\n      mload(0x40)\n      dup1\n      swap2\n      sub\n      swap1\n      return\n        /* \"@openzeppelin/contracts/access/Ownable.sol\":2543:2758  function transferOwnership(address newOwner) public virtual onlyOwner {... */\n    tag_23:\n      tag_106\n      0x04\n      dup1\n      calldatasize\n      sub\n      dup2\n      add\n      swap1\n      tag_107\n      swap2\n      swap1\n      tag_34\n      jump\t// in\n    tag_107:\n      tag_108\n      jump\t// in\n    tag_106:\n      stop\n        /* \"NummoraCore.sol\":3160:3495  function withdraw(address token, uint256 amount) external nonReentrant {... */\n    tag_24:\n      tag_109\n      0x04\n      dup1\n      calldatasize\n      sub\n      dup2\n      add\n      swap1\n      tag_110\n      swap2\n      swap1\n      tag_51\n      jump\t// in\n    tag_110:\n      tag_111\n      jump\t// in\n    tag_109:\n      stop\n        /* \"NummoraCore.sol\":7371:7489  function getBalance(address user) external view returns (uint256) {... */\n    tag_25:\n      tag_112\n      0x04\n      dup1\n      calldatasize\n      sub\n      dup2\n      add\n      swap1\n      tag_113\n      swap2\n      swap1\n      tag_34\n      jump\t// in\n    tag_113:\n      tag_114\n      jump\t// in\n    tag_112:\n      mload(0x40)\n      tag_115\n      swap2\n      swap1\n      tag_69\n      jump\t// in\n    tag_115:\n      mload(0x40)\n      dup1\n      swap2\n      sub\n      swap1\n      return\n        /* \"NummoraCore.sol\":1296:1339  mapping(address => bool) public stablecoins */\n    tag_26:\n      tag_116\n      0x04\n      dup1\n      calldatasize\n      sub\n      dup2\n      add\n      swap1\n      tag_117\n      swap2\n      swap1\n      tag_34\n      jump\t// in\n    tag_117:\n      tag_118\n      jump\t// in\n    tag_116:\n      mload(0x40)\n      tag_119\n      swap2\n      swap1\n      tag_40\n      jump\t// in\n    tag_119:\n      mload(0x40)\n      dup1\n      swap2\n      sub\n      swap1\n      return\n        /* \"NummoraCore.sol\":1090:1119  INUMUSToken public numusToken */\n    tag_27:\n      tag_120\n      tag_121\n      jump\t// in\n    tag_120:\n      mload(0x40)\n      tag_122\n      swap2\n      swap1\n      tag_123\n      jump\t// in\n    tag_122:\n      mload(0x40)\n      dup1\n      swap2\n      sub\n      swap1\n      return\n        /* \"NummoraCore.sol\":7775:7876  function addStablecoin(address token) external onlyOwner {... */\n    tag_35:\n        /* \"@openzeppelin/contracts/access/Ownable.sol\":1531:1544  _checkOwner() */\n      tag_125\n        /* \"@openzeppelin/contracts/access/Ownable.sol\":1531:1542  _checkOwner */\n      tag_126\n        /* \"@openzeppelin/contracts/access/Ownable.sol\":1531:1544  _checkOwner() */\n      jump\t// in\n    tag_125:\n        /* \"NummoraCore.sol\":7864:7868  true */\n      0x01\n        /* \"NummoraCore.sol\":7843:7854  stablecoins */\n      0x07\n        /* \"NummoraCore.sol\":7843:7861  stablecoins[token] */\n      0x00\n        /* \"NummoraCore.sol\":7855:7860  token */\n      dup4\n        /* \"NummoraCore.sol\":7843:7861  stablecoins[token] */\n      0xffffffffffffffffffffffffffffffffffffffff\n      and\n      0xffffffffffffffffffffffffffffffffffffffff\n      and\n      dup2\n      mstore\n      0x20\n      add\n      swap1\n      dup2\n      mstore\n      0x20\n      add\n      0x00\n      keccak256\n      0x00\n        /* \"NummoraCore.sol\":7843:7868  stablecoins[token] = true */\n      0x0100\n      exp\n      dup2\n      sload\n      dup2\n      0xff\n      mul\n      not\n      and\n      swap1\n      dup4\n      iszero\n      iszero\n      mul\n      or\n      swap1\n      sstore\n      pop\n        /* \"NummoraCore.sol\":7775:7876  function addStablecoin(address token) external onlyOwner {... */\n      pop\n      jump\t// out\n        /* \"NummoraCore.sol\":1202:1241  mapping(address => bool) public lenders */\n    tag_38:\n      mstore(0x20, 0x05)\n      dup1\n      0x00\n      mstore\n      keccak256(0x00, 0x40)\n      0x00\n      swap2\n      pop\n      sload\n      swap1\n      0x0100\n      exp\n      swap1\n      div\n      0xff\n      and\n      dup2\n      jump\t// out\n        /* \"NummoraCore.sol\":5722:6868  function payEarly(uint256 loanId) external nonReentrant {... */\n    tag_44:\n        /* \"@openzeppelin/contracts/security/ReentrancyGuard.sol\":2261:2282  _nonReentrantBefore() */\n      tag_129\n        /* \"@openzeppelin/contracts/security/ReentrancyGuard.sol\":2261:2280  _nonReentrantBefore */\n      tag_130\n        /* \"@openzeppelin/contracts/security/ReentrancyGuard.sol\":2261:2282  _nonReentrantBefore() */\n      jump\t// in\n    tag_129:\n        /* \"NummoraCore.sol\":5789:5806  Loan storage loan */\n      0x00\n        /* \"NummoraCore.sol\":5809:5814  loans */\n      0x04\n        /* \"NummoraCore.sol\":5809:5822  loans[loanId] */\n      0x00\n        /* \"NummoraCore.sol\":5815:5821  loanId */\n      dup4\n        /* \"NummoraCore.sol\":5809:5822  loans[loanId] */\n      dup2\n      mstore\n      0x20\n      add\n      swap1\n      dup2\n      mstore\n      0x20\n      add\n      0x00\n      keccak256\n        /* \"NummoraCore.sol\":5789:5822  Loan storage loan = loans[loanId] */\n      swap1\n      pop\n        /* \"NummoraCore.sol\":5841:5845  loan */\n      dup1\n        /* \"NummoraCore.sol\":5841:5852  loan.active */\n      0x0a\n      add\n      0x00\n      swap1\n      sload\n      swap1\n      0x0100\n      exp\n      swap1\n      div\n      0xff\n      and\n        /* \"NummoraCore.sol\":5833:5872  require(loan.active, \"Loan not active\") */\n      tag_132\n      jumpi\n      mload(0x40)\n      0x08c379a000000000000000000000000000000000000000000000000000000000\n      dup2\n      mstore\n      0x04\n      add\n      tag_133\n      swap1\n      tag_134\n      jump\t// in\n    tag_133:\n      mload(0x40)\n      dup1\n      swap2\n      sub\n      swap1\n      revert\n    tag_132:\n        /* \"NummoraCore.sol\":5908:5918  msg.sender */\n      caller\n        /* \"NummoraCore.sol\":5891:5918  loan.borrower == msg.sender */\n      0xffffffffffffffffffffffffffffffffffffffff\n      and\n        /* \"NummoraCore.sol\":5891:5895  loan */\n      dup2\n        /* \"NummoraCore.sol\":5891:5904  loan.borrower */\n      0x01\n      add\n      0x00\n      swap1\n      sload\n      swap1\n      0x0100\n      exp\n      swap1\n      div\n      0xffffffffffffffffffffffffffffffffffffffff\n      and\n        /* \"NummoraCore.sol\":5891:5918  loan.borrower == msg.sender */\n      0xffffffffffffffffffffffffffffffffffffffff\n      and\n      eq\n        /* \"NummoraCore.sol\":5883:5936  require(loan.borrower == msg.sender, \"Not your loan\") */\n      tag_135\n      jumpi\n      mload(0x40)\n      0x08c379a000000000000000000000000000000000000000000000000000000000\n      dup2\n      mstore\n      0x04\n      add\n      tag_136\n      swap1\n      tag_137\n      jump\t// in\n    tag_136:\n      mload(0x40)\n      dup1\n      swap2\n      sub\n      swap1\n      revert\n    tag_135:\n        /* \"NummoraCore.sol\":6004:6020  uint256 daysUsed */\n      0x00\n        /* \"NummoraCore.sol\":6060:6066  1 days */\n      0x015180\n        /* \"NummoraCore.sol\":6042:6046  loan */\n      dup3\n        /* \"NummoraCore.sol\":6042:6056  loan.startTime */\n      0x06\n      add\n      sload\n        /* \"NummoraCore.sol\":6024:6039  block.timestamp */\n      timestamp\n        /* \"NummoraCore.sol\":6024:6056  block.timestamp - loan.startTime */\n      tag_138\n      swap2\n      swap1\n      tag_139\n      jump\t// in\n    tag_138:\n        /* \"NummoraCore.sol\":6023:6066  (block.timestamp - loan.startTime) / 1 days */\n      tag_140\n      swap2\n      swap1\n      tag_141\n      jump\t// in\n    tag_140:\n        /* \"NummoraCore.sol\":6004:6066  uint256 daysUsed = (block.timestamp - loan.startTime) / 1 days */\n      swap1\n      pop\n        /* \"NummoraCore.sol\":6093:6094  0 */\n      0x00\n        /* \"NummoraCore.sol\":6081:6089  daysUsed */\n      dup2\n        /* \"NummoraCore.sol\":6081:6094  daysUsed == 0 */\n      sub\n        /* \"NummoraCore.sol\":6077:6108  if (daysUsed == 0) daysUsed = 1 */\n      tag_142\n      jumpi\n        /* \"NummoraCore.sol\":6107:6108  1 */\n      0x01\n        /* \"NummoraCore.sol\":6096:6108  daysUsed = 1 */\n      swap1\n      pop\n        /* \"NummoraCore.sol\":6077:6108  if (daysUsed == 0) daysUsed = 1 */\n    tag_142:\n        /* \"NummoraCore.sol\":6210:6225  uint256 maxDays */\n      0x00\n        /* \"NummoraCore.sol\":6228:6230  30 */\n      0x1e\n        /* \"NummoraCore.sol\":6210:6230  uint256 maxDays = 30 */\n      swap1\n      pop\n        /* \"NummoraCore.sol\":6256:6263  maxDays */\n      dup1\n        /* \"NummoraCore.sol\":6245:6253  daysUsed */\n      dup3\n        /* \"NummoraCore.sol\":6245:6263  daysUsed > maxDays */\n      gt\n        /* \"NummoraCore.sol\":6241:6283  if (daysUsed > maxDays) daysUsed = maxDays */\n      iszero\n      tag_143\n      jumpi\n        /* \"NummoraCore.sol\":6276:6283  maxDays */\n      dup1\n        /* \"NummoraCore.sol\":6265:6283  daysUsed = maxDays */\n      swap2\n      pop\n        /* \"NummoraCore.sol\":6241:6283  if (daysUsed > maxDays) daysUsed = maxDays */\n    tag_143:\n        /* \"NummoraCore.sol\":6304:6325  uint256 dailyInterest */\n      0x00\n        /* \"NummoraCore.sol\":6362:6369  maxDays */\n      dup2\n        /* \"NummoraCore.sol\":6347:6351  loan */\n      dup5\n        /* \"NummoraCore.sol\":6347:6358  loan.amount */\n      0x03\n      add\n      sload\n        /* \"NummoraCore.sol\":6329:6333  loan */\n      dup6\n        /* \"NummoraCore.sol\":6329:6344  loan.totalToPay */\n      0x04\n      add\n      sload\n        /* \"NummoraCore.sol\":6329:6358  loan.totalToPay - loan.amount */\n      tag_144\n      swap2\n      swap1\n      tag_139\n      jump\t// in\n    tag_144:\n        /* \"NummoraCore.sol\":6328:6369  (loan.totalToPay - loan.amount) / maxDays */\n      tag_145\n      swap2\n      swap1\n      tag_141\n      jump\t// in\n    tag_145:\n        /* \"NummoraCore.sol\":6304:6369  uint256 dailyInterest = (loan.totalToPay - loan.amount) / maxDays */\n      swap1\n      pop\n        /* \"NummoraCore.sol\":6380:6397  uint256 realTotal */\n      0x00\n        /* \"NummoraCore.sol\":6431:6439  daysUsed */\n      dup4\n        /* \"NummoraCore.sol\":6415:6428  dailyInterest */\n      dup3\n        /* \"NummoraCore.sol\":6415:6439  dailyInterest * daysUsed */\n      tag_146\n      swap2\n      swap1\n      tag_147\n      jump\t// in\n    tag_146:\n        /* \"NummoraCore.sol\":6400:6404  loan */\n      dup6\n        /* \"NummoraCore.sol\":6400:6411  loan.amount */\n      0x03\n      add\n      sload\n        /* \"NummoraCore.sol\":6400:6440  loan.amount + (dailyInterest * daysUsed) */\n      tag_148\n      swap2\n      swap1\n      tag_149\n      jump\t// in\n    tag_148:\n        /* \"NummoraCore.sol\":6380:6440  uint256 realTotal = loan.amount + (dailyInterest * daysUsed) */\n      swap1\n      pop\n        /* \"NummoraCore.sol\":6451:6471  uint256 finalPayment */\n      0x00\n        /* \"NummoraCore.sol\":6486:6490  loan */\n      dup6\n        /* \"NummoraCore.sol\":6486:6500  loan.totalPaid */\n      0x05\n      add\n      sload\n        /* \"NummoraCore.sol\":6474:6483  realTotal */\n      dup3\n        /* \"NummoraCore.sol\":6474:6500  realTotal - loan.totalPaid */\n      tag_150\n      swap2\n      swap1\n      tag_139\n      jump\t// in\n    tag_150:\n        /* \"NummoraCore.sol\":6451:6500  uint256 finalPayment = realTotal - loan.totalPaid */\n      swap1\n      pop\n        /* \"NummoraCore.sol\":6544:6545  0 */\n      0x00\n        /* \"NummoraCore.sol\":6529:6541  finalPayment */\n      dup2\n        /* \"NummoraCore.sol\":6529:6545  finalPayment > 0 */\n      gt\n        /* \"NummoraCore.sol\":6521:6562  require(finalPayment > 0, \"Already paid\") */\n      tag_151\n      jumpi\n      mload(0x40)\n      0x08c379a000000000000000000000000000000000000000000000000000000000\n      dup2\n      mstore\n      0x04\n      add\n      tag_152\n      swap1\n      tag_153\n      jump\t// in\n    tag_152:\n      mload(0x40)\n      dup1\n      swap2\n      sub\n      swap1\n      revert\n    tag_151:\n        /* \"NummoraCore.sol\":6590:6594  loan */\n      dup6\n        /* \"NummoraCore.sol\":6590:6605  loan.stablecoin */\n      0x02\n      add\n      0x00\n      swap1\n      sload\n      swap1\n      0x0100\n      exp\n      swap1\n      div\n      0xffffffffffffffffffffffffffffffffffffffff\n      and\n        /* \"NummoraCore.sol\":6583:6619  IERC20(loan.stablecoin).transferFrom */\n      0xffffffffffffffffffffffffffffffffffffffff\n      and\n      0x23b872dd\n        /* \"NummoraCore.sol\":6620:6630  msg.sender */\n      caller\n        /* \"NummoraCore.sol\":6640:6644  this */\n      address\n        /* \"NummoraCore.sol\":6647:6659  finalPayment */\n      dup5\n        /* \"NummoraCore.sol\":6583:6660  IERC20(loan.stablecoin).transferFrom(msg.sender, address(this), finalPayment) */\n      mload(0x40)\n      dup5\n      0xffffffff\n      and\n      0xe0\n      shl\n      dup2\n      mstore\n      0x04\n      add\n      tag_154\n      swap4\n      swap3\n      swap2\n      swap1\n      tag_155\n      jump\t// in\n    tag_154:\n      0x20\n      mload(0x40)\n      dup1\n      dup4\n      sub\n      dup2\n      0x00\n      dup8\n      gas\n      call\n      iszero\n      dup1\n      iszero\n      tag_157\n      jumpi\n      returndatacopy(0x00, 0x00, returndatasize)\n      revert(0x00, returndatasize)\n    tag_157:\n      pop\n      pop\n      pop\n      pop\n      mload(0x40)\n      returndatasize\n      not(0x1f)\n      0x1f\n      dup3\n      add\n      and\n      dup3\n      add\n      dup1\n      0x40\n      mstore\n      pop\n      dup2\n      add\n      swap1\n      tag_158\n      swap2\n      swap1\n      tag_159\n      jump\t// in\n    tag_158:\n      pop\n        /* \"NummoraCore.sol\":6698:6707  realTotal */\n      dup2\n        /* \"NummoraCore.sol\":6681:6685  loan */\n      dup7\n        /* \"NummoraCore.sol\":6681:6695  loan.totalPaid */\n      0x05\n      add\n        /* \"NummoraCore.sol\":6681:6707  loan.totalPaid = realTotal */\n      dup2\n      swap1\n      sstore\n      pop\n        /* \"NummoraCore.sol\":6742:6746  loan */\n      dup6\n        /* \"NummoraCore.sol\":6742:6759  loan.installments */\n      0x07\n      add\n      sload\n        /* \"NummoraCore.sol\":6718:6722  loan */\n      dup7\n        /* \"NummoraCore.sol\":6718:6739  loan.installmentsPaid */\n      0x09\n      add\n        /* \"NummoraCore.sol\":6718:6759  loan.installmentsPaid = loan.installments */\n      dup2\n      swap1\n      sstore\n      pop\n        /* \"NummoraCore.sol\":6780:6801  _completeLoan(loanId) */\n      tag_160\n        /* \"NummoraCore.sol\":6794:6800  loanId */\n      dup8\n        /* \"NummoraCore.sol\":6780:6793  _completeLoan */\n      tag_161\n        /* \"NummoraCore.sol\":6780:6801  _completeLoan(loanId) */\n      jump\t// in\n    tag_160:\n        /* \"NummoraCore.sol\":6827:6860  PaymentMade(loanId, finalPayment) */\n      0x0e9e4ec6fa83fe2a2893fd5d6517a890df20f72cc0ba40495b21e65d12223503\n        /* \"NummoraCore.sol\":6839:6845  loanId */\n      dup8\n        /* \"NummoraCore.sol\":6847:6859  finalPayment */\n      dup3\n        /* \"NummoraCore.sol\":6827:6860  PaymentMade(loanId, finalPayment) */\n      mload(0x40)\n      tag_162\n      swap3\n      swap2\n      swap1\n      tag_163\n      jump\t// in\n    tag_162:\n      mload(0x40)\n      dup1\n      swap2\n      sub\n      swap1\n      log1\n        /* \"NummoraCore.sol\":5778:6868  {... */\n      pop\n      pop\n      pop\n      pop\n      pop\n      pop\n        /* \"@openzeppelin/contracts/security/ReentrancyGuard.sol\":2303:2323  _nonReentrantAfter() */\n      tag_164\n        /* \"@openzeppelin/contracts/security/ReentrancyGuard.sol\":2303:2321  _nonReentrantAfter */\n      tag_165\n        /* \"@openzeppelin/contracts/security/ReentrancyGuard.sol\":2303:2323  _nonReentrantAfter() */\n      jump\t// in\n    tag_164:\n        /* \"NummoraCore.sol\":5722:6868  function payEarly(uint256 loanId) external nonReentrant {... */\n      pop\n      jump\t// out\n        /* \"NummoraCore.sol\":1126:1149  ILoanNFT public loanNFT */\n    tag_46:\n      0x03\n      0x00\n      swap1\n      sload\n      swap1\n      0x0100\n      exp\n      swap1\n      div\n      0xffffffffffffffffffffffffffffffffffffffff\n      and\n      dup2\n      jump\t// out\n        /* \"NummoraCore.sol\":2776:3152  function deposit(address token, uint256 amount) external nonReentrant {... */\n    tag_52:\n        /* \"@openzeppelin/contracts/security/ReentrancyGuard.sol\":2261:2282  _nonReentrantBefore() */\n      tag_167\n        /* \"@openzeppelin/contracts/security/ReentrancyGuard.sol\":2261:2280  _nonReentrantBefore */\n      tag_130\n        /* \"@openzeppelin/contracts/security/ReentrancyGuard.sol\":2261:2282  _nonReentrantBefore() */\n      jump\t// in\n    tag_167:\n        /* \"NummoraCore.sol\":2865:2876  stablecoins */\n      0x07\n        /* \"NummoraCore.sol\":2865:2883  stablecoins[token] */\n      0x00\n        /* \"NummoraCore.sol\":2877:2882  token */\n      dup4\n        /* \"NummoraCore.sol\":2865:2883  stablecoins[token] */\n      0xffffffffffffffffffffffffffffffffffffffff\n      and\n      0xffffffffffffffffffffffffffffffffffffffff\n      and\n      dup2\n      mstore\n      0x20\n      add\n      swap1\n      dup2\n      mstore\n      0x20\n      add\n      0x00\n      keccak256\n      0x00\n      swap1\n      sload\n      swap1\n      0x0100\n      exp\n      swap1\n      div\n      0xff\n      and\n        /* \"NummoraCore.sol\":2857:2907  require(stablecoins[token], \"Token not supported\") */\n      tag_169\n      jumpi\n      mload(0x40)\n      0x08c379a000000000000000000000000000000000000000000000000000000000\n      dup2\n      mstore\n      0x04\n      add\n      tag_170\n      swap1\n      tag_171\n      jump\t// in\n    tag_170:\n      mload(0x40)\n      dup1\n      swap2\n      sub\n      swap1\n      revert\n    tag_169:\n        /* \"NummoraCore.sol\":2926:2933  lenders */\n      0x05\n        /* \"NummoraCore.sol\":2926:2945  lenders[msg.sender] */\n      0x00\n        /* \"NummoraCore.sol\":2934:2944  msg.sender */\n      caller\n        /* \"NummoraCore.sol\":2926:2945  lenders[msg.sender] */\n      0xffffffffffffffffffffffffffffffffffffffff\n      and\n      0xffffffffffffffffffffffffffffffffffffffff\n      and\n      dup2\n      mstore\n      0x20\n      add\n      swap1\n      dup2\n      mstore\n      0x20\n      add\n      0x00\n      keccak256\n      0x00\n      swap1\n      sload\n      swap1\n      0x0100\n      exp\n      swap1\n      div\n      0xff\n      and\n        /* \"NummoraCore.sol\":2918:2964  require(lenders[msg.sender], \"Not registered\") */\n      tag_172\n      jumpi\n      mload(0x40)\n      0x08c379a000000000000000000000000000000000000000000000000000000000\n      dup2\n      mstore\n      0x04\n      add\n      tag_173\n      swap1\n      tag_174\n      jump\t// in\n    tag_173:\n      mload(0x40)\n      dup1\n      swap2\n      sub\n      swap1\n      revert\n    tag_172:\n        /* \"NummoraCore.sol\":2992:2997  token */\n      dup2\n        /* \"NummoraCore.sol\":2985:3011  IERC20(token).transferFrom */\n      0xffffffffffffffffffffffffffffffffffffffff\n      and\n      0x23b872dd\n        /* \"NummoraCore.sol\":3012:3022  msg.sender */\n      caller\n        /* \"NummoraCore.sol\":3032:3036  this */\n      address\n        /* \"NummoraCore.sol\":3039:3045  amount */\n      dup5\n        /* \"NummoraCore.sol\":2985:3046  IERC20(token).transferFrom(msg.sender, address(this), amount) */\n      mload(0x40)\n      dup5\n      0xffffffff\n      and\n      0xe0\n      shl\n      dup2\n      mstore\n      0x04\n      add\n      tag_175\n      swap4\n      swap3\n      swap2\n      swap1\n      tag_155\n      jump\t// in\n    tag_175:\n      0x20\n      mload(0x40)\n      dup1\n      dup4\n      sub\n      dup2\n      0x00\n      dup8\n      gas\n      call\n      iszero\n      dup1\n      iszero\n      tag_177\n      jumpi\n      returndatacopy(0x00, 0x00, returndatasize)\n      revert(0x00, returndatasize)\n    tag_177:\n      pop\n      pop\n      pop\n      pop\n      mload(0x40)\n      returndatasize\n      not(0x1f)\n      0x1f\n      dup3\n      add\n      and\n      dup3\n      add\n      dup1\n      0x40\n      mstore\n      pop\n      dup2\n      add\n      swap1\n      tag_178\n      swap2\n      swap1\n      tag_159\n      jump\t// in\n    tag_178:\n      pop\n        /* \"NummoraCore.sol\":3057:3067  numusToken */\n      0x02\n      0x00\n      swap1\n      sload\n      swap1\n      0x0100\n      exp\n      swap1\n      div\n      0xffffffffffffffffffffffffffffffffffffffff\n      and\n        /* \"NummoraCore.sol\":3057:3072  numusToken.mint */\n      0xffffffffffffffffffffffffffffffffffffffff\n      and\n      0x40c10f19\n        /* \"NummoraCore.sol\":3073:3083  msg.sender */\n      caller\n        /* \"NummoraCore.sol\":3085:3091  amount */\n      dup4\n        /* \"NummoraCore.sol\":3057:3092  numusToken.mint(msg.sender, amount) */\n      mload(0x40)\n      dup4\n      0xffffffff\n      and\n      0xe0\n      shl\n      dup2\n      mstore\n      0x04\n      add\n      tag_179\n      swap3\n      swap2\n      swap1\n      tag_180\n      jump\t// in\n    tag_179:\n      0x00\n      mload(0x40)\n      dup1\n      dup4\n      sub\n      dup2\n      0x00\n      dup8\n      dup1\n      extcodesize\n      iszero\n      dup1\n      iszero\n      tag_181\n      jumpi\n      revert(0x00, 0x00)\n    tag_181:\n      pop\n      gas\n      call\n      iszero\n      dup1\n      iszero\n      tag_183\n      jumpi\n      returndatacopy(0x00, 0x00, returndatasize)\n      revert(0x00, returndatasize)\n    tag_183:\n      pop\n      pop\n      pop\n      pop\n        /* \"NummoraCore.sol\":3103:3113  numusToken */\n      0x02\n      0x00\n      swap1\n      sload\n      swap1\n      0x0100\n      exp\n      swap1\n      div\n      0xffffffffffffffffffffffffffffffffffffffff\n      and\n        /* \"NummoraCore.sol\":3103:3121  numusToken.approve */\n      0xffffffffffffffffffffffffffffffffffffffff\n      and\n      0x095ea7b3\n        /* \"NummoraCore.sol\":3130:3134  this */\n      address\n        /* \"NummoraCore.sol\":3137:3143  amount */\n      dup4\n        /* \"NummoraCore.sol\":3103:3144  numusToken.approve(address(this), amount) */\n      mload(0x40)\n      dup4\n      0xffffffff\n      and\n      0xe0\n      shl\n      dup2\n      mstore\n      0x04\n      add\n      tag_184\n      swap3\n      swap2\n      swap1\n      tag_180\n      jump\t// in\n    tag_184:\n      0x20\n      mload(0x40)\n      dup1\n      dup4\n      sub\n      dup2\n      0x00\n      dup8\n      gas\n      call\n      iszero\n      dup1\n      iszero\n      tag_186\n      jumpi\n      returndatacopy(0x00, 0x00, returndatasize)\n      revert(0x00, returndatasize)\n    tag_186:\n      pop\n      pop\n      pop\n      pop\n      mload(0x40)\n      returndatasize\n      not(0x1f)\n      0x1f\n      dup3\n      add\n      and\n      dup3\n      add\n      dup1\n      0x40\n      mstore\n      pop\n      dup2\n      add\n      swap1\n      tag_187\n      swap2\n      swap1\n      tag_159\n      jump\t// in\n    tag_187:\n      pop\n        /* \"@openzeppelin/contracts/security/ReentrancyGuard.sol\":2303:2323  _nonReentrantAfter() */\n      tag_188\n        /* \"@openzeppelin/contracts/security/ReentrancyGuard.sol\":2303:2321  _nonReentrantAfter */\n      tag_165\n        /* \"@openzeppelin/contracts/security/ReentrancyGuard.sol\":2303:2323  _nonReentrantAfter() */\n      jump\t// in\n    tag_188:\n        /* \"NummoraCore.sol\":2776:3152  function deposit(address token, uint256 amount) external nonReentrant {... */\n      pop\n      pop\n      jump\t// out\n        /* \"NummoraCore.sol\":7251:7359  function getLoan(uint256 loanId) external view returns (Loan memory) {... */\n    tag_55:\n        /* \"NummoraCore.sol\":7307:7318  Loan memory */\n      tag_189\n      tag_190\n      jump\t// in\n    tag_189:\n        /* \"NummoraCore.sol\":7338:7343  loans */\n      0x04\n        /* \"NummoraCore.sol\":7338:7351  loans[loanId] */\n      0x00\n        /* \"NummoraCore.sol\":7344:7350  loanId */\n      dup4\n        /* \"NummoraCore.sol\":7338:7351  loans[loanId] */\n      dup2\n      mstore\n      0x20\n      add\n      swap1\n      dup2\n      mstore\n      0x20\n      add\n      0x00\n      keccak256\n        /* \"NummoraCore.sol\":7331:7351  return loans[loanId] */\n      mload(0x40)\n      dup1\n      0x0180\n      add\n      0x40\n      mstore\n      swap1\n      dup2\n      0x00\n      dup3\n      add\n      0x00\n      swap1\n      sload\n      swap1\n      0x0100\n      exp\n      swap1\n      div\n      0xffffffffffffffffffffffffffffffffffffffff\n      and\n      0xffffffffffffffffffffffffffffffffffffffff\n      and\n      0xffffffffffffffffffffffffffffffffffffffff\n      and\n      dup2\n      mstore\n      0x20\n      add\n      0x01\n      dup3\n      add\n      0x00\n      swap1\n      sload\n      swap1\n      0x0100\n      exp\n      swap1\n      div\n      0xffffffffffffffffffffffffffffffffffffffff\n      and\n      0xffffffffffffffffffffffffffffffffffffffff\n      and\n      0xffffffffffffffffffffffffffffffffffffffff\n      and\n      dup2\n      mstore\n      0x20\n      add\n      0x02\n      dup3\n      add\n      0x00\n      swap1\n      sload\n      swap1\n      0x0100\n      exp\n      swap1\n      div\n      0xffffffffffffffffffffffffffffffffffffffff\n      and\n      0xffffffffffffffffffffffffffffffffffffffff\n      and\n      0xffffffffffffffffffffffffffffffffffffffff\n      and\n      dup2\n      mstore\n      0x20\n      add\n      0x03\n      dup3\n      add\n      sload\n      dup2\n      mstore\n      0x20\n      add\n      0x04\n      dup3\n      add\n      sload\n      dup2\n      mstore\n      0x20\n      add\n      0x05\n      dup3\n      add\n      sload\n      dup2\n      mstore\n      0x20\n      add\n      0x06\n      dup3\n      add\n      sload\n      dup2\n      mstore\n      0x20\n      add\n      0x07\n      dup3\n      add\n      sload\n      dup2\n      mstore\n      0x20\n      add\n      0x08\n      dup3\n      add\n      sload\n      dup2\n      mstore\n      0x20\n      add\n      0x09\n      dup3\n      add\n      sload\n      dup2\n      mstore\n      0x20\n      add\n      0x0a\n      dup3\n      add\n      0x00\n      swap1\n      sload\n      swap1\n      0x0100\n      exp\n      swap1\n      div\n      0xff\n      and\n      iszero\n      iszero\n      iszero\n      iszero\n      dup2\n      mstore\n      0x20\n      add\n      0x0b\n      dup3\n      add\n      sload\n      dup2\n      mstore\n      pop\n      pop\n      swap1\n      pop\n        /* \"NummoraCore.sol\":7251:7359  function getLoan(uint256 loanId) external view returns (Loan memory) {... */\n      swap2\n      swap1\n      pop\n      jump\t// out\n        /* \"NummoraCore.sol\":7501:7601  function isLender(address user) external view returns (bool) {... */\n    tag_60:\n        /* \"NummoraCore.sol\":7556:7560  bool */\n      0x00\n        /* \"NummoraCore.sol\":7580:7587  lenders */\n      0x05\n        /* \"NummoraCore.sol\":7580:7593  lenders[user] */\n      0x00\n        /* \"NummoraCore.sol\":7588:7592  user */\n      dup4\n        /* \"NummoraCore.sol\":7580:7593  lenders[user] */\n      0xffffffffffffffffffffffffffffffffffffffff\n      and\n      0xffffffffffffffffffffffffffffffffffffffff\n      and\n      dup2\n      mstore\n      0x20\n      add\n      swap1\n      dup2\n      mstore\n      0x20\n      add\n      0x00\n      keccak256\n      0x00\n      swap1\n      sload\n      swap1\n      0x0100\n      exp\n      swap1\n      div\n      0xff\n      and\n        /* \"NummoraCore.sol\":7573:7593  return lenders[user] */\n      swap1\n      pop\n        /* \"NummoraCore.sol\":7501:7601  function isLender(address user) external view returns (bool) {... */\n      swap2\n      swap1\n      pop\n      jump\t// out\n        /* \"@openzeppelin/contracts/access/Ownable.sol\":2293:2394  function renounceOwnership() public virtual onlyOwner {... */\n    tag_63:\n        /* \"@openzeppelin/contracts/access/Ownable.sol\":1531:1544  _checkOwner() */\n      tag_194\n        /* \"@openzeppelin/contracts/access/Ownable.sol\":1531:1542  _checkOwner */\n      tag_126\n        /* \"@openzeppelin/contracts/access/Ownable.sol\":1531:1544  _checkOwner() */\n      jump\t// in\n    tag_194:\n        /* \"@openzeppelin/contracts/access/Ownable.sol\":2357:2387  _transferOwnership(address(0)) */\n      tag_196\n        /* \"@openzeppelin/contracts/access/Ownable.sol\":2384:2385  0 */\n      0x00\n        /* \"@openzeppelin/contracts/access/Ownable.sol\":2357:2375  _transferOwnership */\n      tag_197\n        /* \"@openzeppelin/contracts/access/Ownable.sol\":2357:2387  _transferOwnership(address(0)) */\n      jump\t// in\n    tag_196:\n        /* \"@openzeppelin/contracts/access/Ownable.sol\":2293:2394  function renounceOwnership() public virtual onlyOwner {... */\n      jump\t// out\n        /* \"NummoraCore.sol\":2502:2626  function registerLender() external {... */\n    tag_65:\n        /* \"NummoraCore.sol\":2570:2574  true */\n      0x01\n        /* \"NummoraCore.sol\":2548:2555  lenders */\n      0x05\n        /* \"NummoraCore.sol\":2548:2567  lenders[msg.sender] */\n      0x00\n        /* \"NummoraCore.sol\":2556:2566  msg.sender */\n      caller\n        /* \"NummoraCore.sol\":2548:2567  lenders[msg.sender] */\n      0xffffffffffffffffffffffffffffffffffffffff\n      and\n      0xffffffffffffffffffffffffffffffffffffffff\n      and\n      dup2\n      mstore\n      0x20\n      add\n      swap1\n      dup2\n      mstore\n      0x20\n      add\n      0x00\n      keccak256\n      0x00\n        /* \"NummoraCore.sol\":2548:2574  lenders[msg.sender] = true */\n      0x0100\n      exp\n      dup2\n      sload\n      dup2\n      0xff\n      mul\n      not\n      and\n      swap1\n      dup4\n      iszero\n      iszero\n      mul\n      or\n      swap1\n      sstore\n      pop\n        /* \"NummoraCore.sol\":2590:2618  LenderRegistered(msg.sender) */\n      0x35999cadc5f1a750104410f15263cc04190a1095143f37917467434d7f32c3c4\n        /* \"NummoraCore.sol\":2607:2617  msg.sender */\n      caller\n        /* \"NummoraCore.sol\":2590:2618  LenderRegistered(msg.sender) */\n      mload(0x40)\n      tag_199\n      swap2\n      swap1\n      tag_73\n      jump\t// in\n    tag_199:\n      mload(0x40)\n      dup1\n      swap2\n      sub\n      swap1\n      log1\n        /* \"NummoraCore.sol\":2502:2626  function registerLender() external {... */\n      jump\t// out\n        /* \"NummoraCore.sol\":1348:1377  uint256 public nextLoanId = 1 */\n    tag_67:\n      sload(0x08)\n      dup2\n      jump\t// out\n        /* \"@openzeppelin/contracts/access/Ownable.sol\":1638:1723  function owner() public view virtual returns (address) {... */\n    tag_71:\n        /* \"@openzeppelin/contracts/access/Ownable.sol\":1684:1691  address */\n      0x00\n        /* \"@openzeppelin/contracts/access/Ownable.sol\":1710:1716  _owner */\n      0x01\n      0x00\n      swap1\n      sload\n      swap1\n      0x0100\n      exp\n      swap1\n      div\n      0xffffffffffffffffffffffffffffffffffffffff\n      and\n        /* \"@openzeppelin/contracts/access/Ownable.sol\":1703:1716  return _owner */\n      swap1\n      pop\n        /* \"@openzeppelin/contracts/access/Ownable.sol\":1638:1723  function owner() public view virtual returns (address) {... */\n      swap1\n      jump\t// out\n        /* \"NummoraCore.sol\":7888:8023  function updateFee(uint256 newFee) external onlyOwner {... */\n    tag_76:\n        /* \"@openzeppelin/contracts/access/Ownable.sol\":1531:1544  _checkOwner() */\n      tag_202\n        /* \"@openzeppelin/contracts/access/Ownable.sol\":1531:1542  _checkOwner */\n      tag_126\n        /* \"@openzeppelin/contracts/access/Ownable.sol\":1531:1544  _checkOwner() */\n      jump\t// in\n    tag_202:\n        /* \"NummoraCore.sol\":7971:7975  1000 */\n      0x03e8\n        /* \"NummoraCore.sol\":7961:7967  newFee */\n      dup2\n        /* \"NummoraCore.sol\":7961:7975  newFee <= 1000 */\n      gt\n      iszero\n        /* \"NummoraCore.sol\":7953:7992  require(newFee <= 1000, \"Fee too high\") */\n      tag_204\n      jumpi\n      mload(0x40)\n      0x08c379a000000000000000000000000000000000000000000000000000000000\n      dup2\n      mstore\n      0x04\n      add\n      tag_205\n      swap1\n      tag_206\n      jump\t// in\n    tag_205:\n      mload(0x40)\n      dup1\n      swap2\n      sub\n      swap1\n      revert\n    tag_204:\n        /* \"NummoraCore.sol\":8009:8015  newFee */\n      dup1\n        /* \"NummoraCore.sol\":8003:8006  fee */\n      0x09\n        /* \"NummoraCore.sol\":8003:8015  fee = newFee */\n      dup2\n      swap1\n      sstore\n      pop\n        /* \"NummoraCore.sol\":7888:8023  function updateFee(uint256 newFee) external onlyOwner {... */\n      pop\n      jump\t// out\n        /* \"NummoraCore.sol\":8035:8170  function emergencyWithdraw(address token, uint256 amount) external onlyOwner {... */\n    tag_79:\n        /* \"@openzeppelin/contracts/access/Ownable.sol\":1531:1544  _checkOwner() */\n      tag_208\n        /* \"@openzeppelin/contracts/access/Ownable.sol\":1531:1542  _checkOwner */\n      tag_126\n        /* \"@openzeppelin/contracts/access/Ownable.sol\":1531:1544  _checkOwner() */\n      jump\t// in\n    tag_208:\n        /* \"NummoraCore.sol\":8130:8135  token */\n      dup2\n        /* \"NummoraCore.sol\":8123:8145  IERC20(token).transfer */\n      0xffffffffffffffffffffffffffffffffffffffff\n      and\n      0xa9059cbb\n        /* \"NummoraCore.sol\":8146:8153  owner() */\n      tag_210\n        /* \"NummoraCore.sol\":8146:8151  owner */\n      tag_71\n        /* \"NummoraCore.sol\":8146:8153  owner() */\n      jump\t// in\n    tag_210:\n        /* \"NummoraCore.sol\":8155:8161  amount */\n      dup4\n        /* \"NummoraCore.sol\":8123:8162  IERC20(token).transfer(owner(), amount) */\n      mload(0x40)\n      dup4\n      0xffffffff\n      and\n      0xe0\n      shl\n      dup2\n      mstore\n      0x04\n      add\n      tag_211\n      swap3\n      swap2\n      swap1\n      tag_180\n      jump\t// in\n    tag_211:\n      0x20\n      mload(0x40)\n      dup1\n      dup4\n      sub\n      dup2\n      0x00\n      dup8\n      gas\n      call\n      iszero\n      dup1\n      iszero\n      tag_213\n      jumpi\n      returndatacopy(0x00, 0x00, returndatasize)\n      revert(0x00, returndatasize)\n    tag_213:\n      pop\n      pop\n      pop\n      pop\n      mload(0x40)\n      returndatasize\n      not(0x1f)\n      0x1f\n      dup3\n      add\n      and\n      dup3\n      add\n      dup1\n      0x40\n      mstore\n      pop\n      dup2\n      add\n      swap1\n      tag_214\n      swap2\n      swap1\n      tag_159\n      jump\t// in\n    tag_214:\n      pop\n        /* \"NummoraCore.sol\":8035:8170  function emergencyWithdraw(address token, uint256 amount) external onlyOwner {... */\n      pop\n      pop\n      jump\t// out\n        /* \"NummoraCore.sol\":1248:1289  mapping(address => bool) public borrowers */\n    tag_82:\n      mstore(0x20, 0x06)\n      dup1\n      0x00\n      mstore\n      keccak256(0x00, 0x40)\n      0x00\n      swap2\n      pop\n      sload\n      swap1\n      0x0100\n      exp\n      swap1\n      div\n      0xff\n      and\n      dup2\n      jump\t// out\n        /* \"NummoraCore.sol\":1384:1408  uint256 public fee = 200 */\n    tag_85:\n      sload(0x09)\n      dup2\n      jump\t// out\n        /* \"NummoraCore.sol\":3575:5013  function createLoan(... */\n    tag_90:\n        /* \"NummoraCore.sol\":3822:3829  uint256 */\n      0x00\n        /* \"@openzeppelin/contracts/security/ReentrancyGuard.sol\":2261:2282  _nonReentrantBefore() */\n      tag_216\n        /* \"@openzeppelin/contracts/security/ReentrancyGuard.sol\":2261:2280  _nonReentrantBefore */\n      tag_130\n        /* \"@openzeppelin/contracts/security/ReentrancyGuard.sol\":2261:2282  _nonReentrantBefore() */\n      jump\t// in\n    tag_216:\n        /* \"NummoraCore.sol\":3850:3857  lenders */\n      0x05\n        /* \"NummoraCore.sol\":3850:3865  lenders[lender] */\n      0x00\n        /* \"NummoraCore.sol\":3858:3864  lender */\n      dup10\n        /* \"NummoraCore.sol\":3850:3865  lenders[lender] */\n      0xffffffffffffffffffffffffffffffffffffffff\n      and\n      0xffffffffffffffffffffffffffffffffffffffff\n      and\n      dup2\n      mstore\n      0x20\n      add\n      swap1\n      dup2\n      mstore\n      0x20\n      add\n      0x00\n      keccak256\n      0x00\n      swap1\n      sload\n      swap1\n      0x0100\n      exp\n      swap1\n      div\n      0xff\n      and\n        /* \"NummoraCore.sol\":3842:3891  require(lenders[lender], \"Lender not registered\") */\n      tag_218\n      jumpi\n      mload(0x40)\n      0x08c379a000000000000000000000000000000000000000000000000000000000\n      dup2\n      mstore\n      0x04\n      add\n      tag_219\n      swap1\n      tag_220\n      jump\t// in\n    tag_219:\n      mload(0x40)\n      dup1\n      swap2\n      sub\n      swap1\n      revert\n    tag_218:\n        /* \"NummoraCore.sol\":3910:3919  borrowers */\n      0x06\n        /* \"NummoraCore.sol\":3910:3929  borrowers[borrower] */\n      0x00\n        /* \"NummoraCore.sol\":3920:3928  borrower */\n      dup9\n        /* \"NummoraCore.sol\":3910:3929  borrowers[borrower] */\n      0xffffffffffffffffffffffffffffffffffffffff\n      and\n      0xffffffffffffffffffffffffffffffffffffffff\n      and\n      dup2\n      mstore\n      0x20\n      add\n      swap1\n      dup2\n      mstore\n      0x20\n      add\n      0x00\n      keccak256\n      0x00\n      swap1\n      sload\n      swap1\n      0x0100\n      exp\n      swap1\n      div\n      0xff\n      and\n        /* \"NummoraCore.sol\":3902:3957  require(borrowers[borrower], \"Borrower not registered\") */\n      tag_221\n      jumpi\n      mload(0x40)\n      0x08c379a000000000000000000000000000000000000000000000000000000000\n      dup2\n      mstore\n      0x04\n      add\n      tag_222\n      swap1\n      tag_223\n      jump\t// in\n    tag_222:\n      mload(0x40)\n      dup1\n      swap2\n      sub\n      swap1\n      revert\n    tag_221:\n        /* \"NummoraCore.sol\":3976:3987  stablecoins */\n      0x07\n        /* \"NummoraCore.sol\":3976:3994  stablecoins[token] */\n      0x00\n        /* \"NummoraCore.sol\":3988:3993  token */\n      dup8\n        /* \"NummoraCore.sol\":3976:3994  stablecoins[token] */\n      0xffffffffffffffffffffffffffffffffffffffff\n      and\n      0xffffffffffffffffffffffffffffffffffffffff\n      and\n      dup2\n      mstore\n      0x20\n      add\n      swap1\n      dup2\n      mstore\n      0x20\n      add\n      0x00\n      keccak256\n      0x00\n      swap1\n      sload\n      swap1\n      0x0100\n      exp\n      swap1\n      div\n      0xff\n      and\n        /* \"NummoraCore.sol\":3968:4018  require(stablecoins[token], \"Token not supported\") */\n      tag_224\n      jumpi\n      mload(0x40)\n      0x08c379a000000000000000000000000000000000000000000000000000000000\n      dup2\n      mstore\n      0x04\n      add\n      tag_225\n      swap1\n      tag_171\n      jump\t// in\n    tag_225:\n      mload(0x40)\n      dup1\n      swap2\n      sub\n      swap1\n      revert\n    tag_224:\n        /* \"NummoraCore.sol\":4069:4075  amount */\n      dup5\n        /* \"NummoraCore.sol\":4037:4047  numusToken */\n      0x02\n      0x00\n      swap1\n      sload\n      swap1\n      0x0100\n      exp\n      swap1\n      div\n      0xffffffffffffffffffffffffffffffffffffffff\n      and\n        /* \"NummoraCore.sol\":4037:4057  numusToken.balanceOf */\n      0xffffffffffffffffffffffffffffffffffffffff\n      and\n      0x70a08231\n        /* \"NummoraCore.sol\":4058:4064  lender */\n      dup11\n        /* \"NummoraCore.sol\":4037:4065  numusToken.balanceOf(lender) */\n      mload(0x40)\n      dup3\n      0xffffffff\n      and\n      0xe0\n      shl\n      dup2\n      mstore\n      0x04\n      add\n      tag_226\n      swap2\n      swap1\n      tag_73\n      jump\t// in\n    tag_226:\n      0x20\n      mload(0x40)\n      dup1\n      dup4\n      sub\n      dup2\n      dup7\n      gas\n      staticcall\n      iszero\n      dup1\n      iszero\n      tag_228\n      jumpi\n      returndatacopy(0x00, 0x00, returndatasize)\n      revert(0x00, returndatasize)\n    tag_228:\n      pop\n      pop\n      pop\n      pop\n      mload(0x40)\n      returndatasize\n      not(0x1f)\n      0x1f\n      dup3\n      add\n      and\n      dup3\n      add\n      dup1\n      0x40\n      mstore\n      pop\n      dup2\n      add\n      swap1\n      tag_229\n      swap2\n      swap1\n      tag_230\n      jump\t// in\n    tag_229:\n        /* \"NummoraCore.sol\":4037:4075  numusToken.balanceOf(lender) >= amount */\n      lt\n      iszero\n        /* \"NummoraCore.sol\":4029:4100  require(numusToken.balanceOf(lender) >= amount, \"Insufficient balance\") */\n      tag_231\n      jumpi\n      mload(0x40)\n      0x08c379a000000000000000000000000000000000000000000000000000000000\n      dup2\n      mstore\n      0x04\n      add\n      tag_232\n      swap1\n      tag_233\n      jump\t// in\n    tag_232:\n      mload(0x40)\n      dup1\n      swap2\n      sub\n      swap1\n      revert\n    tag_231:\n        /* \"NummoraCore.sol\":4121:4135  uint256 loanId */\n      0x00\n        /* \"NummoraCore.sol\":4138:4148  nextLoanId */\n      0x08\n      0x00\n        /* \"NummoraCore.sol\":4138:4150  nextLoanId++ */\n      dup2\n      sload\n      dup1\n      swap3\n      swap2\n      swap1\n      tag_234\n      swap1\n      tag_235\n      jump\t// in\n    tag_234:\n      swap2\n      swap1\n      pop\n      sstore\n        /* \"NummoraCore.sol\":4121:4150  uint256 loanId = nextLoanId++ */\n      swap1\n      pop\n        /* \"NummoraCore.sol\":4161:4179  uint256 totalToPay */\n      0x00\n        /* \"NummoraCore.sol\":4191:4199  interest */\n      dup6\n        /* \"NummoraCore.sol\":4182:4188  amount */\n      dup8\n        /* \"NummoraCore.sol\":4182:4199  amount + interest */\n      tag_236\n      swap2\n      swap1\n      tag_149\n      jump\t// in\n    tag_236:\n        /* \"NummoraCore.sol\":4161:4199  uint256 totalToPay = amount + interest */\n      swap1\n      pop\n        /* \"NummoraCore.sol\":4210:4235  uint256 installmentAmount */\n      0x00\n        /* \"NummoraCore.sol\":4251:4263  installments */\n      dup6\n        /* \"NummoraCore.sol\":4238:4248  totalToPay */\n      dup3\n        /* \"NummoraCore.sol\":4238:4263  totalToPay / installments */\n      tag_237\n      swap2\n      swap1\n      tag_141\n      jump\t// in\n    tag_237:\n        /* \"NummoraCore.sol\":4210:4263  uint256 installmentAmount = totalToPay / installments */\n      swap1\n      pop\n        /* \"NummoraCore.sol\":4300:4737  Loan({... */\n      mload(0x40)\n      dup1\n      0x0180\n      add\n      0x40\n      mstore\n      dup1\n        /* \"NummoraCore.sol\":4328:4334  lender */\n      dup13\n        /* \"NummoraCore.sol\":4300:4737  Loan({... */\n      0xffffffffffffffffffffffffffffffffffffffff\n      and\n      dup2\n      mstore\n      0x20\n      add\n        /* \"NummoraCore.sol\":4359:4367  borrower */\n      dup12\n        /* \"NummoraCore.sol\":4300:4737  Loan({... */\n      0xffffffffffffffffffffffffffffffffffffffff\n      and\n      dup2\n      mstore\n      0x20\n      add\n        /* \"NummoraCore.sol\":4394:4399  token */\n      dup11\n        /* \"NummoraCore.sol\":4300:4737  Loan({... */\n      0xffffffffffffffffffffffffffffffffffffffff\n      and\n      dup2\n      mstore\n      0x20\n      add\n        /* \"NummoraCore.sol\":4422:4428  amount */\n      dup10\n        /* \"NummoraCore.sol\":4300:4737  Loan({... */\n      dup2\n      mstore\n      0x20\n      add\n        /* \"NummoraCore.sol\":4455:4465  totalToPay */\n      dup4\n        /* \"NummoraCore.sol\":4300:4737  Loan({... */\n      dup2\n      mstore\n      0x20\n      add\n        /* \"NummoraCore.sol\":4491:4492  0 */\n      0x00\n        /* \"NummoraCore.sol\":4300:4737  Loan({... */\n      dup2\n      mstore\n      0x20\n      add\n        /* \"NummoraCore.sol\":4518:4533  block.timestamp */\n      timestamp\n        /* \"NummoraCore.sol\":4300:4737  Loan({... */\n      dup2\n      mstore\n      0x20\n      add\n        /* \"NummoraCore.sol\":4562:4574  installments */\n      dup8\n        /* \"NummoraCore.sol\":4300:4737  Loan({... */\n      dup2\n      mstore\n      0x20\n      add\n        /* \"NummoraCore.sol\":4608:4625  installmentAmount */\n      dup3\n        /* \"NummoraCore.sol\":4300:4737  Loan({... */\n      dup2\n      mstore\n      0x20\n      add\n        /* \"NummoraCore.sol\":4658:4659  0 */\n      0x00\n        /* \"NummoraCore.sol\":4300:4737  Loan({... */\n      dup2\n      mstore\n      0x20\n      add\n        /* \"NummoraCore.sol\":4682:4686  true */\n      0x01\n        /* \"NummoraCore.sol\":4300:4737  Loan({... */\n      iszero\n      iszero\n      dup2\n      mstore\n      0x20\n      add\n        /* \"NummoraCore.sol\":4714:4725  platformFee */\n      dup7\n        /* \"NummoraCore.sol\":4300:4737  Loan({... */\n      dup2\n      mstore\n      pop\n        /* \"NummoraCore.sol\":4284:4289  loans */\n      0x04\n        /* \"NummoraCore.sol\":4284:4297  loans[loanId] */\n      0x00\n        /* \"NummoraCore.sol\":4290:4296  loanId */\n      dup6\n        /* \"NummoraCore.sol\":4284:4297  loans[loanId] */\n      dup2\n      mstore\n      0x20\n      add\n      swap1\n      dup2\n      mstore\n      0x20\n      add\n      0x00\n      keccak256\n        /* \"NummoraCore.sol\":4284:4737  loans[loanId] = Loan({... */\n      0x00\n      dup3\n      add\n      mload\n      dup2\n      0x00\n      add\n      exp(0x0100, 0x00)\n      dup2\n      sload\n      dup2\n      0xffffffffffffffffffffffffffffffffffffffff\n      mul\n      not\n      and\n      swap1\n      dup4\n      0xffffffffffffffffffffffffffffffffffffffff\n      and\n      mul\n      or\n      swap1\n      sstore\n      pop\n      0x20\n      dup3\n      add\n      mload\n      dup2\n      0x01\n      add\n      exp(0x0100, 0x00)\n      dup2\n      sload\n      dup2\n      0xffffffffffffffffffffffffffffffffffffffff\n      mul\n      not\n      and\n      swap1\n      dup4\n      0xffffffffffffffffffffffffffffffffffffffff\n      and\n      mul\n      or\n      swap1\n      sstore\n      pop\n      0x40\n      dup3\n      add\n      mload\n      dup2\n      0x02\n      add\n      exp(0x0100, 0x00)\n      dup2\n      sload\n      dup2\n      0xffffffffffffffffffffffffffffffffffffffff\n      mul\n      not\n      and\n      swap1\n      dup4\n      0xffffffffffffffffffffffffffffffffffffffff\n      and\n      mul\n      or\n      swap1\n      sstore\n      pop\n      0x60\n      dup3\n      add\n      mload\n      dup2\n      0x03\n      add\n      sstore\n      0x80\n      dup3\n      add\n      mload\n      dup2\n      0x04\n      add\n      sstore\n      0xa0\n      dup3\n      add\n      mload\n      dup2\n      0x05\n      add\n      sstore\n      0xc0\n      dup3\n      add\n      mload\n      dup2\n      0x06\n      add\n      sstore\n      0xe0\n      dup3\n      add\n      mload\n      dup2\n      0x07\n      add\n      sstore\n      0x0100\n      dup3\n      add\n      mload\n      dup2\n      0x08\n      add\n      sstore\n      0x0120\n      dup3\n      add\n      mload\n      dup2\n      0x09\n      add\n      sstore\n      0x0140\n      dup3\n      add\n      mload\n      dup2\n      0x0a\n      add\n      exp(0x0100, 0x00)\n      dup2\n      sload\n      dup2\n      0xff\n      mul\n      not\n      and\n      swap1\n      dup4\n      iszero\n      iszero\n      mul\n      or\n      swap1\n      sstore\n      pop\n      0x0160\n      dup3\n      add\n      mload\n      dup2\n      0x0b\n      add\n      sstore\n      swap1\n      pop\n      pop\n        /* \"NummoraCore.sol\":4785:4795  numusToken */\n      0x02\n      0x00\n      swap1\n      sload\n      swap1\n      0x0100\n      exp\n      swap1\n      div\n      0xffffffffffffffffffffffffffffffffffffffff\n      and\n        /* \"NummoraCore.sol\":4785:4800  numusToken.burn */\n      0xffffffffffffffffffffffffffffffffffffffff\n      and\n      0x9dc29fac\n        /* \"NummoraCore.sol\":4801:4807  lender */\n      dup13\n        /* \"NummoraCore.sol\":4809:4815  amount */\n      dup11\n        /* \"NummoraCore.sol\":4785:4816  numusToken.burn(lender, amount) */\n      mload(0x40)\n      dup4\n      0xffffffff\n      and\n      0xe0\n      shl\n      dup2\n      mstore\n      0x04\n      add\n      tag_238\n      swap3\n      swap2\n      swap1\n      tag_180\n      jump\t// in\n    tag_238:\n      0x00\n      mload(0x40)\n      dup1\n      dup4\n      sub\n      dup2\n      0x00\n      dup8\n      dup1\n      extcodesize\n      iszero\n      dup1\n      iszero\n      tag_239\n      jumpi\n      revert(0x00, 0x00)\n    tag_239:\n      pop\n      gas\n      call\n      iszero\n      dup1\n      iszero\n      tag_241\n      jumpi\n      returndatacopy(0x00, 0x00, returndatasize)\n      revert(0x00, returndatasize)\n    tag_241:\n      pop\n      pop\n      pop\n      pop\n        /* \"NummoraCore.sol\":4834:4839  token */\n      dup9\n        /* \"NummoraCore.sol\":4827:4849  IERC20(token).transfer */\n      0xffffffffffffffffffffffffffffffffffffffff\n      and\n      0xa9059cbb\n        /* \"NummoraCore.sol\":4850:4858  borrower */\n      dup12\n        /* \"NummoraCore.sol\":4860:4866  amount */\n      dup11\n        /* \"NummoraCore.sol\":4827:4867  IERC20(token).transfer(borrower, amount) */\n      mload(0x40)\n      dup4\n      0xffffffff\n      and\n      0xe0\n      shl\n      dup2\n      mstore\n      0x04\n      add\n      tag_242\n      swap3\n      swap2\n      swap1\n      tag_180\n      jump\t// in\n    tag_242:\n      0x20\n      mload(0x40)\n      dup1\n      dup4\n      sub\n      dup2\n      0x00\n      dup8\n      gas\n      call\n      iszero\n      dup1\n      iszero\n      tag_244\n      jumpi\n      returndatacopy(0x00, 0x00, returndatasize)\n      revert(0x00, returndatasize)\n    tag_244:\n      pop\n      pop\n      pop\n      pop\n      mload(0x40)\n      returndatasize\n      not(0x1f)\n      0x1f\n      dup3\n      add\n      and\n      dup3\n      add\n      dup1\n      0x40\n      mstore\n      pop\n      dup2\n      add\n      swap1\n      tag_245\n      swap2\n      swap1\n      tag_159\n      jump\t// in\n    tag_245:\n      pop\n        /* \"NummoraCore.sol\":4878:4885  loanNFT */\n      0x03\n      0x00\n      swap1\n      sload\n      swap1\n      0x0100\n      exp\n      swap1\n      div\n      0xffffffffffffffffffffffffffffffffffffffff\n      and\n        /* \"NummoraCore.sol\":4878:4890  loanNFT.mint */\n      0xffffffffffffffffffffffffffffffffffffffff\n      and\n      0xd3fc9864\n        /* \"NummoraCore.sol\":4891:4897  lender */\n      dup13\n        /* \"NummoraCore.sol\":4899:4905  loanId */\n      dup6\n        /* \"NummoraCore.sol\":4878:4910  loanNFT.mint(lender, loanId, \"\") */\n      mload(0x40)\n      dup4\n      0xffffffff\n      and\n      0xe0\n      shl\n      dup2\n      mstore\n      0x04\n      add\n      tag_246\n      swap3\n      swap2\n      swap1\n      tag_247\n      jump\t// in\n    tag_246:\n      0x00\n      mload(0x40)\n      dup1\n      dup4\n      sub\n      dup2\n      0x00\n      dup8\n      dup1\n      extcodesize\n      iszero\n      dup1\n      iszero\n      tag_248\n      jumpi\n      revert(0x00, 0x00)\n    tag_248:\n      pop\n      gas\n      call\n      iszero\n      dup1\n      iszero\n      tag_250\n      jumpi\n      returndatacopy(0x00, 0x00, returndatasize)\n      revert(0x00, returndatasize)\n    tag_250:\n      pop\n      pop\n      pop\n      pop\n        /* \"NummoraCore.sol\":4936:4981  LoanCreated(loanId, lender, borrower, amount) */\n      0x74b3e97b2a36ecfc8a1c59a0f98862174d98f86769a3420cf68024a054f87b6d\n        /* \"NummoraCore.sol\":4948:4954  loanId */\n      dup4\n        /* \"NummoraCore.sol\":4956:4962  lender */\n      dup13\n        /* \"NummoraCore.sol\":4964:4972  borrower */\n      dup13\n        /* \"NummoraCore.sol\":4974:4980  amount */\n      dup12\n        /* \"NummoraCore.sol\":4936:4981  LoanCreated(loanId, lender, borrower, amount) */\n      mload(0x40)\n      tag_251\n      swap5\n      swap4\n      swap3\n      swap2\n      swap1\n      tag_252\n      jump\t// in\n    tag_251:\n      mload(0x40)\n      dup1\n      swap2\n      sub\n      swap1\n      log1\n        /* \"NummoraCore.sol\":4999:5005  loanId */\n      dup3\n        /* \"NummoraCore.sol\":4992:5005  return loanId */\n      swap4\n      pop\n      pop\n      pop\n      pop\n        /* \"@openzeppelin/contracts/security/ReentrancyGuard.sol\":2303:2323  _nonReentrantAfter() */\n      tag_253\n        /* \"@openzeppelin/contracts/security/ReentrancyGuard.sol\":2303:2321  _nonReentrantAfter */\n      tag_165\n        /* \"@openzeppelin/contracts/security/ReentrancyGuard.sol\":2303:2323  _nonReentrantAfter() */\n      jump\t// in\n    tag_253:\n        /* \"NummoraCore.sol\":3575:5013  function createLoan(... */\n      swap8\n      swap7\n      pop\n      pop\n      pop\n      pop\n      pop\n      pop\n      pop\n      jump\t// out\n        /* \"NummoraCore.sol\":1158:1195  mapping(uint256 => Loan) public loans */\n    tag_94:\n      mstore(0x20, 0x04)\n      dup1\n      0x00\n      mstore\n      keccak256(0x00, 0x40)\n      0x00\n      swap2\n      pop\n      swap1\n      pop\n      dup1\n      0x00\n      add\n      0x00\n      swap1\n      sload\n      swap1\n      0x0100\n      exp\n      swap1\n      div\n      0xffffffffffffffffffffffffffffffffffffffff\n      and\n      swap1\n      dup1\n      0x01\n      add\n      0x00\n      swap1\n      sload\n      swap1\n      0x0100\n      exp\n      swap1\n      div\n      0xffffffffffffffffffffffffffffffffffffffff\n      and\n      swap1\n      dup1\n      0x02\n      add\n      0x00\n      swap1\n      sload\n      swap1\n      0x0100\n      exp\n      swap1\n      div\n      0xffffffffffffffffffffffffffffffffffffffff\n      and\n      swap1\n      dup1\n      0x03\n      add\n      sload\n      swap1\n      dup1\n      0x04\n      add\n      sload\n      swap1\n      dup1\n      0x05\n      add\n      sload\n      swap1\n      dup1\n      0x06\n      add\n      sload\n      swap1\n      dup1\n      0x07\n      add\n      sload\n      swap1\n      dup1\n      0x08\n      add\n      sload\n      swap1\n      dup1\n      0x09\n      add\n      sload\n      swap1\n      dup1\n      0x0a\n      add\n      0x00\n      swap1\n      sload\n      swap1\n      0x0100\n      exp\n      swap1\n      div\n      0xff\n      and\n      swap1\n      dup1\n      0x0b\n      add\n      sload\n      swap1\n      pop\n      dup13\n      jump\t// out\n        /* \"NummoraCore.sol\":5021:5710  function payInstallment(uint256 loanId) external nonReentrant {... */\n    tag_99:\n        /* \"@openzeppelin/contracts/security/ReentrancyGuard.sol\":2261:2282  _nonReentrantBefore() */\n      tag_255\n        /* \"@openzeppelin/contracts/security/ReentrancyGuard.sol\":2261:2280  _nonReentrantBefore */\n      tag_130\n        /* \"@openzeppelin/contracts/security/ReentrancyGuard.sol\":2261:2282  _nonReentrantBefore() */\n      jump\t// in\n    tag_255:\n        /* \"NummoraCore.sol\":5094:5111  Loan storage loan */\n      0x00\n        /* \"NummoraCore.sol\":5114:5119  loans */\n      0x04\n        /* \"NummoraCore.sol\":5114:5127  loans[loanId] */\n      0x00\n        /* \"NummoraCore.sol\":5120:5126  loanId */\n      dup4\n        /* \"NummoraCore.sol\":5114:5127  loans[loanId] */\n      dup2\n      mstore\n      0x20\n      add\n      swap1\n      dup2\n      mstore\n      0x20\n      add\n      0x00\n      keccak256\n        /* \"NummoraCore.sol\":5094:5127  Loan storage loan = loans[loanId] */\n      swap1\n      pop\n        /* \"NummoraCore.sol\":5146:5150  loan */\n      dup1\n        /* \"NummoraCore.sol\":5146:5157  loan.active */\n      0x0a\n      add\n      0x00\n      swap1\n      sload\n      swap1\n      0x0100\n      exp\n      swap1\n      div\n      0xff\n      and\n        /* \"NummoraCore.sol\":5138:5177  require(loan.active, \"Loan not active\") */\n      tag_257\n      jumpi\n      mload(0x40)\n      0x08c379a000000000000000000000000000000000000000000000000000000000\n      dup2\n      mstore\n      0x04\n      add\n      tag_258\n      swap1\n      tag_134\n      jump\t// in\n    tag_258:\n      mload(0x40)\n      dup1\n      swap2\n      sub\n      swap1\n      revert\n    tag_257:\n        /* \"NummoraCore.sol\":5213:5223  msg.sender */\n      caller\n        /* \"NummoraCore.sol\":5196:5223  loan.borrower == msg.sender */\n      0xffffffffffffffffffffffffffffffffffffffff\n      and\n        /* \"NummoraCore.sol\":5196:5200  loan */\n      dup2\n        /* \"NummoraCore.sol\":5196:5209  loan.borrower */\n      0x01\n      add\n      0x00\n      swap1\n      sload\n      swap1\n      0x0100\n      exp\n      swap1\n      div\n      0xffffffffffffffffffffffffffffffffffffffff\n      and\n        /* \"NummoraCore.sol\":5196:5223  loan.borrower == msg.sender */\n      0xffffffffffffffffffffffffffffffffffffffff\n      and\n      eq\n        /* \"NummoraCore.sol\":5188:5241  require(loan.borrower == msg.sender, \"Not your loan\") */\n      tag_259\n      jumpi\n      mload(0x40)\n      0x08c379a000000000000000000000000000000000000000000000000000000000\n      dup2\n      mstore\n      0x04\n      add\n      tag_260\n      swap1\n      tag_137\n      jump\t// in\n    tag_260:\n      mload(0x40)\n      dup1\n      swap2\n      sub\n      swap1\n      revert\n    tag_259:\n        /* \"NummoraCore.sol\":5284:5288  loan */\n      dup1\n        /* \"NummoraCore.sol\":5284:5301  loan.installments */\n      0x07\n      add\n      sload\n        /* \"NummoraCore.sol\":5260:5264  loan */\n      dup2\n        /* \"NummoraCore.sol\":5260:5281  loan.installmentsPaid */\n      0x09\n      add\n      sload\n        /* \"NummoraCore.sol\":5260:5301  loan.installmentsPaid < loan.installments */\n      lt\n        /* \"NummoraCore.sol\":5252:5314  require(loan.installmentsPaid < loan.installments, \"All paid\") */\n      tag_261\n      jumpi\n      mload(0x40)\n      0x08c379a000000000000000000000000000000000000000000000000000000000\n      dup2\n      mstore\n      0x04\n      add\n      tag_262\n      swap1\n      tag_263\n      jump\t// in\n    tag_262:\n      mload(0x40)\n      dup1\n      swap2\n      sub\n      swap1\n      revert\n    tag_261:\n        /* \"NummoraCore.sol\":5342:5346  loan */\n      dup1\n        /* \"NummoraCore.sol\":5342:5357  loan.stablecoin */\n      0x02\n      add\n      0x00\n      swap1\n      sload\n      swap1\n      0x0100\n      exp\n      swap1\n      div\n      0xffffffffffffffffffffffffffffffffffffffff\n      and\n        /* \"NummoraCore.sol\":5335:5371  IERC20(loan.stablecoin).transferFrom */\n      0xffffffffffffffffffffffffffffffffffffffff\n      and\n      0x23b872dd\n        /* \"NummoraCore.sol\":5372:5382  msg.sender */\n      caller\n        /* \"NummoraCore.sol\":5392:5396  this */\n      address\n        /* \"NummoraCore.sol\":5399:5403  loan */\n      dup5\n        /* \"NummoraCore.sol\":5399:5421  loan.installmentAmount */\n      0x08\n      add\n      sload\n        /* \"NummoraCore.sol\":5335:5422  IERC20(loan.stablecoin).transferFrom(msg.sender, address(this), loan.installmentAmount) */\n      mload(0x40)\n      dup5\n      0xffffffff\n      and\n      0xe0\n      shl\n      dup2\n      mstore\n      0x04\n      add\n      tag_264\n      swap4\n      swap3\n      swap2\n      swap1\n      tag_155\n      jump\t// in\n    tag_264:\n      0x20\n      mload(0x40)\n      dup1\n      dup4\n      sub\n      dup2\n      0x00\n      dup8\n      gas\n      call\n      iszero\n      dup1\n      iszero\n      tag_266\n      jumpi\n      returndatacopy(0x00, 0x00, returndatasize)\n      revert(0x00, returndatasize)\n    tag_266:\n      pop\n      pop\n      pop\n      pop\n      mload(0x40)\n      returndatasize\n      not(0x1f)\n      0x1f\n      dup3\n      add\n      and\n      dup3\n      add\n      dup1\n      0x40\n      mstore\n      pop\n      dup2\n      add\n      swap1\n      tag_267\n      swap2\n      swap1\n      tag_159\n      jump\t// in\n    tag_267:\n      pop\n        /* \"NummoraCore.sol\":5461:5465  loan */\n      dup1\n        /* \"NummoraCore.sol\":5461:5483  loan.installmentAmount */\n      0x08\n      add\n      sload\n        /* \"NummoraCore.sol\":5443:5447  loan */\n      dup2\n        /* \"NummoraCore.sol\":5443:5457  loan.totalPaid */\n      0x05\n      add\n      0x00\n        /* \"NummoraCore.sol\":5443:5483  loan.totalPaid += loan.installmentAmount */\n      dup3\n      dup3\n      sload\n      tag_268\n      swap2\n      swap1\n      tag_149\n      jump\t// in\n    tag_268:\n      swap3\n      pop\n      pop\n      dup2\n      swap1\n      sstore\n      pop\n        /* \"NummoraCore.sol\":5494:5498  loan */\n      dup1\n        /* \"NummoraCore.sol\":5494:5515  loan.installmentsPaid */\n      0x09\n      add\n      0x00\n        /* \"NummoraCore.sol\":5494:5517  loan.installmentsPaid++ */\n      dup2\n      sload\n      dup1\n      swap3\n      swap2\n      swap1\n      tag_269\n      swap1\n      tag_235\n      jump\t// in\n    tag_269:\n      swap2\n      swap1\n      pop\n      sstore\n      pop\n        /* \"NummoraCore.sol\":5543:5586  PaymentMade(loanId, loan.installmentAmount) */\n      0x0e9e4ec6fa83fe2a2893fd5d6517a890df20f72cc0ba40495b21e65d12223503\n        /* \"NummoraCore.sol\":5555:5561  loanId */\n      dup3\n        /* \"NummoraCore.sol\":5563:5567  loan */\n      dup3\n        /* \"NummoraCore.sol\":5563:5585  loan.installmentAmount */\n      0x08\n      add\n      sload\n        /* \"NummoraCore.sol\":5543:5586  PaymentMade(loanId, loan.installmentAmount) */\n      mload(0x40)\n      tag_270\n      swap3\n      swap2\n      swap1\n      tag_163\n      jump\t// in\n    tag_270:\n      mload(0x40)\n      dup1\n      swap2\n      sub\n      swap1\n      log1\n        /* \"NummoraCore.sol\":5636:5640  loan */\n      dup1\n        /* \"NummoraCore.sol\":5636:5653  loan.installments */\n      0x07\n      add\n      sload\n        /* \"NummoraCore.sol\":5611:5615  loan */\n      dup2\n        /* \"NummoraCore.sol\":5611:5632  loan.installmentsPaid */\n      0x09\n      add\n      sload\n        /* \"NummoraCore.sol\":5611:5653  loan.installmentsPaid >= loan.installments */\n      lt\n        /* \"NummoraCore.sol\":5607:5703  if (loan.installmentsPaid >= loan.installments) {... */\n      tag_271\n      jumpi\n        /* \"NummoraCore.sol\":5670:5691  _completeLoan(loanId) */\n      tag_272\n        /* \"NummoraCore.sol\":5684:5690  loanId */\n      dup3\n        /* \"NummoraCore.sol\":5670:5683  _completeLoan */\n      tag_161\n        /* \"NummoraCore.sol\":5670:5691  _completeLoan(loanId) */\n      jump\t// in\n    tag_272:\n        /* \"NummoraCore.sol\":5607:5703  if (loan.installmentsPaid >= loan.installments) {... */\n    tag_271:\n        /* \"NummoraCore.sol\":5083:5710  {... */\n      pop\n        /* \"@openzeppelin/contracts/security/ReentrancyGuard.sol\":2303:2323  _nonReentrantAfter() */\n      tag_273\n        /* \"@openzeppelin/contracts/security/ReentrancyGuard.sol\":2303:2321  _nonReentrantAfter */\n      tag_165\n        /* \"@openzeppelin/contracts/security/ReentrancyGuard.sol\":2303:2323  _nonReentrantAfter() */\n      jump\t// in\n    tag_273:\n        /* \"NummoraCore.sol\":5021:5710  function payInstallment(uint256 loanId) external nonReentrant {... */\n      pop\n      jump\t// out\n        /* \"NummoraCore.sol\":2638:2768  function registerBorrower() external {... */\n    tag_101:\n        /* \"NummoraCore.sol\":2710:2714  true */\n      0x01\n        /* \"NummoraCore.sol\":2686:2695  borrowers */\n      0x06\n        /* \"NummoraCore.sol\":2686:2707  borrowers[msg.sender] */\n      0x00\n        /* \"NummoraCore.sol\":2696:2706  msg.sender */\n      caller\n        /* \"NummoraCore.sol\":2686:2707  borrowers[msg.sender] */\n      0xffffffffffffffffffffffffffffffffffffffff\n      and\n      0xffffffffffffffffffffffffffffffffffffffff\n      and\n      dup2\n      mstore\n      0x20\n      add\n      swap1\n      dup2\n      mstore\n      0x20\n      add\n      0x00\n      keccak256\n      0x00\n        /* \"NummoraCore.sol\":2686:2714  borrowers[msg.sender] = true */\n      0x0100\n      exp\n      dup2\n      sload\n      dup2\n      0xff\n      mul\n      not\n      and\n      swap1\n      dup4\n      iszero\n      iszero\n      mul\n      or\n      swap1\n      sstore\n      pop\n        /* \"NummoraCore.sol\":2730:2760  BorrowerRegistered(msg.sender) */\n      0x57c3b463895a0da2fe39978165ab8b71864d9225a91dd3bda7184006e52cdd0c\n        /* \"NummoraCore.sol\":2749:2759  msg.sender */\n      caller\n        /* \"NummoraCore.sol\":2730:2760  BorrowerRegistered(msg.sender) */\n      mload(0x40)\n      tag_275\n      swap2\n      swap1\n      tag_73\n      jump\t// in\n    tag_275:\n      mload(0x40)\n      dup1\n      swap2\n      sub\n      swap1\n      log1\n        /* \"NummoraCore.sol\":2638:2768  function registerBorrower() external {... */\n      jump\t// out\n        /* \"NummoraCore.sol\":7613:7717  function isBorrower(address user) external view returns (bool) {... */\n    tag_104:\n        /* \"NummoraCore.sol\":7670:7674  bool */\n      0x00\n        /* \"NummoraCore.sol\":7694:7703  borrowers */\n      0x06\n        /* \"NummoraCore.sol\":7694:7709  borrowers[user] */\n      0x00\n        /* \"NummoraCore.sol\":7704:7708  user */\n      dup4\n        /* \"NummoraCore.sol\":7694:7709  borrowers[user] */\n      0xffffffffffffffffffffffffffffffffffffffff\n      and\n      0xffffffffffffffffffffffffffffffffffffffff\n      and\n      dup2\n      mstore\n      0x20\n      add\n      swap1\n      dup2\n      mstore\n      0x20\n      add\n      0x00\n      keccak256\n      0x00\n      swap1\n      sload\n      swap1\n      0x0100\n      exp\n      swap1\n      div\n      0xff\n      and\n        /* \"NummoraCore.sol\":7687:7709  return borrowers[user] */\n      swap1\n      pop\n        /* \"NummoraCore.sol\":7613:7717  function isBorrower(address user) external view returns (bool) {... */\n      swap2\n      swap1\n      pop\n      jump\t// out\n        /* \"@openzeppelin/contracts/access/Ownable.sol\":2543:2758  function transferOwnership(address newOwner) public virtual onlyOwner {... */\n    tag_108:\n        /* \"@openzeppelin/contracts/access/Ownable.sol\":1531:1544  _checkOwner() */\n      tag_278\n        /* \"@openzeppelin/contracts/access/Ownable.sol\":1531:1542  _checkOwner */\n      tag_126\n        /* \"@openzeppelin/contracts/access/Ownable.sol\":1531:1544  _checkOwner() */\n      jump\t// in\n    tag_278:\n        /* \"@openzeppelin/contracts/access/Ownable.sol\":2647:2648  0 */\n      0x00\n        /* \"@openzeppelin/contracts/access/Ownable.sol\":2627:2649  newOwner == address(0) */\n      0xffffffffffffffffffffffffffffffffffffffff\n      and\n        /* \"@openzeppelin/contracts/access/Ownable.sol\":2627:2635  newOwner */\n      dup2\n        /* \"@openzeppelin/contracts/access/Ownable.sol\":2627:2649  newOwner == address(0) */\n      0xffffffffffffffffffffffffffffffffffffffff\n      and\n      sub\n        /* \"@openzeppelin/contracts/access/Ownable.sol\":2623:2714  if (newOwner == address(0)) {... */\n      tag_280\n      jumpi\n        /* \"@openzeppelin/contracts/access/Ownable.sol\":2700:2701  0 */\n      0x00\n        /* \"@openzeppelin/contracts/access/Ownable.sol\":2672:2703  OwnableInvalidOwner(address(0)) */\n      mload(0x40)\n      0x1e4fbdf700000000000000000000000000000000000000000000000000000000\n      dup2\n      mstore\n      0x04\n      add\n      tag_281\n      swap2\n      swap1\n      tag_73\n      jump\t// in\n    tag_281:\n      mload(0x40)\n      dup1\n      swap2\n      sub\n      swap1\n      revert\n        /* \"@openzeppelin/contracts/access/Ownable.sol\":2623:2714  if (newOwner == address(0)) {... */\n    tag_280:\n        /* \"@openzeppelin/contracts/access/Ownable.sol\":2723:2751  _transferOwnership(newOwner) */\n      tag_282\n        /* \"@openzeppelin/contracts/access/Ownable.sol\":2742:2750  newOwner */\n      dup2\n        /* \"@openzeppelin/contracts/access/Ownable.sol\":2723:2741  _transferOwnership */\n      tag_197\n        /* \"@openzeppelin/contracts/access/Ownable.sol\":2723:2751  _transferOwnership(newOwner) */\n      jump\t// in\n    tag_282:\n        /* \"@openzeppelin/contracts/access/Ownable.sol\":2543:2758  function transferOwnership(address newOwner) public virtual onlyOwner {... */\n      pop\n      jump\t// out\n        /* \"NummoraCore.sol\":3160:3495  function withdraw(address token, uint256 amount) external nonReentrant {... */\n    tag_111:\n        /* \"@openzeppelin/contracts/security/ReentrancyGuard.sol\":2261:2282  _nonReentrantBefore() */\n      tag_284\n        /* \"@openzeppelin/contracts/security/ReentrancyGuard.sol\":2261:2280  _nonReentrantBefore */\n      tag_130\n        /* \"@openzeppelin/contracts/security/ReentrancyGuard.sol\":2261:2282  _nonReentrantBefore() */\n      jump\t// in\n    tag_284:\n        /* \"NummoraCore.sol\":3250:3261  stablecoins */\n      0x07\n        /* \"NummoraCore.sol\":3250:3268  stablecoins[token] */\n      0x00\n        /* \"NummoraCore.sol\":3262:3267  token */\n      dup4\n        /* \"NummoraCore.sol\":3250:3268  stablecoins[token] */\n      0xffffffffffffffffffffffffffffffffffffffff\n      and\n      0xffffffffffffffffffffffffffffffffffffffff\n      and\n      dup2\n      mstore\n      0x20\n      add\n      swap1\n      dup2\n      mstore\n      0x20\n      add\n      0x00\n      keccak256\n      0x00\n      swap1\n      sload\n      swap1\n      0x0100\n      exp\n      swap1\n      div\n      0xff\n      and\n        /* \"NummoraCore.sol\":3242:3292  require(stablecoins[token], \"Token not supported\") */\n      tag_286\n      jumpi\n      mload(0x40)\n      0x08c379a000000000000000000000000000000000000000000000000000000000\n      dup2\n      mstore\n      0x04\n      add\n      tag_287\n      swap1\n      tag_171\n      jump\t// in\n    tag_287:\n      mload(0x40)\n      dup1\n      swap2\n      sub\n      swap1\n      revert\n    tag_286:\n        /* \"NummoraCore.sol\":3347:3353  amount */\n      dup1\n        /* \"NummoraCore.sol\":3311:3321  numusToken */\n      0x02\n      0x00\n      swap1\n      sload\n      swap1\n      0x0100\n      exp\n      swap1\n      div\n      0xffffffffffffffffffffffffffffffffffffffff\n      and\n        /* \"NummoraCore.sol\":3311:3331  numusToken.balanceOf */\n      0xffffffffffffffffffffffffffffffffffffffff\n      and\n      0x70a08231\n        /* \"NummoraCore.sol\":3332:3342  msg.sender */\n      caller\n        /* \"NummoraCore.sol\":3311:3343  numusToken.balanceOf(msg.sender) */\n      mload(0x40)\n      dup3\n      0xffffffff\n      and\n      0xe0\n      shl\n      dup2\n      mstore\n      0x04\n      add\n      tag_288\n      swap2\n      swap1\n      tag_73\n      jump\t// in\n    tag_288:\n      0x20\n      mload(0x40)\n      dup1\n      dup4\n      sub\n      dup2\n      dup7\n      gas\n      staticcall\n      iszero\n      dup1\n      iszero\n      tag_290\n      jumpi\n      returndatacopy(0x00, 0x00, returndatasize)\n      revert(0x00, returndatasize)\n    tag_290:\n      pop\n      pop\n      pop\n      pop\n      mload(0x40)\n      returndatasize\n      not(0x1f)\n      0x1f\n      dup3\n      add\n      and\n      dup3\n      add\n      dup1\n      0x40\n      mstore\n      pop\n      dup2\n      add\n      swap1\n      tag_291\n      swap2\n      swap1\n      tag_230\n      jump\t// in\n    tag_291:\n        /* \"NummoraCore.sol\":3311:3353  numusToken.balanceOf(msg.sender) >= amount */\n      lt\n      iszero\n        /* \"NummoraCore.sol\":3303:3378  require(numusToken.balanceOf(msg.sender) >= amount, \"Insufficient balance\") */\n      tag_292\n      jumpi\n      mload(0x40)\n      0x08c379a000000000000000000000000000000000000000000000000000000000\n      dup2\n      mstore\n      0x04\n      add\n      tag_293\n      swap1\n      tag_233\n      jump\t// in\n    tag_293:\n      mload(0x40)\n      dup1\n      swap2\n      sub\n      swap1\n      revert\n    tag_292:\n        /* \"NummoraCore.sol\":3399:3409  numusToken */\n      0x02\n      0x00\n      swap1\n      sload\n      swap1\n      0x0100\n      exp\n      swap1\n      div\n      0xffffffffffffffffffffffffffffffffffffffff\n      and\n        /* \"NummoraCore.sol\":3399:3414  numusToken.burn */\n      0xffffffffffffffffffffffffffffffffffffffff\n      and\n      0x9dc29fac\n        /* \"NummoraCore.sol\":3415:3425  msg.sender */\n      caller\n        /* \"NummoraCore.sol\":3427:3433  amount */\n      dup4\n        /* \"NummoraCore.sol\":3399:3434  numusToken.burn(msg.sender, amount) */\n      mload(0x40)\n      dup4\n      0xffffffff\n      and\n      0xe0\n      shl\n      dup2\n      mstore\n      0x04\n      add\n      tag_294\n      swap3\n      swap2\n      swap1\n      tag_180\n      jump\t// in\n    tag_294:\n      0x00\n      mload(0x40)\n      dup1\n      dup4\n      sub\n      dup2\n      0x00\n      dup8\n      dup1\n      extcodesize\n      iszero\n      dup1\n      iszero\n      tag_295\n      jumpi\n      revert(0x00, 0x00)\n    tag_295:\n      pop\n      gas\n      call\n      iszero\n      dup1\n      iszero\n      tag_297\n      jumpi\n      returndatacopy(0x00, 0x00, returndatasize)\n      revert(0x00, returndatasize)\n    tag_297:\n      pop\n      pop\n      pop\n      pop\n        /* \"NummoraCore.sol\":3452:3457  token */\n      dup2\n        /* \"NummoraCore.sol\":3445:3467  IERC20(token).transfer */\n      0xffffffffffffffffffffffffffffffffffffffff\n      and\n      0xa9059cbb\n        /* \"NummoraCore.sol\":3468:3478  msg.sender */\n      caller\n        /* \"NummoraCore.sol\":3480:3486  amount */\n      dup4\n        /* \"NummoraCore.sol\":3445:3487  IERC20(token).transfer(msg.sender, amount) */\n      mload(0x40)\n      dup4\n      0xffffffff\n      and\n      0xe0\n      shl\n      dup2\n      mstore\n      0x04\n      add\n      tag_298\n      swap3\n      swap2\n      swap1\n      tag_180\n      jump\t// in\n    tag_298:\n      0x20\n      mload(0x40)\n      dup1\n      dup4\n      sub\n      dup2\n      0x00\n      dup8\n      gas\n      call\n      iszero\n      dup1\n      iszero\n      tag_300\n      jumpi\n      returndatacopy(0x00, 0x00, returndatasize)\n      revert(0x00, returndatasize)\n    tag_300:\n      pop\n      pop\n      pop\n      pop\n      mload(0x40)\n      returndatasize\n      not(0x1f)\n      0x1f\n      dup3\n      add\n      and\n      dup3\n      add\n      dup1\n      0x40\n      mstore\n      pop\n      dup2\n      add\n      swap1\n      tag_301\n      swap2\n      swap1\n      tag_159\n      jump\t// in\n    tag_301:\n      pop\n        /* \"@openzeppelin/contracts/security/ReentrancyGuard.sol\":2303:2323  _nonReentrantAfter() */\n      tag_302\n        /* \"@openzeppelin/contracts/security/ReentrancyGuard.sol\":2303:2321  _nonReentrantAfter */\n      tag_165\n        /* \"@openzeppelin/contracts/security/ReentrancyGuard.sol\":2303:2323  _nonReentrantAfter() */\n      jump\t// in\n    tag_302:\n        /* \"NummoraCore.sol\":3160:3495  function withdraw(address token, uint256 amount) external nonReentrant {... */\n      pop\n      pop\n      jump\t// out\n        /* \"NummoraCore.sol\":7371:7489  function getBalance(address user) external view returns (uint256) {... */\n    tag_114:\n        /* \"NummoraCore.sol\":7428:7435  uint256 */\n      0x00\n        /* \"NummoraCore.sol\":7455:7465  numusToken */\n      0x02\n      0x00\n      swap1\n      sload\n      swap1\n      0x0100\n      exp\n      swap1\n      div\n      0xffffffffffffffffffffffffffffffffffffffff\n      and\n        /* \"NummoraCore.sol\":7455:7475  numusToken.balanceOf */\n      0xffffffffffffffffffffffffffffffffffffffff\n      and\n      0x70a08231\n        /* \"NummoraCore.sol\":7476:7480  user */\n      dup4\n        /* \"NummoraCore.sol\":7455:7481  numusToken.balanceOf(user) */\n      mload(0x40)\n      dup3\n      0xffffffff\n      and\n      0xe0\n      shl\n      dup2\n      mstore\n      0x04\n      add\n      tag_304\n      swap2\n      swap1\n      tag_73\n      jump\t// in\n    tag_304:\n      0x20\n      mload(0x40)\n      dup1\n      dup4\n      sub\n      dup2\n      dup7\n      gas\n      staticcall\n      iszero\n      dup1\n      iszero\n      tag_306\n      jumpi\n      returndatacopy(0x00, 0x00, returndatasize)\n      revert(0x00, returndatasize)\n    tag_306:\n      pop\n      pop\n      pop\n      pop\n      mload(0x40)\n      returndatasize\n      not(0x1f)\n      0x1f\n      dup3\n      add\n      and\n      dup3\n      add\n      dup1\n      0x40\n      mstore\n      pop\n      dup2\n      add\n      swap1\n      tag_307\n      swap2\n      swap1\n      tag_230\n      jump\t// in\n    tag_307:\n        /* \"NummoraCore.sol\":7448:7481  return numusToken.balanceOf(user) */\n      swap1\n      pop\n        /* \"NummoraCore.sol\":7371:7489  function getBalance(address user) external view returns (uint256) {... */\n      swap2\n      swap1\n      pop\n      jump\t// out\n        /* \"NummoraCore.sol\":1296:1339  mapping(address => bool) public stablecoins */\n    tag_118:\n      mstore(0x20, 0x07)\n      dup1\n      0x00\n      mstore\n      keccak256(0x00, 0x40)\n      0x00\n      swap2\n      pop\n      sload\n      swap1\n      0x0100\n      exp\n      swap1\n      div\n      0xff\n      and\n      dup2\n      jump\t// out\n        /* \"NummoraCore.sol\":1090:1119  INUMUSToken public numusToken */\n    tag_121:\n      0x02\n      0x00\n      swap1\n      sload\n      swap1\n      0x0100\n      exp\n      swap1\n      div\n      0xffffffffffffffffffffffffffffffffffffffff\n      and\n      dup2\n      jump\t// out\n        /* \"@openzeppelin/contracts/access/Ownable.sol\":1796:1958  function _checkOwner() internal view virtual {... */\n    tag_126:\n        /* \"@openzeppelin/contracts/access/Ownable.sol\":1866:1878  _msgSender() */\n      tag_309\n        /* \"@openzeppelin/contracts/access/Ownable.sol\":1866:1876  _msgSender */\n      tag_310\n        /* \"@openzeppelin/contracts/access/Ownable.sol\":1866:1878  _msgSender() */\n      jump\t// in\n    tag_309:\n        /* \"@openzeppelin/contracts/access/Ownable.sol\":1855:1878  owner() != _msgSender() */\n      0xffffffffffffffffffffffffffffffffffffffff\n      and\n        /* \"@openzeppelin/contracts/access/Ownable.sol\":1855:1862  owner() */\n      tag_311\n        /* \"@openzeppelin/contracts/access/Ownable.sol\":1855:1860  owner */\n      tag_71\n        /* \"@openzeppelin/contracts/access/Ownable.sol\":1855:1862  owner() */\n      jump\t// in\n    tag_311:\n        /* \"@openzeppelin/contracts/access/Ownable.sol\":1855:1878  owner() != _msgSender() */\n      0xffffffffffffffffffffffffffffffffffffffff\n      and\n      eq\n        /* \"@openzeppelin/contracts/access/Ownable.sol\":1851:1952  if (owner() != _msgSender()) {... */\n      tag_312\n      jumpi\n        /* \"@openzeppelin/contracts/access/Ownable.sol\":1928:1940  _msgSender() */\n      tag_313\n        /* \"@openzeppelin/contracts/access/Ownable.sol\":1928:1938  _msgSender */\n      tag_310\n        /* \"@openzeppelin/contracts/access/Ownable.sol\":1928:1940  _msgSender() */\n      jump\t// in\n    tag_313:\n        /* \"@openzeppelin/contracts/access/Ownable.sol\":1901:1941  OwnableUnauthorizedAccount(_msgSender()) */\n      mload(0x40)\n      0x118cdaa700000000000000000000000000000000000000000000000000000000\n      dup2\n      mstore\n      0x04\n      add\n      tag_314\n      swap2\n      swap1\n      tag_73\n      jump\t// in\n    tag_314:\n      mload(0x40)\n      dup1\n      swap2\n      sub\n      swap1\n      revert\n        /* \"@openzeppelin/contracts/access/Ownable.sol\":1851:1952  if (owner() != _msgSender()) {... */\n    tag_312:\n        /* \"@openzeppelin/contracts/access/Ownable.sol\":1796:1958  function _checkOwner() internal view virtual {... */\n      jump\t// out\n        /* \"@openzeppelin/contracts/security/ReentrancyGuard.sol\":2336:2623  function _nonReentrantBefore() private {... */\n    tag_130:\n        /* \"@openzeppelin/contracts/security/ReentrancyGuard.sol\":1759:1760  2 */\n      0x02\n        /* \"@openzeppelin/contracts/security/ReentrancyGuard.sol\":2468:2475  _status */\n      sload(0x00)\n        /* \"@openzeppelin/contracts/security/ReentrancyGuard.sol\":2468:2487  _status != _ENTERED */\n      sub\n        /* \"@openzeppelin/contracts/security/ReentrancyGuard.sol\":2460:2523  require(_status != _ENTERED, \"ReentrancyGuard: reentrant call\") */\n      tag_316\n      jumpi\n      mload(0x40)\n      0x08c379a000000000000000000000000000000000000000000000000000000000\n      dup2\n      mstore\n      0x04\n      add\n      tag_317\n      swap1\n      tag_318\n      jump\t// in\n    tag_317:\n      mload(0x40)\n      dup1\n      swap2\n      sub\n      swap1\n      revert\n    tag_316:\n        /* \"@openzeppelin/contracts/security/ReentrancyGuard.sol\":1759:1760  2 */\n      0x02\n        /* \"@openzeppelin/contracts/security/ReentrancyGuard.sol\":2598:2605  _status */\n      0x00\n        /* \"@openzeppelin/contracts/security/ReentrancyGuard.sol\":2598:2616  _status = _ENTERED */\n      dup2\n      swap1\n      sstore\n      pop\n        /* \"@openzeppelin/contracts/security/ReentrancyGuard.sol\":2336:2623  function _nonReentrantBefore() private {... */\n      jump\t// out\n        /* \"NummoraCore.sol\":6876:7193  function _completeLoan(uint256 loanId) internal {... */\n    tag_161:\n        /* \"NummoraCore.sol\":6935:6952  Loan storage loan */\n      0x00\n        /* \"NummoraCore.sol\":6955:6960  loans */\n      0x04\n        /* \"NummoraCore.sol\":6955:6968  loans[loanId] */\n      0x00\n        /* \"NummoraCore.sol\":6961:6967  loanId */\n      dup4\n        /* \"NummoraCore.sol\":6955:6968  loans[loanId] */\n      dup2\n      mstore\n      0x20\n      add\n      swap1\n      dup2\n      mstore\n      0x20\n      add\n      0x00\n      keccak256\n        /* \"NummoraCore.sol\":6935:6968  Loan storage loan = loans[loanId] */\n      swap1\n      pop\n        /* \"NummoraCore.sol\":6993:6998  false */\n      0x00\n        /* \"NummoraCore.sol\":6979:6983  loan */\n      dup2\n        /* \"NummoraCore.sol\":6979:6990  loan.active */\n      0x0a\n      add\n      0x00\n        /* \"NummoraCore.sol\":6979:6998  loan.active = false */\n      0x0100\n      exp\n      dup2\n      sload\n      dup2\n      0xff\n      mul\n      not\n      and\n      swap1\n      dup4\n      iszero\n      iszero\n      mul\n      or\n      swap1\n      sstore\n      pop\n        /* \"NummoraCore.sol\":7019:7039  uint256 lenderAmount */\n      0x00\n        /* \"NummoraCore.sol\":7059:7063  loan */\n      dup2\n        /* \"NummoraCore.sol\":7059:7075  loan.platformFee */\n      0x0b\n      add\n      sload\n        /* \"NummoraCore.sol\":7042:7046  loan */\n      dup3\n        /* \"NummoraCore.sol\":7042:7056  loan.totalPaid */\n      0x05\n      add\n      sload\n        /* \"NummoraCore.sol\":7042:7075  loan.totalPaid - loan.platformFee */\n      tag_320\n      swap2\n      swap1\n      tag_139\n      jump\t// in\n    tag_320:\n        /* \"NummoraCore.sol\":7019:7075  uint256 lenderAmount = loan.totalPaid - loan.platformFee */\n      swap1\n      pop\n        /* \"NummoraCore.sol\":7096:7106  numusToken */\n      0x02\n      0x00\n      swap1\n      sload\n      swap1\n      0x0100\n      exp\n      swap1\n      div\n      0xffffffffffffffffffffffffffffffffffffffff\n      and\n        /* \"NummoraCore.sol\":7096:7111  numusToken.mint */\n      0xffffffffffffffffffffffffffffffffffffffff\n      and\n      0x40c10f19\n        /* \"NummoraCore.sol\":7112:7116  loan */\n      dup4\n        /* \"NummoraCore.sol\":7112:7123  loan.lender */\n      0x00\n      add\n      0x00\n      swap1\n      sload\n      swap1\n      0x0100\n      exp\n      swap1\n      div\n      0xffffffffffffffffffffffffffffffffffffffff\n      and\n        /* \"NummoraCore.sol\":7125:7137  lenderAmount */\n      dup4\n        /* \"NummoraCore.sol\":7096:7138  numusToken.mint(loan.lender, lenderAmount) */\n      mload(0x40)\n      dup4\n      0xffffffff\n      and\n      0xe0\n      shl\n      dup2\n      mstore\n      0x04\n      add\n      tag_321\n      swap3\n      swap2\n      swap1\n      tag_180\n      jump\t// in\n    tag_321:\n      0x00\n      mload(0x40)\n      dup1\n      dup4\n      sub\n      dup2\n      0x00\n      dup8\n      dup1\n      extcodesize\n      iszero\n      dup1\n      iszero\n      tag_322\n      jumpi\n      revert(0x00, 0x00)\n    tag_322:\n      pop\n      gas\n      call\n      iszero\n      dup1\n      iszero\n      tag_324\n      jumpi\n      returndatacopy(0x00, 0x00, returndatasize)\n      revert(0x00, returndatasize)\n    tag_324:\n      pop\n      pop\n      pop\n      pop\n        /* \"NummoraCore.sol\":7164:7185  LoanCompleted(loanId) */\n      0x02ca5489b37dd363d1302bac719e8ee40e540ffbe8c12253570fea63e11cad71\n        /* \"NummoraCore.sol\":7178:7184  loanId */\n      dup4\n        /* \"NummoraCore.sol\":7164:7185  LoanCompleted(loanId) */\n      mload(0x40)\n      tag_325\n      swap2\n      swap1\n      tag_69\n      jump\t// in\n    tag_325:\n      mload(0x40)\n      dup1\n      swap2\n      sub\n      swap1\n      log1\n        /* \"NummoraCore.sol\":6924:7193  {... */\n      pop\n      pop\n        /* \"NummoraCore.sol\":6876:7193  function _completeLoan(uint256 loanId) internal {... */\n      pop\n      jump\t// out\n        /* \"@openzeppelin/contracts/security/ReentrancyGuard.sol\":2629:2838  function _nonReentrantAfter() private {... */\n    tag_165:\n        /* \"@openzeppelin/contracts/security/ReentrancyGuard.sol\":1716:1717  1 */\n      0x01\n        /* \"@openzeppelin/contracts/security/ReentrancyGuard.sol\":2809:2816  _status */\n      0x00\n        /* \"@openzeppelin/contracts/security/ReentrancyGuard.sol\":2809:2831  _status = _NOT_ENTERED */\n      dup2\n      swap1\n      sstore\n      pop\n        /* \"@openzeppelin/contracts/security/ReentrancyGuard.sol\":2629:2838  function _nonReentrantAfter() private {... */\n      jump\t// out\n        /* \"@openzeppelin/contracts/access/Ownable.sol\":2912:3099  function _transferOwnership(address newOwner) internal virtual {... */\n    tag_197:\n        /* \"@openzeppelin/contracts/access/Ownable.sol\":2985:3001  address oldOwner */\n      0x00\n        /* \"@openzeppelin/contracts/access/Ownable.sol\":3004:3010  _owner */\n      0x01\n      0x00\n      swap1\n      sload\n      swap1\n      0x0100\n      exp\n      swap1\n      div\n      0xffffffffffffffffffffffffffffffffffffffff\n      and\n        /* \"@openzeppelin/contracts/access/Ownable.sol\":2985:3010  address oldOwner = _owner */\n      swap1\n      pop\n        /* \"@openzeppelin/contracts/access/Ownable.sol\":3029:3037  newOwner */\n      dup2\n        /* \"@openzeppelin/contracts/access/Ownable.sol\":3020:3026  _owner */\n      0x01\n      0x00\n        /* \"@openzeppelin/contracts/access/Ownable.sol\":3020:3037  _owner = newOwner */\n      0x0100\n      exp\n      dup2\n      sload\n      dup2\n      0xffffffffffffffffffffffffffffffffffffffff\n      mul\n      not\n      and\n      swap1\n      dup4\n      0xffffffffffffffffffffffffffffffffffffffff\n      and\n      mul\n      or\n      swap1\n      sstore\n      pop\n        /* \"@openzeppelin/contracts/access/Ownable.sol\":3083:3091  newOwner */\n      dup2\n        /* \"@openzeppelin/contracts/access/Ownable.sol\":3052:3092  OwnershipTransferred(oldOwner, newOwner) */\n      0xffffffffffffffffffffffffffffffffffffffff\n      and\n        /* \"@openzeppelin/contracts/access/Ownable.sol\":3073:3081  oldOwner */\n      dup2\n        /* \"@openzeppelin/contracts/access/Ownable.sol\":3052:3092  OwnershipTransferred(oldOwner, newOwner) */\n      0xffffffffffffffffffffffffffffffffffffffff\n      and\n      0x8be0079c531659141344cd1fd0a4f28419497f9722a3daafe3b4186f6b6457e0\n      mload(0x40)\n      mload(0x40)\n      dup1\n      swap2\n      sub\n      swap1\n      log3\n        /* \"@openzeppelin/contracts/access/Ownable.sol\":2975:3099  {... */\n      pop\n        /* \"@openzeppelin/contracts/access/Ownable.sol\":2912:3099  function _transferOwnership(address newOwner) internal virtual {... */\n      pop\n      jump\t// out\n        /* \"@openzeppelin/contracts/utils/Context.sol\":656:752  function _msgSender() internal view virtual returns (address) {... */\n    tag_310:\n        /* \"@openzeppelin/contracts/utils/Context.sol\":709:716  address */\n      0x00\n        /* \"@openzeppelin/contracts/utils/Context.sol\":735:745  msg.sender */\n      caller\n        /* \"@openzeppelin/contracts/utils/Context.sol\":728:745  return msg.sender */\n      swap1\n      pop\n        /* \"@openzeppelin/contracts/utils/Context.sol\":656:752  function _msgSender() internal view virtual returns (address) {... */\n      swap1\n      jump\t// out\n    tag_190:\n      mload(0x40)\n      dup1\n      0x0180\n      add\n      0x40\n      mstore\n      dup1\n      and(0xffffffffffffffffffffffffffffffffffffffff, 0x00)\n      dup2\n      mstore\n      0x20\n      add\n      and(0xffffffffffffffffffffffffffffffffffffffff, 0x00)\n      dup2\n      mstore\n      0x20\n      add\n      and(0xffffffffffffffffffffffffffffffffffffffff, 0x00)\n      dup2\n      mstore\n      0x20\n      add\n      0x00\n      dup2\n      mstore\n      0x20\n      add\n      0x00\n      dup2\n      mstore\n      0x20\n      add\n      0x00\n      dup2\n      mstore\n      0x20\n      add\n      0x00\n      dup2\n      mstore\n      0x20\n      add\n      0x00\n      dup2\n      mstore\n      0x20\n      add\n      0x00\n      dup2\n      mstore\n      0x20\n      add\n      0x00\n      dup2\n      mstore\n      0x20\n      add\n      iszero(iszero(0x00))\n      dup2\n      mstore\n      0x20\n      add\n      0x00\n      dup2\n      mstore\n      pop\n      swap1\n      jump\t// out\n        /* \"#utility.yul\":88:205   */\n    tag_330:\n        /* \"#utility.yul\":197:198   */\n      0x00\n        /* \"#utility.yul\":194:195   */\n      0x00\n        /* \"#utility.yul\":187:199   */\n      revert\n        /* \"#utility.yul\":334:460   */\n    tag_332:\n        /* \"#utility.yul\":371:378   */\n      0x00\n        /* \"#utility.yul\":411:453   */\n      0xffffffffffffffffffffffffffffffffffffffff\n        /* \"#utility.yul\":404:409   */\n      dup3\n        /* \"#utility.yul\":400:454   */\n      and\n        /* \"#utility.yul\":389:454   */\n      swap1\n      pop\n        /* \"#utility.yul\":334:460   */\n      swap2\n      swap1\n      pop\n      jump\t// out\n        /* \"#utility.yul\":466:562   */\n    tag_333:\n        /* \"#utility.yul\":503:510   */\n      0x00\n        /* \"#utility.yul\":532:556   */\n      tag_390\n        /* \"#utility.yul\":550:555   */\n      dup3\n        /* \"#utility.yul\":532:556   */\n      tag_332\n      jump\t// in\n    tag_390:\n        /* \"#utility.yul\":521:556   */\n      swap1\n      pop\n        /* \"#utility.yul\":466:562   */\n      swap2\n      swap1\n      pop\n      jump\t// out\n        /* \"#utility.yul\":568:690   */\n    tag_334:\n        /* \"#utility.yul\":641:665   */\n      tag_392\n        /* \"#utility.yul\":659:664   */\n      dup2\n        /* \"#utility.yul\":641:665   */\n      tag_333\n      jump\t// in\n    tag_392:\n        /* \"#utility.yul\":634:639   */\n      dup2\n        /* \"#utility.yul\":631:666   */\n      eq\n        /* \"#utility.yul\":621:684   */\n      tag_393\n      jumpi\n        /* \"#utility.yul\":680:681   */\n      0x00\n        /* \"#utility.yul\":677:678   */\n      0x00\n        /* \"#utility.yul\":670:682   */\n      revert\n        /* \"#utility.yul\":621:684   */\n    tag_393:\n        /* \"#utility.yul\":568:690   */\n      pop\n      jump\t// out\n        /* \"#utility.yul\":696:835   */\n    tag_335:\n        /* \"#utility.yul\":742:747   */\n      0x00\n        /* \"#utility.yul\":780:786   */\n      dup2\n        /* \"#utility.yul\":767:787   */\n      calldataload\n        /* \"#utility.yul\":758:787   */\n      swap1\n      pop\n        /* \"#utility.yul\":796:829   */\n      tag_395\n        /* \"#utility.yul\":823:828   */\n      dup2\n        /* \"#utility.yul\":796:829   */\n      tag_334\n      jump\t// in\n    tag_395:\n        /* \"#utility.yul\":696:835   */\n      swap3\n      swap2\n      pop\n      pop\n      jump\t// out\n        /* \"#utility.yul\":841:1170   */\n    tag_34:\n        /* \"#utility.yul\":900:906   */\n      0x00\n        /* \"#utility.yul\":949:951   */\n      0x20\n        /* \"#utility.yul\":937:946   */\n      dup3\n        /* \"#utility.yul\":928:935   */\n      dup5\n        /* \"#utility.yul\":924:947   */\n      sub\n        /* \"#utility.yul\":920:952   */\n      slt\n        /* \"#utility.yul\":917:1036   */\n      iszero\n      tag_397\n      jumpi\n        /* \"#utility.yul\":955:1034   */\n      tag_398\n      tag_330\n      jump\t// in\n    tag_398:\n        /* \"#utility.yul\":917:1036   */\n    tag_397:\n        /* \"#utility.yul\":1075:1076   */\n      0x00\n        /* \"#utility.yul\":1100:1153   */\n      tag_399\n        /* \"#utility.yul\":1145:1152   */\n      dup5\n        /* \"#utility.yul\":1136:1142   */\n      dup3\n        /* \"#utility.yul\":1125:1134   */\n      dup6\n        /* \"#utility.yul\":1121:1143   */\n      add\n        /* \"#utility.yul\":1100:1153   */\n      tag_335\n      jump\t// in\n    tag_399:\n        /* \"#utility.yul\":1090:1153   */\n      swap2\n      pop\n        /* \"#utility.yul\":1046:1163   */\n      pop\n        /* \"#utility.yul\":841:1170   */\n      swap3\n      swap2\n      pop\n      pop\n      jump\t// out\n        /* \"#utility.yul\":1176:1266   */\n    tag_336:\n        /* \"#utility.yul\":1210:1217   */\n      0x00\n        /* \"#utility.yul\":1253:1258   */\n      dup2\n        /* \"#utility.yul\":1246:1259   */\n      iszero\n        /* \"#utility.yul\":1239:1260   */\n      iszero\n        /* \"#utility.yul\":1228:1260   */\n      swap1\n      pop\n        /* \"#utility.yul\":1176:1266   */\n      swap2\n      swap1\n      pop\n      jump\t// out\n        /* \"#utility.yul\":1272:1381   */\n    tag_337:\n        /* \"#utility.yul\":1353:1374   */\n      tag_402\n        /* \"#utility.yul\":1368:1373   */\n      dup2\n        /* \"#utility.yul\":1353:1374   */\n      tag_336\n      jump\t// in\n    tag_402:\n        /* \"#utility.yul\":1348:1351   */\n      dup3\n        /* \"#utility.yul\":1341:1375   */\n      mstore\n        /* \"#utility.yul\":1272:1381   */\n      pop\n      pop\n      jump\t// out\n        /* \"#utility.yul\":1387:1597   */\n    tag_40:\n        /* \"#utility.yul\":1474:1478   */\n      0x00\n        /* \"#utility.yul\":1512:1514   */\n      0x20\n        /* \"#utility.yul\":1501:1510   */\n      dup3\n        /* \"#utility.yul\":1497:1515   */\n      add\n        /* \"#utility.yul\":1489:1515   */\n      swap1\n      pop\n        /* \"#utility.yul\":1525:1590   */\n      tag_404\n        /* \"#utility.yul\":1587:1588   */\n      0x00\n        /* \"#utility.yul\":1576:1585   */\n      dup4\n        /* \"#utility.yul\":1572:1589   */\n      add\n        /* \"#utility.yul\":1563:1569   */\n      dup5\n        /* \"#utility.yul\":1525:1590   */\n      tag_337\n      jump\t// in\n    tag_404:\n        /* \"#utility.yul\":1387:1597   */\n      swap3\n      swap2\n      pop\n      pop\n      jump\t// out\n        /* \"#utility.yul\":1603:1680   */\n    tag_338:\n        /* \"#utility.yul\":1640:1647   */\n      0x00\n        /* \"#utility.yul\":1669:1674   */\n      dup2\n        /* \"#utility.yul\":1658:1674   */\n      swap1\n      pop\n        /* \"#utility.yul\":1603:1680   */\n      swap2\n      swap1\n      pop\n      jump\t// out\n        /* \"#utility.yul\":1686:1808   */\n    tag_339:\n        /* \"#utility.yul\":1759:1783   */\n      tag_407\n        /* \"#utility.yul\":1777:1782   */\n      dup2\n        /* \"#utility.yul\":1759:1783   */\n      tag_338\n      jump\t// in\n    tag_407:\n        /* \"#utility.yul\":1752:1757   */\n      dup2\n        /* \"#utility.yul\":1749:1784   */\n      eq\n        /* \"#utility.yul\":1739:1802   */\n      tag_408\n      jumpi\n        /* \"#utility.yul\":1798:1799   */\n      0x00\n        /* \"#utility.yul\":1795:1796   */\n      0x00\n        /* \"#utility.yul\":1788:1800   */\n      revert\n        /* \"#utility.yul\":1739:1802   */\n    tag_408:\n        /* \"#utility.yul\":1686:1808   */\n      pop\n      jump\t// out\n        /* \"#utility.yul\":1814:1953   */\n    tag_340:\n        /* \"#utility.yul\":1860:1865   */\n      0x00\n        /* \"#utility.yul\":1898:1904   */\n      dup2\n        /* \"#utility.yul\":1885:1905   */\n      calldataload\n        /* \"#utility.yul\":1876:1905   */\n      swap1\n      pop\n        /* \"#utility.yul\":1914:1947   */\n      tag_410\n        /* \"#utility.yul\":1941:1946   */\n      dup2\n        /* \"#utility.yul\":1914:1947   */\n      tag_339\n      jump\t// in\n    tag_410:\n        /* \"#utility.yul\":1814:1953   */\n      swap3\n      swap2\n      pop\n      pop\n      jump\t// out\n        /* \"#utility.yul\":1959:2288   */\n    tag_43:\n        /* \"#utility.yul\":2018:2024   */\n      0x00\n        /* \"#utility.yul\":2067:2069   */\n      0x20\n        /* \"#utility.yul\":2055:2064   */\n      dup3\n        /* \"#utility.yul\":2046:2053   */\n      dup5\n        /* \"#utility.yul\":2042:2065   */\n      sub\n        /* \"#utility.yul\":2038:2070   */\n      slt\n        /* \"#utility.yul\":2035:2154   */\n      iszero\n      tag_412\n      jumpi\n        /* \"#utility.yul\":2073:2152   */\n      tag_413\n      tag_330\n      jump\t// in\n    tag_413:\n        /* \"#utility.yul\":2035:2154   */\n    tag_412:\n        /* \"#utility.yul\":2193:2194   */\n      0x00\n        /* \"#utility.yul\":2218:2271   */\n      tag_414\n        /* \"#utility.yul\":2263:2270   */\n      dup5\n        /* \"#utility.yul\":2254:2260   */\n      dup3\n        /* \"#utility.yul\":2243:2252   */\n      dup6\n        /* \"#utility.yul\":2239:2261   */\n      add\n        /* \"#utility.yul\":2218:2271   */\n      tag_340\n      jump\t// in\n    tag_414:\n        /* \"#utility.yul\":2208:2271   */\n      swap2\n      pop\n        /* \"#utility.yul\":2164:2281   */\n      pop\n        /* \"#utility.yul\":1959:2288   */\n      swap3\n      swap2\n      pop\n      pop\n      jump\t// out\n        /* \"#utility.yul\":2294:2354   */\n    tag_341:\n        /* \"#utility.yul\":2322:2325   */\n      0x00\n        /* \"#utility.yul\":2343:2348   */\n      dup2\n        /* \"#utility.yul\":2336:2348   */\n      swap1\n      pop\n        /* \"#utility.yul\":2294:2354   */\n      swap2\n      swap1\n      pop\n      jump\t// out\n        /* \"#utility.yul\":2360:2502   */\n    tag_342:\n        /* \"#utility.yul\":2410:2419   */\n      0x00\n        /* \"#utility.yul\":2443:2496   */\n      tag_417\n        /* \"#utility.yul\":2461:2495   */\n      tag_418\n        /* \"#utility.yul\":2470:2494   */\n      tag_419\n        /* \"#utility.yul\":2488:2493   */\n      dup5\n        /* \"#utility.yul\":2470:2494   */\n      tag_332\n      jump\t// in\n    tag_419:\n        /* \"#utility.yul\":2461:2495   */\n      tag_341\n      jump\t// in\n    tag_418:\n        /* \"#utility.yul\":2443:2496   */\n      tag_332\n      jump\t// in\n    tag_417:\n        /* \"#utility.yul\":2430:2496   */\n      swap1\n      pop\n        /* \"#utility.yul\":2360:2502   */\n      swap2\n      swap1\n      pop\n      jump\t// out\n        /* \"#utility.yul\":2508:2634   */\n    tag_343:\n        /* \"#utility.yul\":2558:2567   */\n      0x00\n        /* \"#utility.yul\":2591:2628   */\n      tag_421\n        /* \"#utility.yul\":2622:2627   */\n      dup3\n        /* \"#utility.yul\":2591:2628   */\n      tag_342\n      jump\t// in\n    tag_421:\n        /* \"#utility.yul\":2578:2628   */\n      swap1\n      pop\n        /* \"#utility.yul\":2508:2634   */\n      swap2\n      swap1\n      pop\n      jump\t// out\n        /* \"#utility.yul\":2640:2782   */\n    tag_344:\n        /* \"#utility.yul\":2706:2715   */\n      0x00\n        /* \"#utility.yul\":2739:2776   */\n      tag_423\n        /* \"#utility.yul\":2770:2775   */\n      dup3\n        /* \"#utility.yul\":2739:2776   */\n      tag_343\n      jump\t// in\n    tag_423:\n        /* \"#utility.yul\":2726:2776   */\n      swap1\n      pop\n        /* \"#utility.yul\":2640:2782   */\n      swap2\n      swap1\n      pop\n      jump\t// out\n        /* \"#utility.yul\":2788:2951   */\n    tag_345:\n        /* \"#utility.yul\":2891:2944   */\n      tag_425\n        /* \"#utility.yul\":2938:2943   */\n      dup2\n        /* \"#utility.yul\":2891:2944   */\n      tag_344\n      jump\t// in\n    tag_425:\n        /* \"#utility.yul\":2886:2889   */\n      dup3\n        /* \"#utility.yul\":2879:2945   */\n      mstore\n        /* \"#utility.yul\":2788:2951   */\n      pop\n      pop\n      jump\t// out\n        /* \"#utility.yul\":2957:3211   */\n    tag_48:\n        /* \"#utility.yul\":3066:3070   */\n      0x00\n        /* \"#utility.yul\":3104:3106   */\n      0x20\n        /* \"#utility.yul\":3093:3102   */\n      dup3\n        /* \"#utility.yul\":3089:3107   */\n      add\n        /* \"#utility.yul\":3081:3107   */\n      swap1\n      pop\n        /* \"#utility.yul\":3117:3204   */\n      tag_427\n        /* \"#utility.yul\":3201:3202   */\n      0x00\n        /* \"#utility.yul\":3190:3199   */\n      dup4\n        /* \"#utility.yul\":3186:3203   */\n      add\n        /* \"#utility.yul\":3177:3183   */\n      dup5\n        /* \"#utility.yul\":3117:3204   */\n      tag_345\n      jump\t// in\n    tag_427:\n        /* \"#utility.yul\":2957:3211   */\n      swap3\n      swap2\n      pop\n      pop\n      jump\t// out\n        /* \"#utility.yul\":3217:3691   */\n    tag_51:\n        /* \"#utility.yul\":3285:3291   */\n      0x00\n        /* \"#utility.yul\":3293:3299   */\n      0x00\n        /* \"#utility.yul\":3342:3344   */\n      0x40\n        /* \"#utility.yul\":3330:3339   */\n      dup4\n        /* \"#utility.yul\":3321:3328   */\n      dup6\n        /* \"#utility.yul\":3317:3340   */\n      sub\n        /* \"#utility.yul\":3313:3345   */\n      slt\n        /* \"#utility.yul\":3310:3429   */\n      iszero\n      tag_429\n      jumpi\n        /* \"#utility.yul\":3348:3427   */\n      tag_430\n      tag_330\n      jump\t// in\n    tag_430:\n        /* \"#utility.yul\":3310:3429   */\n    tag_429:\n        /* \"#utility.yul\":3468:3469   */\n      0x00\n        /* \"#utility.yul\":3493:3546   */\n      tag_431\n        /* \"#utility.yul\":3538:3545   */\n      dup6\n        /* \"#utility.yul\":3529:3535   */\n      dup3\n        /* \"#utility.yul\":3518:3527   */\n      dup7\n        /* \"#utility.yul\":3514:3536   */\n      add\n        /* \"#utility.yul\":3493:3546   */\n      tag_335\n      jump\t// in\n    tag_431:\n        /* \"#utility.yul\":3483:3546   */\n      swap3\n      pop\n        /* \"#utility.yul\":3439:3556   */\n      pop\n        /* \"#utility.yul\":3595:3597   */\n      0x20\n        /* \"#utility.yul\":3621:3674   */\n      tag_432\n        /* \"#utility.yul\":3666:3673   */\n      dup6\n        /* \"#utility.yul\":3657:3663   */\n      dup3\n        /* \"#utility.yul\":3646:3655   */\n      dup7\n        /* \"#utility.yul\":3642:3664   */\n      add\n        /* \"#utility.yul\":3621:3674   */\n      tag_340\n      jump\t// in\n    tag_432:\n        /* \"#utility.yul\":3611:3674   */\n      swap2\n      pop\n        /* \"#utility.yul\":3566:3684   */\n      pop\n        /* \"#utility.yul\":3217:3691   */\n      swap3\n      pop\n      swap3\n      swap1\n      pop\n      jump\t// out\n        /* \"#utility.yul\":3697:3805   */\n    tag_346:\n        /* \"#utility.yul\":3774:3798   */\n      tag_434\n        /* \"#utility.yul\":3792:3797   */\n      dup2\n        /* \"#utility.yul\":3774:3798   */\n      tag_333\n      jump\t// in\n    tag_434:\n        /* \"#utility.yul\":3769:3772   */\n      dup3\n        /* \"#utility.yul\":3762:3799   */\n      mstore\n        /* \"#utility.yul\":3697:3805   */\n      pop\n      pop\n      jump\t// out\n        /* \"#utility.yul\":3811:3919   */\n    tag_347:\n        /* \"#utility.yul\":3888:3912   */\n      tag_436\n        /* \"#utility.yul\":3906:3911   */\n      dup2\n        /* \"#utility.yul\":3888:3912   */\n      tag_338\n      jump\t// in\n    tag_436:\n        /* \"#utility.yul\":3883:3886   */\n      dup3\n        /* \"#utility.yul\":3876:3913   */\n      mstore\n        /* \"#utility.yul\":3811:3919   */\n      pop\n      pop\n      jump\t// out\n        /* \"#utility.yul\":3925:4024   */\n    tag_348:\n        /* \"#utility.yul\":3996:4017   */\n      tag_438\n        /* \"#utility.yul\":4011:4016   */\n      dup2\n        /* \"#utility.yul\":3996:4017   */\n      tag_336\n      jump\t// in\n    tag_438:\n        /* \"#utility.yul\":3991:3994   */\n      dup3\n        /* \"#utility.yul\":3984:4018   */\n      mstore\n        /* \"#utility.yul\":3925:4024   */\n      pop\n      pop\n      jump\t// out\n        /* \"#utility.yul\":4088:6411   */\n    tag_349:\n        /* \"#utility.yul\":4227:4233   */\n      0x0180\n        /* \"#utility.yul\":4222:4225   */\n      dup3\n        /* \"#utility.yul\":4218:4234   */\n      add\n        /* \"#utility.yul\":4318:4322   */\n      0x00\n        /* \"#utility.yul\":4311:4316   */\n      dup3\n        /* \"#utility.yul\":4307:4323   */\n      add\n        /* \"#utility.yul\":4301:4324   */\n      mload\n        /* \"#utility.yul\":4337:4400   */\n      tag_440\n        /* \"#utility.yul\":4394:4398   */\n      0x00\n        /* \"#utility.yul\":4389:4392   */\n      dup6\n        /* \"#utility.yul\":4385:4399   */\n      add\n        /* \"#utility.yul\":4371:4383   */\n      dup3\n        /* \"#utility.yul\":4337:4400   */\n      tag_346\n      jump\t// in\n    tag_440:\n        /* \"#utility.yul\":4244:4410   */\n      pop\n        /* \"#utility.yul\":4496:4500   */\n      0x20\n        /* \"#utility.yul\":4489:4494   */\n      dup3\n        /* \"#utility.yul\":4485:4501   */\n      add\n        /* \"#utility.yul\":4479:4502   */\n      mload\n        /* \"#utility.yul\":4515:4578   */\n      tag_441\n        /* \"#utility.yul\":4572:4576   */\n      0x20\n        /* \"#utility.yul\":4567:4570   */\n      dup6\n        /* \"#utility.yul\":4563:4577   */\n      add\n        /* \"#utility.yul\":4549:4561   */\n      dup3\n        /* \"#utility.yul\":4515:4578   */\n      tag_346\n      jump\t// in\n    tag_441:\n        /* \"#utility.yul\":4420:4588   */\n      pop\n        /* \"#utility.yul\":4676:4680   */\n      0x40\n        /* \"#utility.yul\":4669:4674   */\n      dup3\n        /* \"#utility.yul\":4665:4681   */\n      add\n        /* \"#utility.yul\":4659:4682   */\n      mload\n        /* \"#utility.yul\":4695:4758   */\n      tag_442\n        /* \"#utility.yul\":4752:4756   */\n      0x40\n        /* \"#utility.yul\":4747:4750   */\n      dup6\n        /* \"#utility.yul\":4743:4757   */\n      add\n        /* \"#utility.yul\":4729:4741   */\n      dup3\n        /* \"#utility.yul\":4695:4758   */\n      tag_346\n      jump\t// in\n    tag_442:\n        /* \"#utility.yul\":4598:4768   */\n      pop\n        /* \"#utility.yul\":4852:4856   */\n      0x60\n        /* \"#utility.yul\":4845:4850   */\n      dup3\n        /* \"#utility.yul\":4841:4857   */\n      add\n        /* \"#utility.yul\":4835:4858   */\n      mload\n        /* \"#utility.yul\":4871:4934   */\n      tag_443\n        /* \"#utility.yul\":4928:4932   */\n      0x60\n        /* \"#utility.yul\":4923:4926   */\n      dup6\n        /* \"#utility.yul\":4919:4933   */\n      add\n        /* \"#utility.yul\":4905:4917   */\n      dup3\n        /* \"#utility.yul\":4871:4934   */\n      tag_347\n      jump\t// in\n    tag_443:\n        /* \"#utility.yul\":4778:4944   */\n      pop\n        /* \"#utility.yul\":5032:5036   */\n      0x80\n        /* \"#utility.yul\":5025:5030   */\n      dup3\n        /* \"#utility.yul\":5021:5037   */\n      add\n        /* \"#utility.yul\":5015:5038   */\n      mload\n        /* \"#utility.yul\":5051:5114   */\n      tag_444\n        /* \"#utility.yul\":5108:5112   */\n      0x80\n        /* \"#utility.yul\":5103:5106   */\n      dup6\n        /* \"#utility.yul\":5099:5113   */\n      add\n        /* \"#utility.yul\":5085:5097   */\n      dup3\n        /* \"#utility.yul\":5051:5114   */\n      tag_347\n      jump\t// in\n    tag_444:\n        /* \"#utility.yul\":4954:5124   */\n      pop\n        /* \"#utility.yul\":5211:5215   */\n      0xa0\n        /* \"#utility.yul\":5204:5209   */\n      dup3\n        /* \"#utility.yul\":5200:5216   */\n      add\n        /* \"#utility.yul\":5194:5217   */\n      mload\n        /* \"#utility.yul\":5230:5293   */\n      tag_445\n        /* \"#utility.yul\":5287:5291   */\n      0xa0\n        /* \"#utility.yul\":5282:5285   */\n      dup6\n        /* \"#utility.yul\":5278:5292   */\n      add\n        /* \"#utility.yul\":5264:5276   */\n      dup3\n        /* \"#utility.yul\":5230:5293   */\n      tag_347\n      jump\t// in\n    tag_445:\n        /* \"#utility.yul\":5134:5303   */\n      pop\n        /* \"#utility.yul\":5390:5394   */\n      0xc0\n        /* \"#utility.yul\":5383:5388   */\n      dup3\n        /* \"#utility.yul\":5379:5395   */\n      add\n        /* \"#utility.yul\":5373:5396   */\n      mload\n        /* \"#utility.yul\":5409:5472   */\n      tag_446\n        /* \"#utility.yul\":5466:5470   */\n      0xc0\n        /* \"#utility.yul\":5461:5464   */\n      dup6\n        /* \"#utility.yul\":5457:5471   */\n      add\n        /* \"#utility.yul\":5443:5455   */\n      dup3\n        /* \"#utility.yul\":5409:5472   */\n      tag_347\n      jump\t// in\n    tag_446:\n        /* \"#utility.yul\":5313:5482   */\n      pop\n        /* \"#utility.yul\":5572:5576   */\n      0xe0\n        /* \"#utility.yul\":5565:5570   */\n      dup3\n        /* \"#utility.yul\":5561:5577   */\n      add\n        /* \"#utility.yul\":5555:5578   */\n      mload\n        /* \"#utility.yul\":5591:5654   */\n      tag_447\n        /* \"#utility.yul\":5648:5652   */\n      0xe0\n        /* \"#utility.yul\":5643:5646   */\n      dup6\n        /* \"#utility.yul\":5639:5653   */\n      add\n        /* \"#utility.yul\":5625:5637   */\n      dup3\n        /* \"#utility.yul\":5591:5654   */\n      tag_347\n      jump\t// in\n    tag_447:\n        /* \"#utility.yul\":5492:5664   */\n      pop\n        /* \"#utility.yul\":5759:5765   */\n      0x0100\n        /* \"#utility.yul\":5752:5757   */\n      dup3\n        /* \"#utility.yul\":5748:5766   */\n      add\n        /* \"#utility.yul\":5742:5767   */\n      mload\n        /* \"#utility.yul\":5780:5845   */\n      tag_448\n        /* \"#utility.yul\":5837:5843   */\n      0x0100\n        /* \"#utility.yul\":5832:5835   */\n      dup6\n        /* \"#utility.yul\":5828:5844   */\n      add\n        /* \"#utility.yul\":5814:5826   */\n      dup3\n        /* \"#utility.yul\":5780:5845   */\n      tag_347\n      jump\t// in\n    tag_448:\n        /* \"#utility.yul\":5674:5855   */\n      pop\n        /* \"#utility.yul\":5949:5955   */\n      0x0120\n        /* \"#utility.yul\":5942:5947   */\n      dup3\n        /* \"#utility.yul\":5938:5956   */\n      add\n        /* \"#utility.yul\":5932:5957   */\n      mload\n        /* \"#utility.yul\":5970:6035   */\n      tag_449\n        /* \"#utility.yul\":6027:6033   */\n      0x0120\n        /* \"#utility.yul\":6022:6025   */\n      dup6\n        /* \"#utility.yul\":6018:6034   */\n      add\n        /* \"#utility.yul\":6004:6016   */\n      dup3\n        /* \"#utility.yul\":5970:6035   */\n      tag_347\n      jump\t// in\n    tag_449:\n        /* \"#utility.yul\":5865:6045   */\n      pop\n        /* \"#utility.yul\":6129:6135   */\n      0x0140\n        /* \"#utility.yul\":6122:6127   */\n      dup3\n        /* \"#utility.yul\":6118:6136   */\n      add\n        /* \"#utility.yul\":6112:6137   */\n      mload\n        /* \"#utility.yul\":6150:6209   */\n      tag_450\n        /* \"#utility.yul\":6201:6207   */\n      0x0140\n        /* \"#utility.yul\":6196:6199   */\n      dup6\n        /* \"#utility.yul\":6192:6208   */\n      add\n        /* \"#utility.yul\":6178:6190   */\n      dup3\n        /* \"#utility.yul\":6150:6209   */\n      tag_348\n      jump\t// in\n    tag_450:\n        /* \"#utility.yul\":6055:6219   */\n      pop\n        /* \"#utility.yul\":6308:6314   */\n      0x0160\n        /* \"#utility.yul\":6301:6306   */\n      dup3\n        /* \"#utility.yul\":6297:6315   */\n      add\n        /* \"#utility.yul\":6291:6316   */\n      mload\n        /* \"#utility.yul\":6329:6394   */\n      tag_451\n        /* \"#utility.yul\":6386:6392   */\n      0x0160\n        /* \"#utility.yul\":6381:6384   */\n      dup6\n        /* \"#utility.yul\":6377:6393   */\n      add\n        /* \"#utility.yul\":6363:6375   */\n      dup3\n        /* \"#utility.yul\":6329:6394   */\n      tag_347\n      jump\t// in\n    tag_451:\n        /* \"#utility.yul\":6229:6404   */\n      pop\n        /* \"#utility.yul\":4196:6411   */\n      pop\n        /* \"#utility.yul\":4088:6411   */\n      pop\n      pop\n      jump\t// out\n        /* \"#utility.yul\":6417:6724   */\n    tag_57:\n        /* \"#utility.yul\":6552:6556   */\n      0x00\n        /* \"#utility.yul\":6590:6593   */\n      0x0180\n        /* \"#utility.yul\":6579:6588   */\n      dup3\n        /* \"#utility.yul\":6575:6594   */\n      add\n        /* \"#utility.yul\":6567:6594   */\n      swap1\n      pop\n        /* \"#utility.yul\":6604:6717   */\n      tag_453\n        /* \"#utility.yul\":6714:6715   */\n      0x00\n        /* \"#utility.yul\":6703:6712   */\n      dup4\n        /* \"#utility.yul\":6699:6716   */\n      add\n        /* \"#utility.yul\":6690:6696   */\n      dup5\n        /* \"#utility.yul\":6604:6717   */\n      tag_349\n      jump\t// in\n    tag_453:\n        /* \"#utility.yul\":6417:6724   */\n      swap3\n      swap2\n      pop\n      pop\n      jump\t// out\n        /* \"#utility.yul\":6730:6848   */\n    tag_350:\n        /* \"#utility.yul\":6817:6841   */\n      tag_455\n        /* \"#utility.yul\":6835:6840   */\n      dup2\n        /* \"#utility.yul\":6817:6841   */\n      tag_338\n      jump\t// in\n    tag_455:\n        /* \"#utility.yul\":6812:6815   */\n      dup3\n        /* \"#utility.yul\":6805:6842   */\n      mstore\n        /* \"#utility.yul\":6730:6848   */\n      pop\n      pop\n      jump\t// out\n        /* \"#utility.yul\":6854:7076   */\n    tag_69:\n        /* \"#utility.yul\":6947:6951   */\n      0x00\n        /* \"#utility.yul\":6985:6987   */\n      0x20\n        /* \"#utility.yul\":6974:6983   */\n      dup3\n        /* \"#utility.yul\":6970:6988   */\n      add\n        /* \"#utility.yul\":6962:6988   */\n      swap1\n      pop\n        /* \"#utility.yul\":6998:7069   */\n      tag_457\n        /* \"#utility.yul\":7066:7067   */\n      0x00\n        /* \"#utility.yul\":7055:7064   */\n      dup4\n        /* \"#utility.yul\":7051:7068   */\n      add\n        /* \"#utility.yul\":7042:7048   */\n      dup5\n        /* \"#utility.yul\":6998:7069   */\n      tag_350\n      jump\t// in\n    tag_457:\n        /* \"#utility.yul\":6854:7076   */\n      swap3\n      swap2\n      pop\n      pop\n      jump\t// out\n        /* \"#utility.yul\":7082:7200   */\n    tag_351:\n        /* \"#utility.yul\":7169:7193   */\n      tag_459\n        /* \"#utility.yul\":7187:7192   */\n      dup2\n        /* \"#utility.yul\":7169:7193   */\n      tag_333\n      jump\t// in\n    tag_459:\n        /* \"#utility.yul\":7164:7167   */\n      dup3\n        /* \"#utility.yul\":7157:7194   */\n      mstore\n        /* \"#utility.yul\":7082:7200   */\n      pop\n      pop\n      jump\t// out\n        /* \"#utility.yul\":7206:7428   */\n    tag_73:\n        /* \"#utility.yul\":7299:7303   */\n      0x00\n        /* \"#utility.yul\":7337:7339   */\n      0x20\n        /* \"#utility.yul\":7326:7335   */\n      dup3\n        /* \"#utility.yul\":7322:7340   */\n      add\n        /* \"#utility.yul\":7314:7340   */\n      swap1\n      pop\n        /* \"#utility.yul\":7350:7421   */\n      tag_461\n        /* \"#utility.yul\":7418:7419   */\n      0x00\n        /* \"#utility.yul\":7407:7416   */\n      dup4\n        /* \"#utility.yul\":7403:7420   */\n      add\n        /* \"#utility.yul\":7394:7400   */\n      dup5\n        /* \"#utility.yul\":7350:7421   */\n      tag_351\n      jump\t// in\n    tag_461:\n        /* \"#utility.yul\":7206:7428   */\n      swap3\n      swap2\n      pop\n      pop\n      jump\t// out\n        /* \"#utility.yul\":7434:8637   */\n    tag_89:\n        /* \"#utility.yul\":7547:7553   */\n      0x00\n        /* \"#utility.yul\":7555:7561   */\n      0x00\n        /* \"#utility.yul\":7563:7569   */\n      0x00\n        /* \"#utility.yul\":7571:7577   */\n      0x00\n        /* \"#utility.yul\":7579:7585   */\n      0x00\n        /* \"#utility.yul\":7587:7593   */\n      0x00\n        /* \"#utility.yul\":7595:7601   */\n      0x00\n        /* \"#utility.yul\":7644:7647   */\n      0xe0\n        /* \"#utility.yul\":7632:7641   */\n      dup9\n        /* \"#utility.yul\":7623:7630   */\n      dup11\n        /* \"#utility.yul\":7619:7642   */\n      sub\n        /* \"#utility.yul\":7615:7648   */\n      slt\n        /* \"#utility.yul\":7612:7732   */\n      iszero\n      tag_463\n      jumpi\n        /* \"#utility.yul\":7651:7730   */\n      tag_464\n      tag_330\n      jump\t// in\n    tag_464:\n        /* \"#utility.yul\":7612:7732   */\n    tag_463:\n        /* \"#utility.yul\":7771:7772   */\n      0x00\n        /* \"#utility.yul\":7796:7849   */\n      tag_465\n        /* \"#utility.yul\":7841:7848   */\n      dup11\n        /* \"#utility.yul\":7832:7838   */\n      dup3\n        /* \"#utility.yul\":7821:7830   */\n      dup12\n        /* \"#utility.yul\":7817:7839   */\n      add\n        /* \"#utility.yul\":7796:7849   */\n      tag_335\n      jump\t// in\n    tag_465:\n        /* \"#utility.yul\":7786:7849   */\n      swap8\n      pop\n        /* \"#utility.yul\":7742:7859   */\n      pop\n        /* \"#utility.yul\":7898:7900   */\n      0x20\n        /* \"#utility.yul\":7924:7977   */\n      tag_466\n        /* \"#utility.yul\":7969:7976   */\n      dup11\n        /* \"#utility.yul\":7960:7966   */\n      dup3\n        /* \"#utility.yul\":7949:7958   */\n      dup12\n        /* \"#utility.yul\":7945:7967   */\n      add\n        /* \"#utility.yul\":7924:7977   */\n      tag_335\n      jump\t// in\n    tag_466:\n        /* \"#utility.yul\":7914:7977   */\n      swap7\n      pop\n        /* \"#utility.yul\":7869:7987   */\n      pop\n        /* \"#utility.yul\":8026:8028   */\n      0x40\n        /* \"#utility.yul\":8052:8105   */\n      tag_467\n        /* \"#utility.yul\":8097:8104   */\n      dup11\n        /* \"#utility.yul\":8088:8094   */\n      dup3\n        /* \"#utility.yul\":8077:8086   */\n      dup12\n        /* \"#utility.yul\":8073:8095   */\n      add\n        /* \"#utility.yul\":8052:8105   */\n      tag_335\n      jump\t// in\n    tag_467:\n        /* \"#utility.yul\":8042:8105   */\n      swap6\n      pop\n        /* \"#utility.yul\":7997:8115   */\n      pop\n        /* \"#utility.yul\":8154:8156   */\n      0x60\n        /* \"#utility.yul\":8180:8233   */\n      tag_468\n        /* \"#utility.yul\":8225:8232   */\n      dup11\n        /* \"#utility.yul\":8216:8222   */\n      dup3\n        /* \"#utility.yul\":8205:8214   */\n      dup12\n        /* \"#utility.yul\":8201:8223   */\n      add\n        /* \"#utility.yul\":8180:8233   */\n      tag_340\n      jump\t// in\n    tag_468:\n        /* \"#utility.yul\":8170:8233   */\n      swap5\n      pop\n        /* \"#utility.yul\":8125:8243   */\n      pop\n        /* \"#utility.yul\":8282:8285   */\n      0x80\n        /* \"#utility.yul\":8309:8362   */\n      tag_469\n        /* \"#utility.yul\":8354:8361   */\n      dup11\n        /* \"#utility.yul\":8345:8351   */\n      dup3\n        /* \"#utility.yul\":8334:8343   */\n      dup12\n        /* \"#utility.yul\":8330:8352   */\n      add\n        /* \"#utility.yul\":8309:8362   */\n      tag_340\n      jump\t// in\n    tag_469:\n        /* \"#utility.yul\":8299:8362   */\n      swap4\n      pop\n        /* \"#utility.yul\":8253:8372   */\n      pop\n        /* \"#utility.yul\":8411:8414   */\n      0xa0\n        /* \"#utility.yul\":8438:8491   */\n      tag_470\n        /* \"#utility.yul\":8483:8490   */\n      dup11\n        /* \"#utility.yul\":8474:8480   */\n      dup3\n        /* \"#utility.yul\":8463:8472   */\n      dup12\n        /* \"#utility.yul\":8459:8481   */\n      add\n        /* \"#utility.yul\":8438:8491   */\n      tag_340\n      jump\t// in\n    tag_470:\n        /* \"#utility.yul\":8428:8491   */\n      swap3\n      pop\n        /* \"#utility.yul\":8382:8501   */\n      pop\n        /* \"#utility.yul\":8540:8543   */\n      0xc0\n        /* \"#utility.yul\":8567:8620   */\n      tag_471\n        /* \"#utility.yul\":8612:8619   */\n      dup11\n        /* \"#utility.yul\":8603:8609   */\n      dup3\n        /* \"#utility.yul\":8592:8601   */\n      dup12\n        /* \"#utility.yul\":8588:8610   */\n      add\n        /* \"#utility.yul\":8567:8620   */\n      tag_340\n      jump\t// in\n    tag_471:\n        /* \"#utility.yul\":8557:8620   */\n      swap2\n      pop\n        /* \"#utility.yul\":8511:8630   */\n      pop\n        /* \"#utility.yul\":7434:8637   */\n      swap3\n      swap6\n      swap9\n      swap2\n      swap5\n      swap8\n      pop\n      swap3\n      swap6\n      pop\n      jump\t// out\n        /* \"#utility.yul\":8643:10076   */\n    tag_96:\n        /* \"#utility.yul\":9040:9044   */\n      0x00\n        /* \"#utility.yul\":9078:9081   */\n      0x0180\n        /* \"#utility.yul\":9067:9076   */\n      dup3\n        /* \"#utility.yul\":9063:9082   */\n      add\n        /* \"#utility.yul\":9055:9082   */\n      swap1\n      pop\n        /* \"#utility.yul\":9092:9163   */\n      tag_473\n        /* \"#utility.yul\":9160:9161   */\n      0x00\n        /* \"#utility.yul\":9149:9158   */\n      dup4\n        /* \"#utility.yul\":9145:9162   */\n      add\n        /* \"#utility.yul\":9136:9142   */\n      dup16\n        /* \"#utility.yul\":9092:9163   */\n      tag_351\n      jump\t// in\n    tag_473:\n        /* \"#utility.yul\":9173:9245   */\n      tag_474\n        /* \"#utility.yul\":9241:9243   */\n      0x20\n        /* \"#utility.yul\":9230:9239   */\n      dup4\n        /* \"#utility.yul\":9226:9244   */\n      add\n        /* \"#utility.yul\":9217:9223   */\n      dup15\n        /* \"#utility.yul\":9173:9245   */\n      tag_351\n      jump\t// in\n    tag_474:\n        /* \"#utility.yul\":9255:9327   */\n      tag_475\n        /* \"#utility.yul\":9323:9325   */\n      0x40\n        /* \"#utility.yul\":9312:9321   */\n      dup4\n        /* \"#utility.yul\":9308:9326   */\n      add\n        /* \"#utility.yul\":9299:9305   */\n      dup14\n        /* \"#utility.yul\":9255:9327   */\n      tag_351\n      jump\t// in\n    tag_475:\n        /* \"#utility.yul\":9337:9409   */\n      tag_476\n        /* \"#utility.yul\":9405:9407   */\n      0x60\n        /* \"#utility.yul\":9394:9403   */\n      dup4\n        /* \"#utility.yul\":9390:9408   */\n      add\n        /* \"#utility.yul\":9381:9387   */\n      dup13\n        /* \"#utility.yul\":9337:9409   */\n      tag_350\n      jump\t// in\n    tag_476:\n        /* \"#utility.yul\":9419:9492   */\n      tag_477\n        /* \"#utility.yul\":9487:9490   */\n      0x80\n        /* \"#utility.yul\":9476:9485   */\n      dup4\n        /* \"#utility.yul\":9472:9491   */\n      add\n        /* \"#utility.yul\":9463:9469   */\n      dup12\n        /* \"#utility.yul\":9419:9492   */\n      tag_350\n      jump\t// in\n    tag_477:\n        /* \"#utility.yul\":9502:9575   */\n      tag_478\n        /* \"#utility.yul\":9570:9573   */\n      0xa0\n        /* \"#utility.yul\":9559:9568   */\n      dup4\n        /* \"#utility.yul\":9555:9574   */\n      add\n        /* \"#utility.yul\":9546:9552   */\n      dup11\n        /* \"#utility.yul\":9502:9575   */\n      tag_350\n      jump\t// in\n    tag_478:\n        /* \"#utility.yul\":9585:9658   */\n      tag_479\n        /* \"#utility.yul\":9653:9656   */\n      0xc0\n        /* \"#utility.yul\":9642:9651   */\n      dup4\n        /* \"#utility.yul\":9638:9657   */\n      add\n        /* \"#utility.yul\":9629:9635   */\n      dup10\n        /* \"#utility.yul\":9585:9658   */\n      tag_350\n      jump\t// in\n    tag_479:\n        /* \"#utility.yul\":9668:9741   */\n      tag_480\n        /* \"#utility.yul\":9736:9739   */\n      0xe0\n        /* \"#utility.yul\":9725:9734   */\n      dup4\n        /* \"#utility.yul\":9721:9740   */\n      add\n        /* \"#utility.yul\":9712:9718   */\n      dup9\n        /* \"#utility.yul\":9668:9741   */\n      tag_350\n      jump\t// in\n    tag_480:\n        /* \"#utility.yul\":9751:9824   */\n      tag_481\n        /* \"#utility.yul\":9819:9822   */\n      0x0100\n        /* \"#utility.yul\":9808:9817   */\n      dup4\n        /* \"#utility.yul\":9804:9823   */\n      add\n        /* \"#utility.yul\":9795:9801   */\n      dup8\n        /* \"#utility.yul\":9751:9824   */\n      tag_350\n      jump\t// in\n    tag_481:\n        /* \"#utility.yul\":9834:9907   */\n      tag_482\n        /* \"#utility.yul\":9902:9905   */\n      0x0120\n        /* \"#utility.yul\":9891:9900   */\n      dup4\n        /* \"#utility.yul\":9887:9906   */\n      add\n        /* \"#utility.yul\":9878:9884   */\n      dup7\n        /* \"#utility.yul\":9834:9907   */\n      tag_350\n      jump\t// in\n    tag_482:\n        /* \"#utility.yul\":9917:9985   */\n      tag_483\n        /* \"#utility.yul\":9980:9983   */\n      0x0140\n        /* \"#utility.yul\":9969:9978   */\n      dup4\n        /* \"#utility.yul\":9965:9984   */\n      add\n        /* \"#utility.yul\":9955:9962   */\n      dup6\n        /* \"#utility.yul\":9917:9985   */\n      tag_337\n      jump\t// in\n    tag_483:\n        /* \"#utility.yul\":9995:10069   */\n      tag_484\n        /* \"#utility.yul\":10064:10067   */\n      0x0160\n        /* \"#utility.yul\":10053:10062   */\n      dup4\n        /* \"#utility.yul\":10049:10068   */\n      add\n        /* \"#utility.yul\":10039:10046   */\n      dup5\n        /* \"#utility.yul\":9995:10069   */\n      tag_350\n      jump\t// in\n    tag_484:\n        /* \"#utility.yul\":8643:10076   */\n      swap14\n      swap13\n      pop\n      pop\n      pop\n      pop\n      pop\n      pop\n      pop\n      pop\n      pop\n      pop\n      pop\n      pop\n      pop\n      jump\t// out\n        /* \"#utility.yul\":10082:10227   */\n    tag_352:\n        /* \"#utility.yul\":10151:10160   */\n      0x00\n        /* \"#utility.yul\":10184:10221   */\n      tag_486\n        /* \"#utility.yul\":10215:10220   */\n      dup3\n        /* \"#utility.yul\":10184:10221   */\n      tag_343\n      jump\t// in\n    tag_486:\n        /* \"#utility.yul\":10171:10221   */\n      swap1\n      pop\n        /* \"#utility.yul\":10082:10227   */\n      swap2\n      swap1\n      pop\n      jump\t// out\n        /* \"#utility.yul\":10233:10402   */\n    tag_353:\n        /* \"#utility.yul\":10339:10395   */\n      tag_488\n        /* \"#utility.yul\":10389:10394   */\n      dup2\n        /* \"#utility.yul\":10339:10395   */\n      tag_352\n      jump\t// in\n    tag_488:\n        /* \"#utility.yul\":10334:10337   */\n      dup3\n        /* \"#utility.yul\":10327:10396   */\n      mstore\n        /* \"#utility.yul\":10233:10402   */\n      pop\n      pop\n      jump\t// out\n        /* \"#utility.yul\":10408:10668   */\n    tag_123:\n        /* \"#utility.yul\":10520:10524   */\n      0x00\n        /* \"#utility.yul\":10558:10560   */\n      0x20\n        /* \"#utility.yul\":10547:10556   */\n      dup3\n        /* \"#utility.yul\":10543:10561   */\n      add\n        /* \"#utility.yul\":10535:10561   */\n      swap1\n      pop\n        /* \"#utility.yul\":10571:10661   */\n      tag_490\n        /* \"#utility.yul\":10658:10659   */\n      0x00\n        /* \"#utility.yul\":10647:10656   */\n      dup4\n        /* \"#utility.yul\":10643:10660   */\n      add\n        /* \"#utility.yul\":10634:10640   */\n      dup5\n        /* \"#utility.yul\":10571:10661   */\n      tag_353\n      jump\t// in\n    tag_490:\n        /* \"#utility.yul\":10408:10668   */\n      swap3\n      swap2\n      pop\n      pop\n      jump\t// out\n        /* \"#utility.yul\":10674:10843   */\n    tag_354:\n        /* \"#utility.yul\":10758:10769   */\n      0x00\n        /* \"#utility.yul\":10792:10798   */\n      dup3\n        /* \"#utility.yul\":10787:10790   */\n      dup3\n        /* \"#utility.yul\":10780:10799   */\n      mstore\n        /* \"#utility.yul\":10832:10836   */\n      0x20\n        /* \"#utility.yul\":10827:10830   */\n      dup3\n        /* \"#utility.yul\":10823:10837   */\n      add\n        /* \"#utility.yul\":10808:10837   */\n      swap1\n      pop\n        /* \"#utility.yul\":10674:10843   */\n      swap3\n      swap2\n      pop\n      pop\n      jump\t// out\n        /* \"#utility.yul\":10849:11014   */\n    tag_355:\n        /* \"#utility.yul\":10989:11006   */\n      0x4c6f616e206e6f74206163746976650000000000000000000000000000000000\n        /* \"#utility.yul\":10985:10986   */\n      0x00\n        /* \"#utility.yul\":10977:10983   */\n      dup3\n        /* \"#utility.yul\":10973:10987   */\n      add\n        /* \"#utility.yul\":10966:11007   */\n      mstore\n        /* \"#utility.yul\":10849:11014   */\n      pop\n      jump\t// out\n        /* \"#utility.yul\":11020:11386   */\n    tag_356:\n        /* \"#utility.yul\":11162:11165   */\n      0x00\n        /* \"#utility.yul\":11183:11250   */\n      tag_494\n        /* \"#utility.yul\":11247:11249   */\n      0x0f\n        /* \"#utility.yul\":11242:11245   */\n      dup4\n        /* \"#utility.yul\":11183:11250   */\n      tag_354\n      jump\t// in\n    tag_494:\n        /* \"#utility.yul\":11176:11250   */\n      swap2\n      pop\n        /* \"#utility.yul\":11259:11352   */\n      tag_495\n        /* \"#utility.yul\":11348:11351   */\n      dup3\n        /* \"#utility.yul\":11259:11352   */\n      tag_355\n      jump\t// in\n    tag_495:\n        /* \"#utility.yul\":11377:11379   */\n      0x20\n        /* \"#utility.yul\":11372:11375   */\n      dup3\n        /* \"#utility.yul\":11368:11380   */\n      add\n        /* \"#utility.yul\":11361:11380   */\n      swap1\n      pop\n        /* \"#utility.yul\":11020:11386   */\n      swap2\n      swap1\n      pop\n      jump\t// out\n        /* \"#utility.yul\":11392:11811   */\n    tag_134:\n        /* \"#utility.yul\":11558:11562   */\n      0x00\n        /* \"#utility.yul\":11596:11598   */\n      0x20\n        /* \"#utility.yul\":11585:11594   */\n      dup3\n        /* \"#utility.yul\":11581:11599   */\n      add\n        /* \"#utility.yul\":11573:11599   */\n      swap1\n      pop\n        /* \"#utility.yul\":11645:11654   */\n      dup2\n        /* \"#utility.yul\":11639:11643   */\n      dup2\n        /* \"#utility.yul\":11635:11655   */\n      sub\n        /* \"#utility.yul\":11631:11632   */\n      0x00\n        /* \"#utility.yul\":11620:11629   */\n      dup4\n        /* \"#utility.yul\":11616:11633   */\n      add\n        /* \"#utility.yul\":11609:11656   */\n      mstore\n        /* \"#utility.yul\":11673:11804   */\n      tag_497\n        /* \"#utility.yul\":11799:11803   */\n      dup2\n        /* \"#utility.yul\":11673:11804   */\n      tag_356\n      jump\t// in\n    tag_497:\n        /* \"#utility.yul\":11665:11804   */\n      swap1\n      pop\n        /* \"#utility.yul\":11392:11811   */\n      swap2\n      swap1\n      pop\n      jump\t// out\n        /* \"#utility.yul\":11817:11980   */\n    tag_357:\n        /* \"#utility.yul\":11957:11972   */\n      0x4e6f7420796f7572206c6f616e00000000000000000000000000000000000000\n        /* \"#utility.yul\":11953:11954   */\n      0x00\n        /* \"#utility.yul\":11945:11951   */\n      dup3\n        /* \"#utility.yul\":11941:11955   */\n      add\n        /* \"#utility.yul\":11934:11973   */\n      mstore\n        /* \"#utility.yul\":11817:11980   */\n      pop\n      jump\t// out\n        /* \"#utility.yul\":11986:12352   */\n    tag_358:\n        /* \"#utility.yul\":12128:12131   */\n      0x00\n        /* \"#utility.yul\":12149:12216   */\n      tag_500\n        /* \"#utility.yul\":12213:12215   */\n      0x0d\n        /* \"#utility.yul\":12208:12211   */\n      dup4\n        /* \"#utility.yul\":12149:12216   */\n      tag_354\n      jump\t// in\n    tag_500:\n        /* \"#utility.yul\":12142:12216   */\n      swap2\n      pop\n        /* \"#utility.yul\":12225:12318   */\n      tag_501\n        /* \"#utility.yul\":12314:12317   */\n      dup3\n        /* \"#utility.yul\":12225:12318   */\n      tag_357\n      jump\t// in\n    tag_501:\n        /* \"#utility.yul\":12343:12345   */\n      0x20\n        /* \"#utility.yul\":12338:12341   */\n      dup3\n        /* \"#utility.yul\":12334:12346   */\n      add\n        /* \"#utility.yul\":12327:12346   */\n      swap1\n      pop\n        /* \"#utility.yul\":11986:12352   */\n      swap2\n      swap1\n      pop\n      jump\t// out\n        /* \"#utility.yul\":12358:12777   */\n    tag_137:\n        /* \"#utility.yul\":12524:12528   */\n      0x00\n        /* \"#utility.yul\":12562:12564   */\n      0x20\n        /* \"#utility.yul\":12551:12560   */\n      dup3\n        /* \"#utility.yul\":12547:12565   */\n      add\n        /* \"#utility.yul\":12539:12565   */\n      swap1\n      pop\n        /* \"#utility.yul\":12611:12620   */\n      dup2\n        /* \"#utility.yul\":12605:12609   */\n      dup2\n        /* \"#utility.yul\":12601:12621   */\n      sub\n        /* \"#utility.yul\":12597:12598   */\n      0x00\n        /* \"#utility.yul\":12586:12595   */\n      dup4\n        /* \"#utility.yul\":12582:12599   */\n      add\n        /* \"#utility.yul\":12575:12622   */\n      mstore\n        /* \"#utility.yul\":12639:12770   */\n      tag_503\n        /* \"#utility.yul\":12765:12769   */\n      dup2\n        /* \"#utility.yul\":12639:12770   */\n      tag_358\n      jump\t// in\n    tag_503:\n        /* \"#utility.yul\":12631:12770   */\n      swap1\n      pop\n        /* \"#utility.yul\":12358:12777   */\n      swap2\n      swap1\n      pop\n      jump\t// out\n        /* \"#utility.yul\":12783:12963   */\n    tag_359:\n        /* \"#utility.yul\":12831:12908   */\n      0x4e487b7100000000000000000000000000000000000000000000000000000000\n        /* \"#utility.yul\":12828:12829   */\n      0x00\n        /* \"#utility.yul\":12821:12909   */\n      mstore\n        /* \"#utility.yul\":12928:12932   */\n      0x11\n        /* \"#utility.yul\":12925:12926   */\n      0x04\n        /* \"#utility.yul\":12918:12933   */\n      mstore\n        /* \"#utility.yul\":12952:12956   */\n      0x24\n        /* \"#utility.yul\":12949:12950   */\n      0x00\n        /* \"#utility.yul\":12942:12957   */\n      revert\n        /* \"#utility.yul\":12969:13163   */\n    tag_139:\n        /* \"#utility.yul\":13009:13013   */\n      0x00\n        /* \"#utility.yul\":13029:13049   */\n      tag_506\n        /* \"#utility.yul\":13047:13048   */\n      dup3\n        /* \"#utility.yul\":13029:13049   */\n      tag_338\n      jump\t// in\n    tag_506:\n        /* \"#utility.yul\":13024:13049   */\n      swap2\n      pop\n        /* \"#utility.yul\":13063:13083   */\n      tag_507\n        /* \"#utility.yul\":13081:13082   */\n      dup4\n        /* \"#utility.yul\":13063:13083   */\n      tag_338\n      jump\t// in\n    tag_507:\n        /* \"#utility.yul\":13058:13083   */\n      swap3\n      pop\n        /* \"#utility.yul\":13107:13108   */\n      dup3\n        /* \"#utility.yul\":13104:13105   */\n      dup3\n        /* \"#utility.yul\":13100:13109   */\n      sub\n        /* \"#utility.yul\":13092:13109   */\n      swap1\n      pop\n        /* \"#utility.yul\":13131:13132   */\n      dup2\n        /* \"#utility.yul\":13125:13129   */\n      dup2\n        /* \"#utility.yul\":13122:13133   */\n      gt\n        /* \"#utility.yul\":13119:13156   */\n      iszero\n      tag_508\n      jumpi\n        /* \"#utility.yul\":13136:13154   */\n      tag_509\n      tag_359\n      jump\t// in\n    tag_509:\n        /* \"#utility.yul\":13119:13156   */\n    tag_508:\n        /* \"#utility.yul\":12969:13163   */\n      swap3\n      swap2\n      pop\n      pop\n      jump\t// out\n        /* \"#utility.yul\":13169:13349   */\n    tag_360:\n        /* \"#utility.yul\":13217:13294   */\n      0x4e487b7100000000000000000000000000000000000000000000000000000000\n        /* \"#utility.yul\":13214:13215   */\n      0x00\n        /* \"#utility.yul\":13207:13295   */\n      mstore\n        /* \"#utility.yul\":13314:13318   */\n      0x12\n        /* \"#utility.yul\":13311:13312   */\n      0x04\n        /* \"#utility.yul\":13304:13319   */\n      mstore\n        /* \"#utility.yul\":13338:13342   */\n      0x24\n        /* \"#utility.yul\":13335:13336   */\n      0x00\n        /* \"#utility.yul\":13328:13343   */\n      revert\n        /* \"#utility.yul\":13355:13540   */\n    tag_141:\n        /* \"#utility.yul\":13395:13396   */\n      0x00\n        /* \"#utility.yul\":13412:13432   */\n      tag_512\n        /* \"#utility.yul\":13430:13431   */\n      dup3\n        /* \"#utility.yul\":13412:13432   */\n      tag_338\n      jump\t// in\n    tag_512:\n        /* \"#utility.yul\":13407:13432   */\n      swap2\n      pop\n        /* \"#utility.yul\":13446:13466   */\n      tag_513\n        /* \"#utility.yul\":13464:13465   */\n      dup4\n        /* \"#utility.yul\":13446:13466   */\n      tag_338\n      jump\t// in\n    tag_513:\n        /* \"#utility.yul\":13441:13466   */\n      swap3\n      pop\n        /* \"#utility.yul\":13485:13486   */\n      dup3\n        /* \"#utility.yul\":13475:13510   */\n      tag_514\n      jumpi\n        /* \"#utility.yul\":13490:13508   */\n      tag_515\n      tag_360\n      jump\t// in\n    tag_515:\n        /* \"#utility.yul\":13475:13510   */\n    tag_514:\n        /* \"#utility.yul\":13532:13533   */\n      dup3\n        /* \"#utility.yul\":13529:13530   */\n      dup3\n        /* \"#utility.yul\":13525:13534   */\n      div\n        /* \"#utility.yul\":13520:13534   */\n      swap1\n      pop\n        /* \"#utility.yul\":13355:13540   */\n      swap3\n      swap2\n      pop\n      pop\n      jump\t// out\n        /* \"#utility.yul\":13546:13956   */\n    tag_147:\n        /* \"#utility.yul\":13586:13593   */\n      0x00\n        /* \"#utility.yul\":13609:13629   */\n      tag_517\n        /* \"#utility.yul\":13627:13628   */\n      dup3\n        /* \"#utility.yul\":13609:13629   */\n      tag_338\n      jump\t// in\n    tag_517:\n        /* \"#utility.yul\":13604:13629   */\n      swap2\n      pop\n        /* \"#utility.yul\":13643:13663   */\n      tag_518\n        /* \"#utility.yul\":13661:13662   */\n      dup4\n        /* \"#utility.yul\":13643:13663   */\n      tag_338\n      jump\t// in\n    tag_518:\n        /* \"#utility.yul\":13638:13663   */\n      swap3\n      pop\n        /* \"#utility.yul\":13698:13699   */\n      dup3\n        /* \"#utility.yul\":13695:13696   */\n      dup3\n        /* \"#utility.yul\":13691:13700   */\n      mul\n        /* \"#utility.yul\":13720:13750   */\n      tag_519\n        /* \"#utility.yul\":13738:13749   */\n      dup2\n        /* \"#utility.yul\":13720:13750   */\n      tag_338\n      jump\t// in\n    tag_519:\n        /* \"#utility.yul\":13709:13750   */\n      swap2\n      pop\n        /* \"#utility.yul\":13899:13900   */\n      dup3\n        /* \"#utility.yul\":13890:13897   */\n      dup3\n        /* \"#utility.yul\":13886:13901   */\n      div\n        /* \"#utility.yul\":13883:13884   */\n      dup5\n        /* \"#utility.yul\":13880:13902   */\n      eq\n        /* \"#utility.yul\":13860:13861   */\n      dup4\n        /* \"#utility.yul\":13853:13862   */\n      iszero\n        /* \"#utility.yul\":13833:13916   */\n      or\n        /* \"#utility.yul\":13810:13949   */\n      tag_520\n      jumpi\n        /* \"#utility.yul\":13929:13947   */\n      tag_521\n      tag_359\n      jump\t// in\n    tag_521:\n        /* \"#utility.yul\":13810:13949   */\n    tag_520:\n        /* \"#utility.yul\":13594:13956   */\n      pop\n        /* \"#utility.yul\":13546:13956   */\n      swap3\n      swap2\n      pop\n      pop\n      jump\t// out\n        /* \"#utility.yul\":13962:14153   */\n    tag_149:\n        /* \"#utility.yul\":14002:14005   */\n      0x00\n        /* \"#utility.yul\":14021:14041   */\n      tag_523\n        /* \"#utility.yul\":14039:14040   */\n      dup3\n        /* \"#utility.yul\":14021:14041   */\n      tag_338\n      jump\t// in\n    tag_523:\n        /* \"#utility.yul\":14016:14041   */\n      swap2\n      pop\n        /* \"#utility.yul\":14055:14075   */\n      tag_524\n        /* \"#utility.yul\":14073:14074   */\n      dup4\n        /* \"#utility.yul\":14055:14075   */\n      tag_338\n      jump\t// in\n    tag_524:\n        /* \"#utility.yul\":14050:14075   */\n      swap3\n      pop\n        /* \"#utility.yul\":14098:14099   */\n      dup3\n        /* \"#utility.yul\":14095:14096   */\n      dup3\n        /* \"#utility.yul\":14091:14100   */\n      add\n        /* \"#utility.yul\":14084:14100   */\n      swap1\n      pop\n        /* \"#utility.yul\":14119:14122   */\n      dup1\n        /* \"#utility.yul\":14116:14117   */\n      dup3\n        /* \"#utility.yul\":14113:14123   */\n      gt\n        /* \"#utility.yul\":14110:14146   */\n      iszero\n      tag_525\n      jumpi\n        /* \"#utility.yul\":14126:14144   */\n      tag_526\n      tag_359\n      jump\t// in\n    tag_526:\n        /* \"#utility.yul\":14110:14146   */\n    tag_525:\n        /* \"#utility.yul\":13962:14153   */\n      swap3\n      swap2\n      pop\n      pop\n      jump\t// out\n        /* \"#utility.yul\":14159:14321   */\n    tag_361:\n        /* \"#utility.yul\":14299:14313   */\n      0x416c726561647920706169640000000000000000000000000000000000000000\n        /* \"#utility.yul\":14295:14296   */\n      0x00\n        /* \"#utility.yul\":14287:14293   */\n      dup3\n        /* \"#utility.yul\":14283:14297   */\n      add\n        /* \"#utility.yul\":14276:14314   */\n      mstore\n        /* \"#utility.yul\":14159:14321   */\n      pop\n      jump\t// out\n        /* \"#utility.yul\":14327:14693   */\n    tag_362:\n        /* \"#utility.yul\":14469:14472   */\n      0x00\n        /* \"#utility.yul\":14490:14557   */\n      tag_529\n        /* \"#utility.yul\":14554:14556   */\n      0x0c\n        /* \"#utility.yul\":14549:14552   */\n      dup4\n        /* \"#utility.yul\":14490:14557   */\n      tag_354\n      jump\t// in\n    tag_529:\n        /* \"#utility.yul\":14483:14557   */\n      swap2\n      pop\n        /* \"#utility.yul\":14566:14659   */\n      tag_530\n        /* \"#utility.yul\":14655:14658   */\n      dup3\n        /* \"#utility.yul\":14566:14659   */\n      tag_361\n      jump\t// in\n    tag_530:\n        /* \"#utility.yul\":14684:14686   */\n      0x20\n        /* \"#utility.yul\":14679:14682   */\n      dup3\n        /* \"#utility.yul\":14675:14687   */\n      add\n        /* \"#utility.yul\":14668:14687   */\n      swap1\n      pop\n        /* \"#utility.yul\":14327:14693   */\n      swap2\n      swap1\n      pop\n      jump\t// out\n        /* \"#utility.yul\":14699:15118   */\n    tag_153:\n        /* \"#utility.yul\":14865:14869   */\n      0x00\n        /* \"#utility.yul\":14903:14905   */\n      0x20\n        /* \"#utility.yul\":14892:14901   */\n      dup3\n        /* \"#utility.yul\":14888:14906   */\n      add\n        /* \"#utility.yul\":14880:14906   */\n      swap1\n      pop\n        /* \"#utility.yul\":14952:14961   */\n      dup2\n        /* \"#utility.yul\":14946:14950   */\n      dup2\n        /* \"#utility.yul\":14942:14962   */\n      sub\n        /* \"#utility.yul\":14938:14939   */\n      0x00\n        /* \"#utility.yul\":14927:14936   */\n      dup4\n        /* \"#utility.yul\":14923:14940   */\n      add\n        /* \"#utility.yul\":14916:14963   */\n      mstore\n        /* \"#utility.yul\":14980:15111   */\n      tag_532\n        /* \"#utility.yul\":15106:15110   */\n      dup2\n        /* \"#utility.yul\":14980:15111   */\n      tag_362\n      jump\t// in\n    tag_532:\n        /* \"#utility.yul\":14972:15111   */\n      swap1\n      pop\n        /* \"#utility.yul\":14699:15118   */\n      swap2\n      swap1\n      pop\n      jump\t// out\n        /* \"#utility.yul\":15124:15566   */\n    tag_155:\n        /* \"#utility.yul\":15273:15277   */\n      0x00\n        /* \"#utility.yul\":15311:15313   */\n      0x60\n        /* \"#utility.yul\":15300:15309   */\n      dup3\n        /* \"#utility.yul\":15296:15314   */\n      add\n        /* \"#utility.yul\":15288:15314   */\n      swap1\n      pop\n        /* \"#utility.yul\":15324:15395   */\n      tag_534\n        /* \"#utility.yul\":15392:15393   */\n      0x00\n        /* \"#utility.yul\":15381:15390   */\n      dup4\n        /* \"#utility.yul\":15377:15394   */\n      add\n        /* \"#utility.yul\":15368:15374   */\n      dup7\n        /* \"#utility.yul\":15324:15395   */\n      tag_351\n      jump\t// in\n    tag_534:\n        /* \"#utility.yul\":15405:15477   */\n      tag_535\n        /* \"#utility.yul\":15473:15475   */\n      0x20\n        /* \"#utility.yul\":15462:15471   */\n      dup4\n        /* \"#utility.yul\":15458:15476   */\n      add\n        /* \"#utility.yul\":15449:15455   */\n      dup6\n        /* \"#utility.yul\":15405:15477   */\n      tag_351\n      jump\t// in\n    tag_535:\n        /* \"#utility.yul\":15487:15559   */\n      tag_536\n        /* \"#utility.yul\":15555:15557   */\n      0x40\n        /* \"#utility.yul\":15544:15553   */\n      dup4\n        /* \"#utility.yul\":15540:15558   */\n      add\n        /* \"#utility.yul\":15531:15537   */\n      dup5\n        /* \"#utility.yul\":15487:15559   */\n      tag_350\n      jump\t// in\n    tag_536:\n        /* \"#utility.yul\":15124:15566   */\n      swap5\n      swap4\n      pop\n      pop\n      pop\n      pop\n      jump\t// out\n        /* \"#utility.yul\":15572:15688   */\n    tag_363:\n        /* \"#utility.yul\":15642:15663   */\n      tag_538\n        /* \"#utility.yul\":15657:15662   */\n      dup2\n        /* \"#utility.yul\":15642:15663   */\n      tag_336\n      jump\t// in\n    tag_538:\n        /* \"#utility.yul\":15635:15640   */\n      dup2\n        /* \"#utility.yul\":15632:15664   */\n      eq\n        /* \"#utility.yul\":15622:15682   */\n      tag_539\n      jumpi\n        /* \"#utility.yul\":15678:15679   */\n      0x00\n        /* \"#utility.yul\":15675:15676   */\n      0x00\n        /* \"#utility.yul\":15668:15680   */\n      revert\n        /* \"#utility.yul\":15622:15682   */\n    tag_539:\n        /* \"#utility.yul\":15572:15688   */\n      pop\n      jump\t// out\n        /* \"#utility.yul\":15694:15831   */\n    tag_364:\n        /* \"#utility.yul\":15748:15753   */\n      0x00\n        /* \"#utility.yul\":15779:15785   */\n      dup2\n        /* \"#utility.yul\":15773:15786   */\n      mload\n        /* \"#utility.yul\":15764:15786   */\n      swap1\n      pop\n        /* \"#utility.yul\":15795:15825   */\n      tag_541\n        /* \"#utility.yul\":15819:15824   */\n      dup2\n        /* \"#utility.yul\":15795:15825   */\n      tag_363\n      jump\t// in\n    tag_541:\n        /* \"#utility.yul\":15694:15831   */\n      swap3\n      swap2\n      pop\n      pop\n      jump\t// out\n        /* \"#utility.yul\":15837:16182   */\n    tag_159:\n        /* \"#utility.yul\":15904:15910   */\n      0x00\n        /* \"#utility.yul\":15953:15955   */\n      0x20\n        /* \"#utility.yul\":15941:15950   */\n      dup3\n        /* \"#utility.yul\":15932:15939   */\n      dup5\n        /* \"#utility.yul\":15928:15951   */\n      sub\n        /* \"#utility.yul\":15924:15956   */\n      slt\n        /* \"#utility.yul\":15921:16040   */\n      iszero\n      tag_543\n      jumpi\n        /* \"#utility.yul\":15959:16038   */\n      tag_544\n      tag_330\n      jump\t// in\n    tag_544:\n        /* \"#utility.yul\":15921:16040   */\n    tag_543:\n        /* \"#utility.yul\":16079:16080   */\n      0x00\n        /* \"#utility.yul\":16104:16165   */\n      tag_545\n        /* \"#utility.yul\":16157:16164   */\n      dup5\n        /* \"#utility.yul\":16148:16154   */\n      dup3\n        /* \"#utility.yul\":16137:16146   */\n      dup6\n        /* \"#utility.yul\":16133:16155   */\n      add\n        /* \"#utility.yul\":16104:16165   */\n      tag_364\n      jump\t// in\n    tag_545:\n        /* \"#utility.yul\":16094:16165   */\n      swap2\n      pop\n        /* \"#utility.yul\":16050:16175   */\n      pop\n        /* \"#utility.yul\":15837:16182   */\n      swap3\n      swap2\n      pop\n      pop\n      jump\t// out\n        /* \"#utility.yul\":16188:16520   */\n    tag_163:\n        /* \"#utility.yul\":16309:16313   */\n      0x00\n        /* \"#utility.yul\":16347:16349   */\n      0x40\n        /* \"#utility.yul\":16336:16345   */\n      dup3\n        /* \"#utility.yul\":16332:16350   */\n      add\n        /* \"#utility.yul\":16324:16350   */\n      swap1\n      pop\n        /* \"#utility.yul\":16360:16431   */\n      tag_547\n        /* \"#utility.yul\":16428:16429   */\n      0x00\n        /* \"#utility.yul\":16417:16426   */\n      dup4\n        /* \"#utility.yul\":16413:16430   */\n      add\n        /* \"#utility.yul\":16404:16410   */\n      dup6\n        /* \"#utility.yul\":16360:16431   */\n      tag_350\n      jump\t// in\n    tag_547:\n        /* \"#utility.yul\":16441:16513   */\n      tag_548\n        /* \"#utility.yul\":16509:16511   */\n      0x20\n        /* \"#utility.yul\":16498:16507   */\n      dup4\n        /* \"#utility.yul\":16494:16512   */\n      add\n        /* \"#utility.yul\":16485:16491   */\n      dup5\n        /* \"#utility.yul\":16441:16513   */\n      tag_350\n      jump\t// in\n    tag_548:\n        /* \"#utility.yul\":16188:16520   */\n      swap4\n      swap3\n      pop\n      pop\n      pop\n      jump\t// out\n        /* \"#utility.yul\":16526:16695   */\n    tag_365:\n        /* \"#utility.yul\":16666:16687   */\n      0x546f6b656e206e6f7420737570706f7274656400000000000000000000000000\n        /* \"#utility.yul\":16662:16663   */\n      0x00\n        /* \"#utility.yul\":16654:16660   */\n      dup3\n        /* \"#utility.yul\":16650:16664   */\n      add\n        /* \"#utility.yul\":16643:16688   */\n      mstore\n        /* \"#utility.yul\":16526:16695   */\n      pop\n      jump\t// out\n        /* \"#utility.yul\":16701:17067   */\n    tag_366:\n        /* \"#utility.yul\":16843:16846   */\n      0x00\n        /* \"#utility.yul\":16864:16931   */\n      tag_551\n        /* \"#utility.yul\":16928:16930   */\n      0x13\n        /* \"#utility.yul\":16923:16926   */\n      dup4\n        /* \"#utility.yul\":16864:16931   */\n      tag_354\n      jump\t// in\n    tag_551:\n        /* \"#utility.yul\":16857:16931   */\n      swap2\n      pop\n        /* \"#utility.yul\":16940:17033   */\n      tag_552\n        /* \"#utility.yul\":17029:17032   */\n      dup3\n        /* \"#utility.yul\":16940:17033   */\n      tag_365\n      jump\t// in\n    tag_552:\n        /* \"#utility.yul\":17058:17060   */\n      0x20\n        /* \"#utility.yul\":17053:17056   */\n      dup3\n        /* \"#utility.yul\":17049:17061   */\n      add\n        /* \"#utility.yul\":17042:17061   */\n      swap1\n      pop\n        /* \"#utility.yul\":16701:17067   */\n      swap2\n      swap1\n      pop\n      jump\t// out\n        /* \"#utility.yul\":17073:17492   */\n    tag_171:\n        /* \"#utility.yul\":17239:17243   */\n      0x00\n        /* \"#utility.yul\":17277:17279   */\n      0x20\n        /* \"#utility.yul\":17266:17275   */\n      dup3\n        /* \"#utility.yul\":17262:17280   */\n      add\n        /* \"#utility.yul\":17254:17280   */\n      swap1\n      pop\n        /* \"#utility.yul\":17326:17335   */\n      dup2\n        /* \"#utility.yul\":17320:17324   */\n      dup2\n        /* \"#utility.yul\":17316:17336   */\n      sub\n        /* \"#utility.yul\":17312:17313   */\n      0x00\n        /* \"#utility.yul\":17301:17310   */\n      dup4\n        /* \"#utility.yul\":17297:17314   */\n      add\n        /* \"#utility.yul\":17290:17337   */\n      mstore\n        /* \"#utility.yul\":17354:17485   */\n      tag_554\n        /* \"#utility.yul\":17480:17484   */\n      dup2\n        /* \"#utility.yul\":17354:17485   */\n      tag_366\n      jump\t// in\n    tag_554:\n        /* \"#utility.yul\":17346:17485   */\n      swap1\n      pop\n        /* \"#utility.yul\":17073:17492   */\n      swap2\n      swap1\n      pop\n      jump\t// out\n        /* \"#utility.yul\":17498:17662   */\n    tag_367:\n        /* \"#utility.yul\":17638:17654   */\n      0x4e6f742072656769737465726564000000000000000000000000000000000000\n        /* \"#utility.yul\":17634:17635   */\n      0x00\n        /* \"#utility.yul\":17626:17632   */\n      dup3\n        /* \"#utility.yul\":17622:17636   */\n      add\n        /* \"#utility.yul\":17615:17655   */\n      mstore\n        /* \"#utility.yul\":17498:17662   */\n      pop\n      jump\t// out\n        /* \"#utility.yul\":17668:18034   */\n    tag_368:\n        /* \"#utility.yul\":17810:17813   */\n      0x00\n        /* \"#utility.yul\":17831:17898   */\n      tag_557\n        /* \"#utility.yul\":17895:17897   */\n      0x0e\n        /* \"#utility.yul\":17890:17893   */\n      dup4\n        /* \"#utility.yul\":17831:17898   */\n      tag_354\n      jump\t// in\n    tag_557:\n        /* \"#utility.yul\":17824:17898   */\n      swap2\n      pop\n        /* \"#utility.yul\":17907:18000   */\n      tag_558\n        /* \"#utility.yul\":17996:17999   */\n      dup3\n        /* \"#utility.yul\":17907:18000   */\n      tag_367\n      jump\t// in\n    tag_558:\n        /* \"#utility.yul\":18025:18027   */\n      0x20\n        /* \"#utility.yul\":18020:18023   */\n      dup3\n        /* \"#utility.yul\":18016:18028   */\n      add\n        /* \"#utility.yul\":18009:18028   */\n      swap1\n      pop\n        /* \"#utility.yul\":17668:18034   */\n      swap2\n      swap1\n      pop\n      jump\t// out\n        /* \"#utility.yul\":18040:18459   */\n    tag_174:\n        /* \"#utility.yul\":18206:18210   */\n      0x00\n        /* \"#utility.yul\":18244:18246   */\n      0x20\n        /* \"#utility.yul\":18233:18242   */\n      dup3\n        /* \"#utility.yul\":18229:18247   */\n      add\n        /* \"#utility.yul\":18221:18247   */\n      swap1\n      pop\n        /* \"#utility.yul\":18293:18302   */\n      dup2\n        /* \"#utility.yul\":18287:18291   */\n      dup2\n        /* \"#utility.yul\":18283:18303   */\n      sub\n        /* \"#utility.yul\":18279:18280   */\n      0x00\n        /* \"#utility.yul\":18268:18277   */\n      dup4\n        /* \"#utility.yul\":18264:18281   */\n      add\n        /* \"#utility.yul\":18257:18304   */\n      mstore\n        /* \"#utility.yul\":18321:18452   */\n      tag_560\n        /* \"#utility.yul\":18447:18451   */\n      dup2\n        /* \"#utility.yul\":18321:18452   */\n      tag_368\n      jump\t// in\n    tag_560:\n        /* \"#utility.yul\":18313:18452   */\n      swap1\n      pop\n        /* \"#utility.yul\":18040:18459   */\n      swap2\n      swap1\n      pop\n      jump\t// out\n        /* \"#utility.yul\":18465:18797   */\n    tag_180:\n        /* \"#utility.yul\":18586:18590   */\n      0x00\n        /* \"#utility.yul\":18624:18626   */\n      0x40\n        /* \"#utility.yul\":18613:18622   */\n      dup3\n        /* \"#utility.yul\":18609:18627   */\n      add\n        /* \"#utility.yul\":18601:18627   */\n      swap1\n      pop\n        /* \"#utility.yul\":18637:18708   */\n      tag_562\n        /* \"#utility.yul\":18705:18706   */\n      0x00\n        /* \"#utility.yul\":18694:18703   */\n      dup4\n        /* \"#utility.yul\":18690:18707   */\n      add\n        /* \"#utility.yul\":18681:18687   */\n      dup6\n        /* \"#utility.yul\":18637:18708   */\n      tag_351\n      jump\t// in\n    tag_562:\n        /* \"#utility.yul\":18718:18790   */\n      tag_563\n        /* \"#utility.yul\":18786:18788   */\n      0x20\n        /* \"#utility.yul\":18775:18784   */\n      dup4\n        /* \"#utility.yul\":18771:18789   */\n      add\n        /* \"#utility.yul\":18762:18768   */\n      dup5\n        /* \"#utility.yul\":18718:18790   */\n      tag_350\n      jump\t// in\n    tag_563:\n        /* \"#utility.yul\":18465:18797   */\n      swap4\n      swap3\n      pop\n      pop\n      pop\n      jump\t// out\n        /* \"#utility.yul\":18803:18965   */\n    tag_369:\n        /* \"#utility.yul\":18943:18957   */\n      0x46656520746f6f20686967680000000000000000000000000000000000000000\n        /* \"#utility.yul\":18939:18940   */\n      0x00\n        /* \"#utility.yul\":18931:18937   */\n      dup3\n        /* \"#utility.yul\":18927:18941   */\n      add\n        /* \"#utility.yul\":18920:18958   */\n      mstore\n        /* \"#utility.yul\":18803:18965   */\n      pop\n      jump\t// out\n        /* \"#utility.yul\":18971:19337   */\n    tag_370:\n        /* \"#utility.yul\":19113:19116   */\n      0x00\n        /* \"#utility.yul\":19134:19201   */\n      tag_566\n        /* \"#utility.yul\":19198:19200   */\n      0x0c\n        /* \"#utility.yul\":19193:19196   */\n      dup4\n        /* \"#utility.yul\":19134:19201   */\n      tag_354\n      jump\t// in\n    tag_566:\n        /* \"#utility.yul\":19127:19201   */\n      swap2\n      pop\n        /* \"#utility.yul\":19210:19303   */\n      tag_567\n        /* \"#utility.yul\":19299:19302   */\n      dup3\n        /* \"#utility.yul\":19210:19303   */\n      tag_369\n      jump\t// in\n    tag_567:\n        /* \"#utility.yul\":19328:19330   */\n      0x20\n        /* \"#utility.yul\":19323:19326   */\n      dup3\n        /* \"#utility.yul\":19319:19331   */\n      add\n        /* \"#utility.yul\":19312:19331   */\n      swap1\n      pop\n        /* \"#utility.yul\":18971:19337   */\n      swap2\n      swap1\n      pop\n      jump\t// out\n        /* \"#utility.yul\":19343:19762   */\n    tag_206:\n        /* \"#utility.yul\":19509:19513   */\n      0x00\n        /* \"#utility.yul\":19547:19549   */\n      0x20\n        /* \"#utility.yul\":19536:19545   */\n      dup3\n        /* \"#utility.yul\":19532:19550   */\n      add\n        /* \"#utility.yul\":19524:19550   */\n      swap1\n      pop\n        /* \"#utility.yul\":19596:19605   */\n      dup2\n        /* \"#utility.yul\":19590:19594   */\n      dup2\n        /* \"#utility.yul\":19586:19606   */\n      sub\n        /* \"#utility.yul\":19582:19583   */\n      0x00\n        /* \"#utility.yul\":19571:19580   */\n      dup4\n        /* \"#utility.yul\":19567:19584   */\n      add\n        /* \"#utility.yul\":19560:19607   */\n      mstore\n        /* \"#utility.yul\":19624:19755   */\n      tag_569\n        /* \"#utility.yul\":19750:19754   */\n      dup2\n        /* \"#utility.yul\":19624:19755   */\n      tag_370\n      jump\t// in\n    tag_569:\n        /* \"#utility.yul\":19616:19755   */\n      swap1\n      pop\n        /* \"#utility.yul\":19343:19762   */\n      swap2\n      swap1\n      pop\n      jump\t// out\n        /* \"#utility.yul\":19768:19939   */\n    tag_371:\n        /* \"#utility.yul\":19908:19931   */\n      0x4c656e646572206e6f7420726567697374657265640000000000000000000000\n        /* \"#utility.yul\":19904:19905   */\n      0x00\n        /* \"#utility.yul\":19896:19902   */\n      dup3\n        /* \"#utility.yul\":19892:19906   */\n      add\n        /* \"#utility.yul\":19885:19932   */\n      mstore\n        /* \"#utility.yul\":19768:19939   */\n      pop\n      jump\t// out\n        /* \"#utility.yul\":19945:20311   */\n    tag_372:\n        /* \"#utility.yul\":20087:20090   */\n      0x00\n        /* \"#utility.yul\":20108:20175   */\n      tag_572\n        /* \"#utility.yul\":20172:20174   */\n      0x15\n        /* \"#utility.yul\":20167:20170   */\n      dup4\n        /* \"#utility.yul\":20108:20175   */\n      tag_354\n      jump\t// in\n    tag_572:\n        /* \"#utility.yul\":20101:20175   */\n      swap2\n      pop\n        /* \"#utility.yul\":20184:20277   */\n      tag_573\n        /* \"#utility.yul\":20273:20276   */\n      dup3\n        /* \"#utility.yul\":20184:20277   */\n      tag_371\n      jump\t// in\n    tag_573:\n        /* \"#utility.yul\":20302:20304   */\n      0x20\n        /* \"#utility.yul\":20297:20300   */\n      dup3\n        /* \"#utility.yul\":20293:20305   */\n      add\n        /* \"#utility.yul\":20286:20305   */\n      swap1\n      pop\n        /* \"#utility.yul\":19945:20311   */\n      swap2\n      swap1\n      pop\n      jump\t// out\n        /* \"#utility.yul\":20317:20736   */\n    tag_220:\n        /* \"#utility.yul\":20483:20487   */\n      0x00\n        /* \"#utility.yul\":20521:20523   */\n      0x20\n        /* \"#utility.yul\":20510:20519   */\n      dup3\n        /* \"#utility.yul\":20506:20524   */\n      add\n        /* \"#utility.yul\":20498:20524   */\n      swap1\n      pop\n        /* \"#utility.yul\":20570:20579   */\n      dup2\n        /* \"#utility.yul\":20564:20568   */\n      dup2\n        /* \"#utility.yul\":20560:20580   */\n      sub\n        /* \"#utility.yul\":20556:20557   */\n      0x00\n        /* \"#utility.yul\":20545:20554   */\n      dup4\n        /* \"#utility.yul\":20541:20558   */\n      add\n        /* \"#utility.yul\":20534:20581   */\n      mstore\n        /* \"#utility.yul\":20598:20729   */\n      tag_575\n        /* \"#utility.yul\":20724:20728   */\n      dup2\n        /* \"#utility.yul\":20598:20729   */\n      tag_372\n      jump\t// in\n    tag_575:\n        /* \"#utility.yul\":20590:20729   */\n      swap1\n      pop\n        /* \"#utility.yul\":20317:20736   */\n      swap2\n      swap1\n      pop\n      jump\t// out\n        /* \"#utility.yul\":20742:20915   */\n    tag_373:\n        /* \"#utility.yul\":20882:20907   */\n      0x426f72726f776572206e6f742072656769737465726564000000000000000000\n        /* \"#utility.yul\":20878:20879   */\n      0x00\n        /* \"#utility.yul\":20870:20876   */\n      dup3\n        /* \"#utility.yul\":20866:20880   */\n      add\n        /* \"#utility.yul\":20859:20908   */\n      mstore\n        /* \"#utility.yul\":20742:20915   */\n      pop\n      jump\t// out\n        /* \"#utility.yul\":20921:21287   */\n    tag_374:\n        /* \"#utility.yul\":21063:21066   */\n      0x00\n        /* \"#utility.yul\":21084:21151   */\n      tag_578\n        /* \"#utility.yul\":21148:21150   */\n      0x17\n        /* \"#utility.yul\":21143:21146   */\n      dup4\n        /* \"#utility.yul\":21084:21151   */\n      tag_354\n      jump\t// in\n    tag_578:\n        /* \"#utility.yul\":21077:21151   */\n      swap2\n      pop\n        /* \"#utility.yul\":21160:21253   */\n      tag_579\n        /* \"#utility.yul\":21249:21252   */\n      dup3\n        /* \"#utility.yul\":21160:21253   */\n      tag_373\n      jump\t// in\n    tag_579:\n        /* \"#utility.yul\":21278:21280   */\n      0x20\n        /* \"#utility.yul\":21273:21276   */\n      dup3\n        /* \"#utility.yul\":21269:21281   */\n      add\n        /* \"#utility.yul\":21262:21281   */\n      swap1\n      pop\n        /* \"#utility.yul\":20921:21287   */\n      swap2\n      swap1\n      pop\n      jump\t// out\n        /* \"#utility.yul\":21293:21712   */\n    tag_223:\n        /* \"#utility.yul\":21459:21463   */\n      0x00\n        /* \"#utility.yul\":21497:21499   */\n      0x20\n        /* \"#utility.yul\":21486:21495   */\n      dup3\n        /* \"#utility.yul\":21482:21500   */\n      add\n        /* \"#utility.yul\":21474:21500   */\n      swap1\n      pop\n        /* \"#utility.yul\":21546:21555   */\n      dup2\n        /* \"#utility.yul\":21540:21544   */\n      dup2\n        /* \"#utility.yul\":21536:21556   */\n      sub\n        /* \"#utility.yul\":21532:21533   */\n      0x00\n        /* \"#utility.yul\":21521:21530   */\n      dup4\n        /* \"#utility.yul\":21517:21534   */\n      add\n        /* \"#utility.yul\":21510:21557   */\n      mstore\n        /* \"#utility.yul\":21574:21705   */\n      tag_581\n        /* \"#utility.yul\":21700:21704   */\n      dup2\n        /* \"#utility.yul\":21574:21705   */\n      tag_374\n      jump\t// in\n    tag_581:\n        /* \"#utility.yul\":21566:21705   */\n      swap1\n      pop\n        /* \"#utility.yul\":21293:21712   */\n      swap2\n      swap1\n      pop\n      jump\t// out\n        /* \"#utility.yul\":21718:21861   */\n    tag_375:\n        /* \"#utility.yul\":21775:21780   */\n      0x00\n        /* \"#utility.yul\":21806:21812   */\n      dup2\n        /* \"#utility.yul\":21800:21813   */\n      mload\n        /* \"#utility.yul\":21791:21813   */\n      swap1\n      pop\n        /* \"#utility.yul\":21822:21855   */\n      tag_583\n        /* \"#utility.yul\":21849:21854   */\n      dup2\n        /* \"#utility.yul\":21822:21855   */\n      tag_339\n      jump\t// in\n    tag_583:\n        /* \"#utility.yul\":21718:21861   */\n      swap3\n      swap2\n      pop\n      pop\n      jump\t// out\n        /* \"#utility.yul\":21867:22218   */\n    tag_230:\n        /* \"#utility.yul\":21937:21943   */\n      0x00\n        /* \"#utility.yul\":21986:21988   */\n      0x20\n        /* \"#utility.yul\":21974:21983   */\n      dup3\n        /* \"#utility.yul\":21965:21972   */\n      dup5\n        /* \"#utility.yul\":21961:21984   */\n      sub\n        /* \"#utility.yul\":21957:21989   */\n      slt\n        /* \"#utility.yul\":21954:22073   */\n      iszero\n      tag_585\n      jumpi\n        /* \"#utility.yul\":21992:22071   */\n      tag_586\n      tag_330\n      jump\t// in\n    tag_586:\n        /* \"#utility.yul\":21954:22073   */\n    tag_585:\n        /* \"#utility.yul\":22112:22113   */\n      0x00\n        /* \"#utility.yul\":22137:22201   */\n      tag_587\n        /* \"#utility.yul\":22193:22200   */\n      dup5\n        /* \"#utility.yul\":22184:22190   */\n      dup3\n        /* \"#utility.yul\":22173:22182   */\n      dup6\n        /* \"#utility.yul\":22169:22191   */\n      add\n        /* \"#utility.yul\":22137:22201   */\n      tag_375\n      jump\t// in\n    tag_587:\n        /* \"#utility.yul\":22127:22201   */\n      swap2\n      pop\n        /* \"#utility.yul\":22083:22211   */\n      pop\n        /* \"#utility.yul\":21867:22218   */\n      swap3\n      swap2\n      pop\n      pop\n      jump\t// out\n        /* \"#utility.yul\":22224:22394   */\n    tag_376:\n        /* \"#utility.yul\":22364:22386   */\n      0x496e73756666696369656e742062616c616e6365000000000000000000000000\n        /* \"#utility.yul\":22360:22361   */\n      0x00\n        /* \"#utility.yul\":22352:22358   */\n      dup3\n        /* \"#utility.yul\":22348:22362   */\n      add\n        /* \"#utility.yul\":22341:22387   */\n      mstore\n        /* \"#utility.yul\":22224:22394   */\n      pop\n      jump\t// out\n        /* \"#utility.yul\":22400:22766   */\n    tag_377:\n        /* \"#utility.yul\":22542:22545   */\n      0x00\n        /* \"#utility.yul\":22563:22630   */\n      tag_590\n        /* \"#utility.yul\":22627:22629   */\n      0x14\n        /* \"#utility.yul\":22622:22625   */\n      dup4\n        /* \"#utility.yul\":22563:22630   */\n      tag_354\n      jump\t// in\n    tag_590:\n        /* \"#utility.yul\":22556:22630   */\n      swap2\n      pop\n        /* \"#utility.yul\":22639:22732   */\n      tag_591\n        /* \"#utility.yul\":22728:22731   */\n      dup3\n        /* \"#utility.yul\":22639:22732   */\n      tag_376\n      jump\t// in\n    tag_591:\n        /* \"#utility.yul\":22757:22759   */\n      0x20\n        /* \"#utility.yul\":22752:22755   */\n      dup3\n        /* \"#utility.yul\":22748:22760   */\n      add\n        /* \"#utility.yul\":22741:22760   */\n      swap1\n      pop\n        /* \"#utility.yul\":22400:22766   */\n      swap2\n      swap1\n      pop\n      jump\t// out\n        /* \"#utility.yul\":22772:23191   */\n    tag_233:\n        /* \"#utility.yul\":22938:22942   */\n      0x00\n        /* \"#utility.yul\":22976:22978   */\n      0x20\n        /* \"#utility.yul\":22965:22974   */\n      dup3\n        /* \"#utility.yul\":22961:22979   */\n      add\n        /* \"#utility.yul\":22953:22979   */\n      swap1\n      pop\n        /* \"#utility.yul\":23025:23034   */\n      dup2\n        /* \"#utility.yul\":23019:23023   */\n      dup2\n        /* \"#utility.yul\":23015:23035   */\n      sub\n        /* \"#utility.yul\":23011:23012   */\n      0x00\n        /* \"#utility.yul\":23000:23009   */\n      dup4\n        /* \"#utility.yul\":22996:23013   */\n      add\n        /* \"#utility.yul\":22989:23036   */\n      mstore\n        /* \"#utility.yul\":23053:23184   */\n      tag_593\n        /* \"#utility.yul\":23179:23183   */\n      dup2\n        /* \"#utility.yul\":23053:23184   */\n      tag_377\n      jump\t// in\n    tag_593:\n        /* \"#utility.yul\":23045:23184   */\n      swap1\n      pop\n        /* \"#utility.yul\":22772:23191   */\n      swap2\n      swap1\n      pop\n      jump\t// out\n        /* \"#utility.yul\":23197:23430   */\n    tag_235:\n        /* \"#utility.yul\":23236:23239   */\n      0x00\n        /* \"#utility.yul\":23259:23283   */\n      tag_595\n        /* \"#utility.yul\":23277:23282   */\n      dup3\n        /* \"#utility.yul\":23259:23283   */\n      tag_338\n      jump\t// in\n    tag_595:\n        /* \"#utility.yul\":23250:23283   */\n      swap2\n      pop\n        /* \"#utility.yul\":23305:23371   */\n      0xffffffffffffffffffffffffffffffffffffffffffffffffffffffffffffffff\n        /* \"#utility.yul\":23298:23303   */\n      dup3\n        /* \"#utility.yul\":23295:23372   */\n      sub\n        /* \"#utility.yul\":23292:23395   */\n      tag_596\n      jumpi\n        /* \"#utility.yul\":23375:23393   */\n      tag_597\n      tag_359\n      jump\t// in\n    tag_597:\n        /* \"#utility.yul\":23292:23395   */\n    tag_596:\n        /* \"#utility.yul\":23422:23423   */\n      0x01\n        /* \"#utility.yul\":23415:23420   */\n      dup3\n        /* \"#utility.yul\":23411:23424   */\n      add\n        /* \"#utility.yul\":23404:23424   */\n      swap1\n      pop\n        /* \"#utility.yul\":23197:23430   */\n      swap2\n      swap1\n      pop\n      jump\t// out\n        /* \"#utility.yul\":23436:23550   */\n    tag_378:\n      pop\n      jump\t// out\n        /* \"#utility.yul\":23556:23920   */\n    tag_379:\n        /* \"#utility.yul\":23698:23701   */\n      0x00\n        /* \"#utility.yul\":23719:23785   */\n      tag_600\n        /* \"#utility.yul\":23783:23784   */\n      0x00\n        /* \"#utility.yul\":23778:23781   */\n      dup4\n        /* \"#utility.yul\":23719:23785   */\n      tag_354\n      jump\t// in\n    tag_600:\n        /* \"#utility.yul\":23712:23785   */\n      swap2\n      pop\n        /* \"#utility.yul\":23794:23887   */\n      tag_601\n        /* \"#utility.yul\":23883:23886   */\n      dup3\n        /* \"#utility.yul\":23794:23887   */\n      tag_378\n      jump\t// in\n    tag_601:\n        /* \"#utility.yul\":23912:23913   */\n      0x00\n        /* \"#utility.yul\":23907:23910   */\n      dup3\n        /* \"#utility.yul\":23903:23914   */\n      add\n        /* \"#utility.yul\":23896:23914   */\n      swap1\n      pop\n        /* \"#utility.yul\":23556:23920   */\n      swap2\n      swap1\n      pop\n      jump\t// out\n        /* \"#utility.yul\":23926:24565   */\n    tag_247:\n        /* \"#utility.yul\":24148:24152   */\n      0x00\n        /* \"#utility.yul\":24186:24188   */\n      0x60\n        /* \"#utility.yul\":24175:24184   */\n      dup3\n        /* \"#utility.yul\":24171:24189   */\n      add\n        /* \"#utility.yul\":24163:24189   */\n      swap1\n      pop\n        /* \"#utility.yul\":24199:24270   */\n      tag_603\n        /* \"#utility.yul\":24267:24268   */\n      0x00\n        /* \"#utility.yul\":24256:24265   */\n      dup4\n        /* \"#utility.yul\":24252:24269   */\n      add\n        /* \"#utility.yul\":24243:24249   */\n      dup6\n        /* \"#utility.yul\":24199:24270   */\n      tag_351\n      jump\t// in\n    tag_603:\n        /* \"#utility.yul\":24280:24352   */\n      tag_604\n        /* \"#utility.yul\":24348:24350   */\n      0x20\n        /* \"#utility.yul\":24337:24346   */\n      dup4\n        /* \"#utility.yul\":24333:24351   */\n      add\n        /* \"#utility.yul\":24324:24330   */\n      dup5\n        /* \"#utility.yul\":24280:24352   */\n      tag_350\n      jump\t// in\n    tag_604:\n        /* \"#utility.yul\":24399:24408   */\n      dup2\n        /* \"#utility.yul\":24393:24397   */\n      dup2\n        /* \"#utility.yul\":24389:24409   */\n      sub\n        /* \"#utility.yul\":24384:24386   */\n      0x40\n        /* \"#utility.yul\":24373:24382   */\n      dup4\n        /* \"#utility.yul\":24369:24387   */\n      add\n        /* \"#utility.yul\":24362:24410   */\n      mstore\n        /* \"#utility.yul\":24427:24558   */\n      tag_605\n        /* \"#utility.yul\":24553:24557   */\n      dup2\n        /* \"#utility.yul\":24427:24558   */\n      tag_379\n      jump\t// in\n    tag_605:\n        /* \"#utility.yul\":24419:24558   */\n      swap1\n      pop\n        /* \"#utility.yul\":23926:24565   */\n      swap4\n      swap3\n      pop\n      pop\n      pop\n      jump\t// out\n        /* \"#utility.yul\":24571:25124   */\n    tag_252:\n        /* \"#utility.yul\":24748:24752   */\n      0x00\n        /* \"#utility.yul\":24786:24789   */\n      0x80\n        /* \"#utility.yul\":24775:24784   */\n      dup3\n        /* \"#utility.yul\":24771:24790   */\n      add\n        /* \"#utility.yul\":24763:24790   */\n      swap1\n      pop\n        /* \"#utility.yul\":24800:24871   */\n      tag_607\n        /* \"#utility.yul\":24868:24869   */\n      0x00\n        /* \"#utility.yul\":24857:24866   */\n      dup4\n        /* \"#utility.yul\":24853:24870   */\n      add\n        /* \"#utility.yul\":24844:24850   */\n      dup8\n        /* \"#utility.yul\":24800:24871   */\n      tag_350\n      jump\t// in\n    tag_607:\n        /* \"#utility.yul\":24881:24953   */\n      tag_608\n        /* \"#utility.yul\":24949:24951   */\n      0x20\n        /* \"#utility.yul\":24938:24947   */\n      dup4\n        /* \"#utility.yul\":24934:24952   */\n      add\n        /* \"#utility.yul\":24925:24931   */\n      dup7\n        /* \"#utility.yul\":24881:24953   */\n      tag_351\n      jump\t// in\n    tag_608:\n        /* \"#utility.yul\":24963:25035   */\n      tag_609\n        /* \"#utility.yul\":25031:25033   */\n      0x40\n        /* \"#utility.yul\":25020:25029   */\n      dup4\n        /* \"#utility.yul\":25016:25034   */\n      add\n        /* \"#utility.yul\":25007:25013   */\n      dup6\n        /* \"#utility.yul\":24963:25035   */\n      tag_351\n      jump\t// in\n    tag_609:\n        /* \"#utility.yul\":25045:25117   */\n      tag_610\n        /* \"#utility.yul\":25113:25115   */\n      0x60\n        /* \"#utility.yul\":25102:25111   */\n      dup4\n        /* \"#utility.yul\":25098:25116   */\n      add\n        /* \"#utility.yul\":25089:25095   */\n      dup5\n        /* \"#utility.yul\":25045:25117   */\n      tag_350\n      jump\t// in\n    tag_610:\n        /* \"#utility.yul\":24571:25124   */\n      swap6\n      swap5\n      pop\n      pop\n      pop\n      pop\n      pop\n      jump\t// out\n        /* \"#utility.yul\":25130:25288   */\n    tag_380:\n        /* \"#utility.yul\":25270:25280   */\n      0x416c6c2070616964000000000000000000000000000000000000000000000000\n        /* \"#utility.yul\":25266:25267   */\n      0x00\n        /* \"#utility.yul\":25258:25264   */\n      dup3\n        /* \"#utility.yul\":25254:25268   */\n      add\n        /* \"#utility.yul\":25247:25281   */\n      mstore\n        /* \"#utility.yul\":25130:25288   */\n      pop\n      jump\t// out\n        /* \"#utility.yul\":25294:25659   */\n    tag_381:\n        /* \"#utility.yul\":25436:25439   */\n      0x00\n        /* \"#utility.yul\":25457:25523   */\n      tag_613\n        /* \"#utility.yul\":25521:25522   */\n      0x08\n        /* \"#utility.yul\":25516:25519   */\n      dup4\n        /* \"#utility.yul\":25457:25523   */\n      tag_354\n      jump\t// in\n    tag_613:\n        /* \"#utility.yul\":25450:25523   */\n      swap2\n      pop\n        /* \"#utility.yul\":25532:25625   */\n      tag_614\n        /* \"#utility.yul\":25621:25624   */\n      dup3\n        /* \"#utility.yul\":25532:25625   */\n      tag_380\n      jump\t// in\n    tag_614:\n        /* \"#utility.yul\":25650:25652   */\n      0x20\n        /* \"#utility.yul\":25645:25648   */\n      dup3\n        /* \"#utility.yul\":25641:25653   */\n      add\n        /* \"#utility.yul\":25634:25653   */\n      swap1\n      pop\n        /* \"#utility.yul\":25294:25659   */\n      swap2\n      swap1\n      pop\n      jump\t// out\n        /* \"#utility.yul\":25665:26084   */\n    tag_263:\n        /* \"#utility.yul\":25831:25835   */\n      0x00\n        /* \"#utility.yul\":25869:25871   */\n      0x20\n        /* \"#utility.yul\":25858:25867   */\n      dup3\n        /* \"#utility.yul\":25854:25872   */\n      add\n        /* \"#utility.yul\":25846:25872   */\n      swap1\n      pop\n        /* \"#utility.yul\":25918:25927   */\n      dup2\n        /* \"#utility.yul\":25912:25916   */\n      dup2\n        /* \"#utility.yul\":25908:25928   */\n      sub\n        /* \"#utility.yul\":25904:25905   */\n      0x00\n        /* \"#utility.yul\":25893:25902   */\n      dup4\n        /* \"#utility.yul\":25889:25906   */\n      add\n        /* \"#utility.yul\":25882:25929   */\n      mstore\n        /* \"#utility.yul\":25946:26077   */\n      tag_616\n        /* \"#utility.yul\":26072:26076   */\n      dup2\n        /* \"#utility.yul\":25946:26077   */\n      tag_381\n      jump\t// in\n    tag_616:\n        /* \"#utility.yul\":25938:26077   */\n      swap1\n      pop\n        /* \"#utility.yul\":25665:26084   */\n      swap2\n      swap1\n      pop\n      jump\t// out\n        /* \"#utility.yul\":26090:26271   */\n    tag_382:\n        /* \"#utility.yul\":26230:26263   */\n      0x5265656e7472616e637947756172643a207265656e7472616e742063616c6c00\n        /* \"#utility.yul\":26226:26227   */\n      0x00\n        /* \"#utility.yul\":26218:26224   */\n      dup3\n        /* \"#utility.yul\":26214:26228   */\n      add\n        /* \"#utility.yul\":26207:26264   */\n      mstore\n        /* \"#utility.yul\":26090:26271   */\n      pop\n      jump\t// out\n        /* \"#utility.yul\":26277:26643   */\n    tag_383:\n        /* \"#utility.yul\":26419:26422   */\n      0x00\n        /* \"#utility.yul\":26440:26507   */\n      tag_619\n        /* \"#utility.yul\":26504:26506   */\n      0x1f\n        /* \"#utility.yul\":26499:26502   */\n      dup4\n        /* \"#utility.yul\":26440:26507   */\n      tag_354\n      jump\t// in\n    tag_619:\n        /* \"#utility.yul\":26433:26507   */\n      swap2\n      pop\n        /* \"#utility.yul\":26516:26609   */\n      tag_620\n        /* \"#utility.yul\":26605:26608   */\n      dup3\n        /* \"#utility.yul\":26516:26609   */\n      tag_382\n      jump\t// in\n    tag_620:\n        /* \"#utility.yul\":26634:26636   */\n      0x20\n        /* \"#utility.yul\":26629:26632   */\n      dup3\n        /* \"#utility.yul\":26625:26637   */\n      add\n        /* \"#utility.yul\":26618:26637   */\n      swap1\n      pop\n        /* \"#utility.yul\":26277:26643   */\n      swap2\n      swap1\n      pop\n      jump\t// out\n        /* \"#utility.yul\":26649:27068   */\n    tag_318:\n        /* \"#utility.yul\":26815:26819   */\n      0x00\n        /* \"#utility.yul\":26853:26855   */\n      0x20\n        /* \"#utility.yul\":26842:26851   */\n      dup3\n        /* \"#utility.yul\":26838:26856   */\n      add\n        /* \"#utility.yul\":26830:26856   */\n      swap1\n      pop\n        /* \"#utility.yul\":26902:26911   */\n      dup2\n        /* \"#utility.yul\":26896:26900   */\n      dup2\n        /* \"#utility.yul\":26892:26912   */\n      sub\n        /* \"#utility.yul\":26888:26889   */\n      0x00\n        /* \"#utility.yul\":26877:26886   */\n      dup4\n        /* \"#utility.yul\":26873:26890   */\n      add\n        /* \"#utility.yul\":26866:26913   */\n      mstore\n        /* \"#utility.yul\":26930:27061   */\n      tag_622\n        /* \"#utility.yul\":27056:27060   */\n      dup2\n        /* \"#utility.yul\":26930:27061   */\n      tag_383\n      jump\t// in\n    tag_622:\n        /* \"#utility.yul\":26922:27061   */\n      swap1\n      pop\n        /* \"#utility.yul\":26649:27068   */\n      swap2\n      swap1\n      pop\n      jump\t// out\n\n    auxdata: 0xa2646970667358221220747e51e289b5f5b6fd1ebe1926e75bec46d6ffa8ae7df2bef2a568996ff0243164736f6c634300081e0033\n}\n",
				"bytecode": {
					"linkReferences": {},
					"object": "6080604052600160085560c8600955348015610019575f5ffd5b506040516131b53803806131b5833981810160405281019061003b91906103a5565b3360015f819055505f73ffffffffffffffffffffffffffffffffffffffff168173ffffffffffffffffffffffffffffffffffffffff16036100b3575f6040517f1e4fbdf70000000000000000000000000000000000000000000000000000000081526004016100aa91906103f2565b60405180910390fd5b6100c28161028460201b60201c565b508160025f6101000a81548173ffffffffffffffffffffffffffffffffffffffff021916908373ffffffffffffffffffffffffffffffffffffffff1602179055508060035f6101000a81548173ffffffffffffffffffffffffffffffffffffffff021916908373ffffffffffffffffffffffffffffffffffffffff160217905550600160075f73e6a57340f0df6e020c1c0a80bc6e13048601f0d473ffffffffffffffffffffffffffffffffffffffff1673ffffffffffffffffffffffffffffffffffffffff1681526020019081526020015f205f6101000a81548160ff0219169083151502179055505f60075f73641b9a432feccaa89123951339d1941d792bf65f73ffffffffffffffffffffffffffffffffffffffff1673ffffffffffffffffffffffffffffffffffffffff1681526020019081526020015f205f6101000a81548160ff021916908315150217905550600160075f73b4630414268949dd89d335a66be40819d2db0c5c73ffffffffffffffffffffffffffffffffffffffff1673ffffffffffffffffffffffffffffffffffffffff1681526020019081526020015f205f6101000a81548160ff021916908315150217905550505061040b565b5f60015f9054906101000a900473ffffffffffffffffffffffffffffffffffffffff1690508160015f6101000a81548173ffffffffffffffffffffffffffffffffffffffff021916908373ffffffffffffffffffffffffffffffffffffffff1602179055508173ffffffffffffffffffffffffffffffffffffffff168173ffffffffffffffffffffffffffffffffffffffff167f8be0079c531659141344cd1fd0a4f28419497f9722a3daafe3b4186f6b6457e060405160405180910390a35050565b5f5ffd5b5f73ffffffffffffffffffffffffffffffffffffffff82169050919050565b5f6103748261034b565b9050919050565b6103848161036a565b811461038e575f5ffd5b50565b5f8151905061039f8161037b565b92915050565b5f5f604083850312156103bb576103ba610347565b5b5f6103c885828601610391565b92505060206103d985828601610391565b9150509250929050565b6103ec8161036a565b82525050565b5f6020820190506104055f8301846103e3565b92915050565b612d9d806104185f395ff3fe608060405234801561000f575f5ffd5b5060043610610171575f3560e01c806395ccea67116100dc578063e831878d11610095578063f3fef3a31161006f578063f3fef3a31461042a578063f8b2cb4f14610446578063fa84783614610476578063fbfd9a77146104a657610171565b8063e831878d146103d4578063eaf6e483146103de578063f2fde38b1461040e57610171565b806395ccea67146102e3578063bf5d50c4146102ff578063ddca3f431461032f578063e04640d21461034d578063e1ec3c681461037d578063e2f8a017146103b857610171565b8063709b89611161012e578063709b896114610247578063715018a6146102775780637df21f7a1461028157806387c514591461028b5780638da5cb5b146102a95780639012c4a8146102c757610171565b80630418945a1461017557806328fd10d7146101915780632cf340af146101c157806334a41177146101dd57806347e7ef24146101fb578063504006ca14610217575b5f5ffd5b61018f600480360381019061018a9190612129565b6104c4565b005b6101ab60048036038101906101a69190612129565b610524565b6040516101b8919061216e565b60405180910390f35b6101db60048036038101906101d691906121ba565b610541565b005b6101e561081b565b6040516101f29190612240565b60405180910390f35b61021560048036038101906102109190612259565b610840565b005b610231600480360381019061022c91906121ba565b610b0a565b60405161023e91906123b8565b60405180910390f35b610261600480360381019061025c9190612129565b610c9e565b60405161026e919061216e565b60405180910390f35b61027f610cf0565b005b610289610d03565b005b610293610d91565b6040516102a091906123e1565b60405180910390f35b6102b1610d97565b6040516102be9190612409565b60405180910390f35b6102e160048036038101906102dc91906121ba565b610dbf565b005b6102fd60048036038101906102f89190612259565b610e16565b005b61031960048036038101906103149190612129565b610ea5565b604051610326919061216e565b60405180910390f35b610337610ec2565b60405161034491906123e1565b60405180910390f35b61036760048036038101906103629190612422565b610ec8565b60405161037491906123e1565b60405180910390f35b610397600480360381019061039291906121ba565b611550565b6040516103af9c9b9a999897969594939291906124bf565b60405180910390f35b6103d260048036038101906103cd91906121ba565b611615565b005b6103dc61189a565b005b6103f860048036038101906103f39190612129565b611928565b604051610405919061216e565b60405180910390f35b61042860048036038101906104239190612129565b61197a565b005b610444600480360381019061043f9190612259565b6119fe565b005b610460600480360381019061045b9190612129565b611c7b565b60405161046d91906123e1565b60405180910390f35b610490600480360381019061048b9190612129565b611d1c565b60405161049d919061216e565b60405180910390f35b6104ae611d39565b6040516104bb9190612597565b60405180910390f35b6104cc611d5e565b600160075f8373ffffffffffffffffffffffffffffffffffffffff1673ffffffffffffffffffffffffffffffffffffffff1681526020019081526020015f205f6101000a81548160ff02191690831515021790555050565b6005602052805f5260405f205f915054906101000a900460ff1681565b610549611de5565b5f60045f8381526020019081526020015f20905080600a015f9054906101000a900460ff166105ad576040517f08c379a00000000000000000000000000000000000000000000000000000000081526004016105a49061260a565b60405180910390fd5b3373ffffffffffffffffffffffffffffffffffffffff16816001015f9054906101000a900473ffffffffffffffffffffffffffffffffffffffff1673ffffffffffffffffffffffffffffffffffffffff161461063e576040517f08c379a000000000000000000000000000000000000000000000000000000000815260040161063590612672565b60405180910390fd5b5f6201518082600601544261065391906126bd565b61065d919061271d565b90505f810361066b57600190505b5f601e90508082111561067c578091505b5f818460030154856004015461069291906126bd565b61069c919061271d565b90505f83826106ab919061274d565b85600301546106ba919061278e565b90505f8560050154826106cd91906126bd565b90505f8111610711576040517f08c379a00000000000000000000000000000000000000000000000000000000081526004016107089061280b565b60405180910390fd5b856002015f9054906101000a900473ffffffffffffffffffffffffffffffffffffffff1673ffffffffffffffffffffffffffffffffffffffff166323b872dd3330846040518463ffffffff1660e01b815260040161077193929190612829565b6020604051808303815f875af115801561078d573d5f5f3e3d5ffd5b505050506040513d601f19601f820116820180604052508101906107b19190612888565b50818660050181905550856007015486600901819055506107d187611e32565b7f0e9e4ec6fa83fe2a2893fd5d6517a890df20f72cc0ba40495b21e65d1222350387826040516108029291906128b3565b60405180910390a1505050505050610818611f5f565b50565b60035f9054906101000a900473ffffffffffffffffffffffffffffffffffffffff1681565b610848611de5565b60075f8373ffffffffffffffffffffffffffffffffffffffff1673ffffffffffffffffffffffffffffffffffffffff1681526020019081526020015f205f9054906101000a900460ff166108d1576040517f08c379a00000000000000000000000000000000000000000000000000000000081526004016108c890612924565b60405180910390fd5b60055f3373ffffffffffffffffffffffffffffffffffffffff1673ffffffffffffffffffffffffffffffffffffffff1681526020019081526020015f205f9054906101000a900460ff1661095a576040517f08c379a00000000000000000000000000000000000000000000000000000000081526004016109519061298c565b60405180910390fd5b8173ffffffffffffffffffffffffffffffffffffffff166323b872dd3330846040518463ffffffff1660e01b815260040161099793929190612829565b6020604051808303815f875af11580156109b3573d5f5f3e3d5ffd5b505050506040513d601f19601f820116820180604052508101906109d79190612888565b5060025f9054906101000a900473ffffffffffffffffffffffffffffffffffffffff1673ffffffffffffffffffffffffffffffffffffffff166340c10f1933836040518363ffffffff1660e01b8152600401610a349291906129aa565b5f604051808303815f87803b158015610a4b575f5ffd5b505af1158015610a5d573d5f5f3e3d5ffd5b5050505060025f9054906101000a900473ffffffffffffffffffffffffffffffffffffffff1673ffffffffffffffffffffffffffffffffffffffff1663095ea7b330836040518363ffffffff1660e01b8152600401610abd9291906129aa565b6020604051808303815f875af1158015610ad9573d5f5f3e3d5ffd5b505050506040513d601f19601f82011682018060405250810190610afd9190612888565b50610b06611f5f565b5050565b610b12612032565b60045f8381526020019081526020015f20604051806101800160405290815f82015f9054906101000a900473ffffffffffffffffffffffffffffffffffffffff1673ffffffffffffffffffffffffffffffffffffffff1673ffffffffffffffffffffffffffffffffffffffff168152602001600182015f9054906101000a900473ffffffffffffffffffffffffffffffffffffffff1673ffffffffffffffffffffffffffffffffffffffff1673ffffffffffffffffffffffffffffffffffffffff168152602001600282015f9054906101000a900473ffffffffffffffffffffffffffffffffffffffff1673ffffffffffffffffffffffffffffffffffffffff1673ffffffffffffffffffffffffffffffffffffffff16815260200160038201548152602001600482015481526020016005820154815260200160068201548152602001600782015481526020016008820154815260200160098201548152602001600a82015f9054906101000a900460ff16151515158152602001600b820154815250509050919050565b5f60055f8373ffffffffffffffffffffffffffffffffffffffff1673ffffffffffffffffffffffffffffffffffffffff1681526020019081526020015f205f9054906101000a900460ff169050919050565b610cf8611d5e565b610d015f611f68565b565b600160055f3373ffffffffffffffffffffffffffffffffffffffff1673ffffffffffffffffffffffffffffffffffffffff1681526020019081526020015f205f6101000a81548160ff0219169083151502179055507f35999cadc5f1a750104410f15263cc04190a1095143f37917467434d7f32c3c433604051610d879190612409565b60405180910390a1565b60085481565b5f60015f9054906101000a900473ffffffffffffffffffffffffffffffffffffffff16905090565b610dc7611d5e565b6103e8811115610e0c576040517f08c379a0000000000000000000000000000000000000000000000000000000008152600401610e0390612a1b565b60405180910390fd5b8060098190555050565b610e1e611d5e565b8173ffffffffffffffffffffffffffffffffffffffff1663a9059cbb610e42610d97565b836040518363ffffffff1660e01b8152600401610e609291906129aa565b6020604051808303815f875af1158015610e7c573d5f5f3e3d5ffd5b505050506040513d601f19601f82011682018060405250810190610ea09190612888565b505050565b6006602052805f5260405f205f915054906101000a900460ff1681565b60095481565b5f610ed1611de5565b60055f8973ffffffffffffffffffffffffffffffffffffffff1673ffffffffffffffffffffffffffffffffffffffff1681526020019081526020015f205f9054906101000a900460ff16610f5a576040517f08c379a0000000000000000000000000000000000000000000000000000000008152600401610f5190612a83565b60405180910390fd5b60065f8873ffffffffffffffffffffffffffffffffffffffff1673ffffffffffffffffffffffffffffffffffffffff1681526020019081526020015f205f9054906101000a900460ff16610fe3576040517f08c379a0000000000000000000000000000000000000000000000000000000008152600401610fda90612aeb565b60405180910390fd5b60075f8773ffffffffffffffffffffffffffffffffffffffff1673ffffffffffffffffffffffffffffffffffffffff1681526020019081526020015f205f9054906101000a900460ff1661106c576040517f08c379a000000000000000000000000000000000000000000000000000000000815260040161106390612924565b60405180910390fd5b8460025f9054906101000a900473ffffffffffffffffffffffffffffffffffffffff1673ffffffffffffffffffffffffffffffffffffffff166370a082318a6040518263ffffffff1660e01b81526004016110c79190612409565b602060405180830381865afa1580156110e2573d5f5f3e3d5ffd5b505050506040513d601f19601f820116820180604052508101906111069190612b1d565b1015611147576040517f08c379a000000000000000000000000000000000000000000000000000000000815260040161113e90612b92565b60405180910390fd5b5f60085f81548092919061115a90612bb0565b9190505590505f858761116d919061278e565b90505f858261117c919061271d565b90506040518061018001604052808c73ffffffffffffffffffffffffffffffffffffffff1681526020018b73ffffffffffffffffffffffffffffffffffffffff1681526020018a73ffffffffffffffffffffffffffffffffffffffff1681526020018981526020018381526020015f81526020014281526020018781526020018281526020015f81526020016001151581526020018681525060045f8581526020019081526020015f205f820151815f015f6101000a81548173ffffffffffffffffffffffffffffffffffffffff021916908373ffffffffffffffffffffffffffffffffffffffff1602179055506020820151816001015f6101000a81548173ffffffffffffffffffffffffffffffffffffffff021916908373ffffffffffffffffffffffffffffffffffffffff1602179055506040820151816002015f6101000a81548173ffffffffffffffffffffffffffffffffffffffff021916908373ffffffffffffffffffffffffffffffffffffffff160217905550606082015181600301556080820151816004015560a0820151816005015560c0820151816006015560e082015181600701556101008201518160080155610120820151816009015561014082015181600a015f6101000a81548160ff02191690831515021790555061016082015181600b015590505060025f9054906101000a900473ffffffffffffffffffffffffffffffffffffffff1673ffffffffffffffffffffffffffffffffffffffff16639dc29fac8c8a6040518363ffffffff1660e01b81526004016113c89291906129aa565b5f604051808303815f87803b1580156113df575f5ffd5b505af11580156113f1573d5f5f3e3d5ffd5b505050508873ffffffffffffffffffffffffffffffffffffffff1663a9059cbb8b8a6040518363ffffffff1660e01b81526004016114309291906129aa565b6020604051808303815f875af115801561144c573d5f5f3e3d5ffd5b505050506040513d601f19601f820116820180604052508101906114709190612888565b5060035f9054906101000a900473ffffffffffffffffffffffffffffffffffffffff1673ffffffffffffffffffffffffffffffffffffffff1663d3fc98648c856040518363ffffffff1660e01b81526004016114cd929190612c1a565b5f604051808303815f87803b1580156114e4575f5ffd5b505af11580156114f6573d5f5f3e3d5ffd5b505050507f74b3e97b2a36ecfc8a1c59a0f98862174d98f86769a3420cf68024a054f87b6d838c8c8b60405161152f9493929190612c54565b60405180910390a1829350505050611545611f5f565b979650505050505050565b6004602052805f5260405f205f91509050805f015f9054906101000a900473ffffffffffffffffffffffffffffffffffffffff1690806001015f9054906101000a900473ffffffffffffffffffffffffffffffffffffffff1690806002015f9054906101000a900473ffffffffffffffffffffffffffffffffffffffff169080600301549080600401549080600501549080600601549080600701549080600801549080600901549080600a015f9054906101000a900460ff169080600b015490508c565b61161d611de5565b5f60045f8381526020019081526020015f20905080600a015f9054906101000a900460ff16611681576040517f08c379a00000000000000000000000000000000000000000000000000000000081526004016116789061260a565b60405180910390fd5b3373ffffffffffffffffffffffffffffffffffffffff16816001015f9054906101000a900473ffffffffffffffffffffffffffffffffffffffff1673ffffffffffffffffffffffffffffffffffffffff1614611712576040517f08c379a000000000000000000000000000000000000000000000000000000000815260040161170990612672565b60405180910390fd5b806007015481600901541061175c576040517f08c379a000000000000000000000000000000000000000000000000000000000815260040161175390612ce1565b60405180910390fd5b806002015f9054906101000a900473ffffffffffffffffffffffffffffffffffffffff1673ffffffffffffffffffffffffffffffffffffffff166323b872dd333084600801546040518463ffffffff1660e01b81526004016117c093929190612829565b6020604051808303815f875af11580156117dc573d5f5f3e3d5ffd5b505050506040513d601f19601f820116820180604052508101906118009190612888565b508060080154816005015f828254611818919061278e565b92505081905550806009015f81548092919061183390612bb0565b91905055507f0e9e4ec6fa83fe2a2893fd5d6517a890df20f72cc0ba40495b21e65d1222350382826008015460405161186d9291906128b3565b60405180910390a1806007015481600901541061188e5761188d82611e32565b5b50611897611f5f565b50565b600160065f3373ffffffffffffffffffffffffffffffffffffffff1673ffffffffffffffffffffffffffffffffffffffff1681526020019081526020015f205f6101000a81548160ff0219169083151502179055507f57c3b463895a0da2fe39978165ab8b71864d9225a91dd3bda7184006e52cdd0c3360405161191e9190612409565b60405180910390a1565b5f60065f8373ffffffffffffffffffffffffffffffffffffffff1673ffffffffffffffffffffffffffffffffffffffff1681526020019081526020015f205f9054906101000a900460ff169050919050565b611982611d5e565b5f73ffffffffffffffffffffffffffffffffffffffff168173ffffffffffffffffffffffffffffffffffffffff16036119f2575f6040517f1e4fbdf70000000000000000000000000000000000000000000000000000000081526004016119e99190612409565b60405180910390fd5b6119fb81611f68565b50565b611a06611de5565b60075f8373ffffffffffffffffffffffffffffffffffffffff1673ffffffffffffffffffffffffffffffffffffffff1681526020019081526020015f205f9054906101000a900460ff16611a8f576040517f08c379a0000000000000000000000000000000000000000000000000000000008152600401611a8690612924565b60405180910390fd5b8060025f9054906101000a900473ffffffffffffffffffffffffffffffffffffffff1673ffffffffffffffffffffffffffffffffffffffff166370a08231336040518263ffffffff1660e01b8152600401611aea9190612409565b602060405180830381865afa158015611b05573d5f5f3e3d5ffd5b505050506040513d601f19601f82011682018060405250810190611b299190612b1d565b1015611b6a576040517f08c379a0000000000000000000000000000000000000000000000000000000008152600401611b6190612b92565b60405180910390fd5b60025f9054906101000a900473ffffffffffffffffffffffffffffffffffffffff1673ffffffffffffffffffffffffffffffffffffffff16639dc29fac33836040518363ffffffff1660e01b8152600401611bc69291906129aa565b5f604051808303815f87803b158015611bdd575f5ffd5b505af1158015611bef573d5f5f3e3d5ffd5b505050508173ffffffffffffffffffffffffffffffffffffffff1663a9059cbb33836040518363ffffffff1660e01b8152600401611c2e9291906129aa565b6020604051808303815f875af1158015611c4a573d5f5f3e3d5ffd5b505050506040513d601f19601f82011682018060405250810190611c6e9190612888565b50611c77611f5f565b5050565b5f60025f9054906101000a900473ffffffffffffffffffffffffffffffffffffffff1673ffffffffffffffffffffffffffffffffffffffff166370a08231836040518263ffffffff1660e01b8152600401611cd69190612409565b602060405180830381865afa158015611cf1573d5f5f3e3d5ffd5b505050506040513d601f19601f82011682018060405250810190611d159190612b1d565b9050919050565b6007602052805f5260405f205f915054906101000a900460ff1681565b60025f9054906101000a900473ffffffffffffffffffffffffffffffffffffffff1681565b611d6661202b565b73ffffffffffffffffffffffffffffffffffffffff16611d84610d97565b73ffffffffffffffffffffffffffffffffffffffff1614611de357611da761202b565b6040517f118cdaa7000000000000000000000000000000000000000000000000000000008152600401611dda9190612409565b60405180910390fd5b565b60025f5403611e29576040517f08c379a0000000000000000000000000000000000000000000000000000000008152600401611e2090612d49565b60405180910390fd5b60025f81905550565b5f60045f8381526020019081526020015f2090505f81600a015f6101000a81548160ff0219169083151502179055505f81600b01548260050154611e7691906126bd565b905060025f9054906101000a900473ffffffffffffffffffffffffffffffffffffffff1673ffffffffffffffffffffffffffffffffffffffff166340c10f19835f015f9054906101000a900473ffffffffffffffffffffffffffffffffffffffff16836040518363ffffffff1660e01b8152600401611ef69291906129aa565b5f604051808303815f87803b158015611f0d575f5ffd5b505af1158015611f1f573d5f5f3e3d5ffd5b505050507f02ca5489b37dd363d1302bac719e8ee40e540ffbe8c12253570fea63e11cad7183604051611f5291906123e1565b60405180910390a1505050565b60015f81905550565b5f60015f9054906101000a900473ffffffffffffffffffffffffffffffffffffffff1690508160015f6101000a81548173ffffffffffffffffffffffffffffffffffffffff021916908373ffffffffffffffffffffffffffffffffffffffff1602179055508173ffffffffffffffffffffffffffffffffffffffff168173ffffffffffffffffffffffffffffffffffffffff167f8be0079c531659141344cd1fd0a4f28419497f9722a3daafe3b4186f6b6457e060405160405180910390a35050565b5f33905090565b6040518061018001604052805f73ffffffffffffffffffffffffffffffffffffffff1681526020015f73ffffffffffffffffffffffffffffffffffffffff1681526020015f73ffffffffffffffffffffffffffffffffffffffff1681526020015f81526020015f81526020015f81526020015f81526020015f81526020015f81526020015f81526020015f151581526020015f81525090565b5f5ffd5b5f73ffffffffffffffffffffffffffffffffffffffff82169050919050565b5f6120f8826120cf565b9050919050565b612108816120ee565b8114612112575f5ffd5b50565b5f81359050612123816120ff565b92915050565b5f6020828403121561213e5761213d6120cb565b5b5f61214b84828501612115565b91505092915050565b5f8115159050919050565b61216881612154565b82525050565b5f6020820190506121815f83018461215f565b92915050565b5f819050919050565b61219981612187565b81146121a3575f5ffd5b50565b5f813590506121b481612190565b92915050565b5f602082840312156121cf576121ce6120cb565b5b5f6121dc848285016121a6565b91505092915050565b5f819050919050565b5f6122086122036121fe846120cf565b6121e5565b6120cf565b9050919050565b5f612219826121ee565b9050919050565b5f61222a8261220f565b9050919050565b61223a81612220565b82525050565b5f6020820190506122535f830184612231565b92915050565b5f5f6040838503121561226f5761226e6120cb565b5b5f61227c85828601612115565b925050602061228d858286016121a6565b9150509250929050565b6122a0816120ee565b82525050565b6122af81612187565b82525050565b6122be81612154565b82525050565b61018082015f8201516122d95f850182612297565b5060208201516122ec6020850182612297565b5060408201516122ff6040850182612297565b50606082015161231260608501826122a6565b50608082015161232560808501826122a6565b5060a082015161233860a08501826122a6565b5060c082015161234b60c08501826122a6565b5060e082015161235e60e08501826122a6565b506101008201516123736101008501826122a6565b506101208201516123886101208501826122a6565b5061014082015161239d6101408501826122b5565b506101608201516123b26101608501826122a6565b50505050565b5f610180820190506123cc5f8301846122c4565b92915050565b6123db81612187565b82525050565b5f6020820190506123f45f8301846123d2565b92915050565b612403816120ee565b82525050565b5f60208201905061241c5f8301846123fa565b92915050565b5f5f5f5f5f5f5f60e0888a03121561243d5761243c6120cb565b5b5f61244a8a828b01612115565b975050602061245b8a828b01612115565b965050604061246c8a828b01612115565b955050606061247d8a828b016121a6565b945050608061248e8a828b016121a6565b93505060a061249f8a828b016121a6565b92505060c06124b08a828b016121a6565b91505092959891949750929550565b5f610180820190506124d35f83018f6123fa565b6124e0602083018e6123fa565b6124ed604083018d6123fa565b6124fa606083018c6123d2565b612507608083018b6123d2565b61251460a083018a6123d2565b61252160c08301896123d2565b61252e60e08301886123d2565b61253c6101008301876123d2565b61254a6101208301866123d2565b61255861014083018561215f565b6125666101608301846123d2565b9d9c50505050505050505050505050565b5f6125818261220f565b9050919050565b61259181612577565b82525050565b5f6020820190506125aa5f830184612588565b92915050565b5f82825260208201905092915050565b7f4c6f616e206e6f742061637469766500000000000000000000000000000000005f82015250565b5f6125f4600f836125b0565b91506125ff826125c0565b602082019050919050565b5f6020820190508181035f830152612621816125e8565b9050919050565b7f4e6f7420796f7572206c6f616e000000000000000000000000000000000000005f82015250565b5f61265c600d836125b0565b915061266782612628565b602082019050919050565b5f6020820190508181035f83015261268981612650565b9050919050565b7f4e487b71000000000000000000000000000000000000000000000000000000005f52601160045260245ffd5b5f6126c782612187565b91506126d283612187565b92508282039050818111156126ea576126e9612690565b5b92915050565b7f4e487b71000000000000000000000000000000000000000000000000000000005f52601260045260245ffd5b5f61272782612187565b915061273283612187565b925082612742576127416126f0565b5b828204905092915050565b5f61275782612187565b915061276283612187565b925082820261277081612187565b9150828204841483151761278757612786612690565b5b5092915050565b5f61279882612187565b91506127a383612187565b92508282019050808211156127bb576127ba612690565b5b92915050565b7f416c7265616479207061696400000000000000000000000000000000000000005f82015250565b5f6127f5600c836125b0565b9150612800826127c1565b602082019050919050565b5f6020820190508181035f830152612822816127e9565b9050919050565b5f60608201905061283c5f8301866123fa565b61284960208301856123fa565b61285660408301846123d2565b949350505050565b61286781612154565b8114612871575f5ffd5b50565b5f815190506128828161285e565b92915050565b5f6020828403121561289d5761289c6120cb565b5b5f6128aa84828501612874565b91505092915050565b5f6040820190506128c65f8301856123d2565b6128d360208301846123d2565b9392505050565b7f546f6b656e206e6f7420737570706f72746564000000000000000000000000005f82015250565b5f61290e6013836125b0565b9150612919826128da565b602082019050919050565b5f6020820190508181035f83015261293b81612902565b9050919050565b7f4e6f7420726567697374657265640000000000000000000000000000000000005f82015250565b5f612976600e836125b0565b915061298182612942565b602082019050919050565b5f6020820190508181035f8301526129a38161296a565b9050919050565b5f6040820190506129bd5f8301856123fa565b6129ca60208301846123d2565b9392505050565b7f46656520746f6f206869676800000000000000000000000000000000000000005f82015250565b5f612a05600c836125b0565b9150612a10826129d1565b602082019050919050565b5f6020820190508181035f830152612a32816129f9565b9050919050565b7f4c656e646572206e6f74207265676973746572656400000000000000000000005f82015250565b5f612a6d6015836125b0565b9150612a7882612a39565b602082019050919050565b5f6020820190508181035f830152612a9a81612a61565b9050919050565b7f426f72726f776572206e6f7420726567697374657265640000000000000000005f82015250565b5f612ad56017836125b0565b9150612ae082612aa1565b602082019050919050565b5f6020820190508181035f830152612b0281612ac9565b9050919050565b5f81519050612b1781612190565b92915050565b5f60208284031215612b3257612b316120cb565b5b5f612b3f84828501612b09565b91505092915050565b7f496e73756666696369656e742062616c616e63650000000000000000000000005f82015250565b5f612b7c6014836125b0565b9150612b8782612b48565b602082019050919050565b5f6020820190508181035f830152612ba981612b70565b9050919050565b5f612bba82612187565b91507fffffffffffffffffffffffffffffffffffffffffffffffffffffffffffffffff8203612bec57612beb612690565b5b600182019050919050565b50565b5f612c055f836125b0565b9150612c1082612bf7565b5f82019050919050565b5f606082019050612c2d5f8301856123fa565b612c3a60208301846123d2565b8181036040830152612c4b81612bfa565b90509392505050565b5f608082019050612c675f8301876123d2565b612c7460208301866123fa565b612c8160408301856123fa565b612c8e60608301846123d2565b95945050505050565b7f416c6c20706169640000000000000000000000000000000000000000000000005f82015250565b5f612ccb6008836125b0565b9150612cd682612c97565b602082019050919050565b5f6020820190508181035f830152612cf881612cbf565b9050919050565b7f5265656e7472616e637947756172643a207265656e7472616e742063616c6c005f82015250565b5f612d33601f836125b0565b9150612d3e82612cff565b602082019050919050565b5f6020820190508181035f830152612d6081612d27565b905091905056fea2646970667358221220747e51e289b5f5b6fd1ebe1926e75bec46d6ffa8ae7df2bef2a568996ff0243164736f6c634300081e0033",
					"opcodes": "PUSH1 0x80 PUSH1 0x40 MSTORE PUSH1 0x1 PUSH1 0x8 SSTORE PUSH1 0xC8 PUSH1 0x9 SSTORE CALLVALUE DUP1 ISZERO PUSH2 0x19 JUMPI PUSH0 PUSH0 REVERT JUMPDEST POP PUSH1 0x40 MLOAD PUSH2 0x31B5 CODESIZE SUB DUP1 PUSH2 0x31B5 DUP4 CODECOPY DUP2 DUP2 ADD PUSH1 0x40 MSTORE DUP2 ADD SWAP1 PUSH2 0x3B SWAP2 SWAP1 PUSH2 0x3A5 JUMP JUMPDEST CALLER PUSH1 0x1 PUSH0 DUP2 SWAP1 SSTORE POP PUSH0 PUSH20 0xFFFFFFFFFFFFFFFFFFFFFFFFFFFFFFFFFFFFFFFF AND DUP2 PUSH20 0xFFFFFFFFFFFFFFFFFFFFFFFFFFFFFFFFFFFFFFFF AND SUB PUSH2 0xB3 JUMPI PUSH0 PUSH1 0x40 MLOAD PUSH32 0x1E4FBDF700000000000000000000000000000000000000000000000000000000 DUP2 MSTORE PUSH1 0x4 ADD PUSH2 0xAA SWAP2 SWAP1 PUSH2 0x3F2 JUMP JUMPDEST PUSH1 0x40 MLOAD DUP1 SWAP2 SUB SWAP1 REVERT JUMPDEST PUSH2 0xC2 DUP2 PUSH2 0x284 PUSH1 0x20 SHL PUSH1 0x20 SHR JUMP JUMPDEST POP DUP2 PUSH1 0x2 PUSH0 PUSH2 0x100 EXP DUP2 SLOAD DUP2 PUSH20 0xFFFFFFFFFFFFFFFFFFFFFFFFFFFFFFFFFFFFFFFF MUL NOT AND SWAP1 DUP4 PUSH20 0xFFFFFFFFFFFFFFFFFFFFFFFFFFFFFFFFFFFFFFFF AND MUL OR SWAP1 SSTORE POP DUP1 PUSH1 0x3 PUSH0 PUSH2 0x100 EXP DUP2 SLOAD DUP2 PUSH20 0xFFFFFFFFFFFFFFFFFFFFFFFFFFFFFFFFFFFFFFFF MUL NOT AND SWAP1 DUP4 PUSH20 0xFFFFFFFFFFFFFFFFFFFFFFFFFFFFFFFFFFFFFFFF AND MUL OR SWAP1 SSTORE POP PUSH1 0x1 PUSH1 0x7 PUSH0 PUSH20 0xE6A57340F0DF6E020C1C0A80BC6E13048601F0D4 PUSH20 0xFFFFFFFFFFFFFFFFFFFFFFFFFFFFFFFFFFFFFFFF AND PUSH20 0xFFFFFFFFFFFFFFFFFFFFFFFFFFFFFFFFFFFFFFFF AND DUP2 MSTORE PUSH1 0x20 ADD SWAP1 DUP2 MSTORE PUSH1 0x20 ADD PUSH0 KECCAK256 PUSH0 PUSH2 0x100 EXP DUP2 SLOAD DUP2 PUSH1 0xFF MUL NOT AND SWAP1 DUP4 ISZERO ISZERO MUL OR SWAP1 SSTORE POP PUSH0 PUSH1 0x7 PUSH0 PUSH20 0x641B9A432FECCAA89123951339D1941D792BF65F PUSH20 0xFFFFFFFFFFFFFFFFFFFFFFFFFFFFFFFFFFFFFFFF AND PUSH20 0xFFFFFFFFFFFFFFFFFFFFFFFFFFFFFFFFFFFFFFFF AND DUP2 MSTORE PUSH1 0x20 ADD SWAP1 DUP2 MSTORE PUSH1 0x20 ADD PUSH0 KECCAK256 PUSH0 PUSH2 0x100 EXP DUP2 SLOAD DUP2 PUSH1 0xFF MUL NOT AND SWAP1 DUP4 ISZERO ISZERO MUL OR SWAP1 SSTORE POP PUSH1 0x1 PUSH1 0x7 PUSH0 PUSH20 0xB4630414268949DD89D335A66BE40819D2DB0C5C PUSH20 0xFFFFFFFFFFFFFFFFFFFFFFFFFFFFFFFFFFFFFFFF AND PUSH20 0xFFFFFFFFFFFFFFFFFFFFFFFFFFFFFFFFFFFFFFFF AND DUP2 MSTORE PUSH1 0x20 ADD SWAP1 DUP2 MSTORE PUSH1 0x20 ADD PUSH0 KECCAK256 PUSH0 PUSH2 0x100 EXP DUP2 SLOAD DUP2 PUSH1 0xFF MUL NOT AND SWAP1 DUP4 ISZERO ISZERO MUL OR SWAP1 SSTORE POP POP POP PUSH2 0x40B JUMP JUMPDEST PUSH0 PUSH1 0x1 PUSH0 SWAP1 SLOAD SWAP1 PUSH2 0x100 EXP SWAP1 DIV PUSH20 0xFFFFFFFFFFFFFFFFFFFFFFFFFFFFFFFFFFFFFFFF AND SWAP1 POP DUP2 PUSH1 0x1 PUSH0 PUSH2 0x100 EXP DUP2 SLOAD DUP2 PUSH20 0xFFFFFFFFFFFFFFFFFFFFFFFFFFFFFFFFFFFFFFFF MUL NOT AND SWAP1 DUP4 PUSH20 0xFFFFFFFFFFFFFFFFFFFFFFFFFFFFFFFFFFFFFFFF AND MUL OR SWAP1 SSTORE POP DUP2 PUSH20 0xFFFFFFFFFFFFFFFFFFFFFFFFFFFFFFFFFFFFFFFF AND DUP2 PUSH20 0xFFFFFFFFFFFFFFFFFFFFFFFFFFFFFFFFFFFFFFFF AND PUSH32 0x8BE0079C531659141344CD1FD0A4F28419497F9722A3DAAFE3B4186F6B6457E0 PUSH1 0x40 MLOAD PUSH1 0x40 MLOAD DUP1 SWAP2 SUB SWAP1 LOG3 POP POP JUMP JUMPDEST PUSH0 PUSH0 REVERT JUMPDEST PUSH0 PUSH20 0xFFFFFFFFFFFFFFFFFFFFFFFFFFFFFFFFFFFFFFFF DUP3 AND SWAP1 POP SWAP2 SWAP1 POP JUMP JUMPDEST PUSH0 PUSH2 0x374 DUP3 PUSH2 0x34B JUMP JUMPDEST SWAP1 POP SWAP2 SWAP1 POP JUMP JUMPDEST PUSH2 0x384 DUP2 PUSH2 0x36A JUMP JUMPDEST DUP2 EQ PUSH2 0x38E JUMPI PUSH0 PUSH0 REVERT JUMPDEST POP JUMP JUMPDEST PUSH0 DUP2 MLOAD SWAP1 POP PUSH2 0x39F DUP2 PUSH2 0x37B JUMP JUMPDEST SWAP3 SWAP2 POP POP JUMP JUMPDEST PUSH0 PUSH0 PUSH1 0x40 DUP4 DUP6 SUB SLT ISZERO PUSH2 0x3BB JUMPI PUSH2 0x3BA PUSH2 0x347 JUMP JUMPDEST JUMPDEST PUSH0 PUSH2 0x3C8 DUP6 DUP3 DUP7 ADD PUSH2 0x391 JUMP JUMPDEST SWAP3 POP POP PUSH1 0x20 PUSH2 0x3D9 DUP6 DUP3 DUP7 ADD PUSH2 0x391 JUMP JUMPDEST SWAP2 POP POP SWAP3 POP SWAP3 SWAP1 POP JUMP JUMPDEST PUSH2 0x3EC DUP2 PUSH2 0x36A JUMP JUMPDEST DUP3 MSTORE POP POP JUMP JUMPDEST PUSH0 PUSH1 0x20 DUP3 ADD SWAP1 POP PUSH2 0x405 PUSH0 DUP4 ADD DUP5 PUSH2 0x3E3 JUMP JUMPDEST SWAP3 SWAP2 POP POP JUMP JUMPDEST PUSH2 0x2D9D DUP1 PUSH2 0x418 PUSH0 CODECOPY PUSH0 RETURN INVALID PUSH1 0x80 PUSH1 0x40 MSTORE CALLVALUE DUP1 ISZERO PUSH2 0xF JUMPI PUSH0 PUSH0 REVERT JUMPDEST POP PUSH1 0x4 CALLDATASIZE LT PUSH2 0x171 JUMPI PUSH0 CALLDATALOAD PUSH1 0xE0 SHR DUP1 PUSH4 0x95CCEA67 GT PUSH2 0xDC JUMPI DUP1 PUSH4 0xE831878D GT PUSH2 0x95 JUMPI DUP1 PUSH4 0xF3FEF3A3 GT PUSH2 0x6F JUMPI DUP1 PUSH4 0xF3FEF3A3 EQ PUSH2 0x42A JUMPI DUP1 PUSH4 0xF8B2CB4F EQ PUSH2 0x446 JUMPI DUP1 PUSH4 0xFA847836 EQ PUSH2 0x476 JUMPI DUP1 PUSH4 0xFBFD9A77 EQ PUSH2 0x4A6 JUMPI PUSH2 0x171 JUMP JUMPDEST DUP1 PUSH4 0xE831878D EQ PUSH2 0x3D4 JUMPI DUP1 PUSH4 0xEAF6E483 EQ PUSH2 0x3DE JUMPI DUP1 PUSH4 0xF2FDE38B EQ PUSH2 0x40E JUMPI PUSH2 0x171 JUMP JUMPDEST DUP1 PUSH4 0x95CCEA67 EQ PUSH2 0x2E3 JUMPI DUP1 PUSH4 0xBF5D50C4 EQ PUSH2 0x2FF JUMPI DUP1 PUSH4 0xDDCA3F43 EQ PUSH2 0x32F JUMPI DUP1 PUSH4 0xE04640D2 EQ PUSH2 0x34D JUMPI DUP1 PUSH4 0xE1EC3C68 EQ PUSH2 0x37D JUMPI DUP1 PUSH4 0xE2F8A017 EQ PUSH2 0x3B8 JUMPI PUSH2 0x171 JUMP JUMPDEST DUP1 PUSH4 0x709B8961 GT PUSH2 0x12E JUMPI DUP1 PUSH4 0x709B8961 EQ PUSH2 0x247 JUMPI DUP1 PUSH4 0x715018A6 EQ PUSH2 0x277 JUMPI DUP1 PUSH4 0x7DF21F7A EQ PUSH2 0x281 JUMPI DUP1 PUSH4 0x87C51459 EQ PUSH2 0x28B JUMPI DUP1 PUSH4 0x8DA5CB5B EQ PUSH2 0x2A9 JUMPI DUP1 PUSH4 0x9012C4A8 EQ PUSH2 0x2C7 JUMPI PUSH2 0x171 JUMP JUMPDEST DUP1 PUSH4 0x418945A EQ PUSH2 0x175 JUMPI DUP1 PUSH4 0x28FD10D7 EQ PUSH2 0x191 JUMPI DUP1 PUSH4 0x2CF340AF EQ PUSH2 0x1C1 JUMPI DUP1 PUSH4 0x34A41177 EQ PUSH2 0x1DD JUMPI DUP1 PUSH4 0x47E7EF24 EQ PUSH2 0x1FB JUMPI DUP1 PUSH4 0x504006CA EQ PUSH2 0x217 JUMPI JUMPDEST PUSH0 PUSH0 REVERT JUMPDEST PUSH2 0x18F PUSH1 0x4 DUP1 CALLDATASIZE SUB DUP2 ADD SWAP1 PUSH2 0x18A SWAP2 SWAP1 PUSH2 0x2129 JUMP JUMPDEST PUSH2 0x4C4 JUMP JUMPDEST STOP JUMPDEST PUSH2 0x1AB PUSH1 0x4 DUP1 CALLDATASIZE SUB DUP2 ADD SWAP1 PUSH2 0x1A6 SWAP2 SWAP1 PUSH2 0x2129 JUMP JUMPDEST PUSH2 0x524 JUMP JUMPDEST PUSH1 0x40 MLOAD PUSH2 0x1B8 SWAP2 SWAP1 PUSH2 0x216E JUMP JUMPDEST PUSH1 0x40 MLOAD DUP1 SWAP2 SUB SWAP1 RETURN JUMPDEST PUSH2 0x1DB PUSH1 0x4 DUP1 CALLDATASIZE SUB DUP2 ADD SWAP1 PUSH2 0x1D6 SWAP2 SWAP1 PUSH2 0x21BA JUMP JUMPDEST PUSH2 0x541 JUMP JUMPDEST STOP JUMPDEST PUSH2 0x1E5 PUSH2 0x81B JUMP JUMPDEST PUSH1 0x40 MLOAD PUSH2 0x1F2 SWAP2 SWAP1 PUSH2 0x2240 JUMP JUMPDEST PUSH1 0x40 MLOAD DUP1 SWAP2 SUB SWAP1 RETURN JUMPDEST PUSH2 0x215 PUSH1 0x4 DUP1 CALLDATASIZE SUB DUP2 ADD SWAP1 PUSH2 0x210 SWAP2 SWAP1 PUSH2 0x2259 JUMP JUMPDEST PUSH2 0x840 JUMP JUMPDEST STOP JUMPDEST PUSH2 0x231 PUSH1 0x4 DUP1 CALLDATASIZE SUB DUP2 ADD SWAP1 PUSH2 0x22C SWAP2 SWAP1 PUSH2 0x21BA JUMP JUMPDEST PUSH2 0xB0A JUMP JUMPDEST PUSH1 0x40 MLOAD PUSH2 0x23E SWAP2 SWAP1 PUSH2 0x23B8 JUMP JUMPDEST PUSH1 0x40 MLOAD DUP1 SWAP2 SUB SWAP1 RETURN JUMPDEST PUSH2 0x261 PUSH1 0x4 DUP1 CALLDATASIZE SUB DUP2 ADD SWAP1 PUSH2 0x25C SWAP2 SWAP1 PUSH2 0x2129 JUMP JUMPDEST PUSH2 0xC9E JUMP JUMPDEST PUSH1 0x40 MLOAD PUSH2 0x26E SWAP2 SWAP1 PUSH2 0x216E JUMP JUMPDEST PUSH1 0x40 MLOAD DUP1 SWAP2 SUB SWAP1 RETURN JUMPDEST PUSH2 0x27F PUSH2 0xCF0 JUMP JUMPDEST STOP JUMPDEST PUSH2 0x289 PUSH2 0xD03 JUMP JUMPDEST STOP JUMPDEST PUSH2 0x293 PUSH2 0xD91 JUMP JUMPDEST PUSH1 0x40 MLOAD PUSH2 0x2A0 SWAP2 SWAP1 PUSH2 0x23E1 JUMP JUMPDEST PUSH1 0x40 MLOAD DUP1 SWAP2 SUB SWAP1 RETURN JUMPDEST PUSH2 0x2B1 PUSH2 0xD97 JUMP JUMPDEST PUSH1 0x40 MLOAD PUSH2 0x2BE SWAP2 SWAP1 PUSH2 0x2409 JUMP JUMPDEST PUSH1 0x40 MLOAD DUP1 SWAP2 SUB SWAP1 RETURN JUMPDEST PUSH2 0x2E1 PUSH1 0x4 DUP1 CALLDATASIZE SUB DUP2 ADD SWAP1 PUSH2 0x2DC SWAP2 SWAP1 PUSH2 0x21BA JUMP JUMPDEST PUSH2 0xDBF JUMP JUMPDEST STOP JUMPDEST PUSH2 0x2FD PUSH1 0x4 DUP1 CALLDATASIZE SUB DUP2 ADD SWAP1 PUSH2 0x2F8 SWAP2 SWAP1 PUSH2 0x2259 JUMP JUMPDEST PUSH2 0xE16 JUMP JUMPDEST STOP JUMPDEST PUSH2 0x319 PUSH1 0x4 DUP1 CALLDATASIZE SUB DUP2 ADD SWAP1 PUSH2 0x314 SWAP2 SWAP1 PUSH2 0x2129 JUMP JUMPDEST PUSH2 0xEA5 JUMP JUMPDEST PUSH1 0x40 MLOAD PUSH2 0x326 SWAP2 SWAP1 PUSH2 0x216E JUMP JUMPDEST PUSH1 0x40 MLOAD DUP1 SWAP2 SUB SWAP1 RETURN JUMPDEST PUSH2 0x337 PUSH2 0xEC2 JUMP JUMPDEST PUSH1 0x40 MLOAD PUSH2 0x344 SWAP2 SWAP1 PUSH2 0x23E1 JUMP JUMPDEST PUSH1 0x40 MLOAD DUP1 SWAP2 SUB SWAP1 RETURN JUMPDEST PUSH2 0x367 PUSH1 0x4 DUP1 CALLDATASIZE SUB DUP2 ADD SWAP1 PUSH2 0x362 SWAP2 SWAP1 PUSH2 0x2422 JUMP JUMPDEST PUSH2 0xEC8 JUMP JUMPDEST PUSH1 0x40 MLOAD PUSH2 0x374 SWAP2 SWAP1 PUSH2 0x23E1 JUMP JUMPDEST PUSH1 0x40 MLOAD DUP1 SWAP2 SUB SWAP1 RETURN JUMPDEST PUSH2 0x397 PUSH1 0x4 DUP1 CALLDATASIZE SUB DUP2 ADD SWAP1 PUSH2 0x392 SWAP2 SWAP1 PUSH2 0x21BA JUMP JUMPDEST PUSH2 0x1550 JUMP JUMPDEST PUSH1 0x40 MLOAD PUSH2 0x3AF SWAP13 SWAP12 SWAP11 SWAP10 SWAP9 SWAP8 SWAP7 SWAP6 SWAP5 SWAP4 SWAP3 SWAP2 SWAP1 PUSH2 0x24BF JUMP JUMPDEST PUSH1 0x40 MLOAD DUP1 SWAP2 SUB SWAP1 RETURN JUMPDEST PUSH2 0x3D2 PUSH1 0x4 DUP1 CALLDATASIZE SUB DUP2 ADD SWAP1 PUSH2 0x3CD SWAP2 SWAP1 PUSH2 0x21BA JUMP JUMPDEST PUSH2 0x1615 JUMP JUMPDEST STOP JUMPDEST PUSH2 0x3DC PUSH2 0x189A JUMP JUMPDEST STOP JUMPDEST PUSH2 0x3F8 PUSH1 0x4 DUP1 CALLDATASIZE SUB DUP2 ADD SWAP1 PUSH2 0x3F3 SWAP2 SWAP1 PUSH2 0x2129 JUMP JUMPDEST PUSH2 0x1928 JUMP JUMPDEST PUSH1 0x40 MLOAD PUSH2 0x405 SWAP2 SWAP1 PUSH2 0x216E JUMP JUMPDEST PUSH1 0x40 MLOAD DUP1 SWAP2 SUB SWAP1 RETURN JUMPDEST PUSH2 0x428 PUSH1 0x4 DUP1 CALLDATASIZE SUB DUP2 ADD SWAP1 PUSH2 0x423 SWAP2 SWAP1 PUSH2 0x2129 JUMP JUMPDEST PUSH2 0x197A JUMP JUMPDEST STOP JUMPDEST PUSH2 0x444 PUSH1 0x4 DUP1 CALLDATASIZE SUB DUP2 ADD SWAP1 PUSH2 0x43F SWAP2 SWAP1 PUSH2 0x2259 JUMP JUMPDEST PUSH2 0x19FE JUMP JUMPDEST STOP JUMPDEST PUSH2 0x460 PUSH1 0x4 DUP1 CALLDATASIZE SUB DUP2 ADD SWAP1 PUSH2 0x45B SWAP2 SWAP1 PUSH2 0x2129 JUMP JUMPDEST PUSH2 0x1C7B JUMP JUMPDEST PUSH1 0x40 MLOAD PUSH2 0x46D SWAP2 SWAP1 PUSH2 0x23E1 JUMP JUMPDEST PUSH1 0x40 MLOAD DUP1 SWAP2 SUB SWAP1 RETURN JUMPDEST PUSH2 0x490 PUSH1 0x4 DUP1 CALLDATASIZE SUB DUP2 ADD SWAP1 PUSH2 0x48B SWAP2 SWAP1 PUSH2 0x2129 JUMP JUMPDEST PUSH2 0x1D1C JUMP JUMPDEST PUSH1 0x40 MLOAD PUSH2 0x49D SWAP2 SWAP1 PUSH2 0x216E JUMP JUMPDEST PUSH1 0x40 MLOAD DUP1 SWAP2 SUB SWAP1 RETURN JUMPDEST PUSH2 0x4AE PUSH2 0x1D39 JUMP JUMPDEST PUSH1 0x40 MLOAD PUSH2 0x4BB SWAP2 SWAP1 PUSH2 0x2597 JUMP JUMPDEST PUSH1 0x40 MLOAD DUP1 SWAP2 SUB SWAP1 RETURN JUMPDEST PUSH2 0x4CC PUSH2 0x1D5E JUMP JUMPDEST PUSH1 0x1 PUSH1 0x7 PUSH0 DUP4 PUSH20 0xFFFFFFFFFFFFFFFFFFFFFFFFFFFFFFFFFFFFFFFF AND PUSH20 0xFFFFFFFFFFFFFFFFFFFFFFFFFFFFFFFFFFFFFFFF AND DUP2 MSTORE PUSH1 0x20 ADD SWAP1 DUP2 MSTORE PUSH1 0x20 ADD PUSH0 KECCAK256 PUSH0 PUSH2 0x100 EXP DUP2 SLOAD DUP2 PUSH1 0xFF MUL NOT AND SWAP1 DUP4 ISZERO ISZERO MUL OR SWAP1 SSTORE POP POP JUMP JUMPDEST PUSH1 0x5 PUSH1 0x20 MSTORE DUP1 PUSH0 MSTORE PUSH1 0x40 PUSH0 KECCAK256 PUSH0 SWAP2 POP SLOAD SWAP1 PUSH2 0x100 EXP SWAP1 DIV PUSH1 0xFF AND DUP2 JUMP JUMPDEST PUSH2 0x549 PUSH2 0x1DE5 JUMP JUMPDEST PUSH0 PUSH1 0x4 PUSH0 DUP4 DUP2 MSTORE PUSH1 0x20 ADD SWAP1 DUP2 MSTORE PUSH1 0x20 ADD PUSH0 KECCAK256 SWAP1 POP DUP1 PUSH1 0xA ADD PUSH0 SWAP1 SLOAD SWAP1 PUSH2 0x100 EXP SWAP1 DIV PUSH1 0xFF AND PUSH2 0x5AD JUMPI PUSH1 0x40 MLOAD PUSH32 0x8C379A000000000000000000000000000000000000000000000000000000000 DUP2 MSTORE PUSH1 0x4 ADD PUSH2 0x5A4 SWAP1 PUSH2 0x260A JUMP JUMPDEST PUSH1 0x40 MLOAD DUP1 SWAP2 SUB SWAP1 REVERT JUMPDEST CALLER PUSH20 0xFFFFFFFFFFFFFFFFFFFFFFFFFFFFFFFFFFFFFFFF AND DUP2 PUSH1 0x1 ADD PUSH0 SWAP1 SLOAD SWAP1 PUSH2 0x100 EXP SWAP1 DIV PUSH20 0xFFFFFFFFFFFFFFFFFFFFFFFFFFFFFFFFFFFFFFFF AND PUSH20 0xFFFFFFFFFFFFFFFFFFFFFFFFFFFFFFFFFFFFFFFF AND EQ PUSH2 0x63E JUMPI PUSH1 0x40 MLOAD PUSH32 0x8C379A000000000000000000000000000000000000000000000000000000000 DUP2 MSTORE PUSH1 0x4 ADD PUSH2 0x635 SWAP1 PUSH2 0x2672 JUMP JUMPDEST PUSH1 0x40 MLOAD DUP1 SWAP2 SUB SWAP1 REVERT JUMPDEST PUSH0 PUSH3 0x15180 DUP3 PUSH1 0x6 ADD SLOAD TIMESTAMP PUSH2 0x653 SWAP2 SWAP1 PUSH2 0x26BD JUMP JUMPDEST PUSH2 0x65D SWAP2 SWAP1 PUSH2 0x271D JUMP JUMPDEST SWAP1 POP PUSH0 DUP2 SUB PUSH2 0x66B JUMPI PUSH1 0x1 SWAP1 POP JUMPDEST PUSH0 PUSH1 0x1E SWAP1 POP DUP1 DUP3 GT ISZERO PUSH2 0x67C JUMPI DUP1 SWAP2 POP JUMPDEST PUSH0 DUP2 DUP5 PUSH1 0x3 ADD SLOAD DUP6 PUSH1 0x4 ADD SLOAD PUSH2 0x692 SWAP2 SWAP1 PUSH2 0x26BD JUMP JUMPDEST PUSH2 0x69C SWAP2 SWAP1 PUSH2 0x271D JUMP JUMPDEST SWAP1 POP PUSH0 DUP4 DUP3 PUSH2 0x6AB SWAP2 SWAP1 PUSH2 0x274D JUMP JUMPDEST DUP6 PUSH1 0x3 ADD SLOAD PUSH2 0x6BA SWAP2 SWAP1 PUSH2 0x278E JUMP JUMPDEST SWAP1 POP PUSH0 DUP6 PUSH1 0x5 ADD SLOAD DUP3 PUSH2 0x6CD SWAP2 SWAP1 PUSH2 0x26BD JUMP JUMPDEST SWAP1 POP PUSH0 DUP2 GT PUSH2 0x711 JUMPI PUSH1 0x40 MLOAD PUSH32 0x8C379A000000000000000000000000000000000000000000000000000000000 DUP2 MSTORE PUSH1 0x4 ADD PUSH2 0x708 SWAP1 PUSH2 0x280B JUMP JUMPDEST PUSH1 0x40 MLOAD DUP1 SWAP2 SUB SWAP1 REVERT JUMPDEST DUP6 PUSH1 0x2 ADD PUSH0 SWAP1 SLOAD SWAP1 PUSH2 0x100 EXP SWAP1 DIV PUSH20 0xFFFFFFFFFFFFFFFFFFFFFFFFFFFFFFFFFFFFFFFF AND PUSH20 0xFFFFFFFFFFFFFFFFFFFFFFFFFFFFFFFFFFFFFFFF AND PUSH4 0x23B872DD CALLER ADDRESS DUP5 PUSH1 0x40 MLOAD DUP5 PUSH4 0xFFFFFFFF AND PUSH1 0xE0 SHL DUP2 MSTORE PUSH1 0x4 ADD PUSH2 0x771 SWAP4 SWAP3 SWAP2 SWAP1 PUSH2 0x2829 JUMP JUMPDEST PUSH1 0x20 PUSH1 0x40 MLOAD DUP1 DUP4 SUB DUP2 PUSH0 DUP8 GAS CALL ISZERO DUP1 ISZERO PUSH2 0x78D JUMPI RETURNDATASIZE PUSH0 PUSH0 RETURNDATACOPY RETURNDATASIZE PUSH0 REVERT JUMPDEST POP POP POP POP PUSH1 0x40 MLOAD RETURNDATASIZE PUSH1 0x1F NOT PUSH1 0x1F DUP3 ADD AND DUP3 ADD DUP1 PUSH1 0x40 MSTORE POP DUP2 ADD SWAP1 PUSH2 0x7B1 SWAP2 SWAP1 PUSH2 0x2888 JUMP JUMPDEST POP DUP2 DUP7 PUSH1 0x5 ADD DUP2 SWAP1 SSTORE POP DUP6 PUSH1 0x7 ADD SLOAD DUP7 PUSH1 0x9 ADD DUP2 SWAP1 SSTORE POP PUSH2 0x7D1 DUP8 PUSH2 0x1E32 JUMP JUMPDEST PUSH32 0xE9E4EC6FA83FE2A2893FD5D6517A890DF20F72CC0BA40495B21E65D12223503 DUP8 DUP3 PUSH1 0x40 MLOAD PUSH2 0x802 SWAP3 SWAP2 SWAP1 PUSH2 0x28B3 JUMP JUMPDEST PUSH1 0x40 MLOAD DUP1 SWAP2 SUB SWAP1 LOG1 POP POP POP POP POP POP PUSH2 0x818 PUSH2 0x1F5F JUMP JUMPDEST POP JUMP JUMPDEST PUSH1 0x3 PUSH0 SWAP1 SLOAD SWAP1 PUSH2 0x100 EXP SWAP1 DIV PUSH20 0xFFFFFFFFFFFFFFFFFFFFFFFFFFFFFFFFFFFFFFFF AND DUP2 JUMP JUMPDEST PUSH2 0x848 PUSH2 0x1DE5 JUMP JUMPDEST PUSH1 0x7 PUSH0 DUP4 PUSH20 0xFFFFFFFFFFFFFFFFFFFFFFFFFFFFFFFFFFFFFFFF AND PUSH20 0xFFFFFFFFFFFFFFFFFFFFFFFFFFFFFFFFFFFFFFFF AND DUP2 MSTORE PUSH1 0x20 ADD SWAP1 DUP2 MSTORE PUSH1 0x20 ADD PUSH0 KECCAK256 PUSH0 SWAP1 SLOAD SWAP1 PUSH2 0x100 EXP SWAP1 DIV PUSH1 0xFF AND PUSH2 0x8D1 JUMPI PUSH1 0x40 MLOAD PUSH32 0x8C379A000000000000000000000000000000000000000000000000000000000 DUP2 MSTORE PUSH1 0x4 ADD PUSH2 0x8C8 SWAP1 PUSH2 0x2924 JUMP JUMPDEST PUSH1 0x40 MLOAD DUP1 SWAP2 SUB SWAP1 REVERT JUMPDEST PUSH1 0x5 PUSH0 CALLER PUSH20 0xFFFFFFFFFFFFFFFFFFFFFFFFFFFFFFFFFFFFFFFF AND PUSH20 0xFFFFFFFFFFFFFFFFFFFFFFFFFFFFFFFFFFFFFFFF AND DUP2 MSTORE PUSH1 0x20 ADD SWAP1 DUP2 MSTORE PUSH1 0x20 ADD PUSH0 KECCAK256 PUSH0 SWAP1 SLOAD SWAP1 PUSH2 0x100 EXP SWAP1 DIV PUSH1 0xFF AND PUSH2 0x95A JUMPI PUSH1 0x40 MLOAD PUSH32 0x8C379A000000000000000000000000000000000000000000000000000000000 DUP2 MSTORE PUSH1 0x4 ADD PUSH2 0x951 SWAP1 PUSH2 0x298C JUMP JUMPDEST PUSH1 0x40 MLOAD DUP1 SWAP2 SUB SWAP1 REVERT JUMPDEST DUP2 PUSH20 0xFFFFFFFFFFFFFFFFFFFFFFFFFFFFFFFFFFFFFFFF AND PUSH4 0x23B872DD CALLER ADDRESS DUP5 PUSH1 0x40 MLOAD DUP5 PUSH4 0xFFFFFFFF AND PUSH1 0xE0 SHL DUP2 MSTORE PUSH1 0x4 ADD PUSH2 0x997 SWAP4 SWAP3 SWAP2 SWAP1 PUSH2 0x2829 JUMP JUMPDEST PUSH1 0x20 PUSH1 0x40 MLOAD DUP1 DUP4 SUB DUP2 PUSH0 DUP8 GAS CALL ISZERO DUP1 ISZERO PUSH2 0x9B3 JUMPI RETURNDATASIZE PUSH0 PUSH0 RETURNDATACOPY RETURNDATASIZE PUSH0 REVERT JUMPDEST POP POP POP POP PUSH1 0x40 MLOAD RETURNDATASIZE PUSH1 0x1F NOT PUSH1 0x1F DUP3 ADD AND DUP3 ADD DUP1 PUSH1 0x40 MSTORE POP DUP2 ADD SWAP1 PUSH2 0x9D7 SWAP2 SWAP1 PUSH2 0x2888 JUMP JUMPDEST POP PUSH1 0x2 PUSH0 SWAP1 SLOAD SWAP1 PUSH2 0x100 EXP SWAP1 DIV PUSH20 0xFFFFFFFFFFFFFFFFFFFFFFFFFFFFFFFFFFFFFFFF AND PUSH20 0xFFFFFFFFFFFFFFFFFFFFFFFFFFFFFFFFFFFFFFFF AND PUSH4 0x40C10F19 CALLER DUP4 PUSH1 0x40 MLOAD DUP4 PUSH4 0xFFFFFFFF AND PUSH1 0xE0 SHL DUP2 MSTORE PUSH1 0x4 ADD PUSH2 0xA34 SWAP3 SWAP2 SWAP1 PUSH2 0x29AA JUMP JUMPDEST PUSH0 PUSH1 0x40 MLOAD DUP1 DUP4 SUB DUP2 PUSH0 DUP8 DUP1 EXTCODESIZE ISZERO DUP1 ISZERO PUSH2 0xA4B JUMPI PUSH0 PUSH0 REVERT JUMPDEST POP GAS CALL ISZERO DUP1 ISZERO PUSH2 0xA5D JUMPI RETURNDATASIZE PUSH0 PUSH0 RETURNDATACOPY RETURNDATASIZE PUSH0 REVERT JUMPDEST POP POP POP POP PUSH1 0x2 PUSH0 SWAP1 SLOAD SWAP1 PUSH2 0x100 EXP SWAP1 DIV PUSH20 0xFFFFFFFFFFFFFFFFFFFFFFFFFFFFFFFFFFFFFFFF AND PUSH20 0xFFFFFFFFFFFFFFFFFFFFFFFFFFFFFFFFFFFFFFFF AND PUSH4 0x95EA7B3 ADDRESS DUP4 PUSH1 0x40 MLOAD DUP4 PUSH4 0xFFFFFFFF AND PUSH1 0xE0 SHL DUP2 MSTORE PUSH1 0x4 ADD PUSH2 0xABD SWAP3 SWAP2 SWAP1 PUSH2 0x29AA JUMP JUMPDEST PUSH1 0x20 PUSH1 0x40 MLOAD DUP1 DUP4 SUB DUP2 PUSH0 DUP8 GAS CALL ISZERO DUP1 ISZERO PUSH2 0xAD9 JUMPI RETURNDATASIZE PUSH0 PUSH0 RETURNDATACOPY RETURNDATASIZE PUSH0 REVERT JUMPDEST POP POP POP POP PUSH1 0x40 MLOAD RETURNDATASIZE PUSH1 0x1F NOT PUSH1 0x1F DUP3 ADD AND DUP3 ADD DUP1 PUSH1 0x40 MSTORE POP DUP2 ADD SWAP1 PUSH2 0xAFD SWAP2 SWAP1 PUSH2 0x2888 JUMP JUMPDEST POP PUSH2 0xB06 PUSH2 0x1F5F JUMP JUMPDEST POP POP JUMP JUMPDEST PUSH2 0xB12 PUSH2 0x2032 JUMP JUMPDEST PUSH1 0x4 PUSH0 DUP4 DUP2 MSTORE PUSH1 0x20 ADD SWAP1 DUP2 MSTORE PUSH1 0x20 ADD PUSH0 KECCAK256 PUSH1 0x40 MLOAD DUP1 PUSH2 0x180 ADD PUSH1 0x40 MSTORE SWAP1 DUP2 PUSH0 DUP3 ADD PUSH0 SWAP1 SLOAD SWAP1 PUSH2 0x100 EXP SWAP1 DIV PUSH20 0xFFFFFFFFFFFFFFFFFFFFFFFFFFFFFFFFFFFFFFFF AND PUSH20 0xFFFFFFFFFFFFFFFFFFFFFFFFFFFFFFFFFFFFFFFF AND PUSH20 0xFFFFFFFFFFFFFFFFFFFFFFFFFFFFFFFFFFFFFFFF AND DUP2 MSTORE PUSH1 0x20 ADD PUSH1 0x1 DUP3 ADD PUSH0 SWAP1 SLOAD SWAP1 PUSH2 0x100 EXP SWAP1 DIV PUSH20 0xFFFFFFFFFFFFFFFFFFFFFFFFFFFFFFFFFFFFFFFF AND PUSH20 0xFFFFFFFFFFFFFFFFFFFFFFFFFFFFFFFFFFFFFFFF AND PUSH20 0xFFFFFFFFFFFFFFFFFFFFFFFFFFFFFFFFFFFFFFFF AND DUP2 MSTORE PUSH1 0x20 ADD PUSH1 0x2 DUP3 ADD PUSH0 SWAP1 SLOAD SWAP1 PUSH2 0x100 EXP SWAP1 DIV PUSH20 0xFFFFFFFFFFFFFFFFFFFFFFFFFFFFFFFFFFFFFFFF AND PUSH20 0xFFFFFFFFFFFFFFFFFFFFFFFFFFFFFFFFFFFFFFFF AND PUSH20 0xFFFFFFFFFFFFFFFFFFFFFFFFFFFFFFFFFFFFFFFF AND DUP2 MSTORE PUSH1 0x20 ADD PUSH1 0x3 DUP3 ADD SLOAD DUP2 MSTORE PUSH1 0x20 ADD PUSH1 0x4 DUP3 ADD SLOAD DUP2 MSTORE PUSH1 0x20 ADD PUSH1 0x5 DUP3 ADD SLOAD DUP2 MSTORE PUSH1 0x20 ADD PUSH1 0x6 DUP3 ADD SLOAD DUP2 MSTORE PUSH1 0x20 ADD PUSH1 0x7 DUP3 ADD SLOAD DUP2 MSTORE PUSH1 0x20 ADD PUSH1 0x8 DUP3 ADD SLOAD DUP2 MSTORE PUSH1 0x20 ADD PUSH1 0x9 DUP3 ADD SLOAD DUP2 MSTORE PUSH1 0x20 ADD PUSH1 0xA DUP3 ADD PUSH0 SWAP1 SLOAD SWAP1 PUSH2 0x100 EXP SWAP1 DIV PUSH1 0xFF AND ISZERO ISZERO ISZERO ISZERO DUP2 MSTORE PUSH1 0x20 ADD PUSH1 0xB DUP3 ADD SLOAD DUP2 MSTORE POP POP SWAP1 POP SWAP2 SWAP1 POP JUMP JUMPDEST PUSH0 PUSH1 0x5 PUSH0 DUP4 PUSH20 0xFFFFFFFFFFFFFFFFFFFFFFFFFFFFFFFFFFFFFFFF AND PUSH20 0xFFFFFFFFFFFFFFFFFFFFFFFFFFFFFFFFFFFFFFFF AND DUP2 MSTORE PUSH1 0x20 ADD SWAP1 DUP2 MSTORE PUSH1 0x20 ADD PUSH0 KECCAK256 PUSH0 SWAP1 SLOAD SWAP1 PUSH2 0x100 EXP SWAP1 DIV PUSH1 0xFF AND SWAP1 POP SWAP2 SWAP1 POP JUMP JUMPDEST PUSH2 0xCF8 PUSH2 0x1D5E JUMP JUMPDEST PUSH2 0xD01 PUSH0 PUSH2 0x1F68 JUMP JUMPDEST JUMP JUMPDEST PUSH1 0x1 PUSH1 0x5 PUSH0 CALLER PUSH20 0xFFFFFFFFFFFFFFFFFFFFFFFFFFFFFFFFFFFFFFFF AND PUSH20 0xFFFFFFFFFFFFFFFFFFFFFFFFFFFFFFFFFFFFFFFF AND DUP2 MSTORE PUSH1 0x20 ADD SWAP1 DUP2 MSTORE PUSH1 0x20 ADD PUSH0 KECCAK256 PUSH0 PUSH2 0x100 EXP DUP2 SLOAD DUP2 PUSH1 0xFF MUL NOT AND SWAP1 DUP4 ISZERO ISZERO MUL OR SWAP1 SSTORE POP PUSH32 0x35999CADC5F1A750104410F15263CC04190A1095143F37917467434D7F32C3C4 CALLER PUSH1 0x40 MLOAD PUSH2 0xD87 SWAP2 SWAP1 PUSH2 0x2409 JUMP JUMPDEST PUSH1 0x40 MLOAD DUP1 SWAP2 SUB SWAP1 LOG1 JUMP JUMPDEST PUSH1 0x8 SLOAD DUP2 JUMP JUMPDEST PUSH0 PUSH1 0x1 PUSH0 SWAP1 SLOAD SWAP1 PUSH2 0x100 EXP SWAP1 DIV PUSH20 0xFFFFFFFFFFFFFFFFFFFFFFFFFFFFFFFFFFFFFFFF AND SWAP1 POP SWAP1 JUMP JUMPDEST PUSH2 0xDC7 PUSH2 0x1D5E JUMP JUMPDEST PUSH2 0x3E8 DUP2 GT ISZERO PUSH2 0xE0C JUMPI PUSH1 0x40 MLOAD PUSH32 0x8C379A000000000000000000000000000000000000000000000000000000000 DUP2 MSTORE PUSH1 0x4 ADD PUSH2 0xE03 SWAP1 PUSH2 0x2A1B JUMP JUMPDEST PUSH1 0x40 MLOAD DUP1 SWAP2 SUB SWAP1 REVERT JUMPDEST DUP1 PUSH1 0x9 DUP2 SWAP1 SSTORE POP POP JUMP JUMPDEST PUSH2 0xE1E PUSH2 0x1D5E JUMP JUMPDEST DUP2 PUSH20 0xFFFFFFFFFFFFFFFFFFFFFFFFFFFFFFFFFFFFFFFF AND PUSH4 0xA9059CBB PUSH2 0xE42 PUSH2 0xD97 JUMP JUMPDEST DUP4 PUSH1 0x40 MLOAD DUP4 PUSH4 0xFFFFFFFF AND PUSH1 0xE0 SHL DUP2 MSTORE PUSH1 0x4 ADD PUSH2 0xE60 SWAP3 SWAP2 SWAP1 PUSH2 0x29AA JUMP JUMPDEST PUSH1 0x20 PUSH1 0x40 MLOAD DUP1 DUP4 SUB DUP2 PUSH0 DUP8 GAS CALL ISZERO DUP1 ISZERO PUSH2 0xE7C JUMPI RETURNDATASIZE PUSH0 PUSH0 RETURNDATACOPY RETURNDATASIZE PUSH0 REVERT JUMPDEST POP POP POP POP PUSH1 0x40 MLOAD RETURNDATASIZE PUSH1 0x1F NOT PUSH1 0x1F DUP3 ADD AND DUP3 ADD DUP1 PUSH1 0x40 MSTORE POP DUP2 ADD SWAP1 PUSH2 0xEA0 SWAP2 SWAP1 PUSH2 0x2888 JUMP JUMPDEST POP POP POP JUMP JUMPDEST PUSH1 0x6 PUSH1 0x20 MSTORE DUP1 PUSH0 MSTORE PUSH1 0x40 PUSH0 KECCAK256 PUSH0 SWAP2 POP SLOAD SWAP1 PUSH2 0x100 EXP SWAP1 DIV PUSH1 0xFF AND DUP2 JUMP JUMPDEST PUSH1 0x9 SLOAD DUP2 JUMP JUMPDEST PUSH0 PUSH2 0xED1 PUSH2 0x1DE5 JUMP JUMPDEST PUSH1 0x5 PUSH0 DUP10 PUSH20 0xFFFFFFFFFFFFFFFFFFFFFFFFFFFFFFFFFFFFFFFF AND PUSH20 0xFFFFFFFFFFFFFFFFFFFFFFFFFFFFFFFFFFFFFFFF AND DUP2 MSTORE PUSH1 0x20 ADD SWAP1 DUP2 MSTORE PUSH1 0x20 ADD PUSH0 KECCAK256 PUSH0 SWAP1 SLOAD SWAP1 PUSH2 0x100 EXP SWAP1 DIV PUSH1 0xFF AND PUSH2 0xF5A JUMPI PUSH1 0x40 MLOAD PUSH32 0x8C379A000000000000000000000000000000000000000000000000000000000 DUP2 MSTORE PUSH1 0x4 ADD PUSH2 0xF51 SWAP1 PUSH2 0x2A83 JUMP JUMPDEST PUSH1 0x40 MLOAD DUP1 SWAP2 SUB SWAP1 REVERT JUMPDEST PUSH1 0x6 PUSH0 DUP9 PUSH20 0xFFFFFFFFFFFFFFFFFFFFFFFFFFFFFFFFFFFFFFFF AND PUSH20 0xFFFFFFFFFFFFFFFFFFFFFFFFFFFFFFFFFFFFFFFF AND DUP2 MSTORE PUSH1 0x20 ADD SWAP1 DUP2 MSTORE PUSH1 0x20 ADD PUSH0 KECCAK256 PUSH0 SWAP1 SLOAD SWAP1 PUSH2 0x100 EXP SWAP1 DIV PUSH1 0xFF AND PUSH2 0xFE3 JUMPI PUSH1 0x40 MLOAD PUSH32 0x8C379A000000000000000000000000000000000000000000000000000000000 DUP2 MSTORE PUSH1 0x4 ADD PUSH2 0xFDA SWAP1 PUSH2 0x2AEB JUMP JUMPDEST PUSH1 0x40 MLOAD DUP1 SWAP2 SUB SWAP1 REVERT JUMPDEST PUSH1 0x7 PUSH0 DUP8 PUSH20 0xFFFFFFFFFFFFFFFFFFFFFFFFFFFFFFFFFFFFFFFF AND PUSH20 0xFFFFFFFFFFFFFFFFFFFFFFFFFFFFFFFFFFFFFFFF AND DUP2 MSTORE PUSH1 0x20 ADD SWAP1 DUP2 MSTORE PUSH1 0x20 ADD PUSH0 KECCAK256 PUSH0 SWAP1 SLOAD SWAP1 PUSH2 0x100 EXP SWAP1 DIV PUSH1 0xFF AND PUSH2 0x106C JUMPI PUSH1 0x40 MLOAD PUSH32 0x8C379A000000000000000000000000000000000000000000000000000000000 DUP2 MSTORE PUSH1 0x4 ADD PUSH2 0x1063 SWAP1 PUSH2 0x2924 JUMP JUMPDEST PUSH1 0x40 MLOAD DUP1 SWAP2 SUB SWAP1 REVERT JUMPDEST DUP5 PUSH1 0x2 PUSH0 SWAP1 SLOAD SWAP1 PUSH2 0x100 EXP SWAP1 DIV PUSH20 0xFFFFFFFFFFFFFFFFFFFFFFFFFFFFFFFFFFFFFFFF AND PUSH20 0xFFFFFFFFFFFFFFFFFFFFFFFFFFFFFFFFFFFFFFFF AND PUSH4 0x70A08231 DUP11 PUSH1 0x40 MLOAD DUP3 PUSH4 0xFFFFFFFF AND PUSH1 0xE0 SHL DUP2 MSTORE PUSH1 0x4 ADD PUSH2 0x10C7 SWAP2 SWAP1 PUSH2 0x2409 JUMP JUMPDEST PUSH1 0x20 PUSH1 0x40 MLOAD DUP1 DUP4 SUB DUP2 DUP7 GAS STATICCALL ISZERO DUP1 ISZERO PUSH2 0x10E2 JUMPI RETURNDATASIZE PUSH0 PUSH0 RETURNDATACOPY RETURNDATASIZE PUSH0 REVERT JUMPDEST POP POP POP POP PUSH1 0x40 MLOAD RETURNDATASIZE PUSH1 0x1F NOT PUSH1 0x1F DUP3 ADD AND DUP3 ADD DUP1 PUSH1 0x40 MSTORE POP DUP2 ADD SWAP1 PUSH2 0x1106 SWAP2 SWAP1 PUSH2 0x2B1D JUMP JUMPDEST LT ISZERO PUSH2 0x1147 JUMPI PUSH1 0x40 MLOAD PUSH32 0x8C379A000000000000000000000000000000000000000000000000000000000 DUP2 MSTORE PUSH1 0x4 ADD PUSH2 0x113E SWAP1 PUSH2 0x2B92 JUMP JUMPDEST PUSH1 0x40 MLOAD DUP1 SWAP2 SUB SWAP1 REVERT JUMPDEST PUSH0 PUSH1 0x8 PUSH0 DUP2 SLOAD DUP1 SWAP3 SWAP2 SWAP1 PUSH2 0x115A SWAP1 PUSH2 0x2BB0 JUMP JUMPDEST SWAP2 SWAP1 POP SSTORE SWAP1 POP PUSH0 DUP6 DUP8 PUSH2 0x116D SWAP2 SWAP1 PUSH2 0x278E JUMP JUMPDEST SWAP1 POP PUSH0 DUP6 DUP3 PUSH2 0x117C SWAP2 SWAP1 PUSH2 0x271D JUMP JUMPDEST SWAP1 POP PUSH1 0x40 MLOAD DUP1 PUSH2 0x180 ADD PUSH1 0x40 MSTORE DUP1 DUP13 PUSH20 0xFFFFFFFFFFFFFFFFFFFFFFFFFFFFFFFFFFFFFFFF AND DUP2 MSTORE PUSH1 0x20 ADD DUP12 PUSH20 0xFFFFFFFFFFFFFFFFFFFFFFFFFFFFFFFFFFFFFFFF AND DUP2 MSTORE PUSH1 0x20 ADD DUP11 PUSH20 0xFFFFFFFFFFFFFFFFFFFFFFFFFFFFFFFFFFFFFFFF AND DUP2 MSTORE PUSH1 0x20 ADD DUP10 DUP2 MSTORE PUSH1 0x20 ADD DUP4 DUP2 MSTORE PUSH1 0x20 ADD PUSH0 DUP2 MSTORE PUSH1 0x20 ADD TIMESTAMP DUP2 MSTORE PUSH1 0x20 ADD DUP8 DUP2 MSTORE PUSH1 0x20 ADD DUP3 DUP2 MSTORE PUSH1 0x20 ADD PUSH0 DUP2 MSTORE PUSH1 0x20 ADD PUSH1 0x1 ISZERO ISZERO DUP2 MSTORE PUSH1 0x20 ADD DUP7 DUP2 MSTORE POP PUSH1 0x4 PUSH0 DUP6 DUP2 MSTORE PUSH1 0x20 ADD SWAP1 DUP2 MSTORE PUSH1 0x20 ADD PUSH0 KECCAK256 PUSH0 DUP3 ADD MLOAD DUP2 PUSH0 ADD PUSH0 PUSH2 0x100 EXP DUP2 SLOAD DUP2 PUSH20 0xFFFFFFFFFFFFFFFFFFFFFFFFFFFFFFFFFFFFFFFF MUL NOT AND SWAP1 DUP4 PUSH20 0xFFFFFFFFFFFFFFFFFFFFFFFFFFFFFFFFFFFFFFFF AND MUL OR SWAP1 SSTORE POP PUSH1 0x20 DUP3 ADD MLOAD DUP2 PUSH1 0x1 ADD PUSH0 PUSH2 0x100 EXP DUP2 SLOAD DUP2 PUSH20 0xFFFFFFFFFFFFFFFFFFFFFFFFFFFFFFFFFFFFFFFF MUL NOT AND SWAP1 DUP4 PUSH20 0xFFFFFFFFFFFFFFFFFFFFFFFFFFFFFFFFFFFFFFFF AND MUL OR SWAP1 SSTORE POP PUSH1 0x40 DUP3 ADD MLOAD DUP2 PUSH1 0x2 ADD PUSH0 PUSH2 0x100 EXP DUP2 SLOAD DUP2 PUSH20 0xFFFFFFFFFFFFFFFFFFFFFFFFFFFFFFFFFFFFFFFF MUL NOT AND SWAP1 DUP4 PUSH20 0xFFFFFFFFFFFFFFFFFFFFFFFFFFFFFFFFFFFFFFFF AND MUL OR SWAP1 SSTORE POP PUSH1 0x60 DUP3 ADD MLOAD DUP2 PUSH1 0x3 ADD SSTORE PUSH1 0x80 DUP3 ADD MLOAD DUP2 PUSH1 0x4 ADD SSTORE PUSH1 0xA0 DUP3 ADD MLOAD DUP2 PUSH1 0x5 ADD SSTORE PUSH1 0xC0 DUP3 ADD MLOAD DUP2 PUSH1 0x6 ADD SSTORE PUSH1 0xE0 DUP3 ADD MLOAD DUP2 PUSH1 0x7 ADD SSTORE PUSH2 0x100 DUP3 ADD MLOAD DUP2 PUSH1 0x8 ADD SSTORE PUSH2 0x120 DUP3 ADD MLOAD DUP2 PUSH1 0x9 ADD SSTORE PUSH2 0x140 DUP3 ADD MLOAD DUP2 PUSH1 0xA ADD PUSH0 PUSH2 0x100 EXP DUP2 SLOAD DUP2 PUSH1 0xFF MUL NOT AND SWAP1 DUP4 ISZERO ISZERO MUL OR SWAP1 SSTORE POP PUSH2 0x160 DUP3 ADD MLOAD DUP2 PUSH1 0xB ADD SSTORE SWAP1 POP POP PUSH1 0x2 PUSH0 SWAP1 SLOAD SWAP1 PUSH2 0x100 EXP SWAP1 DIV PUSH20 0xFFFFFFFFFFFFFFFFFFFFFFFFFFFFFFFFFFFFFFFF AND PUSH20 0xFFFFFFFFFFFFFFFFFFFFFFFFFFFFFFFFFFFFFFFF AND PUSH4 0x9DC29FAC DUP13 DUP11 PUSH1 0x40 MLOAD DUP4 PUSH4 0xFFFFFFFF AND PUSH1 0xE0 SHL DUP2 MSTORE PUSH1 0x4 ADD PUSH2 0x13C8 SWAP3 SWAP2 SWAP1 PUSH2 0x29AA JUMP JUMPDEST PUSH0 PUSH1 0x40 MLOAD DUP1 DUP4 SUB DUP2 PUSH0 DUP8 DUP1 EXTCODESIZE ISZERO DUP1 ISZERO PUSH2 0x13DF JUMPI PUSH0 PUSH0 REVERT JUMPDEST POP GAS CALL ISZERO DUP1 ISZERO PUSH2 0x13F1 JUMPI RETURNDATASIZE PUSH0 PUSH0 RETURNDATACOPY RETURNDATASIZE PUSH0 REVERT JUMPDEST POP POP POP POP DUP9 PUSH20 0xFFFFFFFFFFFFFFFFFFFFFFFFFFFFFFFFFFFFFFFF AND PUSH4 0xA9059CBB DUP12 DUP11 PUSH1 0x40 MLOAD DUP4 PUSH4 0xFFFFFFFF AND PUSH1 0xE0 SHL DUP2 MSTORE PUSH1 0x4 ADD PUSH2 0x1430 SWAP3 SWAP2 SWAP1 PUSH2 0x29AA JUMP JUMPDEST PUSH1 0x20 PUSH1 0x40 MLOAD DUP1 DUP4 SUB DUP2 PUSH0 DUP8 GAS CALL ISZERO DUP1 ISZERO PUSH2 0x144C JUMPI RETURNDATASIZE PUSH0 PUSH0 RETURNDATACOPY RETURNDATASIZE PUSH0 REVERT JUMPDEST POP POP POP POP PUSH1 0x40 MLOAD RETURNDATASIZE PUSH1 0x1F NOT PUSH1 0x1F DUP3 ADD AND DUP3 ADD DUP1 PUSH1 0x40 MSTORE POP DUP2 ADD SWAP1 PUSH2 0x1470 SWAP2 SWAP1 PUSH2 0x2888 JUMP JUMPDEST POP PUSH1 0x3 PUSH0 SWAP1 SLOAD SWAP1 PUSH2 0x100 EXP SWAP1 DIV PUSH20 0xFFFFFFFFFFFFFFFFFFFFFFFFFFFFFFFFFFFFFFFF AND PUSH20 0xFFFFFFFFFFFFFFFFFFFFFFFFFFFFFFFFFFFFFFFF AND PUSH4 0xD3FC9864 DUP13 DUP6 PUSH1 0x40 MLOAD DUP4 PUSH4 0xFFFFFFFF AND PUSH1 0xE0 SHL DUP2 MSTORE PUSH1 0x4 ADD PUSH2 0x14CD SWAP3 SWAP2 SWAP1 PUSH2 0x2C1A JUMP JUMPDEST PUSH0 PUSH1 0x40 MLOAD DUP1 DUP4 SUB DUP2 PUSH0 DUP8 DUP1 EXTCODESIZE ISZERO DUP1 ISZERO PUSH2 0x14E4 JUMPI PUSH0 PUSH0 REVERT JUMPDEST POP GAS CALL ISZERO DUP1 ISZERO PUSH2 0x14F6 JUMPI RETURNDATASIZE PUSH0 PUSH0 RETURNDATACOPY RETURNDATASIZE PUSH0 REVERT JUMPDEST POP POP POP POP PUSH32 0x74B3E97B2A36ECFC8A1C59A0F98862174D98F86769A3420CF68024A054F87B6D DUP4 DUP13 DUP13 DUP12 PUSH1 0x40 MLOAD PUSH2 0x152F SWAP5 SWAP4 SWAP3 SWAP2 SWAP1 PUSH2 0x2C54 JUMP JUMPDEST PUSH1 0x40 MLOAD DUP1 SWAP2 SUB SWAP1 LOG1 DUP3 SWAP4 POP POP POP POP PUSH2 0x1545 PUSH2 0x1F5F JUMP JUMPDEST SWAP8 SWAP7 POP POP POP POP POP POP POP JUMP JUMPDEST PUSH1 0x4 PUSH1 0x20 MSTORE DUP1 PUSH0 MSTORE PUSH1 0x40 PUSH0 KECCAK256 PUSH0 SWAP2 POP SWAP1 POP DUP1 PUSH0 ADD PUSH0 SWAP1 SLOAD SWAP1 PUSH2 0x100 EXP SWAP1 DIV PUSH20 0xFFFFFFFFFFFFFFFFFFFFFFFFFFFFFFFFFFFFFFFF AND SWAP1 DUP1 PUSH1 0x1 ADD PUSH0 SWAP1 SLOAD SWAP1 PUSH2 0x100 EXP SWAP1 DIV PUSH20 0xFFFFFFFFFFFFFFFFFFFFFFFFFFFFFFFFFFFFFFFF AND SWAP1 DUP1 PUSH1 0x2 ADD PUSH0 SWAP1 SLOAD SWAP1 PUSH2 0x100 EXP SWAP1 DIV PUSH20 0xFFFFFFFFFFFFFFFFFFFFFFFFFFFFFFFFFFFFFFFF AND SWAP1 DUP1 PUSH1 0x3 ADD SLOAD SWAP1 DUP1 PUSH1 0x4 ADD SLOAD SWAP1 DUP1 PUSH1 0x5 ADD SLOAD SWAP1 DUP1 PUSH1 0x6 ADD SLOAD SWAP1 DUP1 PUSH1 0x7 ADD SLOAD SWAP1 DUP1 PUSH1 0x8 ADD SLOAD SWAP1 DUP1 PUSH1 0x9 ADD SLOAD SWAP1 DUP1 PUSH1 0xA ADD PUSH0 SWAP1 SLOAD SWAP1 PUSH2 0x100 EXP SWAP1 DIV PUSH1 0xFF AND SWAP1 DUP1 PUSH1 0xB ADD SLOAD SWAP1 POP DUP13 JUMP JUMPDEST PUSH2 0x161D PUSH2 0x1DE5 JUMP JUMPDEST PUSH0 PUSH1 0x4 PUSH0 DUP4 DUP2 MSTORE PUSH1 0x20 ADD SWAP1 DUP2 MSTORE PUSH1 0x20 ADD PUSH0 KECCAK256 SWAP1 POP DUP1 PUSH1 0xA ADD PUSH0 SWAP1 SLOAD SWAP1 PUSH2 0x100 EXP SWAP1 DIV PUSH1 0xFF AND PUSH2 0x1681 JUMPI PUSH1 0x40 MLOAD PUSH32 0x8C379A000000000000000000000000000000000000000000000000000000000 DUP2 MSTORE PUSH1 0x4 ADD PUSH2 0x1678 SWAP1 PUSH2 0x260A JUMP JUMPDEST PUSH1 0x40 MLOAD DUP1 SWAP2 SUB SWAP1 REVERT JUMPDEST CALLER PUSH20 0xFFFFFFFFFFFFFFFFFFFFFFFFFFFFFFFFFFFFFFFF AND DUP2 PUSH1 0x1 ADD PUSH0 SWAP1 SLOAD SWAP1 PUSH2 0x100 EXP SWAP1 DIV PUSH20 0xFFFFFFFFFFFFFFFFFFFFFFFFFFFFFFFFFFFFFFFF AND PUSH20 0xFFFFFFFFFFFFFFFFFFFFFFFFFFFFFFFFFFFFFFFF AND EQ PUSH2 0x1712 JUMPI PUSH1 0x40 MLOAD PUSH32 0x8C379A000000000000000000000000000000000000000000000000000000000 DUP2 MSTORE PUSH1 0x4 ADD PUSH2 0x1709 SWAP1 PUSH2 0x2672 JUMP JUMPDEST PUSH1 0x40 MLOAD DUP1 SWAP2 SUB SWAP1 REVERT JUMPDEST DUP1 PUSH1 0x7 ADD SLOAD DUP2 PUSH1 0x9 ADD SLOAD LT PUSH2 0x175C JUMPI PUSH1 0x40 MLOAD PUSH32 0x8C379A000000000000000000000000000000000000000000000000000000000 DUP2 MSTORE PUSH1 0x4 ADD PUSH2 0x1753 SWAP1 PUSH2 0x2CE1 JUMP JUMPDEST PUSH1 0x40 MLOAD DUP1 SWAP2 SUB SWAP1 REVERT JUMPDEST DUP1 PUSH1 0x2 ADD PUSH0 SWAP1 SLOAD SWAP1 PUSH2 0x100 EXP SWAP1 DIV PUSH20 0xFFFFFFFFFFFFFFFFFFFFFFFFFFFFFFFFFFFFFFFF AND PUSH20 0xFFFFFFFFFFFFFFFFFFFFFFFFFFFFFFFFFFFFFFFF AND PUSH4 0x23B872DD CALLER ADDRESS DUP5 PUSH1 0x8 ADD SLOAD PUSH1 0x40 MLOAD DUP5 PUSH4 0xFFFFFFFF AND PUSH1 0xE0 SHL DUP2 MSTORE PUSH1 0x4 ADD PUSH2 0x17C0 SWAP4 SWAP3 SWAP2 SWAP1 PUSH2 0x2829 JUMP JUMPDEST PUSH1 0x20 PUSH1 0x40 MLOAD DUP1 DUP4 SUB DUP2 PUSH0 DUP8 GAS CALL ISZERO DUP1 ISZERO PUSH2 0x17DC JUMPI RETURNDATASIZE PUSH0 PUSH0 RETURNDATACOPY RETURNDATASIZE PUSH0 REVERT JUMPDEST POP POP POP POP PUSH1 0x40 MLOAD RETURNDATASIZE PUSH1 0x1F NOT PUSH1 0x1F DUP3 ADD AND DUP3 ADD DUP1 PUSH1 0x40 MSTORE POP DUP2 ADD SWAP1 PUSH2 0x1800 SWAP2 SWAP1 PUSH2 0x2888 JUMP JUMPDEST POP DUP1 PUSH1 0x8 ADD SLOAD DUP2 PUSH1 0x5 ADD PUSH0 DUP3 DUP3 SLOAD PUSH2 0x1818 SWAP2 SWAP1 PUSH2 0x278E JUMP JUMPDEST SWAP3 POP POP DUP2 SWAP1 SSTORE POP DUP1 PUSH1 0x9 ADD PUSH0 DUP2 SLOAD DUP1 SWAP3 SWAP2 SWAP1 PUSH2 0x1833 SWAP1 PUSH2 0x2BB0 JUMP JUMPDEST SWAP2 SWAP1 POP SSTORE POP PUSH32 0xE9E4EC6FA83FE2A2893FD5D6517A890DF20F72CC0BA40495B21E65D12223503 DUP3 DUP3 PUSH1 0x8 ADD SLOAD PUSH1 0x40 MLOAD PUSH2 0x186D SWAP3 SWAP2 SWAP1 PUSH2 0x28B3 JUMP JUMPDEST PUSH1 0x40 MLOAD DUP1 SWAP2 SUB SWAP1 LOG1 DUP1 PUSH1 0x7 ADD SLOAD DUP2 PUSH1 0x9 ADD SLOAD LT PUSH2 0x188E JUMPI PUSH2 0x188D DUP3 PUSH2 0x1E32 JUMP JUMPDEST JUMPDEST POP PUSH2 0x1897 PUSH2 0x1F5F JUMP JUMPDEST POP JUMP JUMPDEST PUSH1 0x1 PUSH1 0x6 PUSH0 CALLER PUSH20 0xFFFFFFFFFFFFFFFFFFFFFFFFFFFFFFFFFFFFFFFF AND PUSH20 0xFFFFFFFFFFFFFFFFFFFFFFFFFFFFFFFFFFFFFFFF AND DUP2 MSTORE PUSH1 0x20 ADD SWAP1 DUP2 MSTORE PUSH1 0x20 ADD PUSH0 KECCAK256 PUSH0 PUSH2 0x100 EXP DUP2 SLOAD DUP2 PUSH1 0xFF MUL NOT AND SWAP1 DUP4 ISZERO ISZERO MUL OR SWAP1 SSTORE POP PUSH32 0x57C3B463895A0DA2FE39978165AB8B71864D9225A91DD3BDA7184006E52CDD0C CALLER PUSH1 0x40 MLOAD PUSH2 0x191E SWAP2 SWAP1 PUSH2 0x2409 JUMP JUMPDEST PUSH1 0x40 MLOAD DUP1 SWAP2 SUB SWAP1 LOG1 JUMP JUMPDEST PUSH0 PUSH1 0x6 PUSH0 DUP4 PUSH20 0xFFFFFFFFFFFFFFFFFFFFFFFFFFFFFFFFFFFFFFFF AND PUSH20 0xFFFFFFFFFFFFFFFFFFFFFFFFFFFFFFFFFFFFFFFF AND DUP2 MSTORE PUSH1 0x20 ADD SWAP1 DUP2 MSTORE PUSH1 0x20 ADD PUSH0 KECCAK256 PUSH0 SWAP1 SLOAD SWAP1 PUSH2 0x100 EXP SWAP1 DIV PUSH1 0xFF AND SWAP1 POP SWAP2 SWAP1 POP JUMP JUMPDEST PUSH2 0x1982 PUSH2 0x1D5E JUMP JUMPDEST PUSH0 PUSH20 0xFFFFFFFFFFFFFFFFFFFFFFFFFFFFFFFFFFFFFFFF AND DUP2 PUSH20 0xFFFFFFFFFFFFFFFFFFFFFFFFFFFFFFFFFFFFFFFF AND SUB PUSH2 0x19F2 JUMPI PUSH0 PUSH1 0x40 MLOAD PUSH32 0x1E4FBDF700000000000000000000000000000000000000000000000000000000 DUP2 MSTORE PUSH1 0x4 ADD PUSH2 0x19E9 SWAP2 SWAP1 PUSH2 0x2409 JUMP JUMPDEST PUSH1 0x40 MLOAD DUP1 SWAP2 SUB SWAP1 REVERT JUMPDEST PUSH2 0x19FB DUP2 PUSH2 0x1F68 JUMP JUMPDEST POP JUMP JUMPDEST PUSH2 0x1A06 PUSH2 0x1DE5 JUMP JUMPDEST PUSH1 0x7 PUSH0 DUP4 PUSH20 0xFFFFFFFFFFFFFFFFFFFFFFFFFFFFFFFFFFFFFFFF AND PUSH20 0xFFFFFFFFFFFFFFFFFFFFFFFFFFFFFFFFFFFFFFFF AND DUP2 MSTORE PUSH1 0x20 ADD SWAP1 DUP2 MSTORE PUSH1 0x20 ADD PUSH0 KECCAK256 PUSH0 SWAP1 SLOAD SWAP1 PUSH2 0x100 EXP SWAP1 DIV PUSH1 0xFF AND PUSH2 0x1A8F JUMPI PUSH1 0x40 MLOAD PUSH32 0x8C379A000000000000000000000000000000000000000000000000000000000 DUP2 MSTORE PUSH1 0x4 ADD PUSH2 0x1A86 SWAP1 PUSH2 0x2924 JUMP JUMPDEST PUSH1 0x40 MLOAD DUP1 SWAP2 SUB SWAP1 REVERT JUMPDEST DUP1 PUSH1 0x2 PUSH0 SWAP1 SLOAD SWAP1 PUSH2 0x100 EXP SWAP1 DIV PUSH20 0xFFFFFFFFFFFFFFFFFFFFFFFFFFFFFFFFFFFFFFFF AND PUSH20 0xFFFFFFFFFFFFFFFFFFFFFFFFFFFFFFFFFFFFFFFF AND PUSH4 0x70A08231 CALLER PUSH1 0x40 MLOAD DUP3 PUSH4 0xFFFFFFFF AND PUSH1 0xE0 SHL DUP2 MSTORE PUSH1 0x4 ADD PUSH2 0x1AEA SWAP2 SWAP1 PUSH2 0x2409 JUMP JUMPDEST PUSH1 0x20 PUSH1 0x40 MLOAD DUP1 DUP4 SUB DUP2 DUP7 GAS STATICCALL ISZERO DUP1 ISZERO PUSH2 0x1B05 JUMPI RETURNDATASIZE PUSH0 PUSH0 RETURNDATACOPY RETURNDATASIZE PUSH0 REVERT JUMPDEST POP POP POP POP PUSH1 0x40 MLOAD RETURNDATASIZE PUSH1 0x1F NOT PUSH1 0x1F DUP3 ADD AND DUP3 ADD DUP1 PUSH1 0x40 MSTORE POP DUP2 ADD SWAP1 PUSH2 0x1B29 SWAP2 SWAP1 PUSH2 0x2B1D JUMP JUMPDEST LT ISZERO PUSH2 0x1B6A JUMPI PUSH1 0x40 MLOAD PUSH32 0x8C379A000000000000000000000000000000000000000000000000000000000 DUP2 MSTORE PUSH1 0x4 ADD PUSH2 0x1B61 SWAP1 PUSH2 0x2B92 JUMP JUMPDEST PUSH1 0x40 MLOAD DUP1 SWAP2 SUB SWAP1 REVERT JUMPDEST PUSH1 0x2 PUSH0 SWAP1 SLOAD SWAP1 PUSH2 0x100 EXP SWAP1 DIV PUSH20 0xFFFFFFFFFFFFFFFFFFFFFFFFFFFFFFFFFFFFFFFF AND PUSH20 0xFFFFFFFFFFFFFFFFFFFFFFFFFFFFFFFFFFFFFFFF AND PUSH4 0x9DC29FAC CALLER DUP4 PUSH1 0x40 MLOAD DUP4 PUSH4 0xFFFFFFFF AND PUSH1 0xE0 SHL DUP2 MSTORE PUSH1 0x4 ADD PUSH2 0x1BC6 SWAP3 SWAP2 SWAP1 PUSH2 0x29AA JUMP JUMPDEST PUSH0 PUSH1 0x40 MLOAD DUP1 DUP4 SUB DUP2 PUSH0 DUP8 DUP1 EXTCODESIZE ISZERO DUP1 ISZERO PUSH2 0x1BDD JUMPI PUSH0 PUSH0 REVERT JUMPDEST POP GAS CALL ISZERO DUP1 ISZERO PUSH2 0x1BEF JUMPI RETURNDATASIZE PUSH0 PUSH0 RETURNDATACOPY RETURNDATASIZE PUSH0 REVERT JUMPDEST POP POP POP POP DUP2 PUSH20 0xFFFFFFFFFFFFFFFFFFFFFFFFFFFFFFFFFFFFFFFF AND PUSH4 0xA9059CBB CALLER DUP4 PUSH1 0x40 MLOAD DUP4 PUSH4 0xFFFFFFFF AND PUSH1 0xE0 SHL DUP2 MSTORE PUSH1 0x4 ADD PUSH2 0x1C2E SWAP3 SWAP2 SWAP1 PUSH2 0x29AA JUMP JUMPDEST PUSH1 0x20 PUSH1 0x40 MLOAD DUP1 DUP4 SUB DUP2 PUSH0 DUP8 GAS CALL ISZERO DUP1 ISZERO PUSH2 0x1C4A JUMPI RETURNDATASIZE PUSH0 PUSH0 RETURNDATACOPY RETURNDATASIZE PUSH0 REVERT JUMPDEST POP POP POP POP PUSH1 0x40 MLOAD RETURNDATASIZE PUSH1 0x1F NOT PUSH1 0x1F DUP3 ADD AND DUP3 ADD DUP1 PUSH1 0x40 MSTORE POP DUP2 ADD SWAP1 PUSH2 0x1C6E SWAP2 SWAP1 PUSH2 0x2888 JUMP JUMPDEST POP PUSH2 0x1C77 PUSH2 0x1F5F JUMP JUMPDEST POP POP JUMP JUMPDEST PUSH0 PUSH1 0x2 PUSH0 SWAP1 SLOAD SWAP1 PUSH2 0x100 EXP SWAP1 DIV PUSH20 0xFFFFFFFFFFFFFFFFFFFFFFFFFFFFFFFFFFFFFFFF AND PUSH20 0xFFFFFFFFFFFFFFFFFFFFFFFFFFFFFFFFFFFFFFFF AND PUSH4 0x70A08231 DUP4 PUSH1 0x40 MLOAD DUP3 PUSH4 0xFFFFFFFF AND PUSH1 0xE0 SHL DUP2 MSTORE PUSH1 0x4 ADD PUSH2 0x1CD6 SWAP2 SWAP1 PUSH2 0x2409 JUMP JUMPDEST PUSH1 0x20 PUSH1 0x40 MLOAD DUP1 DUP4 SUB DUP2 DUP7 GAS STATICCALL ISZERO DUP1 ISZERO PUSH2 0x1CF1 JUMPI RETURNDATASIZE PUSH0 PUSH0 RETURNDATACOPY RETURNDATASIZE PUSH0 REVERT JUMPDEST POP POP POP POP PUSH1 0x40 MLOAD RETURNDATASIZE PUSH1 0x1F NOT PUSH1 0x1F DUP3 ADD AND DUP3 ADD DUP1 PUSH1 0x40 MSTORE POP DUP2 ADD SWAP1 PUSH2 0x1D15 SWAP2 SWAP1 PUSH2 0x2B1D JUMP JUMPDEST SWAP1 POP SWAP2 SWAP1 POP JUMP JUMPDEST PUSH1 0x7 PUSH1 0x20 MSTORE DUP1 PUSH0 MSTORE PUSH1 0x40 PUSH0 KECCAK256 PUSH0 SWAP2 POP SLOAD SWAP1 PUSH2 0x100 EXP SWAP1 DIV PUSH1 0xFF AND DUP2 JUMP JUMPDEST PUSH1 0x2 PUSH0 SWAP1 SLOAD SWAP1 PUSH2 0x100 EXP SWAP1 DIV PUSH20 0xFFFFFFFFFFFFFFFFFFFFFFFFFFFFFFFFFFFFFFFF AND DUP2 JUMP JUMPDEST PUSH2 0x1D66 PUSH2 0x202B JUMP JUMPDEST PUSH20 0xFFFFFFFFFFFFFFFFFFFFFFFFFFFFFFFFFFFFFFFF AND PUSH2 0x1D84 PUSH2 0xD97 JUMP JUMPDEST PUSH20 0xFFFFFFFFFFFFFFFFFFFFFFFFFFFFFFFFFFFFFFFF AND EQ PUSH2 0x1DE3 JUMPI PUSH2 0x1DA7 PUSH2 0x202B JUMP JUMPDEST PUSH1 0x40 MLOAD PUSH32 0x118CDAA700000000000000000000000000000000000000000000000000000000 DUP2 MSTORE PUSH1 0x4 ADD PUSH2 0x1DDA SWAP2 SWAP1 PUSH2 0x2409 JUMP JUMPDEST PUSH1 0x40 MLOAD DUP1 SWAP2 SUB SWAP1 REVERT JUMPDEST JUMP JUMPDEST PUSH1 0x2 PUSH0 SLOAD SUB PUSH2 0x1E29 JUMPI PUSH1 0x40 MLOAD PUSH32 0x8C379A000000000000000000000000000000000000000000000000000000000 DUP2 MSTORE PUSH1 0x4 ADD PUSH2 0x1E20 SWAP1 PUSH2 0x2D49 JUMP JUMPDEST PUSH1 0x40 MLOAD DUP1 SWAP2 SUB SWAP1 REVERT JUMPDEST PUSH1 0x2 PUSH0 DUP2 SWAP1 SSTORE POP JUMP JUMPDEST PUSH0 PUSH1 0x4 PUSH0 DUP4 DUP2 MSTORE PUSH1 0x20 ADD SWAP1 DUP2 MSTORE PUSH1 0x20 ADD PUSH0 KECCAK256 SWAP1 POP PUSH0 DUP2 PUSH1 0xA ADD PUSH0 PUSH2 0x100 EXP DUP2 SLOAD DUP2 PUSH1 0xFF MUL NOT AND SWAP1 DUP4 ISZERO ISZERO MUL OR SWAP1 SSTORE POP PUSH0 DUP2 PUSH1 0xB ADD SLOAD DUP3 PUSH1 0x5 ADD SLOAD PUSH2 0x1E76 SWAP2 SWAP1 PUSH2 0x26BD JUMP JUMPDEST SWAP1 POP PUSH1 0x2 PUSH0 SWAP1 SLOAD SWAP1 PUSH2 0x100 EXP SWAP1 DIV PUSH20 0xFFFFFFFFFFFFFFFFFFFFFFFFFFFFFFFFFFFFFFFF AND PUSH20 0xFFFFFFFFFFFFFFFFFFFFFFFFFFFFFFFFFFFFFFFF AND PUSH4 0x40C10F19 DUP4 PUSH0 ADD PUSH0 SWAP1 SLOAD SWAP1 PUSH2 0x100 EXP SWAP1 DIV PUSH20 0xFFFFFFFFFFFFFFFFFFFFFFFFFFFFFFFFFFFFFFFF AND DUP4 PUSH1 0x40 MLOAD DUP4 PUSH4 0xFFFFFFFF AND PUSH1 0xE0 SHL DUP2 MSTORE PUSH1 0x4 ADD PUSH2 0x1EF6 SWAP3 SWAP2 SWAP1 PUSH2 0x29AA JUMP JUMPDEST PUSH0 PUSH1 0x40 MLOAD DUP1 DUP4 SUB DUP2 PUSH0 DUP8 DUP1 EXTCODESIZE ISZERO DUP1 ISZERO PUSH2 0x1F0D JUMPI PUSH0 PUSH0 REVERT JUMPDEST POP GAS CALL ISZERO DUP1 ISZERO PUSH2 0x1F1F JUMPI RETURNDATASIZE PUSH0 PUSH0 RETURNDATACOPY RETURNDATASIZE PUSH0 REVERT JUMPDEST POP POP POP POP PUSH32 0x2CA5489B37DD363D1302BAC719E8EE40E540FFBE8C12253570FEA63E11CAD71 DUP4 PUSH1 0x40 MLOAD PUSH2 0x1F52 SWAP2 SWAP1 PUSH2 0x23E1 JUMP JUMPDEST PUSH1 0x40 MLOAD DUP1 SWAP2 SUB SWAP1 LOG1 POP POP POP JUMP JUMPDEST PUSH1 0x1 PUSH0 DUP2 SWAP1 SSTORE POP JUMP JUMPDEST PUSH0 PUSH1 0x1 PUSH0 SWAP1 SLOAD SWAP1 PUSH2 0x100 EXP SWAP1 DIV PUSH20 0xFFFFFFFFFFFFFFFFFFFFFFFFFFFFFFFFFFFFFFFF AND SWAP1 POP DUP2 PUSH1 0x1 PUSH0 PUSH2 0x100 EXP DUP2 SLOAD DUP2 PUSH20 0xFFFFFFFFFFFFFFFFFFFFFFFFFFFFFFFFFFFFFFFF MUL NOT AND SWAP1 DUP4 PUSH20 0xFFFFFFFFFFFFFFFFFFFFFFFFFFFFFFFFFFFFFFFF AND MUL OR SWAP1 SSTORE POP DUP2 PUSH20 0xFFFFFFFFFFFFFFFFFFFFFFFFFFFFFFFFFFFFFFFF AND DUP2 PUSH20 0xFFFFFFFFFFFFFFFFFFFFFFFFFFFFFFFFFFFFFFFF AND PUSH32 0x8BE0079C531659141344CD1FD0A4F28419497F9722A3DAAFE3B4186F6B6457E0 PUSH1 0x40 MLOAD PUSH1 0x40 MLOAD DUP1 SWAP2 SUB SWAP1 LOG3 POP POP JUMP JUMPDEST PUSH0 CALLER SWAP1 POP SWAP1 JUMP JUMPDEST PUSH1 0x40 MLOAD DUP1 PUSH2 0x180 ADD PUSH1 0x40 MSTORE DUP1 PUSH0 PUSH20 0xFFFFFFFFFFFFFFFFFFFFFFFFFFFFFFFFFFFFFFFF AND DUP2 MSTORE PUSH1 0x20 ADD PUSH0 PUSH20 0xFFFFFFFFFFFFFFFFFFFFFFFFFFFFFFFFFFFFFFFF AND DUP2 MSTORE PUSH1 0x20 ADD PUSH0 PUSH20 0xFFFFFFFFFFFFFFFFFFFFFFFFFFFFFFFFFFFFFFFF AND DUP2 MSTORE PUSH1 0x20 ADD PUSH0 DUP2 MSTORE PUSH1 0x20 ADD PUSH0 DUP2 MSTORE PUSH1 0x20 ADD PUSH0 DUP2 MSTORE PUSH1 0x20 ADD PUSH0 DUP2 MSTORE PUSH1 0x20 ADD PUSH0 DUP2 MSTORE PUSH1 0x20 ADD PUSH0 DUP2 MSTORE PUSH1 0x20 ADD PUSH0 DUP2 MSTORE PUSH1 0x20 ADD PUSH0 ISZERO ISZERO DUP2 MSTORE PUSH1 0x20 ADD PUSH0 DUP2 MSTORE POP SWAP1 JUMP JUMPDEST PUSH0 PUSH0 REVERT JUMPDEST PUSH0 PUSH20 0xFFFFFFFFFFFFFFFFFFFFFFFFFFFFFFFFFFFFFFFF DUP3 AND SWAP1 POP SWAP2 SWAP1 POP JUMP JUMPDEST PUSH0 PUSH2 0x20F8 DUP3 PUSH2 0x20CF JUMP JUMPDEST SWAP1 POP SWAP2 SWAP1 POP JUMP JUMPDEST PUSH2 0x2108 DUP2 PUSH2 0x20EE JUMP JUMPDEST DUP2 EQ PUSH2 0x2112 JUMPI PUSH0 PUSH0 REVERT JUMPDEST POP JUMP JUMPDEST PUSH0 DUP2 CALLDATALOAD SWAP1 POP PUSH2 0x2123 DUP2 PUSH2 0x20FF JUMP JUMPDEST SWAP3 SWAP2 POP POP JUMP JUMPDEST PUSH0 PUSH1 0x20 DUP3 DUP5 SUB SLT ISZERO PUSH2 0x213E JUMPI PUSH2 0x213D PUSH2 0x20CB JUMP JUMPDEST JUMPDEST PUSH0 PUSH2 0x214B DUP5 DUP3 DUP6 ADD PUSH2 0x2115 JUMP JUMPDEST SWAP2 POP POP SWAP3 SWAP2 POP POP JUMP JUMPDEST PUSH0 DUP2 ISZERO ISZERO SWAP1 POP SWAP2 SWAP1 POP JUMP JUMPDEST PUSH2 0x2168 DUP2 PUSH2 0x2154 JUMP JUMPDEST DUP3 MSTORE POP POP JUMP JUMPDEST PUSH0 PUSH1 0x20 DUP3 ADD SWAP1 POP PUSH2 0x2181 PUSH0 DUP4 ADD DUP5 PUSH2 0x215F JUMP JUMPDEST SWAP3 SWAP2 POP POP JUMP JUMPDEST PUSH0 DUP2 SWAP1 POP SWAP2 SWAP1 POP JUMP JUMPDEST PUSH2 0x2199 DUP2 PUSH2 0x2187 JUMP JUMPDEST DUP2 EQ PUSH2 0x21A3 JUMPI PUSH0 PUSH0 REVERT JUMPDEST POP JUMP JUMPDEST PUSH0 DUP2 CALLDATALOAD SWAP1 POP PUSH2 0x21B4 DUP2 PUSH2 0x2190 JUMP JUMPDEST SWAP3 SWAP2 POP POP JUMP JUMPDEST PUSH0 PUSH1 0x20 DUP3 DUP5 SUB SLT ISZERO PUSH2 0x21CF JUMPI PUSH2 0x21CE PUSH2 0x20CB JUMP JUMPDEST JUMPDEST PUSH0 PUSH2 0x21DC DUP5 DUP3 DUP6 ADD PUSH2 0x21A6 JUMP JUMPDEST SWAP2 POP POP SWAP3 SWAP2 POP POP JUMP JUMPDEST PUSH0 DUP2 SWAP1 POP SWAP2 SWAP1 POP JUMP JUMPDEST PUSH0 PUSH2 0x2208 PUSH2 0x2203 PUSH2 0x21FE DUP5 PUSH2 0x20CF JUMP JUMPDEST PUSH2 0x21E5 JUMP JUMPDEST PUSH2 0x20CF JUMP JUMPDEST SWAP1 POP SWAP2 SWAP1 POP JUMP JUMPDEST PUSH0 PUSH2 0x2219 DUP3 PUSH2 0x21EE JUMP JUMPDEST SWAP1 POP SWAP2 SWAP1 POP JUMP JUMPDEST PUSH0 PUSH2 0x222A DUP3 PUSH2 0x220F JUMP JUMPDEST SWAP1 POP SWAP2 SWAP1 POP JUMP JUMPDEST PUSH2 0x223A DUP2 PUSH2 0x2220 JUMP JUMPDEST DUP3 MSTORE POP POP JUMP JUMPDEST PUSH0 PUSH1 0x20 DUP3 ADD SWAP1 POP PUSH2 0x2253 PUSH0 DUP4 ADD DUP5 PUSH2 0x2231 JUMP JUMPDEST SWAP3 SWAP2 POP POP JUMP JUMPDEST PUSH0 PUSH0 PUSH1 0x40 DUP4 DUP6 SUB SLT ISZERO PUSH2 0x226F JUMPI PUSH2 0x226E PUSH2 0x20CB JUMP JUMPDEST JUMPDEST PUSH0 PUSH2 0x227C DUP6 DUP3 DUP7 ADD PUSH2 0x2115 JUMP JUMPDEST SWAP3 POP POP PUSH1 0x20 PUSH2 0x228D DUP6 DUP3 DUP7 ADD PUSH2 0x21A6 JUMP JUMPDEST SWAP2 POP POP SWAP3 POP SWAP3 SWAP1 POP JUMP JUMPDEST PUSH2 0x22A0 DUP2 PUSH2 0x20EE JUMP JUMPDEST DUP3 MSTORE POP POP JUMP JUMPDEST PUSH2 0x22AF DUP2 PUSH2 0x2187 JUMP JUMPDEST DUP3 MSTORE POP POP JUMP JUMPDEST PUSH2 0x22BE DUP2 PUSH2 0x2154 JUMP JUMPDEST DUP3 MSTORE POP POP JUMP JUMPDEST PUSH2 0x180 DUP3 ADD PUSH0 DUP3 ADD MLOAD PUSH2 0x22D9 PUSH0 DUP6 ADD DUP3 PUSH2 0x2297 JUMP JUMPDEST POP PUSH1 0x20 DUP3 ADD MLOAD PUSH2 0x22EC PUSH1 0x20 DUP6 ADD DUP3 PUSH2 0x2297 JUMP JUMPDEST POP PUSH1 0x40 DUP3 ADD MLOAD PUSH2 0x22FF PUSH1 0x40 DUP6 ADD DUP3 PUSH2 0x2297 JUMP JUMPDEST POP PUSH1 0x60 DUP3 ADD MLOAD PUSH2 0x2312 PUSH1 0x60 DUP6 ADD DUP3 PUSH2 0x22A6 JUMP JUMPDEST POP PUSH1 0x80 DUP3 ADD MLOAD PUSH2 0x2325 PUSH1 0x80 DUP6 ADD DUP3 PUSH2 0x22A6 JUMP JUMPDEST POP PUSH1 0xA0 DUP3 ADD MLOAD PUSH2 0x2338 PUSH1 0xA0 DUP6 ADD DUP3 PUSH2 0x22A6 JUMP JUMPDEST POP PUSH1 0xC0 DUP3 ADD MLOAD PUSH2 0x234B PUSH1 0xC0 DUP6 ADD DUP3 PUSH2 0x22A6 JUMP JUMPDEST POP PUSH1 0xE0 DUP3 ADD MLOAD PUSH2 0x235E PUSH1 0xE0 DUP6 ADD DUP3 PUSH2 0x22A6 JUMP JUMPDEST POP PUSH2 0x100 DUP3 ADD MLOAD PUSH2 0x2373 PUSH2 0x100 DUP6 ADD DUP3 PUSH2 0x22A6 JUMP JUMPDEST POP PUSH2 0x120 DUP3 ADD MLOAD PUSH2 0x2388 PUSH2 0x120 DUP6 ADD DUP3 PUSH2 0x22A6 JUMP JUMPDEST POP PUSH2 0x140 DUP3 ADD MLOAD PUSH2 0x239D PUSH2 0x140 DUP6 ADD DUP3 PUSH2 0x22B5 JUMP JUMPDEST POP PUSH2 0x160 DUP3 ADD MLOAD PUSH2 0x23B2 PUSH2 0x160 DUP6 ADD DUP3 PUSH2 0x22A6 JUMP JUMPDEST POP POP POP POP JUMP JUMPDEST PUSH0 PUSH2 0x180 DUP3 ADD SWAP1 POP PUSH2 0x23CC PUSH0 DUP4 ADD DUP5 PUSH2 0x22C4 JUMP JUMPDEST SWAP3 SWAP2 POP POP JUMP JUMPDEST PUSH2 0x23DB DUP2 PUSH2 0x2187 JUMP JUMPDEST DUP3 MSTORE POP POP JUMP JUMPDEST PUSH0 PUSH1 0x20 DUP3 ADD SWAP1 POP PUSH2 0x23F4 PUSH0 DUP4 ADD DUP5 PUSH2 0x23D2 JUMP JUMPDEST SWAP3 SWAP2 POP POP JUMP JUMPDEST PUSH2 0x2403 DUP2 PUSH2 0x20EE JUMP JUMPDEST DUP3 MSTORE POP POP JUMP JUMPDEST PUSH0 PUSH1 0x20 DUP3 ADD SWAP1 POP PUSH2 0x241C PUSH0 DUP4 ADD DUP5 PUSH2 0x23FA JUMP JUMPDEST SWAP3 SWAP2 POP POP JUMP JUMPDEST PUSH0 PUSH0 PUSH0 PUSH0 PUSH0 PUSH0 PUSH0 PUSH1 0xE0 DUP9 DUP11 SUB SLT ISZERO PUSH2 0x243D JUMPI PUSH2 0x243C PUSH2 0x20CB JUMP JUMPDEST JUMPDEST PUSH0 PUSH2 0x244A DUP11 DUP3 DUP12 ADD PUSH2 0x2115 JUMP JUMPDEST SWAP8 POP POP PUSH1 0x20 PUSH2 0x245B DUP11 DUP3 DUP12 ADD PUSH2 0x2115 JUMP JUMPDEST SWAP7 POP POP PUSH1 0x40 PUSH2 0x246C DUP11 DUP3 DUP12 ADD PUSH2 0x2115 JUMP JUMPDEST SWAP6 POP POP PUSH1 0x60 PUSH2 0x247D DUP11 DUP3 DUP12 ADD PUSH2 0x21A6 JUMP JUMPDEST SWAP5 POP POP PUSH1 0x80 PUSH2 0x248E DUP11 DUP3 DUP12 ADD PUSH2 0x21A6 JUMP JUMPDEST SWAP4 POP POP PUSH1 0xA0 PUSH2 0x249F DUP11 DUP3 DUP12 ADD PUSH2 0x21A6 JUMP JUMPDEST SWAP3 POP POP PUSH1 0xC0 PUSH2 0x24B0 DUP11 DUP3 DUP12 ADD PUSH2 0x21A6 JUMP JUMPDEST SWAP2 POP POP SWAP3 SWAP6 SWAP9 SWAP2 SWAP5 SWAP8 POP SWAP3 SWAP6 POP JUMP JUMPDEST PUSH0 PUSH2 0x180 DUP3 ADD SWAP1 POP PUSH2 0x24D3 PUSH0 DUP4 ADD DUP16 PUSH2 0x23FA JUMP JUMPDEST PUSH2 0x24E0 PUSH1 0x20 DUP4 ADD DUP15 PUSH2 0x23FA JUMP JUMPDEST PUSH2 0x24ED PUSH1 0x40 DUP4 ADD DUP14 PUSH2 0x23FA JUMP JUMPDEST PUSH2 0x24FA PUSH1 0x60 DUP4 ADD DUP13 PUSH2 0x23D2 JUMP JUMPDEST PUSH2 0x2507 PUSH1 0x80 DUP4 ADD DUP12 PUSH2 0x23D2 JUMP JUMPDEST PUSH2 0x2514 PUSH1 0xA0 DUP4 ADD DUP11 PUSH2 0x23D2 JUMP JUMPDEST PUSH2 0x2521 PUSH1 0xC0 DUP4 ADD DUP10 PUSH2 0x23D2 JUMP JUMPDEST PUSH2 0x252E PUSH1 0xE0 DUP4 ADD DUP9 PUSH2 0x23D2 JUMP JUMPDEST PUSH2 0x253C PUSH2 0x100 DUP4 ADD DUP8 PUSH2 0x23D2 JUMP JUMPDEST PUSH2 0x254A PUSH2 0x120 DUP4 ADD DUP7 PUSH2 0x23D2 JUMP JUMPDEST PUSH2 0x2558 PUSH2 0x140 DUP4 ADD DUP6 PUSH2 0x215F JUMP JUMPDEST PUSH2 0x2566 PUSH2 0x160 DUP4 ADD DUP5 PUSH2 0x23D2 JUMP JUMPDEST SWAP14 SWAP13 POP POP POP POP POP POP POP POP POP POP POP POP POP JUMP JUMPDEST PUSH0 PUSH2 0x2581 DUP3 PUSH2 0x220F JUMP JUMPDEST SWAP1 POP SWAP2 SWAP1 POP JUMP JUMPDEST PUSH2 0x2591 DUP2 PUSH2 0x2577 JUMP JUMPDEST DUP3 MSTORE POP POP JUMP JUMPDEST PUSH0 PUSH1 0x20 DUP3 ADD SWAP1 POP PUSH2 0x25AA PUSH0 DUP4 ADD DUP5 PUSH2 0x2588 JUMP JUMPDEST SWAP3 SWAP2 POP POP JUMP JUMPDEST PUSH0 DUP3 DUP3 MSTORE PUSH1 0x20 DUP3 ADD SWAP1 POP SWAP3 SWAP2 POP POP JUMP JUMPDEST PUSH32 0x4C6F616E206E6F74206163746976650000000000000000000000000000000000 PUSH0 DUP3 ADD MSTORE POP JUMP JUMPDEST PUSH0 PUSH2 0x25F4 PUSH1 0xF DUP4 PUSH2 0x25B0 JUMP JUMPDEST SWAP2 POP PUSH2 0x25FF DUP3 PUSH2 0x25C0 JUMP JUMPDEST PUSH1 0x20 DUP3 ADD SWAP1 POP SWAP2 SWAP1 POP JUMP JUMPDEST PUSH0 PUSH1 0x20 DUP3 ADD SWAP1 POP DUP2 DUP2 SUB PUSH0 DUP4 ADD MSTORE PUSH2 0x2621 DUP2 PUSH2 0x25E8 JUMP JUMPDEST SWAP1 POP SWAP2 SWAP1 POP JUMP JUMPDEST PUSH32 0x4E6F7420796F7572206C6F616E00000000000000000000000000000000000000 PUSH0 DUP3 ADD MSTORE POP JUMP JUMPDEST PUSH0 PUSH2 0x265C PUSH1 0xD DUP4 PUSH2 0x25B0 JUMP JUMPDEST SWAP2 POP PUSH2 0x2667 DUP3 PUSH2 0x2628 JUMP JUMPDEST PUSH1 0x20 DUP3 ADD SWAP1 POP SWAP2 SWAP1 POP JUMP JUMPDEST PUSH0 PUSH1 0x20 DUP3 ADD SWAP1 POP DUP2 DUP2 SUB PUSH0 DUP4 ADD MSTORE PUSH2 0x2689 DUP2 PUSH2 0x2650 JUMP JUMPDEST SWAP1 POP SWAP2 SWAP1 POP JUMP JUMPDEST PUSH32 0x4E487B7100000000000000000000000000000000000000000000000000000000 PUSH0 MSTORE PUSH1 0x11 PUSH1 0x4 MSTORE PUSH1 0x24 PUSH0 REVERT JUMPDEST PUSH0 PUSH2 0x26C7 DUP3 PUSH2 0x2187 JUMP JUMPDEST SWAP2 POP PUSH2 0x26D2 DUP4 PUSH2 0x2187 JUMP JUMPDEST SWAP3 POP DUP3 DUP3 SUB SWAP1 POP DUP2 DUP2 GT ISZERO PUSH2 0x26EA JUMPI PUSH2 0x26E9 PUSH2 0x2690 JUMP JUMPDEST JUMPDEST SWAP3 SWAP2 POP POP JUMP JUMPDEST PUSH32 0x4E487B7100000000000000000000000000000000000000000000000000000000 PUSH0 MSTORE PUSH1 0x12 PUSH1 0x4 MSTORE PUSH1 0x24 PUSH0 REVERT JUMPDEST PUSH0 PUSH2 0x2727 DUP3 PUSH2 0x2187 JUMP JUMPDEST SWAP2 POP PUSH2 0x2732 DUP4 PUSH2 0x2187 JUMP JUMPDEST SWAP3 POP DUP3 PUSH2 0x2742 JUMPI PUSH2 0x2741 PUSH2 0x26F0 JUMP JUMPDEST JUMPDEST DUP3 DUP3 DIV SWAP1 POP SWAP3 SWAP2 POP POP JUMP JUMPDEST PUSH0 PUSH2 0x2757 DUP3 PUSH2 0x2187 JUMP JUMPDEST SWAP2 POP PUSH2 0x2762 DUP4 PUSH2 0x2187 JUMP JUMPDEST SWAP3 POP DUP3 DUP3 MUL PUSH2 0x2770 DUP2 PUSH2 0x2187 JUMP JUMPDEST SWAP2 POP DUP3 DUP3 DIV DUP5 EQ DUP4 ISZERO OR PUSH2 0x2787 JUMPI PUSH2 0x2786 PUSH2 0x2690 JUMP JUMPDEST JUMPDEST POP SWAP3 SWAP2 POP POP JUMP JUMPDEST PUSH0 PUSH2 0x2798 DUP3 PUSH2 0x2187 JUMP JUMPDEST SWAP2 POP PUSH2 0x27A3 DUP4 PUSH2 0x2187 JUMP JUMPDEST SWAP3 POP DUP3 DUP3 ADD SWAP1 POP DUP1 DUP3 GT ISZERO PUSH2 0x27BB JUMPI PUSH2 0x27BA PUSH2 0x2690 JUMP JUMPDEST JUMPDEST SWAP3 SWAP2 POP POP JUMP JUMPDEST PUSH32 0x416C726561647920706169640000000000000000000000000000000000000000 PUSH0 DUP3 ADD MSTORE POP JUMP JUMPDEST PUSH0 PUSH2 0x27F5 PUSH1 0xC DUP4 PUSH2 0x25B0 JUMP JUMPDEST SWAP2 POP PUSH2 0x2800 DUP3 PUSH2 0x27C1 JUMP JUMPDEST PUSH1 0x20 DUP3 ADD SWAP1 POP SWAP2 SWAP1 POP JUMP JUMPDEST PUSH0 PUSH1 0x20 DUP3 ADD SWAP1 POP DUP2 DUP2 SUB PUSH0 DUP4 ADD MSTORE PUSH2 0x2822 DUP2 PUSH2 0x27E9 JUMP JUMPDEST SWAP1 POP SWAP2 SWAP1 POP JUMP JUMPDEST PUSH0 PUSH1 0x60 DUP3 ADD SWAP1 POP PUSH2 0x283C PUSH0 DUP4 ADD DUP7 PUSH2 0x23FA JUMP JUMPDEST PUSH2 0x2849 PUSH1 0x20 DUP4 ADD DUP6 PUSH2 0x23FA JUMP JUMPDEST PUSH2 0x2856 PUSH1 0x40 DUP4 ADD DUP5 PUSH2 0x23D2 JUMP JUMPDEST SWAP5 SWAP4 POP POP POP POP JUMP JUMPDEST PUSH2 0x2867 DUP2 PUSH2 0x2154 JUMP JUMPDEST DUP2 EQ PUSH2 0x2871 JUMPI PUSH0 PUSH0 REVERT JUMPDEST POP JUMP JUMPDEST PUSH0 DUP2 MLOAD SWAP1 POP PUSH2 0x2882 DUP2 PUSH2 0x285E JUMP JUMPDEST SWAP3 SWAP2 POP POP JUMP JUMPDEST PUSH0 PUSH1 0x20 DUP3 DUP5 SUB SLT ISZERO PUSH2 0x289D JUMPI PUSH2 0x289C PUSH2 0x20CB JUMP JUMPDEST JUMPDEST PUSH0 PUSH2 0x28AA DUP5 DUP3 DUP6 ADD PUSH2 0x2874 JUMP JUMPDEST SWAP2 POP POP SWAP3 SWAP2 POP POP JUMP JUMPDEST PUSH0 PUSH1 0x40 DUP3 ADD SWAP1 POP PUSH2 0x28C6 PUSH0 DUP4 ADD DUP6 PUSH2 0x23D2 JUMP JUMPDEST PUSH2 0x28D3 PUSH1 0x20 DUP4 ADD DUP5 PUSH2 0x23D2 JUMP JUMPDEST SWAP4 SWAP3 POP POP POP JUMP JUMPDEST PUSH32 0x546F6B656E206E6F7420737570706F7274656400000000000000000000000000 PUSH0 DUP3 ADD MSTORE POP JUMP JUMPDEST PUSH0 PUSH2 0x290E PUSH1 0x13 DUP4 PUSH2 0x25B0 JUMP JUMPDEST SWAP2 POP PUSH2 0x2919 DUP3 PUSH2 0x28DA JUMP JUMPDEST PUSH1 0x20 DUP3 ADD SWAP1 POP SWAP2 SWAP1 POP JUMP JUMPDEST PUSH0 PUSH1 0x20 DUP3 ADD SWAP1 POP DUP2 DUP2 SUB PUSH0 DUP4 ADD MSTORE PUSH2 0x293B DUP2 PUSH2 0x2902 JUMP JUMPDEST SWAP1 POP SWAP2 SWAP1 POP JUMP JUMPDEST PUSH32 0x4E6F742072656769737465726564000000000000000000000000000000000000 PUSH0 DUP3 ADD MSTORE POP JUMP JUMPDEST PUSH0 PUSH2 0x2976 PUSH1 0xE DUP4 PUSH2 0x25B0 JUMP JUMPDEST SWAP2 POP PUSH2 0x2981 DUP3 PUSH2 0x2942 JUMP JUMPDEST PUSH1 0x20 DUP3 ADD SWAP1 POP SWAP2 SWAP1 POP JUMP JUMPDEST PUSH0 PUSH1 0x20 DUP3 ADD SWAP1 POP DUP2 DUP2 SUB PUSH0 DUP4 ADD MSTORE PUSH2 0x29A3 DUP2 PUSH2 0x296A JUMP JUMPDEST SWAP1 POP SWAP2 SWAP1 POP JUMP JUMPDEST PUSH0 PUSH1 0x40 DUP3 ADD SWAP1 POP PUSH2 0x29BD PUSH0 DUP4 ADD DUP6 PUSH2 0x23FA JUMP JUMPDEST PUSH2 0x29CA PUSH1 0x20 DUP4 ADD DUP5 PUSH2 0x23D2 JUMP JUMPDEST SWAP4 SWAP3 POP POP POP JUMP JUMPDEST PUSH32 0x46656520746F6F20686967680000000000000000000000000000000000000000 PUSH0 DUP3 ADD MSTORE POP JUMP JUMPDEST PUSH0 PUSH2 0x2A05 PUSH1 0xC DUP4 PUSH2 0x25B0 JUMP JUMPDEST SWAP2 POP PUSH2 0x2A10 DUP3 PUSH2 0x29D1 JUMP JUMPDEST PUSH1 0x20 DUP3 ADD SWAP1 POP SWAP2 SWAP1 POP JUMP JUMPDEST PUSH0 PUSH1 0x20 DUP3 ADD SWAP1 POP DUP2 DUP2 SUB PUSH0 DUP4 ADD MSTORE PUSH2 0x2A32 DUP2 PUSH2 0x29F9 JUMP JUMPDEST SWAP1 POP SWAP2 SWAP1 POP JUMP JUMPDEST PUSH32 0x4C656E646572206E6F7420726567697374657265640000000000000000000000 PUSH0 DUP3 ADD MSTORE POP JUMP JUMPDEST PUSH0 PUSH2 0x2A6D PUSH1 0x15 DUP4 PUSH2 0x25B0 JUMP JUMPDEST SWAP2 POP PUSH2 0x2A78 DUP3 PUSH2 0x2A39 JUMP JUMPDEST PUSH1 0x20 DUP3 ADD SWAP1 POP SWAP2 SWAP1 POP JUMP JUMPDEST PUSH0 PUSH1 0x20 DUP3 ADD SWAP1 POP DUP2 DUP2 SUB PUSH0 DUP4 ADD MSTORE PUSH2 0x2A9A DUP2 PUSH2 0x2A61 JUMP JUMPDEST SWAP1 POP SWAP2 SWAP1 POP JUMP JUMPDEST PUSH32 0x426F72726F776572206E6F742072656769737465726564000000000000000000 PUSH0 DUP3 ADD MSTORE POP JUMP JUMPDEST PUSH0 PUSH2 0x2AD5 PUSH1 0x17 DUP4 PUSH2 0x25B0 JUMP JUMPDEST SWAP2 POP PUSH2 0x2AE0 DUP3 PUSH2 0x2AA1 JUMP JUMPDEST PUSH1 0x20 DUP3 ADD SWAP1 POP SWAP2 SWAP1 POP JUMP JUMPDEST PUSH0 PUSH1 0x20 DUP3 ADD SWAP1 POP DUP2 DUP2 SUB PUSH0 DUP4 ADD MSTORE PUSH2 0x2B02 DUP2 PUSH2 0x2AC9 JUMP JUMPDEST SWAP1 POP SWAP2 SWAP1 POP JUMP JUMPDEST PUSH0 DUP2 MLOAD SWAP1 POP PUSH2 0x2B17 DUP2 PUSH2 0x2190 JUMP JUMPDEST SWAP3 SWAP2 POP POP JUMP JUMPDEST PUSH0 PUSH1 0x20 DUP3 DUP5 SUB SLT ISZERO PUSH2 0x2B32 JUMPI PUSH2 0x2B31 PUSH2 0x20CB JUMP JUMPDEST JUMPDEST PUSH0 PUSH2 0x2B3F DUP5 DUP3 DUP6 ADD PUSH2 0x2B09 JUMP JUMPDEST SWAP2 POP POP SWAP3 SWAP2 POP POP JUMP JUMPDEST PUSH32 0x496E73756666696369656E742062616C616E6365000000000000000000000000 PUSH0 DUP3 ADD MSTORE POP JUMP JUMPDEST PUSH0 PUSH2 0x2B7C PUSH1 0x14 DUP4 PUSH2 0x25B0 JUMP JUMPDEST SWAP2 POP PUSH2 0x2B87 DUP3 PUSH2 0x2B48 JUMP JUMPDEST PUSH1 0x20 DUP3 ADD SWAP1 POP SWAP2 SWAP1 POP JUMP JUMPDEST PUSH0 PUSH1 0x20 DUP3 ADD SWAP1 POP DUP2 DUP2 SUB PUSH0 DUP4 ADD MSTORE PUSH2 0x2BA9 DUP2 PUSH2 0x2B70 JUMP JUMPDEST SWAP1 POP SWAP2 SWAP1 POP JUMP JUMPDEST PUSH0 PUSH2 0x2BBA DUP3 PUSH2 0x2187 JUMP JUMPDEST SWAP2 POP PUSH32 0xFFFFFFFFFFFFFFFFFFFFFFFFFFFFFFFFFFFFFFFFFFFFFFFFFFFFFFFFFFFFFFFF DUP3 SUB PUSH2 0x2BEC JUMPI PUSH2 0x2BEB PUSH2 0x2690 JUMP JUMPDEST JUMPDEST PUSH1 0x1 DUP3 ADD SWAP1 POP SWAP2 SWAP1 POP JUMP JUMPDEST POP JUMP JUMPDEST PUSH0 PUSH2 0x2C05 PUSH0 DUP4 PUSH2 0x25B0 JUMP JUMPDEST SWAP2 POP PUSH2 0x2C10 DUP3 PUSH2 0x2BF7 JUMP JUMPDEST PUSH0 DUP3 ADD SWAP1 POP SWAP2 SWAP1 POP JUMP JUMPDEST PUSH0 PUSH1 0x60 DUP3 ADD SWAP1 POP PUSH2 0x2C2D PUSH0 DUP4 ADD DUP6 PUSH2 0x23FA JUMP JUMPDEST PUSH2 0x2C3A PUSH1 0x20 DUP4 ADD DUP5 PUSH2 0x23D2 JUMP JUMPDEST DUP2 DUP2 SUB PUSH1 0x40 DUP4 ADD MSTORE PUSH2 0x2C4B DUP2 PUSH2 0x2BFA JUMP JUMPDEST SWAP1 POP SWAP4 SWAP3 POP POP POP JUMP JUMPDEST PUSH0 PUSH1 0x80 DUP3 ADD SWAP1 POP PUSH2 0x2C67 PUSH0 DUP4 ADD DUP8 PUSH2 0x23D2 JUMP JUMPDEST PUSH2 0x2C74 PUSH1 0x20 DUP4 ADD DUP7 PUSH2 0x23FA JUMP JUMPDEST PUSH2 0x2C81 PUSH1 0x40 DUP4 ADD DUP6 PUSH2 0x23FA JUMP JUMPDEST PUSH2 0x2C8E PUSH1 0x60 DUP4 ADD DUP5 PUSH2 0x23D2 JUMP JUMPDEST SWAP6 SWAP5 POP POP POP POP POP JUMP JUMPDEST PUSH32 0x416C6C2070616964000000000000000000000000000000000000000000000000 PUSH0 DUP3 ADD MSTORE POP JUMP JUMPDEST PUSH0 PUSH2 0x2CCB PUSH1 0x8 DUP4 PUSH2 0x25B0 JUMP JUMPDEST SWAP2 POP PUSH2 0x2CD6 DUP3 PUSH2 0x2C97 JUMP JUMPDEST PUSH1 0x20 DUP3 ADD SWAP1 POP SWAP2 SWAP1 POP JUMP JUMPDEST PUSH0 PUSH1 0x20 DUP3 ADD SWAP1 POP DUP2 DUP2 SUB PUSH0 DUP4 ADD MSTORE PUSH2 0x2CF8 DUP2 PUSH2 0x2CBF JUMP JUMPDEST SWAP1 POP SWAP2 SWAP1 POP JUMP JUMPDEST PUSH32 0x5265656E7472616E637947756172643A207265656E7472616E742063616C6C00 PUSH0 DUP3 ADD MSTORE POP JUMP JUMPDEST PUSH0 PUSH2 0x2D33 PUSH1 0x1F DUP4 PUSH2 0x25B0 JUMP JUMPDEST SWAP2 POP PUSH2 0x2D3E DUP3 PUSH2 0x2CFF JUMP JUMPDEST PUSH1 0x20 DUP3 ADD SWAP1 POP SWAP2 SWAP1 POP JUMP JUMPDEST PUSH0 PUSH1 0x20 DUP3 ADD SWAP1 POP DUP2 DUP2 SUB PUSH0 DUP4 ADD MSTORE PUSH2 0x2D60 DUP2 PUSH2 0x2D27 JUMP JUMPDEST SWAP1 POP SWAP2 SWAP1 POP JUMP INVALID LOG2 PUSH5 0x6970667358 0x22 SLT KECCAK256 PUSH21 0x7E51E289B5F5B6FD1EBE1926E75BEC46D6FFA8AE7D CALLCODE 0xBE CALLCODE 0xA5 PUSH9 0x996FF0243164736F6C PUSH4 0x4300081E STOP CALLER "
				},
				"gasEstimates": {
					"creation": {
						"codeDepositCost": "2335400",
						"executionCost": "infinite",
						"totalCost": "infinite"
					},
					"external": {
						"addStablecoin(address)": "infinite",
						"borrowers(address)": "2878",
						"createLoan(address,address,address,uint256,uint256,uint256,uint256)": "infinite",
						"deposit(address,uint256)": "infinite",
						"emergencyWithdraw(address,uint256)": "infinite",
						"fee()": "2492",
						"getBalance(address)": "infinite",
						"getLoan(uint256)": "infinite",
						"isBorrower(address)": "2937",
						"isLender(address)": "2893",
						"lenders(address)": "2879",
						"loanNFT()": "infinite",
						"loans(uint256)": "infinite",
						"nextLoanId()": "2514",
						"numusToken()": "infinite",
						"owner()": "2626",
						"payEarly(uint256)": "infinite",
						"payInstallment(uint256)": "infinite",
						"registerBorrower()": "25776",
						"registerLender()": "25798",
						"renounceOwnership()": "infinite",
						"stablecoins(address)": "2921",
						"transferOwnership(address)": "infinite",
						"updateFee(uint256)": "infinite",
						"withdraw(address,uint256)": "infinite"
					},
					"internal": {
						"_completeLoan(uint256)": "infinite"
					}
				},
				"methodIdentifiers": {
					"addStablecoin(address)": "0418945a",
					"borrowers(address)": "bf5d50c4",
					"createLoan(address,address,address,uint256,uint256,uint256,uint256)": "e04640d2",
					"deposit(address,uint256)": "47e7ef24",
					"emergencyWithdraw(address,uint256)": "95ccea67",
					"fee()": "ddca3f43",
					"getBalance(address)": "f8b2cb4f",
					"getLoan(uint256)": "504006ca",
					"isBorrower(address)": "eaf6e483",
					"isLender(address)": "709b8961",
					"lenders(address)": "28fd10d7",
					"loanNFT()": "34a41177",
					"loans(uint256)": "e1ec3c68",
					"nextLoanId()": "87c51459",
					"numusToken()": "fbfd9a77",
					"owner()": "8da5cb5b",
					"payEarly(uint256)": "2cf340af",
					"payInstallment(uint256)": "e2f8a017",
					"registerBorrower()": "e831878d",
					"registerLender()": "7df21f7a",
					"renounceOwnership()": "715018a6",
					"stablecoins(address)": "fa847836",
					"transferOwnership(address)": "f2fde38b",
					"updateFee(uint256)": "9012c4a8",
					"withdraw(address,uint256)": "f3fef3a3"
				}
			},
			"storageLayout": {
				"storage": [
					{
						"astId": 158,
						"contract": "NummoraCore.sol:NummoraCore",
						"label": "_status",
						"offset": 0,
						"slot": "0",
						"type": "t_uint256"
					},
					{
						"astId": 8,
						"contract": "NummoraCore.sol:NummoraCore",
						"label": "_owner",
						"offset": 0,
						"slot": "1",
						"type": "t_address"
					},
					{
						"astId": 398,
						"contract": "NummoraCore.sol:NummoraCore",
						"label": "numusToken",
						"offset": 0,
						"slot": "2",
						"type": "t_contract(INUMUSToken)356"
					},
					{
						"astId": 401,
						"contract": "NummoraCore.sol:NummoraCore",
						"label": "loanNFT",
						"offset": 0,
						"slot": "3",
						"type": "t_contract(ILoanNFT)366"
					},
					{
						"astId": 406,
						"contract": "NummoraCore.sol:NummoraCore",
						"label": "loans",
						"offset": 0,
						"slot": "4",
						"type": "t_mapping(t_uint256,t_struct(Loan)395_storage)"
					},
					{
						"astId": 410,
						"contract": "NummoraCore.sol:NummoraCore",
						"label": "lenders",
						"offset": 0,
						"slot": "5",
						"type": "t_mapping(t_address,t_bool)"
					},
					{
						"astId": 414,
						"contract": "NummoraCore.sol:NummoraCore",
						"label": "borrowers",
						"offset": 0,
						"slot": "6",
						"type": "t_mapping(t_address,t_bool)"
					},
					{
						"astId": 418,
						"contract": "NummoraCore.sol:NummoraCore",
						"label": "stablecoins",
						"offset": 0,
						"slot": "7",
						"type": "t_mapping(t_address,t_bool)"
					},
					{
						"astId": 421,
						"contract": "NummoraCore.sol:NummoraCore",
						"label": "nextLoanId",
						"offset": 0,
						"slot": "8",
						"type": "t_uint256"
					},
					{
						"astId": 424,
						"contract": "NummoraCore.sol:NummoraCore",
						"label": "fee",
						"offset": 0,
						"slot": "9",
						"type": "t_uint256"
					}
				],
				"types": {
					"t_address": {
						"encoding": "inplace",
						"label": "address",
						"numberOfBytes": "20"
					},
					"t_bool": {
						"encoding": "inplace",
						"label": "bool",
						"numberOfBytes": "1"
					},
					"t_contract(ILoanNFT)366": {
						"encoding": "inplace",
						"label": "contract ILoanNFT",
						"numberOfBytes": "20"
					},
					"t_contract(INUMUSToken)356": {
						"encoding": "inplace",
						"label": "contract INUMUSToken",
						"numberOfBytes": "20"
					},
					"t_mapping(t_address,t_bool)": {
						"encoding": "mapping",
						"key": "t_address",
						"label": "mapping(address => bool)",
						"numberOfBytes": "32",
						"value": "t_bool"
					},
					"t_mapping(t_uint256,t_struct(Loan)395_storage)": {
						"encoding": "mapping",
						"key": "t_uint256",
						"label": "mapping(uint256 => struct NummoraCore.Loan)",
						"numberOfBytes": "32",
						"value": "t_struct(Loan)395_storage"
					},
					"t_struct(Loan)395_storage": {
						"encoding": "inplace",
						"label": "struct NummoraCore.Loan",
						"members": [
							{
								"astId": 372,
								"contract": "NummoraCore.sol:NummoraCore",
								"label": "lender",
								"offset": 0,
								"slot": "0",
								"type": "t_address"
							},
							{
								"astId": 374,
								"contract": "NummoraCore.sol:NummoraCore",
								"label": "borrower",
								"offset": 0,
								"slot": "1",
								"type": "t_address"
							},
							{
								"astId": 376,
								"contract": "NummoraCore.sol:NummoraCore",
								"label": "stablecoin",
								"offset": 0,
								"slot": "2",
								"type": "t_address"
							},
							{
								"astId": 378,
								"contract": "NummoraCore.sol:NummoraCore",
								"label": "amount",
								"offset": 0,
								"slot": "3",
								"type": "t_uint256"
							},
							{
								"astId": 380,
								"contract": "NummoraCore.sol:NummoraCore",
								"label": "totalToPay",
								"offset": 0,
								"slot": "4",
								"type": "t_uint256"
							},
							{
								"astId": 382,
								"contract": "NummoraCore.sol:NummoraCore",
								"label": "totalPaid",
								"offset": 0,
								"slot": "5",
								"type": "t_uint256"
							},
							{
								"astId": 384,
								"contract": "NummoraCore.sol:NummoraCore",
								"label": "startTime",
								"offset": 0,
								"slot": "6",
								"type": "t_uint256"
							},
							{
								"astId": 386,
								"contract": "NummoraCore.sol:NummoraCore",
								"label": "installments",
								"offset": 0,
								"slot": "7",
								"type": "t_uint256"
							},
							{
								"astId": 388,
								"contract": "NummoraCore.sol:NummoraCore",
								"label": "installmentAmount",
								"offset": 0,
								"slot": "8",
								"type": "t_uint256"
							},
							{
								"astId": 390,
								"contract": "NummoraCore.sol:NummoraCore",
								"label": "installmentsPaid",
								"offset": 0,
								"slot": "9",
								"type": "t_uint256"
							},
							{
								"astId": 392,
								"contract": "NummoraCore.sol:NummoraCore",
								"label": "active",
								"offset": 0,
								"slot": "10",
								"type": "t_bool"
							},
							{
								"astId": 394,
								"contract": "NummoraCore.sol:NummoraCore",
								"label": "platformFee",
								"offset": 0,
								"slot": "11",
								"type": "t_uint256"
							}
						],
						"numberOfBytes": "384"
					},
					"t_uint256": {
						"encoding": "inplace",
						"label": "uint256",
						"numberOfBytes": "32"
					}
				}
			},
			"userdoc": {
				"kind": "user",
				"methods": {},
				"version": 1
			}
		}
	}
}