{
	"NummoraCoreSomnia.sol": {
		"NummoraCore": {
			"abi": [
				{
					"inputs": [
						{
							"internalType": "address",
							"name": "_numus",
							"type": "address"
						},
						{
							"internalType": "address",
							"name": "_nft",
							"type": "address"
						}
					],
					"stateMutability": "nonpayable",
					"type": "constructor"
				},
				{
					"inputs": [
						{
							"internalType": "address",
							"name": "owner",
							"type": "address"
						}
					],
					"name": "OwnableInvalidOwner",
					"type": "error"
				},
				{
					"inputs": [
						{
							"internalType": "address",
							"name": "account",
							"type": "address"
						}
					],
					"name": "OwnableUnauthorizedAccount",
					"type": "error"
				},
				{
					"anonymous": false,
					"inputs": [
						{
							"indexed": false,
							"internalType": "address",
							"name": "borrower",
							"type": "address"
						}
					],
					"name": "BorrowerRegistered",
					"type": "event"
				},
				{
					"anonymous": false,
					"inputs": [
						{
							"indexed": true,
							"internalType": "uint256",
							"name": "loanId",
							"type": "uint256"
						},
						{
							"indexed": false,
							"internalType": "uint256",
							"name": "amount",
							"type": "uint256"
						},
						{
							"indexed": false,
							"internalType": "uint256",
							"name": "daysUsed",
							"type": "uint256"
						}
					],
					"name": "EarlyPaymentMade",
					"type": "event"
				},
				{
					"anonymous": false,
					"inputs": [
						{
							"indexed": false,
							"internalType": "address",
							"name": "lender",
							"type": "address"
						}
					],
					"name": "LenderRegistered",
					"type": "event"
				},
				{
					"anonymous": false,
					"inputs": [
						{
							"indexed": false,
							"internalType": "uint256",
							"name": "loanId",
							"type": "uint256"
						}
					],
					"name": "LoanCompleted",
					"type": "event"
				},
				{
					"anonymous": false,
					"inputs": [
						{
							"indexed": false,
							"internalType": "uint256",
							"name": "loanId",
							"type": "uint256"
						},
						{
							"indexed": false,
							"internalType": "address",
							"name": "lender",
							"type": "address"
						},
						{
							"indexed": false,
							"internalType": "address",
							"name": "borrower",
							"type": "address"
						},
						{
							"indexed": false,
							"internalType": "uint256",
							"name": "amount",
							"type": "uint256"
						}
					],
					"name": "LoanCreated",
					"type": "event"
				},
				{
					"anonymous": false,
					"inputs": [
						{
							"indexed": true,
							"internalType": "address",
							"name": "previousOwner",
							"type": "address"
						},
						{
							"indexed": true,
							"internalType": "address",
							"name": "newOwner",
							"type": "address"
						}
					],
					"name": "OwnershipTransferred",
					"type": "event"
				},
				{
					"anonymous": false,
					"inputs": [
						{
							"indexed": false,
							"internalType": "uint256",
							"name": "loanId",
							"type": "uint256"
						},
						{
							"indexed": false,
							"internalType": "uint256",
							"name": "amount",
							"type": "uint256"
						}
					],
					"name": "PaymentMade",
					"type": "event"
				},
				{
					"inputs": [
						{
							"internalType": "address",
							"name": "",
							"type": "address"
						}
					],
					"name": "borrowers",
					"outputs": [
						{
							"internalType": "bool",
							"name": "",
							"type": "bool"
						}
					],
					"stateMutability": "view",
					"type": "function"
				},
				{
					"inputs": [
						{
							"internalType": "address",
							"name": "lender",
							"type": "address"
						},
						{
							"internalType": "address",
							"name": "borrower",
							"type": "address"
						},
						{
							"internalType": "uint256",
							"name": "amount",
							"type": "uint256"
						},
						{
							"internalType": "uint256",
							"name": "interest",
							"type": "uint256"
						},
						{
							"internalType": "uint256",
							"name": "installments",
							"type": "uint256"
						}
					],
					"name": "createLoan",
					"outputs": [
						{
							"internalType": "uint256",
							"name": "",
							"type": "uint256"
						}
					],
					"stateMutability": "nonpayable",
					"type": "function"
				},
				{
					"inputs": [
						{
							"internalType": "uint256",
							"name": "amount",
							"type": "uint256"
						}
					],
					"name": "deposit",
					"outputs": [],
					"stateMutability": "payable",
					"type": "function"
				},
				{
					"inputs": [
						{
							"internalType": "uint256",
							"name": "amount",
							"type": "uint256"
						}
					],
					"name": "emergencyWithdraw",
					"outputs": [],
					"stateMutability": "nonpayable",
					"type": "function"
				},
				{
					"inputs": [],
					"name": "fee",
					"outputs": [
						{
							"internalType": "uint256",
							"name": "",
							"type": "uint256"
						}
					],
					"stateMutability": "view",
					"type": "function"
				},
				{
					"inputs": [
						{
							"internalType": "address",
							"name": "user",
							"type": "address"
						}
					],
					"name": "getBalance",
					"outputs": [
						{
							"internalType": "uint256",
							"name": "",
							"type": "uint256"
						}
					],
					"stateMutability": "view",
					"type": "function"
				},
				{
					"inputs": [
						{
							"internalType": "uint256",
							"name": "loanId",
							"type": "uint256"
						}
					],
					"name": "getLoan",
					"outputs": [
						{
							"components": [
								{
									"internalType": "address",
									"name": "lender",
									"type": "address"
								},
								{
									"internalType": "address",
									"name": "borrower",
									"type": "address"
								},
								{
									"internalType": "uint256",
									"name": "amount",
									"type": "uint256"
								},
								{
									"internalType": "uint256",
									"name": "totalToPay",
									"type": "uint256"
								},
								{
									"internalType": "uint256",
									"name": "totalPaid",
									"type": "uint256"
								},
								{
									"internalType": "uint256",
									"name": "startTime",
									"type": "uint256"
								},
								{
									"internalType": "uint256",
									"name": "installments",
									"type": "uint256"
								},
								{
									"internalType": "uint256",
									"name": "installmentAmount",
									"type": "uint256"
								},
								{
									"internalType": "uint256",
									"name": "installmentsPaid",
									"type": "uint256"
								},
								{
									"internalType": "bool",
									"name": "active",
									"type": "bool"
								}
							],
							"internalType": "struct NummoraCore.Loan",
							"name": "",
							"type": "tuple"
						}
					],
					"stateMutability": "view",
					"type": "function"
				},
				{
					"inputs": [
						{
							"internalType": "address",
							"name": "user",
							"type": "address"
						}
					],
					"name": "isBorrower",
					"outputs": [
						{
							"internalType": "bool",
							"name": "",
							"type": "bool"
						}
					],
					"stateMutability": "view",
					"type": "function"
				},
				{
					"inputs": [
						{
							"internalType": "address",
							"name": "user",
							"type": "address"
						}
					],
					"name": "isLender",
					"outputs": [
						{
							"internalType": "bool",
							"name": "",
							"type": "bool"
						}
					],
					"stateMutability": "view",
					"type": "function"
				},
				{
					"inputs": [
						{
							"internalType": "address",
							"name": "",
							"type": "address"
						}
					],
					"name": "lenders",
					"outputs": [
						{
							"internalType": "bool",
							"name": "",
							"type": "bool"
						}
					],
					"stateMutability": "view",
					"type": "function"
				},
				{
					"inputs": [],
					"name": "loanNFT",
					"outputs": [
						{
							"internalType": "contract ILoanNFT",
							"name": "",
							"type": "address"
						}
					],
					"stateMutability": "view",
					"type": "function"
				},
				{
					"inputs": [
						{
							"internalType": "uint256",
							"name": "",
							"type": "uint256"
						}
					],
					"name": "loans",
					"outputs": [
						{
							"internalType": "address",
							"name": "lender",
							"type": "address"
						},
						{
							"internalType": "address",
							"name": "borrower",
							"type": "address"
						},
						{
							"internalType": "uint256",
							"name": "amount",
							"type": "uint256"
						},
						{
							"internalType": "uint256",
							"name": "totalToPay",
							"type": "uint256"
						},
						{
							"internalType": "uint256",
							"name": "totalPaid",
							"type": "uint256"
						},
						{
							"internalType": "uint256",
							"name": "startTime",
							"type": "uint256"
						},
						{
							"internalType": "uint256",
							"name": "installments",
							"type": "uint256"
						},
						{
							"internalType": "uint256",
							"name": "installmentAmount",
							"type": "uint256"
						},
						{
							"internalType": "uint256",
							"name": "installmentsPaid",
							"type": "uint256"
						},
						{
							"internalType": "bool",
							"name": "active",
							"type": "bool"
						}
					],
					"stateMutability": "view",
					"type": "function"
				},
				{
					"inputs": [],
					"name": "nextLoanId",
					"outputs": [
						{
							"internalType": "uint256",
							"name": "",
							"type": "uint256"
						}
					],
					"stateMutability": "view",
					"type": "function"
				},
				{
					"inputs": [],
					"name": "numusToken",
					"outputs": [
						{
							"internalType": "contract INUMUSToken",
							"name": "",
							"type": "address"
						}
					],
					"stateMutability": "view",
					"type": "function"
				},
				{
					"inputs": [],
					"name": "owner",
					"outputs": [
						{
							"internalType": "address",
							"name": "",
							"type": "address"
						}
					],
					"stateMutability": "view",
					"type": "function"
				},
				{
					"inputs": [
						{
							"internalType": "uint256",
							"name": "loanId",
							"type": "uint256"
						}
					],
					"name": "payEarly",
					"outputs": [],
					"stateMutability": "payable",
					"type": "function"
				},
				{
					"inputs": [
						{
							"internalType": "uint256",
							"name": "loanId",
							"type": "uint256"
						}
					],
					"name": "payInstallment",
					"outputs": [],
					"stateMutability": "payable",
					"type": "function"
				},
				{
					"inputs": [],
					"name": "registerBorrower",
					"outputs": [],
					"stateMutability": "nonpayable",
					"type": "function"
				},
				{
					"inputs": [],
					"name": "registerLender",
					"outputs": [],
					"stateMutability": "nonpayable",
					"type": "function"
				},
				{
					"inputs": [],
					"name": "renounceOwnership",
					"outputs": [],
					"stateMutability": "nonpayable",
					"type": "function"
				},
				{
					"inputs": [
						{
							"internalType": "address",
							"name": "newOwner",
							"type": "address"
						}
					],
					"name": "transferOwnership",
					"outputs": [],
					"stateMutability": "nonpayable",
					"type": "function"
				},
				{
					"inputs": [
						{
							"internalType": "uint256",
							"name": "newFee",
							"type": "uint256"
						}
					],
					"name": "updateFee",
					"outputs": [],
					"stateMutability": "nonpayable",
					"type": "function"
				},
				{
					"inputs": [
						{
							"internalType": "uint256",
							"name": "amount",
							"type": "uint256"
						}
					],
					"name": "withdraw",
					"outputs": [],
					"stateMutability": "nonpayable",
					"type": "function"
				},
				{
					"stateMutability": "payable",
					"type": "receive"
				}
			],
			"devdoc": {
				"errors": {
					"OwnableInvalidOwner(address)": [
						{
							"details": "The owner is not a valid owner account. (eg. `address(0)`)"
						}
					],
					"OwnableUnauthorizedAccount(address)": [
						{
							"details": "The caller account is not authorized to perform an operation."
						}
					]
				},
				"kind": "dev",
				"methods": {
					"owner()": {
						"details": "Returns the address of the current owner."
					},
					"renounceOwnership()": {
						"details": "Leaves the contract without owner. It will not be possible to call `onlyOwner` functions. Can only be called by the current owner. NOTE: Renouncing ownership will leave the contract without an owner, thereby disabling any functionality that is only available to the owner."
					},
					"transferOwnership(address)": {
						"details": "Transfers ownership of the contract to a new account (`newOwner`). Can only be called by the current owner."
					}
				},
				"version": 1
			},
			"evm": {
				"assembly": "    /* \"NummoraCoreSomnia.sol\":505:7518  contract NummoraCore is ReentrancyGuard, Ownable {... */\n  mstore(0x40, 0x80)\n    /* \"NummoraCoreSomnia.sol\":1130:1131  1 */\n  0x01\n    /* \"NummoraCoreSomnia.sol\":1102:1131  uint256 public nextLoanId = 1 */\n  0x07\n  sstore\n    /* \"NummoraCoreSomnia.sol\":1159:1162  200 */\n  0xc8\n    /* \"NummoraCoreSomnia.sol\":1138:1162  uint256 public fee = 200 */\n  0x08\n  sstore\n    /* \"NummoraCoreSomnia.sol\":1596:1744  constructor(address _numus, address _nft) Ownable(msg.sender) {... */\n  callvalue\n  dup1\n  iszero\n  tag_1\n  jumpi\n  revert(0x00, 0x00)\ntag_1:\n  pop\n  mload(0x40)\n  sub(codesize, bytecodeSize)\n  dup1\n  bytecodeSize\n  dup4\n  codecopy\n  dup2\n  dup2\n  add\n  0x40\n  mstore\n  dup2\n  add\n  swap1\n  tag_2\n  swap2\n  swap1\n  tag_3\n  jump\t// in\ntag_2:\n    /* \"NummoraCoreSomnia.sol\":1646:1656  msg.sender */\n  caller\n    /* \"@openzeppelin/contracts/security/ReentrancyGuard.sol\":1716:1717  1 */\n  0x01\n    /* \"@openzeppelin/contracts/security/ReentrancyGuard.sol\":1821:1828  _status */\n  0x00\n    /* \"@openzeppelin/contracts/security/ReentrancyGuard.sol\":1821:1843  _status = _NOT_ENTERED */\n  dup2\n  swap1\n  sstore\n  pop\n    /* \"@openzeppelin/contracts/access/Ownable.sol\":1297:1298  0 */\n  0x00\n    /* \"@openzeppelin/contracts/access/Ownable.sol\":1273:1299  initialOwner == address(0) */\n  0xffffffffffffffffffffffffffffffffffffffff\n  and\n    /* \"@openzeppelin/contracts/access/Ownable.sol\":1273:1285  initialOwner */\n  dup2\n    /* \"@openzeppelin/contracts/access/Ownable.sol\":1273:1299  initialOwner == address(0) */\n  0xffffffffffffffffffffffffffffffffffffffff\n  and\n  sub\n    /* \"@openzeppelin/contracts/access/Ownable.sol\":1269:1364  if (initialOwner == address(0)) {... */\n  tag_9\n  jumpi\n    /* \"@openzeppelin/contracts/access/Ownable.sol\":1350:1351  0 */\n  0x00\n    /* \"@openzeppelin/contracts/access/Ownable.sol\":1322:1353  OwnableInvalidOwner(address(0)) */\n  mload(0x40)\n  0x1e4fbdf700000000000000000000000000000000000000000000000000000000\n  dup2\n  mstore\n  0x04\n  add\n  tag_10\n  swap2\n  swap1\n  tag_11\n  jump\t// in\ntag_10:\n  mload(0x40)\n  dup1\n  swap2\n  sub\n  swap1\n  revert\n    /* \"@openzeppelin/contracts/access/Ownable.sol\":1269:1364  if (initialOwner == address(0)) {... */\ntag_9:\n    /* \"@openzeppelin/contracts/access/Ownable.sol\":1373:1405  _transferOwnership(initialOwner) */\n  tag_12\n    /* \"@openzeppelin/contracts/access/Ownable.sol\":1392:1404  initialOwner */\n  dup2\n    /* \"@openzeppelin/contracts/access/Ownable.sol\":1373:1391  _transferOwnership */\n  shl(0x20, tag_13)\n    /* \"@openzeppelin/contracts/access/Ownable.sol\":1373:1405  _transferOwnership(initialOwner) */\n  0x20\n  shr\n  jump\t// in\ntag_12:\n    /* \"@openzeppelin/contracts/access/Ownable.sol\":1225:1412  constructor(address initialOwner) {... */\n  pop\n    /* \"NummoraCoreSomnia.sol\":1694:1700  _numus */\n  dup2\n    /* \"NummoraCoreSomnia.sol\":1669:1679  numusToken */\n  0x02\n  0x00\n    /* \"NummoraCoreSomnia.sol\":1669:1701  numusToken = INUMUSToken(_numus) */\n  0x0100\n  exp\n  dup2\n  sload\n  dup2\n  0xffffffffffffffffffffffffffffffffffffffff\n  mul\n  not\n  and\n  swap1\n  dup4\n  0xffffffffffffffffffffffffffffffffffffffff\n  and\n  mul\n  or\n  swap1\n  sstore\n  pop\n    /* \"NummoraCoreSomnia.sol\":1731:1735  _nft */\n  dup1\n    /* \"NummoraCoreSomnia.sol\":1712:1719  loanNFT */\n  0x03\n  0x00\n    /* \"NummoraCoreSomnia.sol\":1712:1736  loanNFT = ILoanNFT(_nft) */\n  0x0100\n  exp\n  dup2\n  sload\n  dup2\n  0xffffffffffffffffffffffffffffffffffffffff\n  mul\n  not\n  and\n  swap1\n  dup4\n  0xffffffffffffffffffffffffffffffffffffffff\n  and\n  mul\n  or\n  swap1\n  sstore\n  pop\n    /* \"NummoraCoreSomnia.sol\":1596:1744  constructor(address _numus, address _nft) Ownable(msg.sender) {... */\n  pop\n  pop\n    /* \"NummoraCoreSomnia.sol\":505:7518  contract NummoraCore is ReentrancyGuard, Ownable {... */\n  jump(tag_15)\n    /* \"@openzeppelin/contracts/access/Ownable.sol\":2912:3099  function _transferOwnership(address newOwner) internal virtual {... */\ntag_13:\n    /* \"@openzeppelin/contracts/access/Ownable.sol\":2985:3001  address oldOwner */\n  0x00\n    /* \"@openzeppelin/contracts/access/Ownable.sol\":3004:3010  _owner */\n  0x01\n  0x00\n  swap1\n  sload\n  swap1\n  0x0100\n  exp\n  swap1\n  div\n  0xffffffffffffffffffffffffffffffffffffffff\n  and\n    /* \"@openzeppelin/contracts/access/Ownable.sol\":2985:3010  address oldOwner = _owner */\n  swap1\n  pop\n    /* \"@openzeppelin/contracts/access/Ownable.sol\":3029:3037  newOwner */\n  dup2\n    /* \"@openzeppelin/contracts/access/Ownable.sol\":3020:3026  _owner */\n  0x01\n  0x00\n    /* \"@openzeppelin/contracts/access/Ownable.sol\":3020:3037  _owner = newOwner */\n  0x0100\n  exp\n  dup2\n  sload\n  dup2\n  0xffffffffffffffffffffffffffffffffffffffff\n  mul\n  not\n  and\n  swap1\n  dup4\n  0xffffffffffffffffffffffffffffffffffffffff\n  and\n  mul\n  or\n  swap1\n  sstore\n  pop\n    /* \"@openzeppelin/contracts/access/Ownable.sol\":3083:3091  newOwner */\n  dup2\n    /* \"@openzeppelin/contracts/access/Ownable.sol\":3052:3092  OwnershipTransferred(oldOwner, newOwner) */\n  0xffffffffffffffffffffffffffffffffffffffff\n  and\n    /* \"@openzeppelin/contracts/access/Ownable.sol\":3073:3081  oldOwner */\n  dup2\n    /* \"@openzeppelin/contracts/access/Ownable.sol\":3052:3092  OwnershipTransferred(oldOwner, newOwner) */\n  0xffffffffffffffffffffffffffffffffffffffff\n  and\n  0x8be0079c531659141344cd1fd0a4f28419497f9722a3daafe3b4186f6b6457e0\n  mload(0x40)\n  mload(0x40)\n  dup1\n  swap2\n  sub\n  swap1\n  log3\n    /* \"@openzeppelin/contracts/access/Ownable.sol\":2975:3099  {... */\n  pop\n    /* \"@openzeppelin/contracts/access/Ownable.sol\":2912:3099  function _transferOwnership(address newOwner) internal virtual {... */\n  pop\n  jump\t// out\n    /* \"#utility.yul\":88:205   */\ntag_18:\n    /* \"#utility.yul\":197:198   */\n  0x00\n    /* \"#utility.yul\":194:195   */\n  0x00\n    /* \"#utility.yul\":187:199   */\n  revert\n    /* \"#utility.yul\":334:460   */\ntag_20:\n    /* \"#utility.yul\":371:378   */\n  0x00\n    /* \"#utility.yul\":411:453   */\n  0xffffffffffffffffffffffffffffffffffffffff\n    /* \"#utility.yul\":404:409   */\n  dup3\n    /* \"#utility.yul\":400:454   */\n  and\n    /* \"#utility.yul\":389:454   */\n  swap1\n  pop\n    /* \"#utility.yul\":334:460   */\n  swap2\n  swap1\n  pop\n  jump\t// out\n    /* \"#utility.yul\":466:562   */\ntag_21:\n    /* \"#utility.yul\":503:510   */\n  0x00\n    /* \"#utility.yul\":532:556   */\n  tag_31\n    /* \"#utility.yul\":550:555   */\n  dup3\n    /* \"#utility.yul\":532:556   */\n  tag_20\n  jump\t// in\ntag_31:\n    /* \"#utility.yul\":521:556   */\n  swap1\n  pop\n    /* \"#utility.yul\":466:562   */\n  swap2\n  swap1\n  pop\n  jump\t// out\n    /* \"#utility.yul\":568:690   */\ntag_22:\n    /* \"#utility.yul\":641:665   */\n  tag_33\n    /* \"#utility.yul\":659:664   */\n  dup2\n    /* \"#utility.yul\":641:665   */\n  tag_21\n  jump\t// in\ntag_33:\n    /* \"#utility.yul\":634:639   */\n  dup2\n    /* \"#utility.yul\":631:666   */\n  eq\n    /* \"#utility.yul\":621:684   */\n  tag_34\n  jumpi\n    /* \"#utility.yul\":680:681   */\n  0x00\n    /* \"#utility.yul\":677:678   */\n  0x00\n    /* \"#utility.yul\":670:682   */\n  revert\n    /* \"#utility.yul\":621:684   */\ntag_34:\n    /* \"#utility.yul\":568:690   */\n  pop\n  jump\t// out\n    /* \"#utility.yul\":696:839   */\ntag_23:\n    /* \"#utility.yul\":753:758   */\n  0x00\n    /* \"#utility.yul\":784:790   */\n  dup2\n    /* \"#utility.yul\":778:791   */\n  mload\n    /* \"#utility.yul\":769:791   */\n  swap1\n  pop\n    /* \"#utility.yul\":800:833   */\n  tag_36\n    /* \"#utility.yul\":827:832   */\n  dup2\n    /* \"#utility.yul\":800:833   */\n  tag_22\n  jump\t// in\ntag_36:\n    /* \"#utility.yul\":696:839   */\n  swap3\n  swap2\n  pop\n  pop\n  jump\t// out\n    /* \"#utility.yul\":845:1352   */\ntag_3:\n    /* \"#utility.yul\":924:930   */\n  0x00\n    /* \"#utility.yul\":932:938   */\n  0x00\n    /* \"#utility.yul\":981:983   */\n  0x40\n    /* \"#utility.yul\":969:978   */\n  dup4\n    /* \"#utility.yul\":960:967   */\n  dup6\n    /* \"#utility.yul\":956:979   */\n  sub\n    /* \"#utility.yul\":952:984   */\n  slt\n    /* \"#utility.yul\":949:1068   */\n  iszero\n  tag_38\n  jumpi\n    /* \"#utility.yul\":987:1066   */\n  tag_39\n  tag_18\n  jump\t// in\ntag_39:\n    /* \"#utility.yul\":949:1068   */\ntag_38:\n    /* \"#utility.yul\":1107:1108   */\n  0x00\n    /* \"#utility.yul\":1132:1196   */\n  tag_40\n    /* \"#utility.yul\":1188:1195   */\n  dup6\n    /* \"#utility.yul\":1179:1185   */\n  dup3\n    /* \"#utility.yul\":1168:1177   */\n  dup7\n    /* \"#utility.yul\":1164:1186   */\n  add\n    /* \"#utility.yul\":1132:1196   */\n  tag_23\n  jump\t// in\ntag_40:\n    /* \"#utility.yul\":1122:1196   */\n  swap3\n  pop\n    /* \"#utility.yul\":1078:1206   */\n  pop\n    /* \"#utility.yul\":1245:1247   */\n  0x20\n    /* \"#utility.yul\":1271:1335   */\n  tag_41\n    /* \"#utility.yul\":1327:1334   */\n  dup6\n    /* \"#utility.yul\":1318:1324   */\n  dup3\n    /* \"#utility.yul\":1307:1316   */\n  dup7\n    /* \"#utility.yul\":1303:1325   */\n  add\n    /* \"#utility.yul\":1271:1335   */\n  tag_23\n  jump\t// in\ntag_41:\n    /* \"#utility.yul\":1261:1335   */\n  swap2\n  pop\n    /* \"#utility.yul\":1216:1345   */\n  pop\n    /* \"#utility.yul\":845:1352   */\n  swap3\n  pop\n  swap3\n  swap1\n  pop\n  jump\t// out\n    /* \"#utility.yul\":1358:1476   */\ntag_24:\n    /* \"#utility.yul\":1445:1469   */\n  tag_43\n    /* \"#utility.yul\":1463:1468   */\n  dup2\n    /* \"#utility.yul\":1445:1469   */\n  tag_21\n  jump\t// in\ntag_43:\n    /* \"#utility.yul\":1440:1443   */\n  dup3\n    /* \"#utility.yul\":1433:1470   */\n  mstore\n    /* \"#utility.yul\":1358:1476   */\n  pop\n  pop\n  jump\t// out\n    /* \"#utility.yul\":1482:1704   */\ntag_11:\n    /* \"#utility.yul\":1575:1579   */\n  0x00\n    /* \"#utility.yul\":1613:1615   */\n  0x20\n    /* \"#utility.yul\":1602:1611   */\n  dup3\n    /* \"#utility.yul\":1598:1616   */\n  add\n    /* \"#utility.yul\":1590:1616   */\n  swap1\n  pop\n    /* \"#utility.yul\":1626:1697   */\n  tag_45\n    /* \"#utility.yul\":1694:1695   */\n  0x00\n    /* \"#utility.yul\":1683:1692   */\n  dup4\n    /* \"#utility.yul\":1679:1696   */\n  add\n    /* \"#utility.yul\":1670:1676   */\n  dup5\n    /* \"#utility.yul\":1626:1697   */\n  tag_24\n  jump\t// in\ntag_45:\n    /* \"#utility.yul\":1482:1704   */\n  swap3\n  swap2\n  pop\n  pop\n  jump\t// out\n    /* \"NummoraCoreSomnia.sol\":505:7518  contract NummoraCore is ReentrancyGuard, Ownable {... */\ntag_15:\n  dataSize(sub_0)\n  dup1\n  dataOffset(sub_0)\n  0x00\n  codecopy\n  0x00\n  return\nstop\n\nsub_0: assembly {\n        /* \"NummoraCoreSomnia.sol\":505:7518  contract NummoraCore is ReentrancyGuard, Ownable {... */\n      mstore(0x40, 0x80)\n      jumpi(tag_1, lt(calldatasize, 0x04))\n      shr(0xe0, calldataload(0x00))\n      dup1\n      0x9012c4a8\n      gt\n      tag_26\n      jumpi\n      dup1\n      0xe3d7b24d\n      gt\n      tag_27\n      jumpi\n      dup1\n      0xe3d7b24d\n      eq\n      tag_20\n      jumpi\n      dup1\n      0xe831878d\n      eq\n      tag_21\n      jumpi\n      dup1\n      0xeaf6e483\n      eq\n      tag_22\n      jumpi\n      dup1\n      0xf2fde38b\n      eq\n      tag_23\n      jumpi\n      dup1\n      0xf8b2cb4f\n      eq\n      tag_24\n      jumpi\n      dup1\n      0xfbfd9a77\n      eq\n      tag_25\n      jumpi\n      jump(tag_2)\n    tag_27:\n      dup1\n      0x9012c4a8\n      eq\n      tag_14\n      jumpi\n      dup1\n      0xb6b55f25\n      eq\n      tag_15\n      jumpi\n      dup1\n      0xbf5d50c4\n      eq\n      tag_16\n      jumpi\n      dup1\n      0xddca3f43\n      eq\n      tag_17\n      jumpi\n      dup1\n      0xe1ec3c68\n      eq\n      tag_18\n      jumpi\n      dup1\n      0xe2f8a017\n      eq\n      tag_19\n      jumpi\n      jump(tag_2)\n    tag_26:\n      dup1\n      0x5312ea8e\n      gt\n      tag_28\n      jumpi\n      dup1\n      0x5312ea8e\n      eq\n      tag_8\n      jumpi\n      dup1\n      0x709b8961\n      eq\n      tag_9\n      jumpi\n      dup1\n      0x715018a6\n      eq\n      tag_10\n      jumpi\n      dup1\n      0x7df21f7a\n      eq\n      tag_11\n      jumpi\n      dup1\n      0x87c51459\n      eq\n      tag_12\n      jumpi\n      dup1\n      0x8da5cb5b\n      eq\n      tag_13\n      jumpi\n      jump(tag_2)\n    tag_28:\n      dup1\n      0x28fd10d7\n      eq\n      tag_3\n      jumpi\n      dup1\n      0x2cf340af\n      eq\n      tag_4\n      jumpi\n      dup1\n      0x2e1a7d4d\n      eq\n      tag_5\n      jumpi\n      dup1\n      0x34a41177\n      eq\n      tag_6\n      jumpi\n      dup1\n      0x504006ca\n      eq\n      tag_7\n      jumpi\n      jump(tag_2)\n    tag_1:\n      jumpi(tag_2, calldatasize)\n      stop\n    tag_2:\n      revert(0x00, 0x00)\n        /* \"NummoraCoreSomnia.sol\":1006:1045  mapping(address => bool) public lenders */\n    tag_3:\n      callvalue\n      dup1\n      iszero\n      tag_31\n      jumpi\n      revert(0x00, 0x00)\n    tag_31:\n      pop\n      tag_32\n      0x04\n      dup1\n      calldatasize\n      sub\n      dup2\n      add\n      swap1\n      tag_33\n      swap2\n      swap1\n      tag_34\n      jump\t// in\n    tag_33:\n      tag_35\n      jump\t// in\n    tag_32:\n      mload(0x40)\n      tag_36\n      swap2\n      swap1\n      tag_37\n      jump\t// in\n    tag_36:\n      mload(0x40)\n      dup1\n      swap2\n      sub\n      swap1\n      return\n        /* \"NummoraCoreSomnia.sol\":4936:6073  function payEarly(uint256 loanId) external payable nonReentrant {... */\n    tag_4:\n      tag_38\n      0x04\n      dup1\n      calldatasize\n      sub\n      dup2\n      add\n      swap1\n      tag_39\n      swap2\n      swap1\n      tag_40\n      jump\t// in\n    tag_39:\n      tag_41\n      jump\t// in\n    tag_38:\n      stop\n        /* \"NummoraCoreSomnia.sol\":2405:2763  function withdraw(uint256 amount) external nonReentrant {... */\n    tag_5:\n      callvalue\n      dup1\n      iszero\n      tag_42\n      jumpi\n      revert(0x00, 0x00)\n    tag_42:\n      pop\n      tag_43\n      0x04\n      dup1\n      calldatasize\n      sub\n      dup2\n      add\n      swap1\n      tag_44\n      swap2\n      swap1\n      tag_40\n      jump\t// in\n    tag_44:\n      tag_45\n      jump\t// in\n    tag_43:\n      stop\n        /* \"NummoraCoreSomnia.sol\":930:953  ILoanNFT public loanNFT */\n    tag_6:\n      callvalue\n      dup1\n      iszero\n      tag_46\n      jumpi\n      revert(0x00, 0x00)\n    tag_46:\n      pop\n      tag_47\n      tag_48\n      jump\t// in\n    tag_47:\n      mload(0x40)\n      tag_49\n      swap2\n      swap1\n      tag_50\n      jump\t// in\n    tag_49:\n      mload(0x40)\n      dup1\n      swap2\n      sub\n      swap1\n      return\n        /* \"NummoraCoreSomnia.sol\":6566:6674  function getLoan(uint256 loanId) external view returns (Loan memory) {... */\n    tag_7:\n      callvalue\n      dup1\n      iszero\n      tag_51\n      jumpi\n      revert(0x00, 0x00)\n    tag_51:\n      pop\n      tag_52\n      0x04\n      dup1\n      calldatasize\n      sub\n      dup2\n      add\n      swap1\n      tag_53\n      swap2\n      swap1\n      tag_40\n      jump\t// in\n    tag_53:\n      tag_54\n      jump\t// in\n    tag_52:\n      mload(0x40)\n      tag_55\n      swap2\n      swap1\n      tag_56\n      jump\t// in\n    tag_55:\n      mload(0x40)\n      dup1\n      swap2\n      sub\n      swap1\n      return\n        /* \"NummoraCoreSomnia.sol\":7272:7449  function emergencyWithdraw(uint256 amount) external onlyOwner {... */\n    tag_8:\n      callvalue\n      dup1\n      iszero\n      tag_57\n      jumpi\n      revert(0x00, 0x00)\n    tag_57:\n      pop\n      tag_58\n      0x04\n      dup1\n      calldatasize\n      sub\n      dup2\n      add\n      swap1\n      tag_59\n      swap2\n      swap1\n      tag_40\n      jump\t// in\n    tag_59:\n      tag_60\n      jump\t// in\n    tag_58:\n      stop\n        /* \"NummoraCoreSomnia.sol\":6816:6916  function isLender(address user) external view returns (bool) {... */\n    tag_9:\n      callvalue\n      dup1\n      iszero\n      tag_61\n      jumpi\n      revert(0x00, 0x00)\n    tag_61:\n      pop\n      tag_62\n      0x04\n      dup1\n      calldatasize\n      sub\n      dup2\n      add\n      swap1\n      tag_63\n      swap2\n      swap1\n      tag_34\n      jump\t// in\n    tag_63:\n      tag_64\n      jump\t// in\n    tag_62:\n      mload(0x40)\n      tag_65\n      swap2\n      swap1\n      tag_37\n      jump\t// in\n    tag_65:\n      mload(0x40)\n      dup1\n      swap2\n      sub\n      swap1\n      return\n        /* \"@openzeppelin/contracts/access/Ownable.sol\":2293:2394  function renounceOwnership() public virtual onlyOwner {... */\n    tag_10:\n      callvalue\n      dup1\n      iszero\n      tag_66\n      jumpi\n      revert(0x00, 0x00)\n    tag_66:\n      pop\n      tag_67\n      tag_68\n      jump\t// in\n    tag_67:\n      stop\n        /* \"NummoraCoreSomnia.sol\":1801:1925  function registerLender() external {... */\n    tag_11:\n      callvalue\n      dup1\n      iszero\n      tag_69\n      jumpi\n      revert(0x00, 0x00)\n    tag_69:\n      pop\n      tag_70\n      tag_71\n      jump\t// in\n    tag_70:\n      stop\n        /* \"NummoraCoreSomnia.sol\":1102:1131  uint256 public nextLoanId = 1 */\n    tag_12:\n      callvalue\n      dup1\n      iszero\n      tag_72\n      jumpi\n      revert(0x00, 0x00)\n    tag_72:\n      pop\n      tag_73\n      tag_74\n      jump\t// in\n    tag_73:\n      mload(0x40)\n      tag_75\n      swap2\n      swap1\n      tag_76\n      jump\t// in\n    tag_75:\n      mload(0x40)\n      dup1\n      swap2\n      sub\n      swap1\n      return\n        /* \"@openzeppelin/contracts/access/Ownable.sol\":1638:1723  function owner() public view virtual returns (address) {... */\n    tag_13:\n      callvalue\n      dup1\n      iszero\n      tag_77\n      jumpi\n      revert(0x00, 0x00)\n    tag_77:\n      pop\n      tag_78\n      tag_79\n      jump\t// in\n    tag_78:\n      mload(0x40)\n      tag_80\n      swap2\n      swap1\n      tag_81\n      jump\t// in\n    tag_80:\n      mload(0x40)\n      dup1\n      swap2\n      sub\n      swap1\n      return\n        /* \"NummoraCoreSomnia.sol\":7090:7225  function updateFee(uint256 newFee) external onlyOwner {... */\n    tag_14:\n      callvalue\n      dup1\n      iszero\n      tag_82\n      jumpi\n      revert(0x00, 0x00)\n    tag_82:\n      pop\n      tag_83\n      0x04\n      dup1\n      calldatasize\n      sub\n      dup2\n      add\n      swap1\n      tag_84\n      swap2\n      swap1\n      tag_40\n      jump\t// in\n    tag_84:\n      tag_85\n      jump\t// in\n    tag_83:\n      stop\n        /* \"NummoraCoreSomnia.sol\":2115:2357  function deposit(uint256 amount) external payable nonReentrant {... */\n    tag_15:\n      tag_86\n      0x04\n      dup1\n      calldatasize\n      sub\n      dup2\n      add\n      swap1\n      tag_87\n      swap2\n      swap1\n      tag_40\n      jump\t// in\n    tag_87:\n      tag_88\n      jump\t// in\n    tag_86:\n      stop\n        /* \"NummoraCoreSomnia.sol\":1052:1093  mapping(address => bool) public borrowers */\n    tag_16:\n      callvalue\n      dup1\n      iszero\n      tag_89\n      jumpi\n      revert(0x00, 0x00)\n    tag_89:\n      pop\n      tag_90\n      0x04\n      dup1\n      calldatasize\n      sub\n      dup2\n      add\n      swap1\n      tag_91\n      swap2\n      swap1\n      tag_34\n      jump\t// in\n    tag_91:\n      tag_92\n      jump\t// in\n    tag_90:\n      mload(0x40)\n      tag_93\n      swap2\n      swap1\n      tag_37\n      jump\t// in\n    tag_93:\n      mload(0x40)\n      dup1\n      swap2\n      sub\n      swap1\n      return\n        /* \"NummoraCoreSomnia.sol\":1138:1162  uint256 public fee = 200 */\n    tag_17:\n      callvalue\n      dup1\n      iszero\n      tag_94\n      jumpi\n      revert(0x00, 0x00)\n    tag_94:\n      pop\n      tag_95\n      tag_96\n      jump\t// in\n    tag_95:\n      mload(0x40)\n      tag_97\n      swap2\n      swap1\n      tag_76\n      jump\t// in\n    tag_97:\n      mload(0x40)\n      dup1\n      swap2\n      sub\n      swap1\n      return\n        /* \"NummoraCoreSomnia.sol\":962:999  mapping(uint256 => Loan) public loans */\n    tag_18:\n      callvalue\n      dup1\n      iszero\n      tag_98\n      jumpi\n      revert(0x00, 0x00)\n    tag_98:\n      pop\n      tag_99\n      0x04\n      dup1\n      calldatasize\n      sub\n      dup2\n      add\n      swap1\n      tag_100\n      swap2\n      swap1\n      tag_40\n      jump\t// in\n    tag_100:\n      tag_101\n      jump\t// in\n    tag_99:\n      mload(0x40)\n      tag_102\n      swap11\n      swap10\n      swap9\n      swap8\n      swap7\n      swap6\n      swap5\n      swap4\n      swap3\n      swap2\n      swap1\n      tag_103\n      jump\t// in\n    tag_102:\n      mload(0x40)\n      dup1\n      swap2\n      sub\n      swap1\n      return\n        /* \"NummoraCoreSomnia.sol\":4216:4881  function payInstallment(uint256 loanId) external payable nonReentrant {... */\n    tag_19:\n      tag_104\n      0x04\n      dup1\n      calldatasize\n      sub\n      dup2\n      add\n      swap1\n      tag_105\n      swap2\n      swap1\n      tag_40\n      jump\t// in\n    tag_105:\n      tag_106\n      jump\t// in\n    tag_104:\n      stop\n        /* \"NummoraCoreSomnia.sol\":2822:4165  function createLoan(... */\n    tag_20:\n      callvalue\n      dup1\n      iszero\n      tag_107\n      jumpi\n      revert(0x00, 0x00)\n    tag_107:\n      pop\n      tag_108\n      0x04\n      dup1\n      calldatasize\n      sub\n      dup2\n      add\n      swap1\n      tag_109\n      swap2\n      swap1\n      tag_110\n      jump\t// in\n    tag_109:\n      tag_111\n      jump\t// in\n    tag_108:\n      mload(0x40)\n      tag_112\n      swap2\n      swap1\n      tag_76\n      jump\t// in\n    tag_112:\n      mload(0x40)\n      dup1\n      swap2\n      sub\n      swap1\n      return\n        /* \"NummoraCoreSomnia.sol\":1937:2067  function registerBorrower() external {... */\n    tag_21:\n      callvalue\n      dup1\n      iszero\n      tag_113\n      jumpi\n      revert(0x00, 0x00)\n    tag_113:\n      pop\n      tag_114\n      tag_115\n      jump\t// in\n    tag_114:\n      stop\n        /* \"NummoraCoreSomnia.sol\":6928:7032  function isBorrower(address user) external view returns (bool) {... */\n    tag_22:\n      callvalue\n      dup1\n      iszero\n      tag_116\n      jumpi\n      revert(0x00, 0x00)\n    tag_116:\n      pop\n      tag_117\n      0x04\n      dup1\n      calldatasize\n      sub\n      dup2\n      add\n      swap1\n      tag_118\n      swap2\n      swap1\n      tag_34\n      jump\t// in\n    tag_118:\n      tag_119\n      jump\t// in\n    tag_117:\n      mload(0x40)\n      tag_120\n      swap2\n      swap1\n      tag_37\n      jump\t// in\n    tag_120:\n      mload(0x40)\n      dup1\n      swap2\n      sub\n      swap1\n      return\n        /* \"@openzeppelin/contracts/access/Ownable.sol\":2543:2758  function transferOwnership(address newOwner) public virtual onlyOwner {... */\n    tag_23:\n      callvalue\n      dup1\n      iszero\n      tag_121\n      jumpi\n      revert(0x00, 0x00)\n    tag_121:\n      pop\n      tag_122\n      0x04\n      dup1\n      calldatasize\n      sub\n      dup2\n      add\n      swap1\n      tag_123\n      swap2\n      swap1\n      tag_34\n      jump\t// in\n    tag_123:\n      tag_124\n      jump\t// in\n    tag_122:\n      stop\n        /* \"NummoraCoreSomnia.sol\":6686:6804  function getBalance(address user) external view returns (uint256) {... */\n    tag_24:\n      callvalue\n      dup1\n      iszero\n      tag_125\n      jumpi\n      revert(0x00, 0x00)\n    tag_125:\n      pop\n      tag_126\n      0x04\n      dup1\n      calldatasize\n      sub\n      dup2\n      add\n      swap1\n      tag_127\n      swap2\n      swap1\n      tag_34\n      jump\t// in\n    tag_127:\n      tag_128\n      jump\t// in\n    tag_126:\n      mload(0x40)\n      tag_129\n      swap2\n      swap1\n      tag_76\n      jump\t// in\n    tag_129:\n      mload(0x40)\n      dup1\n      swap2\n      sub\n      swap1\n      return\n        /* \"NummoraCoreSomnia.sol\":894:923  INUMUSToken public numusToken */\n    tag_25:\n      callvalue\n      dup1\n      iszero\n      tag_130\n      jumpi\n      revert(0x00, 0x00)\n    tag_130:\n      pop\n      tag_131\n      tag_132\n      jump\t// in\n    tag_131:\n      mload(0x40)\n      tag_133\n      swap2\n      swap1\n      tag_134\n      jump\t// in\n    tag_133:\n      mload(0x40)\n      dup1\n      swap2\n      sub\n      swap1\n      return\n        /* \"NummoraCoreSomnia.sol\":1006:1045  mapping(address => bool) public lenders */\n    tag_35:\n      mstore(0x20, 0x05)\n      dup1\n      0x00\n      mstore\n      keccak256(0x00, 0x40)\n      0x00\n      swap2\n      pop\n      sload\n      swap1\n      0x0100\n      exp\n      swap1\n      div\n      0xff\n      and\n      dup2\n      jump\t// out\n        /* \"NummoraCoreSomnia.sol\":4936:6073  function payEarly(uint256 loanId) external payable nonReentrant {... */\n    tag_41:\n        /* \"@openzeppelin/contracts/security/ReentrancyGuard.sol\":2261:2282  _nonReentrantBefore() */\n      tag_136\n        /* \"@openzeppelin/contracts/security/ReentrancyGuard.sol\":2261:2280  _nonReentrantBefore */\n      tag_137\n        /* \"@openzeppelin/contracts/security/ReentrancyGuard.sol\":2261:2282  _nonReentrantBefore() */\n      jump\t// in\n    tag_136:\n        /* \"NummoraCoreSomnia.sol\":5011:5028  Loan storage loan */\n      0x00\n        /* \"NummoraCoreSomnia.sol\":5031:5036  loans */\n      0x04\n        /* \"NummoraCoreSomnia.sol\":5031:5044  loans[loanId] */\n      0x00\n        /* \"NummoraCoreSomnia.sol\":5037:5043  loanId */\n      dup4\n        /* \"NummoraCoreSomnia.sol\":5031:5044  loans[loanId] */\n      dup2\n      mstore\n      0x20\n      add\n      swap1\n      dup2\n      mstore\n      0x20\n      add\n      0x00\n      keccak256\n        /* \"NummoraCoreSomnia.sol\":5011:5044  Loan storage loan = loans[loanId] */\n      swap1\n      pop\n        /* \"NummoraCoreSomnia.sol\":5063:5067  loan */\n      dup1\n        /* \"NummoraCoreSomnia.sol\":5063:5074  loan.active */\n      0x09\n      add\n      0x00\n      swap1\n      sload\n      swap1\n      0x0100\n      exp\n      swap1\n      div\n      0xff\n      and\n        /* \"NummoraCoreSomnia.sol\":5055:5094  require(loan.active, \"Loan not active\") */\n      tag_139\n      jumpi\n      mload(0x40)\n      0x08c379a000000000000000000000000000000000000000000000000000000000\n      dup2\n      mstore\n      0x04\n      add\n      tag_140\n      swap1\n      tag_141\n      jump\t// in\n    tag_140:\n      mload(0x40)\n      dup1\n      swap2\n      sub\n      swap1\n      revert\n    tag_139:\n        /* \"NummoraCoreSomnia.sol\":5130:5140  msg.sender */\n      caller\n        /* \"NummoraCoreSomnia.sol\":5113:5140  loan.borrower == msg.sender */\n      0xffffffffffffffffffffffffffffffffffffffff\n      and\n        /* \"NummoraCoreSomnia.sol\":5113:5117  loan */\n      dup2\n        /* \"NummoraCoreSomnia.sol\":5113:5126  loan.borrower */\n      0x01\n      add\n      0x00\n      swap1\n      sload\n      swap1\n      0x0100\n      exp\n      swap1\n      div\n      0xffffffffffffffffffffffffffffffffffffffff\n      and\n        /* \"NummoraCoreSomnia.sol\":5113:5140  loan.borrower == msg.sender */\n      0xffffffffffffffffffffffffffffffffffffffff\n      and\n      eq\n        /* \"NummoraCoreSomnia.sol\":5105:5158  require(loan.borrower == msg.sender, \"Not your loan\") */\n      tag_142\n      jumpi\n      mload(0x40)\n      0x08c379a000000000000000000000000000000000000000000000000000000000\n      dup2\n      mstore\n      0x04\n      add\n      tag_143\n      swap1\n      tag_144\n      jump\t// in\n    tag_143:\n      mload(0x40)\n      dup1\n      swap2\n      sub\n      swap1\n      revert\n    tag_142:\n        /* \"NummoraCoreSomnia.sol\":5226:5242  uint256 daysUsed */\n      0x00\n        /* \"NummoraCoreSomnia.sol\":5282:5288  1 days */\n      0x015180\n        /* \"NummoraCoreSomnia.sol\":5264:5268  loan */\n      dup3\n        /* \"NummoraCoreSomnia.sol\":5264:5278  loan.startTime */\n      0x05\n      add\n      sload\n        /* \"NummoraCoreSomnia.sol\":5246:5261  block.timestamp */\n      timestamp\n        /* \"NummoraCoreSomnia.sol\":5246:5278  block.timestamp - loan.startTime */\n      tag_145\n      swap2\n      swap1\n      tag_146\n      jump\t// in\n    tag_145:\n        /* \"NummoraCoreSomnia.sol\":5245:5288  (block.timestamp - loan.startTime) / 1 days */\n      tag_147\n      swap2\n      swap1\n      tag_148\n      jump\t// in\n    tag_147:\n        /* \"NummoraCoreSomnia.sol\":5226:5288  uint256 daysUsed = (block.timestamp - loan.startTime) / 1 days */\n      swap1\n      pop\n        /* \"NummoraCoreSomnia.sol\":5315:5316  0 */\n      0x00\n        /* \"NummoraCoreSomnia.sol\":5303:5311  daysUsed */\n      dup2\n        /* \"NummoraCoreSomnia.sol\":5303:5316  daysUsed == 0 */\n      sub\n        /* \"NummoraCoreSomnia.sol\":5299:5330  if (daysUsed == 0) daysUsed = 1 */\n      tag_149\n      jumpi\n        /* \"NummoraCoreSomnia.sol\":5329:5330  1 */\n      0x01\n        /* \"NummoraCoreSomnia.sol\":5318:5330  daysUsed = 1 */\n      swap1\n      pop\n        /* \"NummoraCoreSomnia.sol\":5299:5330  if (daysUsed == 0) daysUsed = 1 */\n    tag_149:\n        /* \"NummoraCoreSomnia.sol\":5432:5447  uint256 maxDays */\n      0x00\n        /* \"NummoraCoreSomnia.sol\":5450:5452  30 */\n      0x1e\n        /* \"NummoraCoreSomnia.sol\":5432:5452  uint256 maxDays = 30 */\n      swap1\n      pop\n        /* \"NummoraCoreSomnia.sol\":5478:5485  maxDays */\n      dup1\n        /* \"NummoraCoreSomnia.sol\":5467:5475  daysUsed */\n      dup3\n        /* \"NummoraCoreSomnia.sol\":5467:5485  daysUsed > maxDays */\n      gt\n        /* \"NummoraCoreSomnia.sol\":5463:5505  if (daysUsed > maxDays) daysUsed = maxDays */\n      iszero\n      tag_150\n      jumpi\n        /* \"NummoraCoreSomnia.sol\":5498:5505  maxDays */\n      dup1\n        /* \"NummoraCoreSomnia.sol\":5487:5505  daysUsed = maxDays */\n      swap2\n      pop\n        /* \"NummoraCoreSomnia.sol\":5463:5505  if (daysUsed > maxDays) daysUsed = maxDays */\n    tag_150:\n        /* \"NummoraCoreSomnia.sol\":5526:5547  uint256 dailyInterest */\n      0x00\n        /* \"NummoraCoreSomnia.sol\":5584:5591  maxDays */\n      dup2\n        /* \"NummoraCoreSomnia.sol\":5569:5573  loan */\n      dup5\n        /* \"NummoraCoreSomnia.sol\":5569:5580  loan.amount */\n      0x02\n      add\n      sload\n        /* \"NummoraCoreSomnia.sol\":5551:5555  loan */\n      dup6\n        /* \"NummoraCoreSomnia.sol\":5551:5566  loan.totalToPay */\n      0x03\n      add\n      sload\n        /* \"NummoraCoreSomnia.sol\":5551:5580  loan.totalToPay - loan.amount */\n      tag_151\n      swap2\n      swap1\n      tag_146\n      jump\t// in\n    tag_151:\n        /* \"NummoraCoreSomnia.sol\":5550:5591  (loan.totalToPay - loan.amount) / maxDays */\n      tag_152\n      swap2\n      swap1\n      tag_148\n      jump\t// in\n    tag_152:\n        /* \"NummoraCoreSomnia.sol\":5526:5591  uint256 dailyInterest = (loan.totalToPay - loan.amount) / maxDays */\n      swap1\n      pop\n        /* \"NummoraCoreSomnia.sol\":5602:5619  uint256 realTotal */\n      0x00\n        /* \"NummoraCoreSomnia.sol\":5653:5661  daysUsed */\n      dup4\n        /* \"NummoraCoreSomnia.sol\":5637:5650  dailyInterest */\n      dup3\n        /* \"NummoraCoreSomnia.sol\":5637:5661  dailyInterest * daysUsed */\n      tag_153\n      swap2\n      swap1\n      tag_154\n      jump\t// in\n    tag_153:\n        /* \"NummoraCoreSomnia.sol\":5622:5626  loan */\n      dup6\n        /* \"NummoraCoreSomnia.sol\":5622:5633  loan.amount */\n      0x02\n      add\n      sload\n        /* \"NummoraCoreSomnia.sol\":5622:5662  loan.amount + (dailyInterest * daysUsed) */\n      tag_155\n      swap2\n      swap1\n      tag_156\n      jump\t// in\n    tag_155:\n        /* \"NummoraCoreSomnia.sol\":5602:5662  uint256 realTotal = loan.amount + (dailyInterest * daysUsed) */\n      swap1\n      pop\n        /* \"NummoraCoreSomnia.sol\":5673:5693  uint256 finalPayment */\n      0x00\n        /* \"NummoraCoreSomnia.sol\":5708:5712  loan */\n      dup6\n        /* \"NummoraCoreSomnia.sol\":5708:5722  loan.totalPaid */\n      0x04\n      add\n      sload\n        /* \"NummoraCoreSomnia.sol\":5696:5705  realTotal */\n      dup3\n        /* \"NummoraCoreSomnia.sol\":5696:5722  realTotal - loan.totalPaid */\n      tag_157\n      swap2\n      swap1\n      tag_146\n      jump\t// in\n    tag_157:\n        /* \"NummoraCoreSomnia.sol\":5673:5722  uint256 finalPayment = realTotal - loan.totalPaid */\n      swap1\n      pop\n        /* \"NummoraCoreSomnia.sol\":5766:5767  0 */\n      0x00\n        /* \"NummoraCoreSomnia.sol\":5751:5763  finalPayment */\n      dup2\n        /* \"NummoraCoreSomnia.sol\":5751:5767  finalPayment > 0 */\n      gt\n        /* \"NummoraCoreSomnia.sol\":5743:5784  require(finalPayment > 0, \"Already paid\") */\n      tag_158\n      jumpi\n      mload(0x40)\n      0x08c379a000000000000000000000000000000000000000000000000000000000\n      dup2\n      mstore\n      0x04\n      add\n      tag_159\n      swap1\n      tag_160\n      jump\t// in\n    tag_159:\n      mload(0x40)\n      dup1\n      swap2\n      sub\n      swap1\n      revert\n    tag_158:\n        /* \"NummoraCoreSomnia.sol\":5816:5828  finalPayment */\n      dup1\n        /* \"NummoraCoreSomnia.sol\":5803:5812  msg.value */\n      callvalue\n        /* \"NummoraCoreSomnia.sol\":5803:5828  msg.value == finalPayment */\n      eq\n        /* \"NummoraCoreSomnia.sol\":5795:5850  require(msg.value == finalPayment, \"Incorrect payment\") */\n      tag_161\n      jumpi\n      mload(0x40)\n      0x08c379a000000000000000000000000000000000000000000000000000000000\n      dup2\n      mstore\n      0x04\n      add\n      tag_162\n      swap1\n      tag_163\n      jump\t// in\n    tag_162:\n      mload(0x40)\n      dup1\n      swap2\n      sub\n      swap1\n      revert\n    tag_161:\n        /* \"NummoraCoreSomnia.sol\":5888:5897  realTotal */\n      dup2\n        /* \"NummoraCoreSomnia.sol\":5871:5875  loan */\n      dup7\n        /* \"NummoraCoreSomnia.sol\":5871:5885  loan.totalPaid */\n      0x04\n      add\n        /* \"NummoraCoreSomnia.sol\":5871:5897  loan.totalPaid = realTotal */\n      dup2\n      swap1\n      sstore\n      pop\n        /* \"NummoraCoreSomnia.sol\":5932:5936  loan */\n      dup6\n        /* \"NummoraCoreSomnia.sol\":5932:5949  loan.installments */\n      0x06\n      add\n      sload\n        /* \"NummoraCoreSomnia.sol\":5908:5912  loan */\n      dup7\n        /* \"NummoraCoreSomnia.sol\":5908:5929  loan.installmentsPaid */\n      0x08\n      add\n        /* \"NummoraCoreSomnia.sol\":5908:5949  loan.installmentsPaid = loan.installments */\n      dup2\n      swap1\n      sstore\n      pop\n        /* \"NummoraCoreSomnia.sol\":5970:5991  _completeLoan(loanId) */\n      tag_164\n        /* \"NummoraCoreSomnia.sol\":5984:5990  loanId */\n      dup8\n        /* \"NummoraCoreSomnia.sol\":5970:5983  _completeLoan */\n      tag_165\n        /* \"NummoraCoreSomnia.sol\":5970:5991  _completeLoan(loanId) */\n      jump\t// in\n    tag_164:\n        /* \"NummoraCoreSomnia.sol\":6034:6040  loanId */\n      dup7\n        /* \"NummoraCoreSomnia.sol\":6017:6065  EarlyPaymentMade(loanId, finalPayment, daysUsed) */\n      0xe03c0f5f6b9d1f552be959c424317360ade987d25a5d0ac6afd7b2f43ab3eb53\n        /* \"NummoraCoreSomnia.sol\":6042:6054  finalPayment */\n      dup3\n        /* \"NummoraCoreSomnia.sol\":6056:6064  daysUsed */\n      dup8\n        /* \"NummoraCoreSomnia.sol\":6017:6065  EarlyPaymentMade(loanId, finalPayment, daysUsed) */\n      mload(0x40)\n      tag_166\n      swap3\n      swap2\n      swap1\n      tag_167\n      jump\t// in\n    tag_166:\n      mload(0x40)\n      dup1\n      swap2\n      sub\n      swap1\n      log2\n        /* \"NummoraCoreSomnia.sol\":5000:6073  {... */\n      pop\n      pop\n      pop\n      pop\n      pop\n      pop\n        /* \"@openzeppelin/contracts/security/ReentrancyGuard.sol\":2303:2323  _nonReentrantAfter() */\n      tag_168\n        /* \"@openzeppelin/contracts/security/ReentrancyGuard.sol\":2303:2321  _nonReentrantAfter */\n      tag_169\n        /* \"@openzeppelin/contracts/security/ReentrancyGuard.sol\":2303:2323  _nonReentrantAfter() */\n      jump\t// in\n    tag_168:\n        /* \"NummoraCoreSomnia.sol\":4936:6073  function payEarly(uint256 loanId) external payable nonReentrant {... */\n      pop\n      jump\t// out\n        /* \"NummoraCoreSomnia.sol\":2405:2763  function withdraw(uint256 amount) external nonReentrant {... */\n    tag_45:\n        /* \"@openzeppelin/contracts/security/ReentrancyGuard.sol\":2261:2282  _nonReentrantBefore() */\n      tag_171\n        /* \"@openzeppelin/contracts/security/ReentrancyGuard.sol\":2261:2280  _nonReentrantBefore */\n      tag_137\n        /* \"@openzeppelin/contracts/security/ReentrancyGuard.sol\":2261:2282  _nonReentrantBefore() */\n      jump\t// in\n    tag_171:\n        /* \"NummoraCoreSomnia.sol\":2516:2522  amount */\n      dup1\n        /* \"NummoraCoreSomnia.sol\":2480:2490  numusToken */\n      0x02\n      0x00\n      swap1\n      sload\n      swap1\n      0x0100\n      exp\n      swap1\n      div\n      0xffffffffffffffffffffffffffffffffffffffff\n      and\n        /* \"NummoraCoreSomnia.sol\":2480:2500  numusToken.balanceOf */\n      0xffffffffffffffffffffffffffffffffffffffff\n      and\n      0x70a08231\n        /* \"NummoraCoreSomnia.sol\":2501:2511  msg.sender */\n      caller\n        /* \"NummoraCoreSomnia.sol\":2480:2512  numusToken.balanceOf(msg.sender) */\n      mload(0x40)\n      dup3\n      0xffffffff\n      and\n      0xe0\n      shl\n      dup2\n      mstore\n      0x04\n      add\n      tag_173\n      swap2\n      swap1\n      tag_81\n      jump\t// in\n    tag_173:\n      0x20\n      mload(0x40)\n      dup1\n      dup4\n      sub\n      dup2\n      dup7\n      gas\n      staticcall\n      iszero\n      dup1\n      iszero\n      tag_175\n      jumpi\n      returndatacopy(0x00, 0x00, returndatasize)\n      revert(0x00, returndatasize)\n    tag_175:\n      pop\n      pop\n      pop\n      pop\n      mload(0x40)\n      returndatasize\n      not(0x1f)\n      0x1f\n      dup3\n      add\n      and\n      dup3\n      add\n      dup1\n      0x40\n      mstore\n      pop\n      dup2\n      add\n      swap1\n      tag_176\n      swap2\n      swap1\n      tag_177\n      jump\t// in\n    tag_176:\n        /* \"NummoraCoreSomnia.sol\":2480:2522  numusToken.balanceOf(msg.sender) >= amount */\n      lt\n      iszero\n        /* \"NummoraCoreSomnia.sol\":2472:2547  require(numusToken.balanceOf(msg.sender) >= amount, \"Insufficient balance\") */\n      tag_178\n      jumpi\n      mload(0x40)\n      0x08c379a000000000000000000000000000000000000000000000000000000000\n      dup2\n      mstore\n      0x04\n      add\n      tag_179\n      swap1\n      tag_180\n      jump\t// in\n    tag_179:\n      mload(0x40)\n      dup1\n      swap2\n      sub\n      swap1\n      revert\n    tag_178:\n        /* \"NummoraCoreSomnia.sol\":2568:2578  numusToken */\n      0x02\n      0x00\n      swap1\n      sload\n      swap1\n      0x0100\n      exp\n      swap1\n      div\n      0xffffffffffffffffffffffffffffffffffffffff\n      and\n        /* \"NummoraCoreSomnia.sol\":2568:2583  numusToken.burn */\n      0xffffffffffffffffffffffffffffffffffffffff\n      and\n      0x9dc29fac\n        /* \"NummoraCoreSomnia.sol\":2584:2594  msg.sender */\n      caller\n        /* \"NummoraCoreSomnia.sol\":2596:2602  amount */\n      dup4\n        /* \"NummoraCoreSomnia.sol\":2568:2603  numusToken.burn(msg.sender, amount) */\n      mload(0x40)\n      dup4\n      0xffffffff\n      and\n      0xe0\n      shl\n      dup2\n      mstore\n      0x04\n      add\n      tag_181\n      swap3\n      swap2\n      swap1\n      tag_182\n      jump\t// in\n    tag_181:\n      0x00\n      mload(0x40)\n      dup1\n      dup4\n      sub\n      dup2\n      0x00\n      dup8\n      dup1\n      extcodesize\n      iszero\n      dup1\n      iszero\n      tag_183\n      jumpi\n      revert(0x00, 0x00)\n    tag_183:\n      pop\n      gas\n      call\n      iszero\n      dup1\n      iszero\n      tag_185\n      jumpi\n      returndatacopy(0x00, 0x00, returndatasize)\n      revert(0x00, returndatasize)\n    tag_185:\n      pop\n      pop\n      pop\n      pop\n        /* \"NummoraCoreSomnia.sol\":2657:2669  bool success */\n      0x00\n        /* \"NummoraCoreSomnia.sol\":2675:2685  msg.sender */\n      caller\n        /* \"NummoraCoreSomnia.sol\":2675:2690  msg.sender.call */\n      0xffffffffffffffffffffffffffffffffffffffff\n      and\n        /* \"NummoraCoreSomnia.sol\":2698:2704  amount */\n      dup3\n        /* \"NummoraCoreSomnia.sol\":2675:2709  msg.sender.call{value: amount}(\"\") */\n      mload(0x40)\n      tag_186\n      swap1\n      tag_187\n      jump\t// in\n    tag_186:\n      0x00\n      mload(0x40)\n      dup1\n      dup4\n      sub\n      dup2\n      dup6\n      dup8\n      gas\n      call\n      swap3\n      pop\n      pop\n      pop\n      returndatasize\n      dup1\n      0x00\n      dup2\n      eq\n      tag_190\n      jumpi\n      mload(0x40)\n      swap2\n      pop\n      and(add(returndatasize, 0x3f), not(0x1f))\n      dup3\n      add\n      0x40\n      mstore\n      returndatasize\n      dup3\n      mstore\n      returndatasize\n      0x00\n      0x20\n      dup5\n      add\n      returndatacopy\n      jump(tag_189)\n    tag_190:\n      0x60\n      swap2\n      pop\n    tag_189:\n      pop\n        /* \"NummoraCoreSomnia.sol\":2656:2709  (bool success, ) = msg.sender.call{value: amount}(\"\") */\n      pop\n      swap1\n      pop\n        /* \"NummoraCoreSomnia.sol\":2728:2735  success */\n      dup1\n        /* \"NummoraCoreSomnia.sol\":2720:2755  require(success, \"Transfer failed\") */\n      tag_191\n      jumpi\n      mload(0x40)\n      0x08c379a000000000000000000000000000000000000000000000000000000000\n      dup2\n      mstore\n      0x04\n      add\n      tag_192\n      swap1\n      tag_193\n      jump\t// in\n    tag_192:\n      mload(0x40)\n      dup1\n      swap2\n      sub\n      swap1\n      revert\n    tag_191:\n        /* \"NummoraCoreSomnia.sol\":2461:2763  {... */\n      pop\n        /* \"@openzeppelin/contracts/security/ReentrancyGuard.sol\":2303:2323  _nonReentrantAfter() */\n      tag_194\n        /* \"@openzeppelin/contracts/security/ReentrancyGuard.sol\":2303:2321  _nonReentrantAfter */\n      tag_169\n        /* \"@openzeppelin/contracts/security/ReentrancyGuard.sol\":2303:2323  _nonReentrantAfter() */\n      jump\t// in\n    tag_194:\n        /* \"NummoraCoreSomnia.sol\":2405:2763  function withdraw(uint256 amount) external nonReentrant {... */\n      pop\n      jump\t// out\n        /* \"NummoraCoreSomnia.sol\":930:953  ILoanNFT public loanNFT */\n    tag_48:\n      0x03\n      0x00\n      swap1\n      sload\n      swap1\n      0x0100\n      exp\n      swap1\n      div\n      0xffffffffffffffffffffffffffffffffffffffff\n      and\n      dup2\n      jump\t// out\n        /* \"NummoraCoreSomnia.sol\":6566:6674  function getLoan(uint256 loanId) external view returns (Loan memory) {... */\n    tag_54:\n        /* \"NummoraCoreSomnia.sol\":6622:6633  Loan memory */\n      tag_195\n      tag_196\n      jump\t// in\n    tag_195:\n        /* \"NummoraCoreSomnia.sol\":6653:6658  loans */\n      0x04\n        /* \"NummoraCoreSomnia.sol\":6653:6666  loans[loanId] */\n      0x00\n        /* \"NummoraCoreSomnia.sol\":6659:6665  loanId */\n      dup4\n        /* \"NummoraCoreSomnia.sol\":6653:6666  loans[loanId] */\n      dup2\n      mstore\n      0x20\n      add\n      swap1\n      dup2\n      mstore\n      0x20\n      add\n      0x00\n      keccak256\n        /* \"NummoraCoreSomnia.sol\":6646:6666  return loans[loanId] */\n      mload(0x40)\n      dup1\n      0x0140\n      add\n      0x40\n      mstore\n      swap1\n      dup2\n      0x00\n      dup3\n      add\n      0x00\n      swap1\n      sload\n      swap1\n      0x0100\n      exp\n      swap1\n      div\n      0xffffffffffffffffffffffffffffffffffffffff\n      and\n      0xffffffffffffffffffffffffffffffffffffffff\n      and\n      0xffffffffffffffffffffffffffffffffffffffff\n      and\n      dup2\n      mstore\n      0x20\n      add\n      0x01\n      dup3\n      add\n      0x00\n      swap1\n      sload\n      swap1\n      0x0100\n      exp\n      swap1\n      div\n      0xffffffffffffffffffffffffffffffffffffffff\n      and\n      0xffffffffffffffffffffffffffffffffffffffff\n      and\n      0xffffffffffffffffffffffffffffffffffffffff\n      and\n      dup2\n      mstore\n      0x20\n      add\n      0x02\n      dup3\n      add\n      sload\n      dup2\n      mstore\n      0x20\n      add\n      0x03\n      dup3\n      add\n      sload\n      dup2\n      mstore\n      0x20\n      add\n      0x04\n      dup3\n      add\n      sload\n      dup2\n      mstore\n      0x20\n      add\n      0x05\n      dup3\n      add\n      sload\n      dup2\n      mstore\n      0x20\n      add\n      0x06\n      dup3\n      add\n      sload\n      dup2\n      mstore\n      0x20\n      add\n      0x07\n      dup3\n      add\n      sload\n      dup2\n      mstore\n      0x20\n      add\n      0x08\n      dup3\n      add\n      sload\n      dup2\n      mstore\n      0x20\n      add\n      0x09\n      dup3\n      add\n      0x00\n      swap1\n      sload\n      swap1\n      0x0100\n      exp\n      swap1\n      div\n      0xff\n      and\n      iszero\n      iszero\n      iszero\n      iszero\n      dup2\n      mstore\n      pop\n      pop\n      swap1\n      pop\n        /* \"NummoraCoreSomnia.sol\":6566:6674  function getLoan(uint256 loanId) external view returns (Loan memory) {... */\n      swap2\n      swap1\n      pop\n      jump\t// out\n        /* \"NummoraCoreSomnia.sol\":7272:7449  function emergencyWithdraw(uint256 amount) external onlyOwner {... */\n    tag_60:\n        /* \"@openzeppelin/contracts/access/Ownable.sol\":1531:1544  _checkOwner() */\n      tag_199\n        /* \"@openzeppelin/contracts/access/Ownable.sol\":1531:1542  _checkOwner */\n      tag_200\n        /* \"@openzeppelin/contracts/access/Ownable.sol\":1531:1544  _checkOwner() */\n      jump\t// in\n    tag_199:\n        /* \"NummoraCoreSomnia.sol\":7346:7358  bool success */\n      0x00\n        /* \"NummoraCoreSomnia.sol\":7364:7371  owner() */\n      tag_202\n        /* \"NummoraCoreSomnia.sol\":7364:7369  owner */\n      tag_79\n        /* \"NummoraCoreSomnia.sol\":7364:7371  owner() */\n      jump\t// in\n    tag_202:\n        /* \"NummoraCoreSomnia.sol\":7364:7376  owner().call */\n      0xffffffffffffffffffffffffffffffffffffffff\n      and\n        /* \"NummoraCoreSomnia.sol\":7384:7390  amount */\n      dup3\n        /* \"NummoraCoreSomnia.sol\":7364:7395  owner().call{value: amount}(\"\") */\n      mload(0x40)\n      tag_203\n      swap1\n      tag_187\n      jump\t// in\n    tag_203:\n      0x00\n      mload(0x40)\n      dup1\n      dup4\n      sub\n      dup2\n      dup6\n      dup8\n      gas\n      call\n      swap3\n      pop\n      pop\n      pop\n      returndatasize\n      dup1\n      0x00\n      dup2\n      eq\n      tag_206\n      jumpi\n      mload(0x40)\n      swap2\n      pop\n      and(add(returndatasize, 0x3f), not(0x1f))\n      dup3\n      add\n      0x40\n      mstore\n      returndatasize\n      dup3\n      mstore\n      returndatasize\n      0x00\n      0x20\n      dup5\n      add\n      returndatacopy\n      jump(tag_205)\n    tag_206:\n      0x60\n      swap2\n      pop\n    tag_205:\n      pop\n        /* \"NummoraCoreSomnia.sol\":7345:7395  (bool success, ) = owner().call{value: amount}(\"\") */\n      pop\n      swap1\n      pop\n        /* \"NummoraCoreSomnia.sol\":7414:7421  success */\n      dup1\n        /* \"NummoraCoreSomnia.sol\":7406:7441  require(success, \"Transfer failed\") */\n      tag_207\n      jumpi\n      mload(0x40)\n      0x08c379a000000000000000000000000000000000000000000000000000000000\n      dup2\n      mstore\n      0x04\n      add\n      tag_208\n      swap1\n      tag_193\n      jump\t// in\n    tag_208:\n      mload(0x40)\n      dup1\n      swap2\n      sub\n      swap1\n      revert\n    tag_207:\n        /* \"NummoraCoreSomnia.sol\":7334:7449  {... */\n      pop\n        /* \"NummoraCoreSomnia.sol\":7272:7449  function emergencyWithdraw(uint256 amount) external onlyOwner {... */\n      pop\n      jump\t// out\n        /* \"NummoraCoreSomnia.sol\":6816:6916  function isLender(address user) external view returns (bool) {... */\n    tag_64:\n        /* \"NummoraCoreSomnia.sol\":6871:6875  bool */\n      0x00\n        /* \"NummoraCoreSomnia.sol\":6895:6902  lenders */\n      0x05\n        /* \"NummoraCoreSomnia.sol\":6895:6908  lenders[user] */\n      0x00\n        /* \"NummoraCoreSomnia.sol\":6903:6907  user */\n      dup4\n        /* \"NummoraCoreSomnia.sol\":6895:6908  lenders[user] */\n      0xffffffffffffffffffffffffffffffffffffffff\n      and\n      0xffffffffffffffffffffffffffffffffffffffff\n      and\n      dup2\n      mstore\n      0x20\n      add\n      swap1\n      dup2\n      mstore\n      0x20\n      add\n      0x00\n      keccak256\n      0x00\n      swap1\n      sload\n      swap1\n      0x0100\n      exp\n      swap1\n      div\n      0xff\n      and\n        /* \"NummoraCoreSomnia.sol\":6888:6908  return lenders[user] */\n      swap1\n      pop\n        /* \"NummoraCoreSomnia.sol\":6816:6916  function isLender(address user) external view returns (bool) {... */\n      swap2\n      swap1\n      pop\n      jump\t// out\n        /* \"@openzeppelin/contracts/access/Ownable.sol\":2293:2394  function renounceOwnership() public virtual onlyOwner {... */\n    tag_68:\n        /* \"@openzeppelin/contracts/access/Ownable.sol\":1531:1544  _checkOwner() */\n      tag_211\n        /* \"@openzeppelin/contracts/access/Ownable.sol\":1531:1542  _checkOwner */\n      tag_200\n        /* \"@openzeppelin/contracts/access/Ownable.sol\":1531:1544  _checkOwner() */\n      jump\t// in\n    tag_211:\n        /* \"@openzeppelin/contracts/access/Ownable.sol\":2357:2387  _transferOwnership(address(0)) */\n      tag_213\n        /* \"@openzeppelin/contracts/access/Ownable.sol\":2384:2385  0 */\n      0x00\n        /* \"@openzeppelin/contracts/access/Ownable.sol\":2357:2375  _transferOwnership */\n      tag_214\n        /* \"@openzeppelin/contracts/access/Ownable.sol\":2357:2387  _transferOwnership(address(0)) */\n      jump\t// in\n    tag_213:\n        /* \"@openzeppelin/contracts/access/Ownable.sol\":2293:2394  function renounceOwnership() public virtual onlyOwner {... */\n      jump\t// out\n        /* \"NummoraCoreSomnia.sol\":1801:1925  function registerLender() external {... */\n    tag_71:\n        /* \"NummoraCoreSomnia.sol\":1869:1873  true */\n      0x01\n        /* \"NummoraCoreSomnia.sol\":1847:1854  lenders */\n      0x05\n        /* \"NummoraCoreSomnia.sol\":1847:1866  lenders[msg.sender] */\n      0x00\n        /* \"NummoraCoreSomnia.sol\":1855:1865  msg.sender */\n      caller\n        /* \"NummoraCoreSomnia.sol\":1847:1866  lenders[msg.sender] */\n      0xffffffffffffffffffffffffffffffffffffffff\n      and\n      0xffffffffffffffffffffffffffffffffffffffff\n      and\n      dup2\n      mstore\n      0x20\n      add\n      swap1\n      dup2\n      mstore\n      0x20\n      add\n      0x00\n      keccak256\n      0x00\n        /* \"NummoraCoreSomnia.sol\":1847:1873  lenders[msg.sender] = true */\n      0x0100\n      exp\n      dup2\n      sload\n      dup2\n      0xff\n      mul\n      not\n      and\n      swap1\n      dup4\n      iszero\n      iszero\n      mul\n      or\n      swap1\n      sstore\n      pop\n        /* \"NummoraCoreSomnia.sol\":1889:1917  LenderRegistered(msg.sender) */\n      0x35999cadc5f1a750104410f15263cc04190a1095143f37917467434d7f32c3c4\n        /* \"NummoraCoreSomnia.sol\":1906:1916  msg.sender */\n      caller\n        /* \"NummoraCoreSomnia.sol\":1889:1917  LenderRegistered(msg.sender) */\n      mload(0x40)\n      tag_216\n      swap2\n      swap1\n      tag_81\n      jump\t// in\n    tag_216:\n      mload(0x40)\n      dup1\n      swap2\n      sub\n      swap1\n      log1\n        /* \"NummoraCoreSomnia.sol\":1801:1925  function registerLender() external {... */\n      jump\t// out\n        /* \"NummoraCoreSomnia.sol\":1102:1131  uint256 public nextLoanId = 1 */\n    tag_74:\n      sload(0x07)\n      dup2\n      jump\t// out\n        /* \"@openzeppelin/contracts/access/Ownable.sol\":1638:1723  function owner() public view virtual returns (address) {... */\n    tag_79:\n        /* \"@openzeppelin/contracts/access/Ownable.sol\":1684:1691  address */\n      0x00\n        /* \"@openzeppelin/contracts/access/Ownable.sol\":1710:1716  _owner */\n      0x01\n      0x00\n      swap1\n      sload\n      swap1\n      0x0100\n      exp\n      swap1\n      div\n      0xffffffffffffffffffffffffffffffffffffffff\n      and\n        /* \"@openzeppelin/contracts/access/Ownable.sol\":1703:1716  return _owner */\n      swap1\n      pop\n        /* \"@openzeppelin/contracts/access/Ownable.sol\":1638:1723  function owner() public view virtual returns (address) {... */\n      swap1\n      jump\t// out\n        /* \"NummoraCoreSomnia.sol\":7090:7225  function updateFee(uint256 newFee) external onlyOwner {... */\n    tag_85:\n        /* \"@openzeppelin/contracts/access/Ownable.sol\":1531:1544  _checkOwner() */\n      tag_219\n        /* \"@openzeppelin/contracts/access/Ownable.sol\":1531:1542  _checkOwner */\n      tag_200\n        /* \"@openzeppelin/contracts/access/Ownable.sol\":1531:1544  _checkOwner() */\n      jump\t// in\n    tag_219:\n        /* \"NummoraCoreSomnia.sol\":7173:7177  1000 */\n      0x03e8\n        /* \"NummoraCoreSomnia.sol\":7163:7169  newFee */\n      dup2\n        /* \"NummoraCoreSomnia.sol\":7163:7177  newFee <= 1000 */\n      gt\n      iszero\n        /* \"NummoraCoreSomnia.sol\":7155:7194  require(newFee <= 1000, \"Fee too high\") */\n      tag_221\n      jumpi\n      mload(0x40)\n      0x08c379a000000000000000000000000000000000000000000000000000000000\n      dup2\n      mstore\n      0x04\n      add\n      tag_222\n      swap1\n      tag_223\n      jump\t// in\n    tag_222:\n      mload(0x40)\n      dup1\n      swap2\n      sub\n      swap1\n      revert\n    tag_221:\n        /* \"NummoraCoreSomnia.sol\":7211:7217  newFee */\n      dup1\n        /* \"NummoraCoreSomnia.sol\":7205:7208  fee */\n      0x08\n        /* \"NummoraCoreSomnia.sol\":7205:7217  fee = newFee */\n      dup2\n      swap1\n      sstore\n      pop\n        /* \"NummoraCoreSomnia.sol\":7090:7225  function updateFee(uint256 newFee) external onlyOwner {... */\n      pop\n      jump\t// out\n        /* \"NummoraCoreSomnia.sol\":2115:2357  function deposit(uint256 amount) external payable nonReentrant {... */\n    tag_88:\n        /* \"@openzeppelin/contracts/security/ReentrancyGuard.sol\":2261:2282  _nonReentrantBefore() */\n      tag_225\n        /* \"@openzeppelin/contracts/security/ReentrancyGuard.sol\":2261:2280  _nonReentrantBefore */\n      tag_137\n        /* \"@openzeppelin/contracts/security/ReentrancyGuard.sol\":2261:2282  _nonReentrantBefore() */\n      jump\t// in\n    tag_225:\n        /* \"NummoraCoreSomnia.sol\":2197:2204  lenders */\n      0x05\n        /* \"NummoraCoreSomnia.sol\":2197:2216  lenders[msg.sender] */\n      0x00\n        /* \"NummoraCoreSomnia.sol\":2205:2215  msg.sender */\n      caller\n        /* \"NummoraCoreSomnia.sol\":2197:2216  lenders[msg.sender] */\n      0xffffffffffffffffffffffffffffffffffffffff\n      and\n      0xffffffffffffffffffffffffffffffffffffffff\n      and\n      dup2\n      mstore\n      0x20\n      add\n      swap1\n      dup2\n      mstore\n      0x20\n      add\n      0x00\n      keccak256\n      0x00\n      swap1\n      sload\n      swap1\n      0x0100\n      exp\n      swap1\n      div\n      0xff\n      and\n        /* \"NummoraCoreSomnia.sol\":2189:2235  require(lenders[msg.sender], \"Not registered\") */\n      tag_227\n      jumpi\n      mload(0x40)\n      0x08c379a000000000000000000000000000000000000000000000000000000000\n      dup2\n      mstore\n      0x04\n      add\n      tag_228\n      swap1\n      tag_229\n      jump\t// in\n    tag_228:\n      mload(0x40)\n      dup1\n      swap2\n      sub\n      swap1\n      revert\n    tag_227:\n        /* \"NummoraCoreSomnia.sol\":2267:2273  amount */\n      dup1\n        /* \"NummoraCoreSomnia.sol\":2254:2263  msg.value */\n      callvalue\n        /* \"NummoraCoreSomnia.sol\":2254:2273  msg.value == amount */\n      eq\n        /* \"NummoraCoreSomnia.sol\":2246:2293  require(msg.value == amount, \"Amount mismatch\") */\n      tag_230\n      jumpi\n      mload(0x40)\n      0x08c379a000000000000000000000000000000000000000000000000000000000\n      dup2\n      mstore\n      0x04\n      add\n      tag_231\n      swap1\n      tag_232\n      jump\t// in\n    tag_231:\n      mload(0x40)\n      dup1\n      swap2\n      sub\n      swap1\n      revert\n    tag_230:\n        /* \"NummoraCoreSomnia.sol\":2314:2324  numusToken */\n      0x02\n      0x00\n      swap1\n      sload\n      swap1\n      0x0100\n      exp\n      swap1\n      div\n      0xffffffffffffffffffffffffffffffffffffffff\n      and\n        /* \"NummoraCoreSomnia.sol\":2314:2329  numusToken.mint */\n      0xffffffffffffffffffffffffffffffffffffffff\n      and\n      0x40c10f19\n        /* \"NummoraCoreSomnia.sol\":2330:2340  msg.sender */\n      caller\n        /* \"NummoraCoreSomnia.sol\":2342:2348  amount */\n      dup4\n        /* \"NummoraCoreSomnia.sol\":2314:2349  numusToken.mint(msg.sender, amount) */\n      mload(0x40)\n      dup4\n      0xffffffff\n      and\n      0xe0\n      shl\n      dup2\n      mstore\n      0x04\n      add\n      tag_233\n      swap3\n      swap2\n      swap1\n      tag_182\n      jump\t// in\n    tag_233:\n      0x00\n      mload(0x40)\n      dup1\n      dup4\n      sub\n      dup2\n      0x00\n      dup8\n      dup1\n      extcodesize\n      iszero\n      dup1\n      iszero\n      tag_234\n      jumpi\n      revert(0x00, 0x00)\n    tag_234:\n      pop\n      gas\n      call\n      iszero\n      dup1\n      iszero\n      tag_236\n      jumpi\n      returndatacopy(0x00, 0x00, returndatasize)\n      revert(0x00, returndatasize)\n    tag_236:\n      pop\n      pop\n      pop\n      pop\n        /* \"@openzeppelin/contracts/security/ReentrancyGuard.sol\":2303:2323  _nonReentrantAfter() */\n      tag_237\n        /* \"@openzeppelin/contracts/security/ReentrancyGuard.sol\":2303:2321  _nonReentrantAfter */\n      tag_169\n        /* \"@openzeppelin/contracts/security/ReentrancyGuard.sol\":2303:2323  _nonReentrantAfter() */\n      jump\t// in\n    tag_237:\n        /* \"NummoraCoreSomnia.sol\":2115:2357  function deposit(uint256 amount) external payable nonReentrant {... */\n      pop\n      jump\t// out\n        /* \"NummoraCoreSomnia.sol\":1052:1093  mapping(address => bool) public borrowers */\n    tag_92:\n      mstore(0x20, 0x06)\n      dup1\n      0x00\n      mstore\n      keccak256(0x00, 0x40)\n      0x00\n      swap2\n      pop\n      sload\n      swap1\n      0x0100\n      exp\n      swap1\n      div\n      0xff\n      and\n      dup2\n      jump\t// out\n        /* \"NummoraCoreSomnia.sol\":1138:1162  uint256 public fee = 200 */\n    tag_96:\n      sload(0x08)\n      dup2\n      jump\t// out\n        /* \"NummoraCoreSomnia.sol\":962:999  mapping(uint256 => Loan) public loans */\n    tag_101:\n      mstore(0x20, 0x04)\n      dup1\n      0x00\n      mstore\n      keccak256(0x00, 0x40)\n      0x00\n      swap2\n      pop\n      swap1\n      pop\n      dup1\n      0x00\n      add\n      0x00\n      swap1\n      sload\n      swap1\n      0x0100\n      exp\n      swap1\n      div\n      0xffffffffffffffffffffffffffffffffffffffff\n      and\n      swap1\n      dup1\n      0x01\n      add\n      0x00\n      swap1\n      sload\n      swap1\n      0x0100\n      exp\n      swap1\n      div\n      0xffffffffffffffffffffffffffffffffffffffff\n      and\n      swap1\n      dup1\n      0x02\n      add\n      sload\n      swap1\n      dup1\n      0x03\n      add\n      sload\n      swap1\n      dup1\n      0x04\n      add\n      sload\n      swap1\n      dup1\n      0x05\n      add\n      sload\n      swap1\n      dup1\n      0x06\n      add\n      sload\n      swap1\n      dup1\n      0x07\n      add\n      sload\n      swap1\n      dup1\n      0x08\n      add\n      sload\n      swap1\n      dup1\n      0x09\n      add\n      0x00\n      swap1\n      sload\n      swap1\n      0x0100\n      exp\n      swap1\n      div\n      0xff\n      and\n      swap1\n      pop\n      dup11\n      jump\t// out\n        /* \"NummoraCoreSomnia.sol\":4216:4881  function payInstallment(uint256 loanId) external payable nonReentrant {... */\n    tag_106:\n        /* \"@openzeppelin/contracts/security/ReentrancyGuard.sol\":2261:2282  _nonReentrantBefore() */\n      tag_239\n        /* \"@openzeppelin/contracts/security/ReentrancyGuard.sol\":2261:2280  _nonReentrantBefore */\n      tag_137\n        /* \"@openzeppelin/contracts/security/ReentrancyGuard.sol\":2261:2282  _nonReentrantBefore() */\n      jump\t// in\n    tag_239:\n        /* \"NummoraCoreSomnia.sol\":4297:4314  Loan storage loan */\n      0x00\n        /* \"NummoraCoreSomnia.sol\":4317:4322  loans */\n      0x04\n        /* \"NummoraCoreSomnia.sol\":4317:4330  loans[loanId] */\n      0x00\n        /* \"NummoraCoreSomnia.sol\":4323:4329  loanId */\n      dup4\n        /* \"NummoraCoreSomnia.sol\":4317:4330  loans[loanId] */\n      dup2\n      mstore\n      0x20\n      add\n      swap1\n      dup2\n      mstore\n      0x20\n      add\n      0x00\n      keccak256\n        /* \"NummoraCoreSomnia.sol\":4297:4330  Loan storage loan = loans[loanId] */\n      swap1\n      pop\n        /* \"NummoraCoreSomnia.sol\":4349:4353  loan */\n      dup1\n        /* \"NummoraCoreSomnia.sol\":4349:4360  loan.active */\n      0x09\n      add\n      0x00\n      swap1\n      sload\n      swap1\n      0x0100\n      exp\n      swap1\n      div\n      0xff\n      and\n        /* \"NummoraCoreSomnia.sol\":4341:4380  require(loan.active, \"Loan not active\") */\n      tag_241\n      jumpi\n      mload(0x40)\n      0x08c379a000000000000000000000000000000000000000000000000000000000\n      dup2\n      mstore\n      0x04\n      add\n      tag_242\n      swap1\n      tag_141\n      jump\t// in\n    tag_242:\n      mload(0x40)\n      dup1\n      swap2\n      sub\n      swap1\n      revert\n    tag_241:\n        /* \"NummoraCoreSomnia.sol\":4416:4426  msg.sender */\n      caller\n        /* \"NummoraCoreSomnia.sol\":4399:4426  loan.borrower == msg.sender */\n      0xffffffffffffffffffffffffffffffffffffffff\n      and\n        /* \"NummoraCoreSomnia.sol\":4399:4403  loan */\n      dup2\n        /* \"NummoraCoreSomnia.sol\":4399:4412  loan.borrower */\n      0x01\n      add\n      0x00\n      swap1\n      sload\n      swap1\n      0x0100\n      exp\n      swap1\n      div\n      0xffffffffffffffffffffffffffffffffffffffff\n      and\n        /* \"NummoraCoreSomnia.sol\":4399:4426  loan.borrower == msg.sender */\n      0xffffffffffffffffffffffffffffffffffffffff\n      and\n      eq\n        /* \"NummoraCoreSomnia.sol\":4391:4444  require(loan.borrower == msg.sender, \"Not your loan\") */\n      tag_243\n      jumpi\n      mload(0x40)\n      0x08c379a000000000000000000000000000000000000000000000000000000000\n      dup2\n      mstore\n      0x04\n      add\n      tag_244\n      swap1\n      tag_144\n      jump\t// in\n    tag_244:\n      mload(0x40)\n      dup1\n      swap2\n      sub\n      swap1\n      revert\n    tag_243:\n        /* \"NummoraCoreSomnia.sol\":4487:4491  loan */\n      dup1\n        /* \"NummoraCoreSomnia.sol\":4487:4504  loan.installments */\n      0x06\n      add\n      sload\n        /* \"NummoraCoreSomnia.sol\":4463:4467  loan */\n      dup2\n        /* \"NummoraCoreSomnia.sol\":4463:4484  loan.installmentsPaid */\n      0x08\n      add\n      sload\n        /* \"NummoraCoreSomnia.sol\":4463:4504  loan.installmentsPaid < loan.installments */\n      lt\n        /* \"NummoraCoreSomnia.sol\":4455:4517  require(loan.installmentsPaid < loan.installments, \"All paid\") */\n      tag_245\n      jumpi\n      mload(0x40)\n      0x08c379a000000000000000000000000000000000000000000000000000000000\n      dup2\n      mstore\n      0x04\n      add\n      tag_246\n      swap1\n      tag_247\n      jump\t// in\n    tag_246:\n      mload(0x40)\n      dup1\n      swap2\n      sub\n      swap1\n      revert\n    tag_245:\n        /* \"NummoraCoreSomnia.sol\":4549:4553  loan */\n      dup1\n        /* \"NummoraCoreSomnia.sol\":4549:4571  loan.installmentAmount */\n      0x07\n      add\n      sload\n        /* \"NummoraCoreSomnia.sol\":4536:4545  msg.value */\n      callvalue\n        /* \"NummoraCoreSomnia.sol\":4536:4571  msg.value == loan.installmentAmount */\n      eq\n        /* \"NummoraCoreSomnia.sol\":4528:4593  require(msg.value == loan.installmentAmount, \"Incorrect payment\") */\n      tag_248\n      jumpi\n      mload(0x40)\n      0x08c379a000000000000000000000000000000000000000000000000000000000\n      dup2\n      mstore\n      0x04\n      add\n      tag_249\n      swap1\n      tag_163\n      jump\t// in\n    tag_249:\n      mload(0x40)\n      dup1\n      swap2\n      sub\n      swap1\n      revert\n    tag_248:\n        /* \"NummoraCoreSomnia.sol\":4632:4636  loan */\n      dup1\n        /* \"NummoraCoreSomnia.sol\":4632:4654  loan.installmentAmount */\n      0x07\n      add\n      sload\n        /* \"NummoraCoreSomnia.sol\":4614:4618  loan */\n      dup2\n        /* \"NummoraCoreSomnia.sol\":4614:4628  loan.totalPaid */\n      0x04\n      add\n      0x00\n        /* \"NummoraCoreSomnia.sol\":4614:4654  loan.totalPaid += loan.installmentAmount */\n      dup3\n      dup3\n      sload\n      tag_250\n      swap2\n      swap1\n      tag_156\n      jump\t// in\n    tag_250:\n      swap3\n      pop\n      pop\n      dup2\n      swap1\n      sstore\n      pop\n        /* \"NummoraCoreSomnia.sol\":4665:4669  loan */\n      dup1\n        /* \"NummoraCoreSomnia.sol\":4665:4686  loan.installmentsPaid */\n      0x08\n      add\n      0x00\n        /* \"NummoraCoreSomnia.sol\":4665:4688  loan.installmentsPaid++ */\n      dup2\n      sload\n      dup1\n      swap3\n      swap2\n      swap1\n      tag_251\n      swap1\n      tag_252\n      jump\t// in\n    tag_251:\n      swap2\n      swap1\n      pop\n      sstore\n      pop\n        /* \"NummoraCoreSomnia.sol\":4714:4757  PaymentMade(loanId, loan.installmentAmount) */\n      0x0e9e4ec6fa83fe2a2893fd5d6517a890df20f72cc0ba40495b21e65d12223503\n        /* \"NummoraCoreSomnia.sol\":4726:4732  loanId */\n      dup3\n        /* \"NummoraCoreSomnia.sol\":4734:4738  loan */\n      dup3\n        /* \"NummoraCoreSomnia.sol\":4734:4756  loan.installmentAmount */\n      0x07\n      add\n      sload\n        /* \"NummoraCoreSomnia.sol\":4714:4757  PaymentMade(loanId, loan.installmentAmount) */\n      mload(0x40)\n      tag_253\n      swap3\n      swap2\n      swap1\n      tag_167\n      jump\t// in\n    tag_253:\n      mload(0x40)\n      dup1\n      swap2\n      sub\n      swap1\n      log1\n        /* \"NummoraCoreSomnia.sol\":4807:4811  loan */\n      dup1\n        /* \"NummoraCoreSomnia.sol\":4807:4824  loan.installments */\n      0x06\n      add\n      sload\n        /* \"NummoraCoreSomnia.sol\":4782:4786  loan */\n      dup2\n        /* \"NummoraCoreSomnia.sol\":4782:4803  loan.installmentsPaid */\n      0x08\n      add\n      sload\n        /* \"NummoraCoreSomnia.sol\":4782:4824  loan.installmentsPaid >= loan.installments */\n      lt\n        /* \"NummoraCoreSomnia.sol\":4778:4874  if (loan.installmentsPaid >= loan.installments) {... */\n      tag_254\n      jumpi\n        /* \"NummoraCoreSomnia.sol\":4841:4862  _completeLoan(loanId) */\n      tag_255\n        /* \"NummoraCoreSomnia.sol\":4855:4861  loanId */\n      dup3\n        /* \"NummoraCoreSomnia.sol\":4841:4854  _completeLoan */\n      tag_165\n        /* \"NummoraCoreSomnia.sol\":4841:4862  _completeLoan(loanId) */\n      jump\t// in\n    tag_255:\n        /* \"NummoraCoreSomnia.sol\":4778:4874  if (loan.installmentsPaid >= loan.installments) {... */\n    tag_254:\n        /* \"NummoraCoreSomnia.sol\":4286:4881  {... */\n      pop\n        /* \"@openzeppelin/contracts/security/ReentrancyGuard.sol\":2303:2323  _nonReentrantAfter() */\n      tag_256\n        /* \"@openzeppelin/contracts/security/ReentrancyGuard.sol\":2303:2321  _nonReentrantAfter */\n      tag_169\n        /* \"@openzeppelin/contracts/security/ReentrancyGuard.sol\":2303:2323  _nonReentrantAfter() */\n      jump\t// in\n    tag_256:\n        /* \"NummoraCoreSomnia.sol\":4216:4881  function payInstallment(uint256 loanId) external payable nonReentrant {... */\n      pop\n      jump\t// out\n        /* \"NummoraCoreSomnia.sol\":2822:4165  function createLoan(... */\n    tag_111:\n        /* \"NummoraCoreSomnia.sol\":3025:3032  uint256 */\n      0x00\n        /* \"@openzeppelin/contracts/access/Ownable.sol\":1531:1544  _checkOwner() */\n      tag_258\n        /* \"@openzeppelin/contracts/access/Ownable.sol\":1531:1542  _checkOwner */\n      tag_200\n        /* \"@openzeppelin/contracts/access/Ownable.sol\":1531:1544  _checkOwner() */\n      jump\t// in\n    tag_258:\n        /* \"@openzeppelin/contracts/security/ReentrancyGuard.sol\":2261:2282  _nonReentrantBefore() */\n      tag_260\n        /* \"@openzeppelin/contracts/security/ReentrancyGuard.sol\":2261:2280  _nonReentrantBefore */\n      tag_137\n        /* \"@openzeppelin/contracts/security/ReentrancyGuard.sol\":2261:2282  _nonReentrantBefore() */\n      jump\t// in\n    tag_260:\n        /* \"NummoraCoreSomnia.sol\":3053:3060  lenders */\n      0x05\n        /* \"NummoraCoreSomnia.sol\":3053:3068  lenders[lender] */\n      0x00\n        /* \"NummoraCoreSomnia.sol\":3061:3067  lender */\n      dup8\n        /* \"NummoraCoreSomnia.sol\":3053:3068  lenders[lender] */\n      0xffffffffffffffffffffffffffffffffffffffff\n      and\n      0xffffffffffffffffffffffffffffffffffffffff\n      and\n      dup2\n      mstore\n      0x20\n      add\n      swap1\n      dup2\n      mstore\n      0x20\n      add\n      0x00\n      keccak256\n      0x00\n      swap1\n      sload\n      swap1\n      0x0100\n      exp\n      swap1\n      div\n      0xff\n      and\n        /* \"NummoraCoreSomnia.sol\":3045:3094  require(lenders[lender], \"Lender not registered\") */\n      tag_262\n      jumpi\n      mload(0x40)\n      0x08c379a000000000000000000000000000000000000000000000000000000000\n      dup2\n      mstore\n      0x04\n      add\n      tag_263\n      swap1\n      tag_264\n      jump\t// in\n    tag_263:\n      mload(0x40)\n      dup1\n      swap2\n      sub\n      swap1\n      revert\n    tag_262:\n        /* \"NummoraCoreSomnia.sol\":3113:3122  borrowers */\n      0x06\n        /* \"NummoraCoreSomnia.sol\":3113:3132  borrowers[borrower] */\n      0x00\n        /* \"NummoraCoreSomnia.sol\":3123:3131  borrower */\n      dup7\n        /* \"NummoraCoreSomnia.sol\":3113:3132  borrowers[borrower] */\n      0xffffffffffffffffffffffffffffffffffffffff\n      and\n      0xffffffffffffffffffffffffffffffffffffffff\n      and\n      dup2\n      mstore\n      0x20\n      add\n      swap1\n      dup2\n      mstore\n      0x20\n      add\n      0x00\n      keccak256\n      0x00\n      swap1\n      sload\n      swap1\n      0x0100\n      exp\n      swap1\n      div\n      0xff\n      and\n        /* \"NummoraCoreSomnia.sol\":3105:3160  require(borrowers[borrower], \"Borrower not registered\") */\n      tag_265\n      jumpi\n      mload(0x40)\n      0x08c379a000000000000000000000000000000000000000000000000000000000\n      dup2\n      mstore\n      0x04\n      add\n      tag_266\n      swap1\n      tag_267\n      jump\t// in\n    tag_266:\n      mload(0x40)\n      dup1\n      swap2\n      sub\n      swap1\n      revert\n    tag_265:\n        /* \"NummoraCoreSomnia.sol\":3211:3217  amount */\n      dup4\n        /* \"NummoraCoreSomnia.sol\":3179:3189  numusToken */\n      0x02\n      0x00\n      swap1\n      sload\n      swap1\n      0x0100\n      exp\n      swap1\n      div\n      0xffffffffffffffffffffffffffffffffffffffff\n      and\n        /* \"NummoraCoreSomnia.sol\":3179:3199  numusToken.balanceOf */\n      0xffffffffffffffffffffffffffffffffffffffff\n      and\n      0x70a08231\n        /* \"NummoraCoreSomnia.sol\":3200:3206  lender */\n      dup9\n        /* \"NummoraCoreSomnia.sol\":3179:3207  numusToken.balanceOf(lender) */\n      mload(0x40)\n      dup3\n      0xffffffff\n      and\n      0xe0\n      shl\n      dup2\n      mstore\n      0x04\n      add\n      tag_268\n      swap2\n      swap1\n      tag_81\n      jump\t// in\n    tag_268:\n      0x20\n      mload(0x40)\n      dup1\n      dup4\n      sub\n      dup2\n      dup7\n      gas\n      staticcall\n      iszero\n      dup1\n      iszero\n      tag_270\n      jumpi\n      returndatacopy(0x00, 0x00, returndatasize)\n      revert(0x00, returndatasize)\n    tag_270:\n      pop\n      pop\n      pop\n      pop\n      mload(0x40)\n      returndatasize\n      not(0x1f)\n      0x1f\n      dup3\n      add\n      and\n      dup3\n      add\n      dup1\n      0x40\n      mstore\n      pop\n      dup2\n      add\n      swap1\n      tag_271\n      swap2\n      swap1\n      tag_177\n      jump\t// in\n    tag_271:\n        /* \"NummoraCoreSomnia.sol\":3179:3217  numusToken.balanceOf(lender) >= amount */\n      lt\n      iszero\n        /* \"NummoraCoreSomnia.sol\":3171:3242  require(numusToken.balanceOf(lender) >= amount, \"Insufficient balance\") */\n      tag_272\n      jumpi\n      mload(0x40)\n      0x08c379a000000000000000000000000000000000000000000000000000000000\n      dup2\n      mstore\n      0x04\n      add\n      tag_273\n      swap1\n      tag_180\n      jump\t// in\n    tag_273:\n      mload(0x40)\n      dup1\n      swap2\n      sub\n      swap1\n      revert\n    tag_272:\n        /* \"NummoraCoreSomnia.sol\":3263:3277  uint256 loanId */\n      0x00\n        /* \"NummoraCoreSomnia.sol\":3280:3290  nextLoanId */\n      0x07\n      0x00\n        /* \"NummoraCoreSomnia.sol\":3280:3292  nextLoanId++ */\n      dup2\n      sload\n      dup1\n      swap3\n      swap2\n      swap1\n      tag_274\n      swap1\n      tag_252\n      jump\t// in\n    tag_274:\n      swap2\n      swap1\n      pop\n      sstore\n        /* \"NummoraCoreSomnia.sol\":3263:3292  uint256 loanId = nextLoanId++ */\n      swap1\n      pop\n        /* \"NummoraCoreSomnia.sol\":3303:3321  uint256 totalToPay */\n      0x00\n        /* \"NummoraCoreSomnia.sol\":3333:3341  interest */\n      dup5\n        /* \"NummoraCoreSomnia.sol\":3324:3330  amount */\n      dup7\n        /* \"NummoraCoreSomnia.sol\":3324:3341  amount + interest */\n      tag_275\n      swap2\n      swap1\n      tag_156\n      jump\t// in\n    tag_275:\n        /* \"NummoraCoreSomnia.sol\":3303:3341  uint256 totalToPay = amount + interest */\n      swap1\n      pop\n        /* \"NummoraCoreSomnia.sol\":3352:3377  uint256 installmentAmount */\n      0x00\n        /* \"NummoraCoreSomnia.sol\":3393:3405  installments */\n      dup5\n        /* \"NummoraCoreSomnia.sol\":3380:3390  totalToPay */\n      dup3\n        /* \"NummoraCoreSomnia.sol\":3380:3405  totalToPay / installments */\n      tag_276\n      swap2\n      swap1\n      tag_148\n      jump\t// in\n    tag_276:\n        /* \"NummoraCoreSomnia.sol\":3352:3405  uint256 installmentAmount = totalToPay / installments */\n      swap1\n      pop\n        /* \"NummoraCoreSomnia.sol\":3442:3808  Loan({... */\n      mload(0x40)\n      dup1\n      0x0140\n      add\n      0x40\n      mstore\n      dup1\n        /* \"NummoraCoreSomnia.sol\":3470:3476  lender */\n      dup11\n        /* \"NummoraCoreSomnia.sol\":3442:3808  Loan({... */\n      0xffffffffffffffffffffffffffffffffffffffff\n      and\n      dup2\n      mstore\n      0x20\n      add\n        /* \"NummoraCoreSomnia.sol\":3501:3509  borrower */\n      dup10\n        /* \"NummoraCoreSomnia.sol\":3442:3808  Loan({... */\n      0xffffffffffffffffffffffffffffffffffffffff\n      and\n      dup2\n      mstore\n      0x20\n      add\n        /* \"NummoraCoreSomnia.sol\":3532:3538  amount */\n      dup9\n        /* \"NummoraCoreSomnia.sol\":3442:3808  Loan({... */\n      dup2\n      mstore\n      0x20\n      add\n        /* \"NummoraCoreSomnia.sol\":3565:3575  totalToPay */\n      dup4\n        /* \"NummoraCoreSomnia.sol\":3442:3808  Loan({... */\n      dup2\n      mstore\n      0x20\n      add\n        /* \"NummoraCoreSomnia.sol\":3601:3602  0 */\n      0x00\n        /* \"NummoraCoreSomnia.sol\":3442:3808  Loan({... */\n      dup2\n      mstore\n      0x20\n      add\n        /* \"NummoraCoreSomnia.sol\":3628:3643  block.timestamp */\n      timestamp\n        /* \"NummoraCoreSomnia.sol\":3442:3808  Loan({... */\n      dup2\n      mstore\n      0x20\n      add\n        /* \"NummoraCoreSomnia.sol\":3672:3684  installments */\n      dup7\n        /* \"NummoraCoreSomnia.sol\":3442:3808  Loan({... */\n      dup2\n      mstore\n      0x20\n      add\n        /* \"NummoraCoreSomnia.sol\":3718:3735  installmentAmount */\n      dup3\n        /* \"NummoraCoreSomnia.sol\":3442:3808  Loan({... */\n      dup2\n      mstore\n      0x20\n      add\n        /* \"NummoraCoreSomnia.sol\":3768:3769  0 */\n      0x00\n        /* \"NummoraCoreSomnia.sol\":3442:3808  Loan({... */\n      dup2\n      mstore\n      0x20\n      add\n        /* \"NummoraCoreSomnia.sol\":3792:3796  true */\n      0x01\n        /* \"NummoraCoreSomnia.sol\":3442:3808  Loan({... */\n      iszero\n      iszero\n      dup2\n      mstore\n      pop\n        /* \"NummoraCoreSomnia.sol\":3426:3431  loans */\n      0x04\n        /* \"NummoraCoreSomnia.sol\":3426:3439  loans[loanId] */\n      0x00\n        /* \"NummoraCoreSomnia.sol\":3432:3438  loanId */\n      dup6\n        /* \"NummoraCoreSomnia.sol\":3426:3439  loans[loanId] */\n      dup2\n      mstore\n      0x20\n      add\n      swap1\n      dup2\n      mstore\n      0x20\n      add\n      0x00\n      keccak256\n        /* \"NummoraCoreSomnia.sol\":3426:3808  loans[loanId] = Loan({... */\n      0x00\n      dup3\n      add\n      mload\n      dup2\n      0x00\n      add\n      exp(0x0100, 0x00)\n      dup2\n      sload\n      dup2\n      0xffffffffffffffffffffffffffffffffffffffff\n      mul\n      not\n      and\n      swap1\n      dup4\n      0xffffffffffffffffffffffffffffffffffffffff\n      and\n      mul\n      or\n      swap1\n      sstore\n      pop\n      0x20\n      dup3\n      add\n      mload\n      dup2\n      0x01\n      add\n      exp(0x0100, 0x00)\n      dup2\n      sload\n      dup2\n      0xffffffffffffffffffffffffffffffffffffffff\n      mul\n      not\n      and\n      swap1\n      dup4\n      0xffffffffffffffffffffffffffffffffffffffff\n      and\n      mul\n      or\n      swap1\n      sstore\n      pop\n      0x40\n      dup3\n      add\n      mload\n      dup2\n      0x02\n      add\n      sstore\n      0x60\n      dup3\n      add\n      mload\n      dup2\n      0x03\n      add\n      sstore\n      0x80\n      dup3\n      add\n      mload\n      dup2\n      0x04\n      add\n      sstore\n      0xa0\n      dup3\n      add\n      mload\n      dup2\n      0x05\n      add\n      sstore\n      0xc0\n      dup3\n      add\n      mload\n      dup2\n      0x06\n      add\n      sstore\n      0xe0\n      dup3\n      add\n      mload\n      dup2\n      0x07\n      add\n      sstore\n      0x0100\n      dup3\n      add\n      mload\n      dup2\n      0x08\n      add\n      sstore\n      0x0120\n      dup3\n      add\n      mload\n      dup2\n      0x09\n      add\n      exp(0x0100, 0x00)\n      dup2\n      sload\n      dup2\n      0xff\n      mul\n      not\n      and\n      swap1\n      dup4\n      iszero\n      iszero\n      mul\n      or\n      swap1\n      sstore\n      pop\n      swap1\n      pop\n      pop\n        /* \"NummoraCoreSomnia.sol\":3870:3880  numusToken */\n      0x02\n      0x00\n      swap1\n      sload\n      swap1\n      0x0100\n      exp\n      swap1\n      div\n      0xffffffffffffffffffffffffffffffffffffffff\n      and\n        /* \"NummoraCoreSomnia.sol\":3870:3885  numusToken.burn */\n      0xffffffffffffffffffffffffffffffffffffffff\n      and\n      0x9dc29fac\n        /* \"NummoraCoreSomnia.sol\":3886:3892  lender */\n      dup11\n        /* \"NummoraCoreSomnia.sol\":3894:3900  amount */\n      dup10\n        /* \"NummoraCoreSomnia.sol\":3870:3901  numusToken.burn(lender, amount) */\n      mload(0x40)\n      dup4\n      0xffffffff\n      and\n      0xe0\n      shl\n      dup2\n      mstore\n      0x04\n      add\n      tag_277\n      swap3\n      swap2\n      swap1\n      tag_182\n      jump\t// in\n    tag_277:\n      0x00\n      mload(0x40)\n      dup1\n      dup4\n      sub\n      dup2\n      0x00\n      dup8\n      dup1\n      extcodesize\n      iszero\n      dup1\n      iszero\n      tag_278\n      jumpi\n      revert(0x00, 0x00)\n    tag_278:\n      pop\n      gas\n      call\n      iszero\n      dup1\n      iszero\n      tag_280\n      jumpi\n      returndatacopy(0x00, 0x00, returndatasize)\n      revert(0x00, returndatasize)\n    tag_280:\n      pop\n      pop\n      pop\n      pop\n        /* \"NummoraCoreSomnia.sol\":3913:3925  bool success */\n      0x00\n        /* \"NummoraCoreSomnia.sol\":3931:3939  borrower */\n      dup9\n        /* \"NummoraCoreSomnia.sol\":3931:3944  borrower.call */\n      0xffffffffffffffffffffffffffffffffffffffff\n      and\n        /* \"NummoraCoreSomnia.sol\":3952:3958  amount */\n      dup9\n        /* \"NummoraCoreSomnia.sol\":3931:3963  borrower.call{value: amount}(\"\") */\n      mload(0x40)\n      tag_281\n      swap1\n      tag_187\n      jump\t// in\n    tag_281:\n      0x00\n      mload(0x40)\n      dup1\n      dup4\n      sub\n      dup2\n      dup6\n      dup8\n      gas\n      call\n      swap3\n      pop\n      pop\n      pop\n      returndatasize\n      dup1\n      0x00\n      dup2\n      eq\n      tag_284\n      jumpi\n      mload(0x40)\n      swap2\n      pop\n      and(add(returndatasize, 0x3f), not(0x1f))\n      dup3\n      add\n      0x40\n      mstore\n      returndatasize\n      dup3\n      mstore\n      returndatasize\n      0x00\n      0x20\n      dup5\n      add\n      returndatacopy\n      jump(tag_283)\n    tag_284:\n      0x60\n      swap2\n      pop\n    tag_283:\n      pop\n        /* \"NummoraCoreSomnia.sol\":3912:3963  (bool success, ) = borrower.call{value: amount}(\"\") */\n      pop\n      swap1\n      pop\n        /* \"NummoraCoreSomnia.sol\":3982:3989  success */\n      dup1\n        /* \"NummoraCoreSomnia.sol\":3974:4009  require(success, \"Transfer failed\") */\n      tag_285\n      jumpi\n      mload(0x40)\n      0x08c379a000000000000000000000000000000000000000000000000000000000\n      dup2\n      mstore\n      0x04\n      add\n      tag_286\n      swap1\n      tag_193\n      jump\t// in\n    tag_286:\n      mload(0x40)\n      dup1\n      swap2\n      sub\n      swap1\n      revert\n    tag_285:\n        /* \"NummoraCoreSomnia.sol\":4030:4037  loanNFT */\n      0x03\n      0x00\n      swap1\n      sload\n      swap1\n      0x0100\n      exp\n      swap1\n      div\n      0xffffffffffffffffffffffffffffffffffffffff\n      and\n        /* \"NummoraCoreSomnia.sol\":4030:4042  loanNFT.mint */\n      0xffffffffffffffffffffffffffffffffffffffff\n      and\n      0xd3fc9864\n        /* \"NummoraCoreSomnia.sol\":4043:4049  lender */\n      dup12\n        /* \"NummoraCoreSomnia.sol\":4051:4057  loanId */\n      dup7\n        /* \"NummoraCoreSomnia.sol\":4030:4062  loanNFT.mint(lender, loanId, \"\") */\n      mload(0x40)\n      dup4\n      0xffffffff\n      and\n      0xe0\n      shl\n      dup2\n      mstore\n      0x04\n      add\n      tag_287\n      swap3\n      swap2\n      swap1\n      tag_288\n      jump\t// in\n    tag_287:\n      0x00\n      mload(0x40)\n      dup1\n      dup4\n      sub\n      dup2\n      0x00\n      dup8\n      dup1\n      extcodesize\n      iszero\n      dup1\n      iszero\n      tag_289\n      jumpi\n      revert(0x00, 0x00)\n    tag_289:\n      pop\n      gas\n      call\n      iszero\n      dup1\n      iszero\n      tag_291\n      jumpi\n      returndatacopy(0x00, 0x00, returndatasize)\n      revert(0x00, returndatasize)\n    tag_291:\n      pop\n      pop\n      pop\n      pop\n        /* \"NummoraCoreSomnia.sol\":4088:4133  LoanCreated(loanId, lender, borrower, amount) */\n      0x74b3e97b2a36ecfc8a1c59a0f98862174d98f86769a3420cf68024a054f87b6d\n        /* \"NummoraCoreSomnia.sol\":4100:4106  loanId */\n      dup5\n        /* \"NummoraCoreSomnia.sol\":4108:4114  lender */\n      dup12\n        /* \"NummoraCoreSomnia.sol\":4116:4124  borrower */\n      dup12\n        /* \"NummoraCoreSomnia.sol\":4126:4132  amount */\n      dup12\n        /* \"NummoraCoreSomnia.sol\":4088:4133  LoanCreated(loanId, lender, borrower, amount) */\n      mload(0x40)\n      tag_292\n      swap5\n      swap4\n      swap3\n      swap2\n      swap1\n      tag_293\n      jump\t// in\n    tag_292:\n      mload(0x40)\n      dup1\n      swap2\n      sub\n      swap1\n      log1\n        /* \"NummoraCoreSomnia.sol\":4151:4157  loanId */\n      dup4\n        /* \"NummoraCoreSomnia.sol\":4144:4157  return loanId */\n      swap5\n      pop\n      pop\n      pop\n      pop\n      pop\n        /* \"@openzeppelin/contracts/security/ReentrancyGuard.sol\":2303:2323  _nonReentrantAfter() */\n      tag_294\n        /* \"@openzeppelin/contracts/security/ReentrancyGuard.sol\":2303:2321  _nonReentrantAfter */\n      tag_169\n        /* \"@openzeppelin/contracts/security/ReentrancyGuard.sol\":2303:2323  _nonReentrantAfter() */\n      jump\t// in\n    tag_294:\n        /* \"NummoraCoreSomnia.sol\":2822:4165  function createLoan(... */\n      swap6\n      swap5\n      pop\n      pop\n      pop\n      pop\n      pop\n      jump\t// out\n        /* \"NummoraCoreSomnia.sol\":1937:2067  function registerBorrower() external {... */\n    tag_115:\n        /* \"NummoraCoreSomnia.sol\":2009:2013  true */\n      0x01\n        /* \"NummoraCoreSomnia.sol\":1985:1994  borrowers */\n      0x06\n        /* \"NummoraCoreSomnia.sol\":1985:2006  borrowers[msg.sender] */\n      0x00\n        /* \"NummoraCoreSomnia.sol\":1995:2005  msg.sender */\n      caller\n        /* \"NummoraCoreSomnia.sol\":1985:2006  borrowers[msg.sender] */\n      0xffffffffffffffffffffffffffffffffffffffff\n      and\n      0xffffffffffffffffffffffffffffffffffffffff\n      and\n      dup2\n      mstore\n      0x20\n      add\n      swap1\n      dup2\n      mstore\n      0x20\n      add\n      0x00\n      keccak256\n      0x00\n        /* \"NummoraCoreSomnia.sol\":1985:2013  borrowers[msg.sender] = true */\n      0x0100\n      exp\n      dup2\n      sload\n      dup2\n      0xff\n      mul\n      not\n      and\n      swap1\n      dup4\n      iszero\n      iszero\n      mul\n      or\n      swap1\n      sstore\n      pop\n        /* \"NummoraCoreSomnia.sol\":2029:2059  BorrowerRegistered(msg.sender) */\n      0x57c3b463895a0da2fe39978165ab8b71864d9225a91dd3bda7184006e52cdd0c\n        /* \"NummoraCoreSomnia.sol\":2048:2058  msg.sender */\n      caller\n        /* \"NummoraCoreSomnia.sol\":2029:2059  BorrowerRegistered(msg.sender) */\n      mload(0x40)\n      tag_296\n      swap2\n      swap1\n      tag_81\n      jump\t// in\n    tag_296:\n      mload(0x40)\n      dup1\n      swap2\n      sub\n      swap1\n      log1\n        /* \"NummoraCoreSomnia.sol\":1937:2067  function registerBorrower() external {... */\n      jump\t// out\n        /* \"NummoraCoreSomnia.sol\":6928:7032  function isBorrower(address user) external view returns (bool) {... */\n    tag_119:\n        /* \"NummoraCoreSomnia.sol\":6985:6989  bool */\n      0x00\n        /* \"NummoraCoreSomnia.sol\":7009:7018  borrowers */\n      0x06\n        /* \"NummoraCoreSomnia.sol\":7009:7024  borrowers[user] */\n      0x00\n        /* \"NummoraCoreSomnia.sol\":7019:7023  user */\n      dup4\n        /* \"NummoraCoreSomnia.sol\":7009:7024  borrowers[user] */\n      0xffffffffffffffffffffffffffffffffffffffff\n      and\n      0xffffffffffffffffffffffffffffffffffffffff\n      and\n      dup2\n      mstore\n      0x20\n      add\n      swap1\n      dup2\n      mstore\n      0x20\n      add\n      0x00\n      keccak256\n      0x00\n      swap1\n      sload\n      swap1\n      0x0100\n      exp\n      swap1\n      div\n      0xff\n      and\n        /* \"NummoraCoreSomnia.sol\":7002:7024  return borrowers[user] */\n      swap1\n      pop\n        /* \"NummoraCoreSomnia.sol\":6928:7032  function isBorrower(address user) external view returns (bool) {... */\n      swap2\n      swap1\n      pop\n      jump\t// out\n        /* \"@openzeppelin/contracts/access/Ownable.sol\":2543:2758  function transferOwnership(address newOwner) public virtual onlyOwner {... */\n    tag_124:\n        /* \"@openzeppelin/contracts/access/Ownable.sol\":1531:1544  _checkOwner() */\n      tag_299\n        /* \"@openzeppelin/contracts/access/Ownable.sol\":1531:1542  _checkOwner */\n      tag_200\n        /* \"@openzeppelin/contracts/access/Ownable.sol\":1531:1544  _checkOwner() */\n      jump\t// in\n    tag_299:\n        /* \"@openzeppelin/contracts/access/Ownable.sol\":2647:2648  0 */\n      0x00\n        /* \"@openzeppelin/contracts/access/Ownable.sol\":2627:2649  newOwner == address(0) */\n      0xffffffffffffffffffffffffffffffffffffffff\n      and\n        /* \"@openzeppelin/contracts/access/Ownable.sol\":2627:2635  newOwner */\n      dup2\n        /* \"@openzeppelin/contracts/access/Ownable.sol\":2627:2649  newOwner == address(0) */\n      0xffffffffffffffffffffffffffffffffffffffff\n      and\n      sub\n        /* \"@openzeppelin/contracts/access/Ownable.sol\":2623:2714  if (newOwner == address(0)) {... */\n      tag_301\n      jumpi\n        /* \"@openzeppelin/contracts/access/Ownable.sol\":2700:2701  0 */\n      0x00\n        /* \"@openzeppelin/contracts/access/Ownable.sol\":2672:2703  OwnableInvalidOwner(address(0)) */\n      mload(0x40)\n      0x1e4fbdf700000000000000000000000000000000000000000000000000000000\n      dup2\n      mstore\n      0x04\n      add\n      tag_302\n      swap2\n      swap1\n      tag_81\n      jump\t// in\n    tag_302:\n      mload(0x40)\n      dup1\n      swap2\n      sub\n      swap1\n      revert\n        /* \"@openzeppelin/contracts/access/Ownable.sol\":2623:2714  if (newOwner == address(0)) {... */\n    tag_301:\n        /* \"@openzeppelin/contracts/access/Ownable.sol\":2723:2751  _transferOwnership(newOwner) */\n      tag_303\n        /* \"@openzeppelin/contracts/access/Ownable.sol\":2742:2750  newOwner */\n      dup2\n        /* \"@openzeppelin/contracts/access/Ownable.sol\":2723:2741  _transferOwnership */\n      tag_214\n        /* \"@openzeppelin/contracts/access/Ownable.sol\":2723:2751  _transferOwnership(newOwner) */\n      jump\t// in\n    tag_303:\n        /* \"@openzeppelin/contracts/access/Ownable.sol\":2543:2758  function transferOwnership(address newOwner) public virtual onlyOwner {... */\n      pop\n      jump\t// out\n        /* \"NummoraCoreSomnia.sol\":6686:6804  function getBalance(address user) external view returns (uint256) {... */\n    tag_128:\n        /* \"NummoraCoreSomnia.sol\":6743:6750  uint256 */\n      0x00\n        /* \"NummoraCoreSomnia.sol\":6770:6780  numusToken */\n      0x02\n      0x00\n      swap1\n      sload\n      swap1\n      0x0100\n      exp\n      swap1\n      div\n      0xffffffffffffffffffffffffffffffffffffffff\n      and\n        /* \"NummoraCoreSomnia.sol\":6770:6790  numusToken.balanceOf */\n      0xffffffffffffffffffffffffffffffffffffffff\n      and\n      0x70a08231\n        /* \"NummoraCoreSomnia.sol\":6791:6795  user */\n      dup4\n        /* \"NummoraCoreSomnia.sol\":6770:6796  numusToken.balanceOf(user) */\n      mload(0x40)\n      dup3\n      0xffffffff\n      and\n      0xe0\n      shl\n      dup2\n      mstore\n      0x04\n      add\n      tag_305\n      swap2\n      swap1\n      tag_81\n      jump\t// in\n    tag_305:\n      0x20\n      mload(0x40)\n      dup1\n      dup4\n      sub\n      dup2\n      dup7\n      gas\n      staticcall\n      iszero\n      dup1\n      iszero\n      tag_307\n      jumpi\n      returndatacopy(0x00, 0x00, returndatasize)\n      revert(0x00, returndatasize)\n    tag_307:\n      pop\n      pop\n      pop\n      pop\n      mload(0x40)\n      returndatasize\n      not(0x1f)\n      0x1f\n      dup3\n      add\n      and\n      dup3\n      add\n      dup1\n      0x40\n      mstore\n      pop\n      dup2\n      add\n      swap1\n      tag_308\n      swap2\n      swap1\n      tag_177\n      jump\t// in\n    tag_308:\n        /* \"NummoraCoreSomnia.sol\":6763:6796  return numusToken.balanceOf(user) */\n      swap1\n      pop\n        /* \"NummoraCoreSomnia.sol\":6686:6804  function getBalance(address user) external view returns (uint256) {... */\n      swap2\n      swap1\n      pop\n      jump\t// out\n        /* \"NummoraCoreSomnia.sol\":894:923  INUMUSToken public numusToken */\n    tag_132:\n      0x02\n      0x00\n      swap1\n      sload\n      swap1\n      0x0100\n      exp\n      swap1\n      div\n      0xffffffffffffffffffffffffffffffffffffffff\n      and\n      dup2\n      jump\t// out\n        /* \"@openzeppelin/contracts/security/ReentrancyGuard.sol\":2336:2623  function _nonReentrantBefore() private {... */\n    tag_137:\n        /* \"@openzeppelin/contracts/security/ReentrancyGuard.sol\":1759:1760  2 */\n      0x02\n        /* \"@openzeppelin/contracts/security/ReentrancyGuard.sol\":2468:2475  _status */\n      sload(0x00)\n        /* \"@openzeppelin/contracts/security/ReentrancyGuard.sol\":2468:2487  _status != _ENTERED */\n      sub\n        /* \"@openzeppelin/contracts/security/ReentrancyGuard.sol\":2460:2523  require(_status != _ENTERED, \"ReentrancyGuard: reentrant call\") */\n      tag_310\n      jumpi\n      mload(0x40)\n      0x08c379a000000000000000000000000000000000000000000000000000000000\n      dup2\n      mstore\n      0x04\n      add\n      tag_311\n      swap1\n      tag_312\n      jump\t// in\n    tag_311:\n      mload(0x40)\n      dup1\n      swap2\n      sub\n      swap1\n      revert\n    tag_310:\n        /* \"@openzeppelin/contracts/security/ReentrancyGuard.sol\":1759:1760  2 */\n      0x02\n        /* \"@openzeppelin/contracts/security/ReentrancyGuard.sol\":2598:2605  _status */\n      0x00\n        /* \"@openzeppelin/contracts/security/ReentrancyGuard.sol\":2598:2616  _status = _ENTERED */\n      dup2\n      swap1\n      sstore\n      pop\n        /* \"@openzeppelin/contracts/security/ReentrancyGuard.sol\":2336:2623  function _nonReentrantBefore() private {... */\n      jump\t// out\n        /* \"NummoraCoreSomnia.sol\":6081:6508  function _completeLoan(uint256 loanId) internal {... */\n    tag_165:\n        /* \"NummoraCoreSomnia.sol\":6140:6157  Loan storage loan */\n      0x00\n        /* \"NummoraCoreSomnia.sol\":6160:6165  loans */\n      0x04\n        /* \"NummoraCoreSomnia.sol\":6160:6173  loans[loanId] */\n      0x00\n        /* \"NummoraCoreSomnia.sol\":6166:6172  loanId */\n      dup4\n        /* \"NummoraCoreSomnia.sol\":6160:6173  loans[loanId] */\n      dup2\n      mstore\n      0x20\n      add\n      swap1\n      dup2\n      mstore\n      0x20\n      add\n      0x00\n      keccak256\n        /* \"NummoraCoreSomnia.sol\":6140:6173  Loan storage loan = loans[loanId] */\n      swap1\n      pop\n        /* \"NummoraCoreSomnia.sol\":6198:6203  false */\n      0x00\n        /* \"NummoraCoreSomnia.sol\":6184:6188  loan */\n      dup2\n        /* \"NummoraCoreSomnia.sol\":6184:6195  loan.active */\n      0x09\n      add\n      0x00\n        /* \"NummoraCoreSomnia.sol\":6184:6203  loan.active = false */\n      0x0100\n      exp\n      dup2\n      sload\n      dup2\n      0xff\n      mul\n      not\n      and\n      swap1\n      dup4\n      iszero\n      iszero\n      mul\n      or\n      swap1\n      sstore\n      pop\n        /* \"NummoraCoreSomnia.sol\":6224:6240  uint256 interest */\n      0x00\n        /* \"NummoraCoreSomnia.sol\":6260:6264  loan */\n      dup2\n        /* \"NummoraCoreSomnia.sol\":6260:6271  loan.amount */\n      0x02\n      add\n      sload\n        /* \"NummoraCoreSomnia.sol\":6243:6247  loan */\n      dup3\n        /* \"NummoraCoreSomnia.sol\":6243:6257  loan.totalPaid */\n      0x04\n      add\n      sload\n        /* \"NummoraCoreSomnia.sol\":6243:6271  loan.totalPaid - loan.amount */\n      tag_314\n      swap2\n      swap1\n      tag_146\n      jump\t// in\n    tag_314:\n        /* \"NummoraCoreSomnia.sol\":6224:6271  uint256 interest = loan.totalPaid - loan.amount */\n      swap1\n      pop\n        /* \"NummoraCoreSomnia.sol\":6282:6301  uint256 platformFee */\n      0x00\n        /* \"NummoraCoreSomnia.sol\":6323:6328  10000 */\n      0x2710\n        /* \"NummoraCoreSomnia.sol\":6316:6319  fee */\n      sload(0x08)\n        /* \"NummoraCoreSomnia.sol\":6305:6313  interest */\n      dup4\n        /* \"NummoraCoreSomnia.sol\":6305:6319  interest * fee */\n      tag_315\n      swap2\n      swap1\n      tag_154\n      jump\t// in\n    tag_315:\n        /* \"NummoraCoreSomnia.sol\":6304:6328  (interest * fee) / 10000 */\n      tag_316\n      swap2\n      swap1\n      tag_148\n      jump\t// in\n    tag_316:\n        /* \"NummoraCoreSomnia.sol\":6282:6328  uint256 platformFee = (interest * fee) / 10000 */\n      swap1\n      pop\n        /* \"NummoraCoreSomnia.sol\":6339:6359  uint256 lenderAmount */\n      0x00\n        /* \"NummoraCoreSomnia.sol\":6379:6390  platformFee */\n      dup2\n        /* \"NummoraCoreSomnia.sol\":6362:6366  loan */\n      dup5\n        /* \"NummoraCoreSomnia.sol\":6362:6376  loan.totalPaid */\n      0x04\n      add\n      sload\n        /* \"NummoraCoreSomnia.sol\":6362:6390  loan.totalPaid - platformFee */\n      tag_317\n      swap2\n      swap1\n      tag_146\n      jump\t// in\n    tag_317:\n        /* \"NummoraCoreSomnia.sol\":6339:6390  uint256 lenderAmount = loan.totalPaid - platformFee */\n      swap1\n      pop\n        /* \"NummoraCoreSomnia.sol\":6411:6421  numusToken */\n      0x02\n      0x00\n      swap1\n      sload\n      swap1\n      0x0100\n      exp\n      swap1\n      div\n      0xffffffffffffffffffffffffffffffffffffffff\n      and\n        /* \"NummoraCoreSomnia.sol\":6411:6426  numusToken.mint */\n      0xffffffffffffffffffffffffffffffffffffffff\n      and\n      0x40c10f19\n        /* \"NummoraCoreSomnia.sol\":6427:6431  loan */\n      dup6\n        /* \"NummoraCoreSomnia.sol\":6427:6438  loan.lender */\n      0x00\n      add\n      0x00\n      swap1\n      sload\n      swap1\n      0x0100\n      exp\n      swap1\n      div\n      0xffffffffffffffffffffffffffffffffffffffff\n      and\n        /* \"NummoraCoreSomnia.sol\":6440:6452  lenderAmount */\n      dup4\n        /* \"NummoraCoreSomnia.sol\":6411:6453  numusToken.mint(loan.lender, lenderAmount) */\n      mload(0x40)\n      dup4\n      0xffffffff\n      and\n      0xe0\n      shl\n      dup2\n      mstore\n      0x04\n      add\n      tag_318\n      swap3\n      swap2\n      swap1\n      tag_182\n      jump\t// in\n    tag_318:\n      0x00\n      mload(0x40)\n      dup1\n      dup4\n      sub\n      dup2\n      0x00\n      dup8\n      dup1\n      extcodesize\n      iszero\n      dup1\n      iszero\n      tag_319\n      jumpi\n      revert(0x00, 0x00)\n    tag_319:\n      pop\n      gas\n      call\n      iszero\n      dup1\n      iszero\n      tag_321\n      jumpi\n      returndatacopy(0x00, 0x00, returndatasize)\n      revert(0x00, returndatasize)\n    tag_321:\n      pop\n      pop\n      pop\n      pop\n        /* \"NummoraCoreSomnia.sol\":6479:6500  LoanCompleted(loanId) */\n      0x02ca5489b37dd363d1302bac719e8ee40e540ffbe8c12253570fea63e11cad71\n        /* \"NummoraCoreSomnia.sol\":6493:6499  loanId */\n      dup6\n        /* \"NummoraCoreSomnia.sol\":6479:6500  LoanCompleted(loanId) */\n      mload(0x40)\n      tag_322\n      swap2\n      swap1\n      tag_76\n      jump\t// in\n    tag_322:\n      mload(0x40)\n      dup1\n      swap2\n      sub\n      swap1\n      log1\n        /* \"NummoraCoreSomnia.sol\":6129:6508  {... */\n      pop\n      pop\n      pop\n      pop\n        /* \"NummoraCoreSomnia.sol\":6081:6508  function _completeLoan(uint256 loanId) internal {... */\n      pop\n      jump\t// out\n        /* \"@openzeppelin/contracts/security/ReentrancyGuard.sol\":2629:2838  function _nonReentrantAfter() private {... */\n    tag_169:\n        /* \"@openzeppelin/contracts/security/ReentrancyGuard.sol\":1716:1717  1 */\n      0x01\n        /* \"@openzeppelin/contracts/security/ReentrancyGuard.sol\":2809:2816  _status */\n      0x00\n        /* \"@openzeppelin/contracts/security/ReentrancyGuard.sol\":2809:2831  _status = _NOT_ENTERED */\n      dup2\n      swap1\n      sstore\n      pop\n        /* \"@openzeppelin/contracts/security/ReentrancyGuard.sol\":2629:2838  function _nonReentrantAfter() private {... */\n      jump\t// out\n        /* \"@openzeppelin/contracts/access/Ownable.sol\":1796:1958  function _checkOwner() internal view virtual {... */\n    tag_200:\n        /* \"@openzeppelin/contracts/access/Ownable.sol\":1866:1878  _msgSender() */\n      tag_325\n        /* \"@openzeppelin/contracts/access/Ownable.sol\":1866:1876  _msgSender */\n      tag_326\n        /* \"@openzeppelin/contracts/access/Ownable.sol\":1866:1878  _msgSender() */\n      jump\t// in\n    tag_325:\n        /* \"@openzeppelin/contracts/access/Ownable.sol\":1855:1878  owner() != _msgSender() */\n      0xffffffffffffffffffffffffffffffffffffffff\n      and\n        /* \"@openzeppelin/contracts/access/Ownable.sol\":1855:1862  owner() */\n      tag_327\n        /* \"@openzeppelin/contracts/access/Ownable.sol\":1855:1860  owner */\n      tag_79\n        /* \"@openzeppelin/contracts/access/Ownable.sol\":1855:1862  owner() */\n      jump\t// in\n    tag_327:\n        /* \"@openzeppelin/contracts/access/Ownable.sol\":1855:1878  owner() != _msgSender() */\n      0xffffffffffffffffffffffffffffffffffffffff\n      and\n      eq\n        /* \"@openzeppelin/contracts/access/Ownable.sol\":1851:1952  if (owner() != _msgSender()) {... */\n      tag_328\n      jumpi\n        /* \"@openzeppelin/contracts/access/Ownable.sol\":1928:1940  _msgSender() */\n      tag_329\n        /* \"@openzeppelin/contracts/access/Ownable.sol\":1928:1938  _msgSender */\n      tag_326\n        /* \"@openzeppelin/contracts/access/Ownable.sol\":1928:1940  _msgSender() */\n      jump\t// in\n    tag_329:\n        /* \"@openzeppelin/contracts/access/Ownable.sol\":1901:1941  OwnableUnauthorizedAccount(_msgSender()) */\n      mload(0x40)\n      0x118cdaa700000000000000000000000000000000000000000000000000000000\n      dup2\n      mstore\n      0x04\n      add\n      tag_330\n      swap2\n      swap1\n      tag_81\n      jump\t// in\n    tag_330:\n      mload(0x40)\n      dup1\n      swap2\n      sub\n      swap1\n      revert\n        /* \"@openzeppelin/contracts/access/Ownable.sol\":1851:1952  if (owner() != _msgSender()) {... */\n    tag_328:\n        /* \"@openzeppelin/contracts/access/Ownable.sol\":1796:1958  function _checkOwner() internal view virtual {... */\n      jump\t// out\n        /* \"@openzeppelin/contracts/access/Ownable.sol\":2912:3099  function _transferOwnership(address newOwner) internal virtual {... */\n    tag_214:\n        /* \"@openzeppelin/contracts/access/Ownable.sol\":2985:3001  address oldOwner */\n      0x00\n        /* \"@openzeppelin/contracts/access/Ownable.sol\":3004:3010  _owner */\n      0x01\n      0x00\n      swap1\n      sload\n      swap1\n      0x0100\n      exp\n      swap1\n      div\n      0xffffffffffffffffffffffffffffffffffffffff\n      and\n        /* \"@openzeppelin/contracts/access/Ownable.sol\":2985:3010  address oldOwner = _owner */\n      swap1\n      pop\n        /* \"@openzeppelin/contracts/access/Ownable.sol\":3029:3037  newOwner */\n      dup2\n        /* \"@openzeppelin/contracts/access/Ownable.sol\":3020:3026  _owner */\n      0x01\n      0x00\n        /* \"@openzeppelin/contracts/access/Ownable.sol\":3020:3037  _owner = newOwner */\n      0x0100\n      exp\n      dup2\n      sload\n      dup2\n      0xffffffffffffffffffffffffffffffffffffffff\n      mul\n      not\n      and\n      swap1\n      dup4\n      0xffffffffffffffffffffffffffffffffffffffff\n      and\n      mul\n      or\n      swap1\n      sstore\n      pop\n        /* \"@openzeppelin/contracts/access/Ownable.sol\":3083:3091  newOwner */\n      dup2\n        /* \"@openzeppelin/contracts/access/Ownable.sol\":3052:3092  OwnershipTransferred(oldOwner, newOwner) */\n      0xffffffffffffffffffffffffffffffffffffffff\n      and\n        /* \"@openzeppelin/contracts/access/Ownable.sol\":3073:3081  oldOwner */\n      dup2\n        /* \"@openzeppelin/contracts/access/Ownable.sol\":3052:3092  OwnershipTransferred(oldOwner, newOwner) */\n      0xffffffffffffffffffffffffffffffffffffffff\n      and\n      0x8be0079c531659141344cd1fd0a4f28419497f9722a3daafe3b4186f6b6457e0\n      mload(0x40)\n      mload(0x40)\n      dup1\n      swap2\n      sub\n      swap1\n      log3\n        /* \"@openzeppelin/contracts/access/Ownable.sol\":2975:3099  {... */\n      pop\n        /* \"@openzeppelin/contracts/access/Ownable.sol\":2912:3099  function _transferOwnership(address newOwner) internal virtual {... */\n      pop\n      jump\t// out\n        /* \"@openzeppelin/contracts/utils/Context.sol\":656:752  function _msgSender() internal view virtual returns (address) {... */\n    tag_326:\n        /* \"@openzeppelin/contracts/utils/Context.sol\":709:716  address */\n      0x00\n        /* \"@openzeppelin/contracts/utils/Context.sol\":735:745  msg.sender */\n      caller\n        /* \"@openzeppelin/contracts/utils/Context.sol\":728:745  return msg.sender */\n      swap1\n      pop\n        /* \"@openzeppelin/contracts/utils/Context.sol\":656:752  function _msgSender() internal view virtual returns (address) {... */\n      swap1\n      jump\t// out\n    tag_196:\n      mload(0x40)\n      dup1\n      0x0140\n      add\n      0x40\n      mstore\n      dup1\n      and(0xffffffffffffffffffffffffffffffffffffffff, 0x00)\n      dup2\n      mstore\n      0x20\n      add\n      and(0xffffffffffffffffffffffffffffffffffffffff, 0x00)\n      dup2\n      mstore\n      0x20\n      add\n      0x00\n      dup2\n      mstore\n      0x20\n      add\n      0x00\n      dup2\n      mstore\n      0x20\n      add\n      0x00\n      dup2\n      mstore\n      0x20\n      add\n      0x00\n      dup2\n      mstore\n      0x20\n      add\n      0x00\n      dup2\n      mstore\n      0x20\n      add\n      0x00\n      dup2\n      mstore\n      0x20\n      add\n      0x00\n      dup2\n      mstore\n      0x20\n      add\n      iszero(iszero(0x00))\n      dup2\n      mstore\n      pop\n      swap1\n      jump\t// out\n        /* \"#utility.yul\":88:205   */\n    tag_334:\n        /* \"#utility.yul\":197:198   */\n      0x00\n        /* \"#utility.yul\":194:195   */\n      0x00\n        /* \"#utility.yul\":187:199   */\n      revert\n        /* \"#utility.yul\":334:460   */\n    tag_336:\n        /* \"#utility.yul\":371:378   */\n      0x00\n        /* \"#utility.yul\":411:453   */\n      0xffffffffffffffffffffffffffffffffffffffff\n        /* \"#utility.yul\":404:409   */\n      dup3\n        /* \"#utility.yul\":400:454   */\n      and\n        /* \"#utility.yul\":389:454   */\n      swap1\n      pop\n        /* \"#utility.yul\":334:460   */\n      swap2\n      swap1\n      pop\n      jump\t// out\n        /* \"#utility.yul\":466:562   */\n    tag_337:\n        /* \"#utility.yul\":503:510   */\n      0x00\n        /* \"#utility.yul\":532:556   */\n      tag_398\n        /* \"#utility.yul\":550:555   */\n      dup3\n        /* \"#utility.yul\":532:556   */\n      tag_336\n      jump\t// in\n    tag_398:\n        /* \"#utility.yul\":521:556   */\n      swap1\n      pop\n        /* \"#utility.yul\":466:562   */\n      swap2\n      swap1\n      pop\n      jump\t// out\n        /* \"#utility.yul\":568:690   */\n    tag_338:\n        /* \"#utility.yul\":641:665   */\n      tag_400\n        /* \"#utility.yul\":659:664   */\n      dup2\n        /* \"#utility.yul\":641:665   */\n      tag_337\n      jump\t// in\n    tag_400:\n        /* \"#utility.yul\":634:639   */\n      dup2\n        /* \"#utility.yul\":631:666   */\n      eq\n        /* \"#utility.yul\":621:684   */\n      tag_401\n      jumpi\n        /* \"#utility.yul\":680:681   */\n      0x00\n        /* \"#utility.yul\":677:678   */\n      0x00\n        /* \"#utility.yul\":670:682   */\n      revert\n        /* \"#utility.yul\":621:684   */\n    tag_401:\n        /* \"#utility.yul\":568:690   */\n      pop\n      jump\t// out\n        /* \"#utility.yul\":696:835   */\n    tag_339:\n        /* \"#utility.yul\":742:747   */\n      0x00\n        /* \"#utility.yul\":780:786   */\n      dup2\n        /* \"#utility.yul\":767:787   */\n      calldataload\n        /* \"#utility.yul\":758:787   */\n      swap1\n      pop\n        /* \"#utility.yul\":796:829   */\n      tag_403\n        /* \"#utility.yul\":823:828   */\n      dup2\n        /* \"#utility.yul\":796:829   */\n      tag_338\n      jump\t// in\n    tag_403:\n        /* \"#utility.yul\":696:835   */\n      swap3\n      swap2\n      pop\n      pop\n      jump\t// out\n        /* \"#utility.yul\":841:1170   */\n    tag_34:\n        /* \"#utility.yul\":900:906   */\n      0x00\n        /* \"#utility.yul\":949:951   */\n      0x20\n        /* \"#utility.yul\":937:946   */\n      dup3\n        /* \"#utility.yul\":928:935   */\n      dup5\n        /* \"#utility.yul\":924:947   */\n      sub\n        /* \"#utility.yul\":920:952   */\n      slt\n        /* \"#utility.yul\":917:1036   */\n      iszero\n      tag_405\n      jumpi\n        /* \"#utility.yul\":955:1034   */\n      tag_406\n      tag_334\n      jump\t// in\n    tag_406:\n        /* \"#utility.yul\":917:1036   */\n    tag_405:\n        /* \"#utility.yul\":1075:1076   */\n      0x00\n        /* \"#utility.yul\":1100:1153   */\n      tag_407\n        /* \"#utility.yul\":1145:1152   */\n      dup5\n        /* \"#utility.yul\":1136:1142   */\n      dup3\n        /* \"#utility.yul\":1125:1134   */\n      dup6\n        /* \"#utility.yul\":1121:1143   */\n      add\n        /* \"#utility.yul\":1100:1153   */\n      tag_339\n      jump\t// in\n    tag_407:\n        /* \"#utility.yul\":1090:1153   */\n      swap2\n      pop\n        /* \"#utility.yul\":1046:1163   */\n      pop\n        /* \"#utility.yul\":841:1170   */\n      swap3\n      swap2\n      pop\n      pop\n      jump\t// out\n        /* \"#utility.yul\":1176:1266   */\n    tag_340:\n        /* \"#utility.yul\":1210:1217   */\n      0x00\n        /* \"#utility.yul\":1253:1258   */\n      dup2\n        /* \"#utility.yul\":1246:1259   */\n      iszero\n        /* \"#utility.yul\":1239:1260   */\n      iszero\n        /* \"#utility.yul\":1228:1260   */\n      swap1\n      pop\n        /* \"#utility.yul\":1176:1266   */\n      swap2\n      swap1\n      pop\n      jump\t// out\n        /* \"#utility.yul\":1272:1381   */\n    tag_341:\n        /* \"#utility.yul\":1353:1374   */\n      tag_410\n        /* \"#utility.yul\":1368:1373   */\n      dup2\n        /* \"#utility.yul\":1353:1374   */\n      tag_340\n      jump\t// in\n    tag_410:\n        /* \"#utility.yul\":1348:1351   */\n      dup3\n        /* \"#utility.yul\":1341:1375   */\n      mstore\n        /* \"#utility.yul\":1272:1381   */\n      pop\n      pop\n      jump\t// out\n        /* \"#utility.yul\":1387:1597   */\n    tag_37:\n        /* \"#utility.yul\":1474:1478   */\n      0x00\n        /* \"#utility.yul\":1512:1514   */\n      0x20\n        /* \"#utility.yul\":1501:1510   */\n      dup3\n        /* \"#utility.yul\":1497:1515   */\n      add\n        /* \"#utility.yul\":1489:1515   */\n      swap1\n      pop\n        /* \"#utility.yul\":1525:1590   */\n      tag_412\n        /* \"#utility.yul\":1587:1588   */\n      0x00\n        /* \"#utility.yul\":1576:1585   */\n      dup4\n        /* \"#utility.yul\":1572:1589   */\n      add\n        /* \"#utility.yul\":1563:1569   */\n      dup5\n        /* \"#utility.yul\":1525:1590   */\n      tag_341\n      jump\t// in\n    tag_412:\n        /* \"#utility.yul\":1387:1597   */\n      swap3\n      swap2\n      pop\n      pop\n      jump\t// out\n        /* \"#utility.yul\":1603:1680   */\n    tag_342:\n        /* \"#utility.yul\":1640:1647   */\n      0x00\n        /* \"#utility.yul\":1669:1674   */\n      dup2\n        /* \"#utility.yul\":1658:1674   */\n      swap1\n      pop\n        /* \"#utility.yul\":1603:1680   */\n      swap2\n      swap1\n      pop\n      jump\t// out\n        /* \"#utility.yul\":1686:1808   */\n    tag_343:\n        /* \"#utility.yul\":1759:1783   */\n      tag_415\n        /* \"#utility.yul\":1777:1782   */\n      dup2\n        /* \"#utility.yul\":1759:1783   */\n      tag_342\n      jump\t// in\n    tag_415:\n        /* \"#utility.yul\":1752:1757   */\n      dup2\n        /* \"#utility.yul\":1749:1784   */\n      eq\n        /* \"#utility.yul\":1739:1802   */\n      tag_416\n      jumpi\n        /* \"#utility.yul\":1798:1799   */\n      0x00\n        /* \"#utility.yul\":1795:1796   */\n      0x00\n        /* \"#utility.yul\":1788:1800   */\n      revert\n        /* \"#utility.yul\":1739:1802   */\n    tag_416:\n        /* \"#utility.yul\":1686:1808   */\n      pop\n      jump\t// out\n        /* \"#utility.yul\":1814:1953   */\n    tag_344:\n        /* \"#utility.yul\":1860:1865   */\n      0x00\n        /* \"#utility.yul\":1898:1904   */\n      dup2\n        /* \"#utility.yul\":1885:1905   */\n      calldataload\n        /* \"#utility.yul\":1876:1905   */\n      swap1\n      pop\n        /* \"#utility.yul\":1914:1947   */\n      tag_418\n        /* \"#utility.yul\":1941:1946   */\n      dup2\n        /* \"#utility.yul\":1914:1947   */\n      tag_343\n      jump\t// in\n    tag_418:\n        /* \"#utility.yul\":1814:1953   */\n      swap3\n      swap2\n      pop\n      pop\n      jump\t// out\n        /* \"#utility.yul\":1959:2288   */\n    tag_40:\n        /* \"#utility.yul\":2018:2024   */\n      0x00\n        /* \"#utility.yul\":2067:2069   */\n      0x20\n        /* \"#utility.yul\":2055:2064   */\n      dup3\n        /* \"#utility.yul\":2046:2053   */\n      dup5\n        /* \"#utility.yul\":2042:2065   */\n      sub\n        /* \"#utility.yul\":2038:2070   */\n      slt\n        /* \"#utility.yul\":2035:2154   */\n      iszero\n      tag_420\n      jumpi\n        /* \"#utility.yul\":2073:2152   */\n      tag_421\n      tag_334\n      jump\t// in\n    tag_421:\n        /* \"#utility.yul\":2035:2154   */\n    tag_420:\n        /* \"#utility.yul\":2193:2194   */\n      0x00\n        /* \"#utility.yul\":2218:2271   */\n      tag_422\n        /* \"#utility.yul\":2263:2270   */\n      dup5\n        /* \"#utility.yul\":2254:2260   */\n      dup3\n        /* \"#utility.yul\":2243:2252   */\n      dup6\n        /* \"#utility.yul\":2239:2261   */\n      add\n        /* \"#utility.yul\":2218:2271   */\n      tag_344\n      jump\t// in\n    tag_422:\n        /* \"#utility.yul\":2208:2271   */\n      swap2\n      pop\n        /* \"#utility.yul\":2164:2281   */\n      pop\n        /* \"#utility.yul\":1959:2288   */\n      swap3\n      swap2\n      pop\n      pop\n      jump\t// out\n        /* \"#utility.yul\":2294:2354   */\n    tag_345:\n        /* \"#utility.yul\":2322:2325   */\n      0x00\n        /* \"#utility.yul\":2343:2348   */\n      dup2\n        /* \"#utility.yul\":2336:2348   */\n      swap1\n      pop\n        /* \"#utility.yul\":2294:2354   */\n      swap2\n      swap1\n      pop\n      jump\t// out\n        /* \"#utility.yul\":2360:2502   */\n    tag_346:\n        /* \"#utility.yul\":2410:2419   */\n      0x00\n        /* \"#utility.yul\":2443:2496   */\n      tag_425\n        /* \"#utility.yul\":2461:2495   */\n      tag_426\n        /* \"#utility.yul\":2470:2494   */\n      tag_427\n        /* \"#utility.yul\":2488:2493   */\n      dup5\n        /* \"#utility.yul\":2470:2494   */\n      tag_336\n      jump\t// in\n    tag_427:\n        /* \"#utility.yul\":2461:2495   */\n      tag_345\n      jump\t// in\n    tag_426:\n        /* \"#utility.yul\":2443:2496   */\n      tag_336\n      jump\t// in\n    tag_425:\n        /* \"#utility.yul\":2430:2496   */\n      swap1\n      pop\n        /* \"#utility.yul\":2360:2502   */\n      swap2\n      swap1\n      pop\n      jump\t// out\n        /* \"#utility.yul\":2508:2634   */\n    tag_347:\n        /* \"#utility.yul\":2558:2567   */\n      0x00\n        /* \"#utility.yul\":2591:2628   */\n      tag_429\n        /* \"#utility.yul\":2622:2627   */\n      dup3\n        /* \"#utility.yul\":2591:2628   */\n      tag_346\n      jump\t// in\n    tag_429:\n        /* \"#utility.yul\":2578:2628   */\n      swap1\n      pop\n        /* \"#utility.yul\":2508:2634   */\n      swap2\n      swap1\n      pop\n      jump\t// out\n        /* \"#utility.yul\":2640:2782   */\n    tag_348:\n        /* \"#utility.yul\":2706:2715   */\n      0x00\n        /* \"#utility.yul\":2739:2776   */\n      tag_431\n        /* \"#utility.yul\":2770:2775   */\n      dup3\n        /* \"#utility.yul\":2739:2776   */\n      tag_347\n      jump\t// in\n    tag_431:\n        /* \"#utility.yul\":2726:2776   */\n      swap1\n      pop\n        /* \"#utility.yul\":2640:2782   */\n      swap2\n      swap1\n      pop\n      jump\t// out\n        /* \"#utility.yul\":2788:2951   */\n    tag_349:\n        /* \"#utility.yul\":2891:2944   */\n      tag_433\n        /* \"#utility.yul\":2938:2943   */\n      dup2\n        /* \"#utility.yul\":2891:2944   */\n      tag_348\n      jump\t// in\n    tag_433:\n        /* \"#utility.yul\":2886:2889   */\n      dup3\n        /* \"#utility.yul\":2879:2945   */\n      mstore\n        /* \"#utility.yul\":2788:2951   */\n      pop\n      pop\n      jump\t// out\n        /* \"#utility.yul\":2957:3211   */\n    tag_50:\n        /* \"#utility.yul\":3066:3070   */\n      0x00\n        /* \"#utility.yul\":3104:3106   */\n      0x20\n        /* \"#utility.yul\":3093:3102   */\n      dup3\n        /* \"#utility.yul\":3089:3107   */\n      add\n        /* \"#utility.yul\":3081:3107   */\n      swap1\n      pop\n        /* \"#utility.yul\":3117:3204   */\n      tag_435\n        /* \"#utility.yul\":3201:3202   */\n      0x00\n        /* \"#utility.yul\":3190:3199   */\n      dup4\n        /* \"#utility.yul\":3186:3203   */\n      add\n        /* \"#utility.yul\":3177:3183   */\n      dup5\n        /* \"#utility.yul\":3117:3204   */\n      tag_349\n      jump\t// in\n    tag_435:\n        /* \"#utility.yul\":2957:3211   */\n      swap3\n      swap2\n      pop\n      pop\n      jump\t// out\n        /* \"#utility.yul\":3217:3325   */\n    tag_350:\n        /* \"#utility.yul\":3294:3318   */\n      tag_437\n        /* \"#utility.yul\":3312:3317   */\n      dup2\n        /* \"#utility.yul\":3294:3318   */\n      tag_337\n      jump\t// in\n    tag_437:\n        /* \"#utility.yul\":3289:3292   */\n      dup3\n        /* \"#utility.yul\":3282:3319   */\n      mstore\n        /* \"#utility.yul\":3217:3325   */\n      pop\n      pop\n      jump\t// out\n        /* \"#utility.yul\":3331:3439   */\n    tag_351:\n        /* \"#utility.yul\":3408:3432   */\n      tag_439\n        /* \"#utility.yul\":3426:3431   */\n      dup2\n        /* \"#utility.yul\":3408:3432   */\n      tag_342\n      jump\t// in\n    tag_439:\n        /* \"#utility.yul\":3403:3406   */\n      dup3\n        /* \"#utility.yul\":3396:3433   */\n      mstore\n        /* \"#utility.yul\":3331:3439   */\n      pop\n      pop\n      jump\t// out\n        /* \"#utility.yul\":3445:3544   */\n    tag_352:\n        /* \"#utility.yul\":3516:3537   */\n      tag_441\n        /* \"#utility.yul\":3531:3536   */\n      dup2\n        /* \"#utility.yul\":3516:3537   */\n      tag_340\n      jump\t// in\n    tag_441:\n        /* \"#utility.yul\":3511:3514   */\n      dup3\n        /* \"#utility.yul\":3504:3538   */\n      mstore\n        /* \"#utility.yul\":3445:3544   */\n      pop\n      pop\n      jump\t// out\n        /* \"#utility.yul\":3608:5562   */\n    tag_353:\n        /* \"#utility.yul\":3747:3753   */\n      0x0140\n        /* \"#utility.yul\":3742:3745   */\n      dup3\n        /* \"#utility.yul\":3738:3754   */\n      add\n        /* \"#utility.yul\":3838:3842   */\n      0x00\n        /* \"#utility.yul\":3831:3836   */\n      dup3\n        /* \"#utility.yul\":3827:3843   */\n      add\n        /* \"#utility.yul\":3821:3844   */\n      mload\n        /* \"#utility.yul\":3857:3920   */\n      tag_443\n        /* \"#utility.yul\":3914:3918   */\n      0x00\n        /* \"#utility.yul\":3909:3912   */\n      dup6\n        /* \"#utility.yul\":3905:3919   */\n      add\n        /* \"#utility.yul\":3891:3903   */\n      dup3\n        /* \"#utility.yul\":3857:3920   */\n      tag_350\n      jump\t// in\n    tag_443:\n        /* \"#utility.yul\":3764:3930   */\n      pop\n        /* \"#utility.yul\":4016:4020   */\n      0x20\n        /* \"#utility.yul\":4009:4014   */\n      dup3\n        /* \"#utility.yul\":4005:4021   */\n      add\n        /* \"#utility.yul\":3999:4022   */\n      mload\n        /* \"#utility.yul\":4035:4098   */\n      tag_444\n        /* \"#utility.yul\":4092:4096   */\n      0x20\n        /* \"#utility.yul\":4087:4090   */\n      dup6\n        /* \"#utility.yul\":4083:4097   */\n      add\n        /* \"#utility.yul\":4069:4081   */\n      dup3\n        /* \"#utility.yul\":4035:4098   */\n      tag_350\n      jump\t// in\n    tag_444:\n        /* \"#utility.yul\":3940:4108   */\n      pop\n        /* \"#utility.yul\":4192:4196   */\n      0x40\n        /* \"#utility.yul\":4185:4190   */\n      dup3\n        /* \"#utility.yul\":4181:4197   */\n      add\n        /* \"#utility.yul\":4175:4198   */\n      mload\n        /* \"#utility.yul\":4211:4274   */\n      tag_445\n        /* \"#utility.yul\":4268:4272   */\n      0x40\n        /* \"#utility.yul\":4263:4266   */\n      dup6\n        /* \"#utility.yul\":4259:4273   */\n      add\n        /* \"#utility.yul\":4245:4257   */\n      dup3\n        /* \"#utility.yul\":4211:4274   */\n      tag_351\n      jump\t// in\n    tag_445:\n        /* \"#utility.yul\":4118:4284   */\n      pop\n        /* \"#utility.yul\":4372:4376   */\n      0x60\n        /* \"#utility.yul\":4365:4370   */\n      dup3\n        /* \"#utility.yul\":4361:4377   */\n      add\n        /* \"#utility.yul\":4355:4378   */\n      mload\n        /* \"#utility.yul\":4391:4454   */\n      tag_446\n        /* \"#utility.yul\":4448:4452   */\n      0x60\n        /* \"#utility.yul\":4443:4446   */\n      dup6\n        /* \"#utility.yul\":4439:4453   */\n      add\n        /* \"#utility.yul\":4425:4437   */\n      dup3\n        /* \"#utility.yul\":4391:4454   */\n      tag_351\n      jump\t// in\n    tag_446:\n        /* \"#utility.yul\":4294:4464   */\n      pop\n        /* \"#utility.yul\":4551:4555   */\n      0x80\n        /* \"#utility.yul\":4544:4549   */\n      dup3\n        /* \"#utility.yul\":4540:4556   */\n      add\n        /* \"#utility.yul\":4534:4557   */\n      mload\n        /* \"#utility.yul\":4570:4633   */\n      tag_447\n        /* \"#utility.yul\":4627:4631   */\n      0x80\n        /* \"#utility.yul\":4622:4625   */\n      dup6\n        /* \"#utility.yul\":4618:4632   */\n      add\n        /* \"#utility.yul\":4604:4616   */\n      dup3\n        /* \"#utility.yul\":4570:4633   */\n      tag_351\n      jump\t// in\n    tag_447:\n        /* \"#utility.yul\":4474:4643   */\n      pop\n        /* \"#utility.yul\":4730:4734   */\n      0xa0\n        /* \"#utility.yul\":4723:4728   */\n      dup3\n        /* \"#utility.yul\":4719:4735   */\n      add\n        /* \"#utility.yul\":4713:4736   */\n      mload\n        /* \"#utility.yul\":4749:4812   */\n      tag_448\n        /* \"#utility.yul\":4806:4810   */\n      0xa0\n        /* \"#utility.yul\":4801:4804   */\n      dup6\n        /* \"#utility.yul\":4797:4811   */\n      add\n        /* \"#utility.yul\":4783:4795   */\n      dup3\n        /* \"#utility.yul\":4749:4812   */\n      tag_351\n      jump\t// in\n    tag_448:\n        /* \"#utility.yul\":4653:4822   */\n      pop\n        /* \"#utility.yul\":4912:4916   */\n      0xc0\n        /* \"#utility.yul\":4905:4910   */\n      dup3\n        /* \"#utility.yul\":4901:4917   */\n      add\n        /* \"#utility.yul\":4895:4918   */\n      mload\n        /* \"#utility.yul\":4931:4994   */\n      tag_449\n        /* \"#utility.yul\":4988:4992   */\n      0xc0\n        /* \"#utility.yul\":4983:4986   */\n      dup6\n        /* \"#utility.yul\":4979:4993   */\n      add\n        /* \"#utility.yul\":4965:4977   */\n      dup3\n        /* \"#utility.yul\":4931:4994   */\n      tag_351\n      jump\t// in\n    tag_449:\n        /* \"#utility.yul\":4832:5004   */\n      pop\n        /* \"#utility.yul\":5099:5103   */\n      0xe0\n        /* \"#utility.yul\":5092:5097   */\n      dup3\n        /* \"#utility.yul\":5088:5104   */\n      add\n        /* \"#utility.yul\":5082:5105   */\n      mload\n        /* \"#utility.yul\":5118:5181   */\n      tag_450\n        /* \"#utility.yul\":5175:5179   */\n      0xe0\n        /* \"#utility.yul\":5170:5173   */\n      dup6\n        /* \"#utility.yul\":5166:5180   */\n      add\n        /* \"#utility.yul\":5152:5164   */\n      dup3\n        /* \"#utility.yul\":5118:5181   */\n      tag_351\n      jump\t// in\n    tag_450:\n        /* \"#utility.yul\":5014:5191   */\n      pop\n        /* \"#utility.yul\":5285:5291   */\n      0x0100\n        /* \"#utility.yul\":5278:5283   */\n      dup3\n        /* \"#utility.yul\":5274:5292   */\n      add\n        /* \"#utility.yul\":5268:5293   */\n      mload\n        /* \"#utility.yul\":5306:5371   */\n      tag_451\n        /* \"#utility.yul\":5363:5369   */\n      0x0100\n        /* \"#utility.yul\":5358:5361   */\n      dup6\n        /* \"#utility.yul\":5354:5370   */\n      add\n        /* \"#utility.yul\":5340:5352   */\n      dup3\n        /* \"#utility.yul\":5306:5371   */\n      tag_351\n      jump\t// in\n    tag_451:\n        /* \"#utility.yul\":5201:5381   */\n      pop\n        /* \"#utility.yul\":5465:5471   */\n      0x0120\n        /* \"#utility.yul\":5458:5463   */\n      dup3\n        /* \"#utility.yul\":5454:5472   */\n      add\n        /* \"#utility.yul\":5448:5473   */\n      mload\n        /* \"#utility.yul\":5486:5545   */\n      tag_452\n        /* \"#utility.yul\":5537:5543   */\n      0x0120\n        /* \"#utility.yul\":5532:5535   */\n      dup6\n        /* \"#utility.yul\":5528:5544   */\n      add\n        /* \"#utility.yul\":5514:5526   */\n      dup3\n        /* \"#utility.yul\":5486:5545   */\n      tag_352\n      jump\t// in\n    tag_452:\n        /* \"#utility.yul\":5391:5555   */\n      pop\n        /* \"#utility.yul\":3716:5562   */\n      pop\n        /* \"#utility.yul\":3608:5562   */\n      pop\n      pop\n      jump\t// out\n        /* \"#utility.yul\":5568:5875   */\n    tag_56:\n        /* \"#utility.yul\":5703:5707   */\n      0x00\n        /* \"#utility.yul\":5741:5744   */\n      0x0140\n        /* \"#utility.yul\":5730:5739   */\n      dup3\n        /* \"#utility.yul\":5726:5745   */\n      add\n        /* \"#utility.yul\":5718:5745   */\n      swap1\n      pop\n        /* \"#utility.yul\":5755:5868   */\n      tag_454\n        /* \"#utility.yul\":5865:5866   */\n      0x00\n        /* \"#utility.yul\":5854:5863   */\n      dup4\n        /* \"#utility.yul\":5850:5867   */\n      add\n        /* \"#utility.yul\":5841:5847   */\n      dup5\n        /* \"#utility.yul\":5755:5868   */\n      tag_353\n      jump\t// in\n    tag_454:\n        /* \"#utility.yul\":5568:5875   */\n      swap3\n      swap2\n      pop\n      pop\n      jump\t// out\n        /* \"#utility.yul\":5881:5999   */\n    tag_354:\n        /* \"#utility.yul\":5968:5992   */\n      tag_456\n        /* \"#utility.yul\":5986:5991   */\n      dup2\n        /* \"#utility.yul\":5968:5992   */\n      tag_342\n      jump\t// in\n    tag_456:\n        /* \"#utility.yul\":5963:5966   */\n      dup3\n        /* \"#utility.yul\":5956:5993   */\n      mstore\n        /* \"#utility.yul\":5881:5999   */\n      pop\n      pop\n      jump\t// out\n        /* \"#utility.yul\":6005:6227   */\n    tag_76:\n        /* \"#utility.yul\":6098:6102   */\n      0x00\n        /* \"#utility.yul\":6136:6138   */\n      0x20\n        /* \"#utility.yul\":6125:6134   */\n      dup3\n        /* \"#utility.yul\":6121:6139   */\n      add\n        /* \"#utility.yul\":6113:6139   */\n      swap1\n      pop\n        /* \"#utility.yul\":6149:6220   */\n      tag_458\n        /* \"#utility.yul\":6217:6218   */\n      0x00\n        /* \"#utility.yul\":6206:6215   */\n      dup4\n        /* \"#utility.yul\":6202:6219   */\n      add\n        /* \"#utility.yul\":6193:6199   */\n      dup5\n        /* \"#utility.yul\":6149:6220   */\n      tag_354\n      jump\t// in\n    tag_458:\n        /* \"#utility.yul\":6005:6227   */\n      swap3\n      swap2\n      pop\n      pop\n      jump\t// out\n        /* \"#utility.yul\":6233:6351   */\n    tag_355:\n        /* \"#utility.yul\":6320:6344   */\n      tag_460\n        /* \"#utility.yul\":6338:6343   */\n      dup2\n        /* \"#utility.yul\":6320:6344   */\n      tag_337\n      jump\t// in\n    tag_460:\n        /* \"#utility.yul\":6315:6318   */\n      dup3\n        /* \"#utility.yul\":6308:6345   */\n      mstore\n        /* \"#utility.yul\":6233:6351   */\n      pop\n      pop\n      jump\t// out\n        /* \"#utility.yul\":6357:6579   */\n    tag_81:\n        /* \"#utility.yul\":6450:6454   */\n      0x00\n        /* \"#utility.yul\":6488:6490   */\n      0x20\n        /* \"#utility.yul\":6477:6486   */\n      dup3\n        /* \"#utility.yul\":6473:6491   */\n      add\n        /* \"#utility.yul\":6465:6491   */\n      swap1\n      pop\n        /* \"#utility.yul\":6501:6572   */\n      tag_462\n        /* \"#utility.yul\":6569:6570   */\n      0x00\n        /* \"#utility.yul\":6558:6567   */\n      dup4\n        /* \"#utility.yul\":6554:6571   */\n      add\n        /* \"#utility.yul\":6545:6551   */\n      dup5\n        /* \"#utility.yul\":6501:6572   */\n      tag_355\n      jump\t// in\n    tag_462:\n        /* \"#utility.yul\":6357:6579   */\n      swap3\n      swap2\n      pop\n      pop\n      jump\t// out\n        /* \"#utility.yul\":6585:7792   */\n    tag_103:\n        /* \"#utility.yul\":6924:6928   */\n      0x00\n        /* \"#utility.yul\":6962:6965   */\n      0x0140\n        /* \"#utility.yul\":6951:6960   */\n      dup3\n        /* \"#utility.yul\":6947:6966   */\n      add\n        /* \"#utility.yul\":6939:6966   */\n      swap1\n      pop\n        /* \"#utility.yul\":6976:7047   */\n      tag_464\n        /* \"#utility.yul\":7044:7045   */\n      0x00\n        /* \"#utility.yul\":7033:7042   */\n      dup4\n        /* \"#utility.yul\":7029:7046   */\n      add\n        /* \"#utility.yul\":7020:7026   */\n      dup14\n        /* \"#utility.yul\":6976:7047   */\n      tag_355\n      jump\t// in\n    tag_464:\n        /* \"#utility.yul\":7057:7129   */\n      tag_465\n        /* \"#utility.yul\":7125:7127   */\n      0x20\n        /* \"#utility.yul\":7114:7123   */\n      dup4\n        /* \"#utility.yul\":7110:7128   */\n      add\n        /* \"#utility.yul\":7101:7107   */\n      dup13\n        /* \"#utility.yul\":7057:7129   */\n      tag_355\n      jump\t// in\n    tag_465:\n        /* \"#utility.yul\":7139:7211   */\n      tag_466\n        /* \"#utility.yul\":7207:7209   */\n      0x40\n        /* \"#utility.yul\":7196:7205   */\n      dup4\n        /* \"#utility.yul\":7192:7210   */\n      add\n        /* \"#utility.yul\":7183:7189   */\n      dup12\n        /* \"#utility.yul\":7139:7211   */\n      tag_354\n      jump\t// in\n    tag_466:\n        /* \"#utility.yul\":7221:7293   */\n      tag_467\n        /* \"#utility.yul\":7289:7291   */\n      0x60\n        /* \"#utility.yul\":7278:7287   */\n      dup4\n        /* \"#utility.yul\":7274:7292   */\n      add\n        /* \"#utility.yul\":7265:7271   */\n      dup11\n        /* \"#utility.yul\":7221:7293   */\n      tag_354\n      jump\t// in\n    tag_467:\n        /* \"#utility.yul\":7303:7376   */\n      tag_468\n        /* \"#utility.yul\":7371:7374   */\n      0x80\n        /* \"#utility.yul\":7360:7369   */\n      dup4\n        /* \"#utility.yul\":7356:7375   */\n      add\n        /* \"#utility.yul\":7347:7353   */\n      dup10\n        /* \"#utility.yul\":7303:7376   */\n      tag_354\n      jump\t// in\n    tag_468:\n        /* \"#utility.yul\":7386:7459   */\n      tag_469\n        /* \"#utility.yul\":7454:7457   */\n      0xa0\n        /* \"#utility.yul\":7443:7452   */\n      dup4\n        /* \"#utility.yul\":7439:7458   */\n      add\n        /* \"#utility.yul\":7430:7436   */\n      dup9\n        /* \"#utility.yul\":7386:7459   */\n      tag_354\n      jump\t// in\n    tag_469:\n        /* \"#utility.yul\":7469:7542   */\n      tag_470\n        /* \"#utility.yul\":7537:7540   */\n      0xc0\n        /* \"#utility.yul\":7526:7535   */\n      dup4\n        /* \"#utility.yul\":7522:7541   */\n      add\n        /* \"#utility.yul\":7513:7519   */\n      dup8\n        /* \"#utility.yul\":7469:7542   */\n      tag_354\n      jump\t// in\n    tag_470:\n        /* \"#utility.yul\":7552:7625   */\n      tag_471\n        /* \"#utility.yul\":7620:7623   */\n      0xe0\n        /* \"#utility.yul\":7609:7618   */\n      dup4\n        /* \"#utility.yul\":7605:7624   */\n      add\n        /* \"#utility.yul\":7596:7602   */\n      dup7\n        /* \"#utility.yul\":7552:7625   */\n      tag_354\n      jump\t// in\n    tag_471:\n        /* \"#utility.yul\":7635:7708   */\n      tag_472\n        /* \"#utility.yul\":7703:7706   */\n      0x0100\n        /* \"#utility.yul\":7692:7701   */\n      dup4\n        /* \"#utility.yul\":7688:7707   */\n      add\n        /* \"#utility.yul\":7679:7685   */\n      dup6\n        /* \"#utility.yul\":7635:7708   */\n      tag_354\n      jump\t// in\n    tag_472:\n        /* \"#utility.yul\":7718:7785   */\n      tag_473\n        /* \"#utility.yul\":7780:7783   */\n      0x0120\n        /* \"#utility.yul\":7769:7778   */\n      dup4\n        /* \"#utility.yul\":7765:7784   */\n      add\n        /* \"#utility.yul\":7756:7762   */\n      dup5\n        /* \"#utility.yul\":7718:7785   */\n      tag_341\n      jump\t// in\n    tag_473:\n        /* \"#utility.yul\":6585:7792   */\n      swap12\n      swap11\n      pop\n      pop\n      pop\n      pop\n      pop\n      pop\n      pop\n      pop\n      pop\n      pop\n      pop\n      jump\t// out\n        /* \"#utility.yul\":7798:8709   */\n    tag_110:\n        /* \"#utility.yul\":7893:7899   */\n      0x00\n        /* \"#utility.yul\":7901:7907   */\n      0x00\n        /* \"#utility.yul\":7909:7915   */\n      0x00\n        /* \"#utility.yul\":7917:7923   */\n      0x00\n        /* \"#utility.yul\":7925:7931   */\n      0x00\n        /* \"#utility.yul\":7974:7977   */\n      0xa0\n        /* \"#utility.yul\":7962:7971   */\n      dup7\n        /* \"#utility.yul\":7953:7960   */\n      dup9\n        /* \"#utility.yul\":7949:7972   */\n      sub\n        /* \"#utility.yul\":7945:7978   */\n      slt\n        /* \"#utility.yul\":7942:8062   */\n      iszero\n      tag_475\n      jumpi\n        /* \"#utility.yul\":7981:8060   */\n      tag_476\n      tag_334\n      jump\t// in\n    tag_476:\n        /* \"#utility.yul\":7942:8062   */\n    tag_475:\n        /* \"#utility.yul\":8101:8102   */\n      0x00\n        /* \"#utility.yul\":8126:8179   */\n      tag_477\n        /* \"#utility.yul\":8171:8178   */\n      dup9\n        /* \"#utility.yul\":8162:8168   */\n      dup3\n        /* \"#utility.yul\":8151:8160   */\n      dup10\n        /* \"#utility.yul\":8147:8169   */\n      add\n        /* \"#utility.yul\":8126:8179   */\n      tag_339\n      jump\t// in\n    tag_477:\n        /* \"#utility.yul\":8116:8179   */\n      swap6\n      pop\n        /* \"#utility.yul\":8072:8189   */\n      pop\n        /* \"#utility.yul\":8228:8230   */\n      0x20\n        /* \"#utility.yul\":8254:8307   */\n      tag_478\n        /* \"#utility.yul\":8299:8306   */\n      dup9\n        /* \"#utility.yul\":8290:8296   */\n      dup3\n        /* \"#utility.yul\":8279:8288   */\n      dup10\n        /* \"#utility.yul\":8275:8297   */\n      add\n        /* \"#utility.yul\":8254:8307   */\n      tag_339\n      jump\t// in\n    tag_478:\n        /* \"#utility.yul\":8244:8307   */\n      swap5\n      pop\n        /* \"#utility.yul\":8199:8317   */\n      pop\n        /* \"#utility.yul\":8356:8358   */\n      0x40\n        /* \"#utility.yul\":8382:8435   */\n      tag_479\n        /* \"#utility.yul\":8427:8434   */\n      dup9\n        /* \"#utility.yul\":8418:8424   */\n      dup3\n        /* \"#utility.yul\":8407:8416   */\n      dup10\n        /* \"#utility.yul\":8403:8425   */\n      add\n        /* \"#utility.yul\":8382:8435   */\n      tag_344\n      jump\t// in\n    tag_479:\n        /* \"#utility.yul\":8372:8435   */\n      swap4\n      pop\n        /* \"#utility.yul\":8327:8445   */\n      pop\n        /* \"#utility.yul\":8484:8486   */\n      0x60\n        /* \"#utility.yul\":8510:8563   */\n      tag_480\n        /* \"#utility.yul\":8555:8562   */\n      dup9\n        /* \"#utility.yul\":8546:8552   */\n      dup3\n        /* \"#utility.yul\":8535:8544   */\n      dup10\n        /* \"#utility.yul\":8531:8553   */\n      add\n        /* \"#utility.yul\":8510:8563   */\n      tag_344\n      jump\t// in\n    tag_480:\n        /* \"#utility.yul\":8500:8563   */\n      swap3\n      pop\n        /* \"#utility.yul\":8455:8573   */\n      pop\n        /* \"#utility.yul\":8612:8615   */\n      0x80\n        /* \"#utility.yul\":8639:8692   */\n      tag_481\n        /* \"#utility.yul\":8684:8691   */\n      dup9\n        /* \"#utility.yul\":8675:8681   */\n      dup3\n        /* \"#utility.yul\":8664:8673   */\n      dup10\n        /* \"#utility.yul\":8660:8682   */\n      add\n        /* \"#utility.yul\":8639:8692   */\n      tag_344\n      jump\t// in\n    tag_481:\n        /* \"#utility.yul\":8629:8692   */\n      swap2\n      pop\n        /* \"#utility.yul\":8583:8702   */\n      pop\n        /* \"#utility.yul\":7798:8709   */\n      swap3\n      swap6\n      pop\n      swap3\n      swap6\n      swap1\n      swap4\n      pop\n      jump\t// out\n        /* \"#utility.yul\":8715:8860   */\n    tag_356:\n        /* \"#utility.yul\":8784:8793   */\n      0x00\n        /* \"#utility.yul\":8817:8854   */\n      tag_483\n        /* \"#utility.yul\":8848:8853   */\n      dup3\n        /* \"#utility.yul\":8817:8854   */\n      tag_347\n      jump\t// in\n    tag_483:\n        /* \"#utility.yul\":8804:8854   */\n      swap1\n      pop\n        /* \"#utility.yul\":8715:8860   */\n      swap2\n      swap1\n      pop\n      jump\t// out\n        /* \"#utility.yul\":8866:9035   */\n    tag_357:\n        /* \"#utility.yul\":8972:9028   */\n      tag_485\n        /* \"#utility.yul\":9022:9027   */\n      dup2\n        /* \"#utility.yul\":8972:9028   */\n      tag_356\n      jump\t// in\n    tag_485:\n        /* \"#utility.yul\":8967:8970   */\n      dup3\n        /* \"#utility.yul\":8960:9029   */\n      mstore\n        /* \"#utility.yul\":8866:9035   */\n      pop\n      pop\n      jump\t// out\n        /* \"#utility.yul\":9041:9301   */\n    tag_134:\n        /* \"#utility.yul\":9153:9157   */\n      0x00\n        /* \"#utility.yul\":9191:9193   */\n      0x20\n        /* \"#utility.yul\":9180:9189   */\n      dup3\n        /* \"#utility.yul\":9176:9194   */\n      add\n        /* \"#utility.yul\":9168:9194   */\n      swap1\n      pop\n        /* \"#utility.yul\":9204:9294   */\n      tag_487\n        /* \"#utility.yul\":9291:9292   */\n      0x00\n        /* \"#utility.yul\":9280:9289   */\n      dup4\n        /* \"#utility.yul\":9276:9293   */\n      add\n        /* \"#utility.yul\":9267:9273   */\n      dup5\n        /* \"#utility.yul\":9204:9294   */\n      tag_357\n      jump\t// in\n    tag_487:\n        /* \"#utility.yul\":9041:9301   */\n      swap3\n      swap2\n      pop\n      pop\n      jump\t// out\n        /* \"#utility.yul\":9307:9476   */\n    tag_358:\n        /* \"#utility.yul\":9391:9402   */\n      0x00\n        /* \"#utility.yul\":9425:9431   */\n      dup3\n        /* \"#utility.yul\":9420:9423   */\n      dup3\n        /* \"#utility.yul\":9413:9432   */\n      mstore\n        /* \"#utility.yul\":9465:9469   */\n      0x20\n        /* \"#utility.yul\":9460:9463   */\n      dup3\n        /* \"#utility.yul\":9456:9470   */\n      add\n        /* \"#utility.yul\":9441:9470   */\n      swap1\n      pop\n        /* \"#utility.yul\":9307:9476   */\n      swap3\n      swap2\n      pop\n      pop\n      jump\t// out\n        /* \"#utility.yul\":9482:9647   */\n    tag_359:\n        /* \"#utility.yul\":9622:9639   */\n      0x4c6f616e206e6f74206163746976650000000000000000000000000000000000\n        /* \"#utility.yul\":9618:9619   */\n      0x00\n        /* \"#utility.yul\":9610:9616   */\n      dup3\n        /* \"#utility.yul\":9606:9620   */\n      add\n        /* \"#utility.yul\":9599:9640   */\n      mstore\n        /* \"#utility.yul\":9482:9647   */\n      pop\n      jump\t// out\n        /* \"#utility.yul\":9653:10019   */\n    tag_360:\n        /* \"#utility.yul\":9795:9798   */\n      0x00\n        /* \"#utility.yul\":9816:9883   */\n      tag_491\n        /* \"#utility.yul\":9880:9882   */\n      0x0f\n        /* \"#utility.yul\":9875:9878   */\n      dup4\n        /* \"#utility.yul\":9816:9883   */\n      tag_358\n      jump\t// in\n    tag_491:\n        /* \"#utility.yul\":9809:9883   */\n      swap2\n      pop\n        /* \"#utility.yul\":9892:9985   */\n      tag_492\n        /* \"#utility.yul\":9981:9984   */\n      dup3\n        /* \"#utility.yul\":9892:9985   */\n      tag_359\n      jump\t// in\n    tag_492:\n        /* \"#utility.yul\":10010:10012   */\n      0x20\n        /* \"#utility.yul\":10005:10008   */\n      dup3\n        /* \"#utility.yul\":10001:10013   */\n      add\n        /* \"#utility.yul\":9994:10013   */\n      swap1\n      pop\n        /* \"#utility.yul\":9653:10019   */\n      swap2\n      swap1\n      pop\n      jump\t// out\n        /* \"#utility.yul\":10025:10444   */\n    tag_141:\n        /* \"#utility.yul\":10191:10195   */\n      0x00\n        /* \"#utility.yul\":10229:10231   */\n      0x20\n        /* \"#utility.yul\":10218:10227   */\n      dup3\n        /* \"#utility.yul\":10214:10232   */\n      add\n        /* \"#utility.yul\":10206:10232   */\n      swap1\n      pop\n        /* \"#utility.yul\":10278:10287   */\n      dup2\n        /* \"#utility.yul\":10272:10276   */\n      dup2\n        /* \"#utility.yul\":10268:10288   */\n      sub\n        /* \"#utility.yul\":10264:10265   */\n      0x00\n        /* \"#utility.yul\":10253:10262   */\n      dup4\n        /* \"#utility.yul\":10249:10266   */\n      add\n        /* \"#utility.yul\":10242:10289   */\n      mstore\n        /* \"#utility.yul\":10306:10437   */\n      tag_494\n        /* \"#utility.yul\":10432:10436   */\n      dup2\n        /* \"#utility.yul\":10306:10437   */\n      tag_360\n      jump\t// in\n    tag_494:\n        /* \"#utility.yul\":10298:10437   */\n      swap1\n      pop\n        /* \"#utility.yul\":10025:10444   */\n      swap2\n      swap1\n      pop\n      jump\t// out\n        /* \"#utility.yul\":10450:10613   */\n    tag_361:\n        /* \"#utility.yul\":10590:10605   */\n      0x4e6f7420796f7572206c6f616e00000000000000000000000000000000000000\n        /* \"#utility.yul\":10586:10587   */\n      0x00\n        /* \"#utility.yul\":10578:10584   */\n      dup3\n        /* \"#utility.yul\":10574:10588   */\n      add\n        /* \"#utility.yul\":10567:10606   */\n      mstore\n        /* \"#utility.yul\":10450:10613   */\n      pop\n      jump\t// out\n        /* \"#utility.yul\":10619:10985   */\n    tag_362:\n        /* \"#utility.yul\":10761:10764   */\n      0x00\n        /* \"#utility.yul\":10782:10849   */\n      tag_497\n        /* \"#utility.yul\":10846:10848   */\n      0x0d\n        /* \"#utility.yul\":10841:10844   */\n      dup4\n        /* \"#utility.yul\":10782:10849   */\n      tag_358\n      jump\t// in\n    tag_497:\n        /* \"#utility.yul\":10775:10849   */\n      swap2\n      pop\n        /* \"#utility.yul\":10858:10951   */\n      tag_498\n        /* \"#utility.yul\":10947:10950   */\n      dup3\n        /* \"#utility.yul\":10858:10951   */\n      tag_361\n      jump\t// in\n    tag_498:\n        /* \"#utility.yul\":10976:10978   */\n      0x20\n        /* \"#utility.yul\":10971:10974   */\n      dup3\n        /* \"#utility.yul\":10967:10979   */\n      add\n        /* \"#utility.yul\":10960:10979   */\n      swap1\n      pop\n        /* \"#utility.yul\":10619:10985   */\n      swap2\n      swap1\n      pop\n      jump\t// out\n        /* \"#utility.yul\":10991:11410   */\n    tag_144:\n        /* \"#utility.yul\":11157:11161   */\n      0x00\n        /* \"#utility.yul\":11195:11197   */\n      0x20\n        /* \"#utility.yul\":11184:11193   */\n      dup3\n        /* \"#utility.yul\":11180:11198   */\n      add\n        /* \"#utility.yul\":11172:11198   */\n      swap1\n      pop\n        /* \"#utility.yul\":11244:11253   */\n      dup2\n        /* \"#utility.yul\":11238:11242   */\n      dup2\n        /* \"#utility.yul\":11234:11254   */\n      sub\n        /* \"#utility.yul\":11230:11231   */\n      0x00\n        /* \"#utility.yul\":11219:11228   */\n      dup4\n        /* \"#utility.yul\":11215:11232   */\n      add\n        /* \"#utility.yul\":11208:11255   */\n      mstore\n        /* \"#utility.yul\":11272:11403   */\n      tag_500\n        /* \"#utility.yul\":11398:11402   */\n      dup2\n        /* \"#utility.yul\":11272:11403   */\n      tag_362\n      jump\t// in\n    tag_500:\n        /* \"#utility.yul\":11264:11403   */\n      swap1\n      pop\n        /* \"#utility.yul\":10991:11410   */\n      swap2\n      swap1\n      pop\n      jump\t// out\n        /* \"#utility.yul\":11416:11596   */\n    tag_363:\n        /* \"#utility.yul\":11464:11541   */\n      0x4e487b7100000000000000000000000000000000000000000000000000000000\n        /* \"#utility.yul\":11461:11462   */\n      0x00\n        /* \"#utility.yul\":11454:11542   */\n      mstore\n        /* \"#utility.yul\":11561:11565   */\n      0x11\n        /* \"#utility.yul\":11558:11559   */\n      0x04\n        /* \"#utility.yul\":11551:11566   */\n      mstore\n        /* \"#utility.yul\":11585:11589   */\n      0x24\n        /* \"#utility.yul\":11582:11583   */\n      0x00\n        /* \"#utility.yul\":11575:11590   */\n      revert\n        /* \"#utility.yul\":11602:11796   */\n    tag_146:\n        /* \"#utility.yul\":11642:11646   */\n      0x00\n        /* \"#utility.yul\":11662:11682   */\n      tag_503\n        /* \"#utility.yul\":11680:11681   */\n      dup3\n        /* \"#utility.yul\":11662:11682   */\n      tag_342\n      jump\t// in\n    tag_503:\n        /* \"#utility.yul\":11657:11682   */\n      swap2\n      pop\n        /* \"#utility.yul\":11696:11716   */\n      tag_504\n        /* \"#utility.yul\":11714:11715   */\n      dup4\n        /* \"#utility.yul\":11696:11716   */\n      tag_342\n      jump\t// in\n    tag_504:\n        /* \"#utility.yul\":11691:11716   */\n      swap3\n      pop\n        /* \"#utility.yul\":11740:11741   */\n      dup3\n        /* \"#utility.yul\":11737:11738   */\n      dup3\n        /* \"#utility.yul\":11733:11742   */\n      sub\n        /* \"#utility.yul\":11725:11742   */\n      swap1\n      pop\n        /* \"#utility.yul\":11764:11765   */\n      dup2\n        /* \"#utility.yul\":11758:11762   */\n      dup2\n        /* \"#utility.yul\":11755:11766   */\n      gt\n        /* \"#utility.yul\":11752:11789   */\n      iszero\n      tag_505\n      jumpi\n        /* \"#utility.yul\":11769:11787   */\n      tag_506\n      tag_363\n      jump\t// in\n    tag_506:\n        /* \"#utility.yul\":11752:11789   */\n    tag_505:\n        /* \"#utility.yul\":11602:11796   */\n      swap3\n      swap2\n      pop\n      pop\n      jump\t// out\n        /* \"#utility.yul\":11802:11982   */\n    tag_364:\n        /* \"#utility.yul\":11850:11927   */\n      0x4e487b7100000000000000000000000000000000000000000000000000000000\n        /* \"#utility.yul\":11847:11848   */\n      0x00\n        /* \"#utility.yul\":11840:11928   */\n      mstore\n        /* \"#utility.yul\":11947:11951   */\n      0x12\n        /* \"#utility.yul\":11944:11945   */\n      0x04\n        /* \"#utility.yul\":11937:11952   */\n      mstore\n        /* \"#utility.yul\":11971:11975   */\n      0x24\n        /* \"#utility.yul\":11968:11969   */\n      0x00\n        /* \"#utility.yul\":11961:11976   */\n      revert\n        /* \"#utility.yul\":11988:12173   */\n    tag_148:\n        /* \"#utility.yul\":12028:12029   */\n      0x00\n        /* \"#utility.yul\":12045:12065   */\n      tag_509\n        /* \"#utility.yul\":12063:12064   */\n      dup3\n        /* \"#utility.yul\":12045:12065   */\n      tag_342\n      jump\t// in\n    tag_509:\n        /* \"#utility.yul\":12040:12065   */\n      swap2\n      pop\n        /* \"#utility.yul\":12079:12099   */\n      tag_510\n        /* \"#utility.yul\":12097:12098   */\n      dup4\n        /* \"#utility.yul\":12079:12099   */\n      tag_342\n      jump\t// in\n    tag_510:\n        /* \"#utility.yul\":12074:12099   */\n      swap3\n      pop\n        /* \"#utility.yul\":12118:12119   */\n      dup3\n        /* \"#utility.yul\":12108:12143   */\n      tag_511\n      jumpi\n        /* \"#utility.yul\":12123:12141   */\n      tag_512\n      tag_364\n      jump\t// in\n    tag_512:\n        /* \"#utility.yul\":12108:12143   */\n    tag_511:\n        /* \"#utility.yul\":12165:12166   */\n      dup3\n        /* \"#utility.yul\":12162:12163   */\n      dup3\n        /* \"#utility.yul\":12158:12167   */\n      div\n        /* \"#utility.yul\":12153:12167   */\n      swap1\n      pop\n        /* \"#utility.yul\":11988:12173   */\n      swap3\n      swap2\n      pop\n      pop\n      jump\t// out\n        /* \"#utility.yul\":12179:12589   */\n    tag_154:\n        /* \"#utility.yul\":12219:12226   */\n      0x00\n        /* \"#utility.yul\":12242:12262   */\n      tag_514\n        /* \"#utility.yul\":12260:12261   */\n      dup3\n        /* \"#utility.yul\":12242:12262   */\n      tag_342\n      jump\t// in\n    tag_514:\n        /* \"#utility.yul\":12237:12262   */\n      swap2\n      pop\n        /* \"#utility.yul\":12276:12296   */\n      tag_515\n        /* \"#utility.yul\":12294:12295   */\n      dup4\n        /* \"#utility.yul\":12276:12296   */\n      tag_342\n      jump\t// in\n    tag_515:\n        /* \"#utility.yul\":12271:12296   */\n      swap3\n      pop\n        /* \"#utility.yul\":12331:12332   */\n      dup3\n        /* \"#utility.yul\":12328:12329   */\n      dup3\n        /* \"#utility.yul\":12324:12333   */\n      mul\n        /* \"#utility.yul\":12353:12383   */\n      tag_516\n        /* \"#utility.yul\":12371:12382   */\n      dup2\n        /* \"#utility.yul\":12353:12383   */\n      tag_342\n      jump\t// in\n    tag_516:\n        /* \"#utility.yul\":12342:12383   */\n      swap2\n      pop\n        /* \"#utility.yul\":12532:12533   */\n      dup3\n        /* \"#utility.yul\":12523:12530   */\n      dup3\n        /* \"#utility.yul\":12519:12534   */\n      div\n        /* \"#utility.yul\":12516:12517   */\n      dup5\n        /* \"#utility.yul\":12513:12535   */\n      eq\n        /* \"#utility.yul\":12493:12494   */\n      dup4\n        /* \"#utility.yul\":12486:12495   */\n      iszero\n        /* \"#utility.yul\":12466:12549   */\n      or\n        /* \"#utility.yul\":12443:12582   */\n      tag_517\n      jumpi\n        /* \"#utility.yul\":12562:12580   */\n      tag_518\n      tag_363\n      jump\t// in\n    tag_518:\n        /* \"#utility.yul\":12443:12582   */\n    tag_517:\n        /* \"#utility.yul\":12227:12589   */\n      pop\n        /* \"#utility.yul\":12179:12589   */\n      swap3\n      swap2\n      pop\n      pop\n      jump\t// out\n        /* \"#utility.yul\":12595:12786   */\n    tag_156:\n        /* \"#utility.yul\":12635:12638   */\n      0x00\n        /* \"#utility.yul\":12654:12674   */\n      tag_520\n        /* \"#utility.yul\":12672:12673   */\n      dup3\n        /* \"#utility.yul\":12654:12674   */\n      tag_342\n      jump\t// in\n    tag_520:\n        /* \"#utility.yul\":12649:12674   */\n      swap2\n      pop\n        /* \"#utility.yul\":12688:12708   */\n      tag_521\n        /* \"#utility.yul\":12706:12707   */\n      dup4\n        /* \"#utility.yul\":12688:12708   */\n      tag_342\n      jump\t// in\n    tag_521:\n        /* \"#utility.yul\":12683:12708   */\n      swap3\n      pop\n        /* \"#utility.yul\":12731:12732   */\n      dup3\n        /* \"#utility.yul\":12728:12729   */\n      dup3\n        /* \"#utility.yul\":12724:12733   */\n      add\n        /* \"#utility.yul\":12717:12733   */\n      swap1\n      pop\n        /* \"#utility.yul\":12752:12755   */\n      dup1\n        /* \"#utility.yul\":12749:12750   */\n      dup3\n        /* \"#utility.yul\":12746:12756   */\n      gt\n        /* \"#utility.yul\":12743:12779   */\n      iszero\n      tag_522\n      jumpi\n        /* \"#utility.yul\":12759:12777   */\n      tag_523\n      tag_363\n      jump\t// in\n    tag_523:\n        /* \"#utility.yul\":12743:12779   */\n    tag_522:\n        /* \"#utility.yul\":12595:12786   */\n      swap3\n      swap2\n      pop\n      pop\n      jump\t// out\n        /* \"#utility.yul\":12792:12954   */\n    tag_365:\n        /* \"#utility.yul\":12932:12946   */\n      0x416c726561647920706169640000000000000000000000000000000000000000\n        /* \"#utility.yul\":12928:12929   */\n      0x00\n        /* \"#utility.yul\":12920:12926   */\n      dup3\n        /* \"#utility.yul\":12916:12930   */\n      add\n        /* \"#utility.yul\":12909:12947   */\n      mstore\n        /* \"#utility.yul\":12792:12954   */\n      pop\n      jump\t// out\n        /* \"#utility.yul\":12960:13326   */\n    tag_366:\n        /* \"#utility.yul\":13102:13105   */\n      0x00\n        /* \"#utility.yul\":13123:13190   */\n      tag_526\n        /* \"#utility.yul\":13187:13189   */\n      0x0c\n        /* \"#utility.yul\":13182:13185   */\n      dup4\n        /* \"#utility.yul\":13123:13190   */\n      tag_358\n      jump\t// in\n    tag_526:\n        /* \"#utility.yul\":13116:13190   */\n      swap2\n      pop\n        /* \"#utility.yul\":13199:13292   */\n      tag_527\n        /* \"#utility.yul\":13288:13291   */\n      dup3\n        /* \"#utility.yul\":13199:13292   */\n      tag_365\n      jump\t// in\n    tag_527:\n        /* \"#utility.yul\":13317:13319   */\n      0x20\n        /* \"#utility.yul\":13312:13315   */\n      dup3\n        /* \"#utility.yul\":13308:13320   */\n      add\n        /* \"#utility.yul\":13301:13320   */\n      swap1\n      pop\n        /* \"#utility.yul\":12960:13326   */\n      swap2\n      swap1\n      pop\n      jump\t// out\n        /* \"#utility.yul\":13332:13751   */\n    tag_160:\n        /* \"#utility.yul\":13498:13502   */\n      0x00\n        /* \"#utility.yul\":13536:13538   */\n      0x20\n        /* \"#utility.yul\":13525:13534   */\n      dup3\n        /* \"#utility.yul\":13521:13539   */\n      add\n        /* \"#utility.yul\":13513:13539   */\n      swap1\n      pop\n        /* \"#utility.yul\":13585:13594   */\n      dup2\n        /* \"#utility.yul\":13579:13583   */\n      dup2\n        /* \"#utility.yul\":13575:13595   */\n      sub\n        /* \"#utility.yul\":13571:13572   */\n      0x00\n        /* \"#utility.yul\":13560:13569   */\n      dup4\n        /* \"#utility.yul\":13556:13573   */\n      add\n        /* \"#utility.yul\":13549:13596   */\n      mstore\n        /* \"#utility.yul\":13613:13744   */\n      tag_529\n        /* \"#utility.yul\":13739:13743   */\n      dup2\n        /* \"#utility.yul\":13613:13744   */\n      tag_366\n      jump\t// in\n    tag_529:\n        /* \"#utility.yul\":13605:13744   */\n      swap1\n      pop\n        /* \"#utility.yul\":13332:13751   */\n      swap2\n      swap1\n      pop\n      jump\t// out\n        /* \"#utility.yul\":13757:13924   */\n    tag_367:\n        /* \"#utility.yul\":13897:13916   */\n      0x496e636f7272656374207061796d656e74000000000000000000000000000000\n        /* \"#utility.yul\":13893:13894   */\n      0x00\n        /* \"#utility.yul\":13885:13891   */\n      dup3\n        /* \"#utility.yul\":13881:13895   */\n      add\n        /* \"#utility.yul\":13874:13917   */\n      mstore\n        /* \"#utility.yul\":13757:13924   */\n      pop\n      jump\t// out\n        /* \"#utility.yul\":13930:14296   */\n    tag_368:\n        /* \"#utility.yul\":14072:14075   */\n      0x00\n        /* \"#utility.yul\":14093:14160   */\n      tag_532\n        /* \"#utility.yul\":14157:14159   */\n      0x11\n        /* \"#utility.yul\":14152:14155   */\n      dup4\n        /* \"#utility.yul\":14093:14160   */\n      tag_358\n      jump\t// in\n    tag_532:\n        /* \"#utility.yul\":14086:14160   */\n      swap2\n      pop\n        /* \"#utility.yul\":14169:14262   */\n      tag_533\n        /* \"#utility.yul\":14258:14261   */\n      dup3\n        /* \"#utility.yul\":14169:14262   */\n      tag_367\n      jump\t// in\n    tag_533:\n        /* \"#utility.yul\":14287:14289   */\n      0x20\n        /* \"#utility.yul\":14282:14285   */\n      dup3\n        /* \"#utility.yul\":14278:14290   */\n      add\n        /* \"#utility.yul\":14271:14290   */\n      swap1\n      pop\n        /* \"#utility.yul\":13930:14296   */\n      swap2\n      swap1\n      pop\n      jump\t// out\n        /* \"#utility.yul\":14302:14721   */\n    tag_163:\n        /* \"#utility.yul\":14468:14472   */\n      0x00\n        /* \"#utility.yul\":14506:14508   */\n      0x20\n        /* \"#utility.yul\":14495:14504   */\n      dup3\n        /* \"#utility.yul\":14491:14509   */\n      add\n        /* \"#utility.yul\":14483:14509   */\n      swap1\n      pop\n        /* \"#utility.yul\":14555:14564   */\n      dup2\n        /* \"#utility.yul\":14549:14553   */\n      dup2\n        /* \"#utility.yul\":14545:14565   */\n      sub\n        /* \"#utility.yul\":14541:14542   */\n      0x00\n        /* \"#utility.yul\":14530:14539   */\n      dup4\n        /* \"#utility.yul\":14526:14543   */\n      add\n        /* \"#utility.yul\":14519:14566   */\n      mstore\n        /* \"#utility.yul\":14583:14714   */\n      tag_535\n        /* \"#utility.yul\":14709:14713   */\n      dup2\n        /* \"#utility.yul\":14583:14714   */\n      tag_368\n      jump\t// in\n    tag_535:\n        /* \"#utility.yul\":14575:14714   */\n      swap1\n      pop\n        /* \"#utility.yul\":14302:14721   */\n      swap2\n      swap1\n      pop\n      jump\t// out\n        /* \"#utility.yul\":14727:15059   */\n    tag_167:\n        /* \"#utility.yul\":14848:14852   */\n      0x00\n        /* \"#utility.yul\":14886:14888   */\n      0x40\n        /* \"#utility.yul\":14875:14884   */\n      dup3\n        /* \"#utility.yul\":14871:14889   */\n      add\n        /* \"#utility.yul\":14863:14889   */\n      swap1\n      pop\n        /* \"#utility.yul\":14899:14970   */\n      tag_537\n        /* \"#utility.yul\":14967:14968   */\n      0x00\n        /* \"#utility.yul\":14956:14965   */\n      dup4\n        /* \"#utility.yul\":14952:14969   */\n      add\n        /* \"#utility.yul\":14943:14949   */\n      dup6\n        /* \"#utility.yul\":14899:14970   */\n      tag_354\n      jump\t// in\n    tag_537:\n        /* \"#utility.yul\":14980:15052   */\n      tag_538\n        /* \"#utility.yul\":15048:15050   */\n      0x20\n        /* \"#utility.yul\":15037:15046   */\n      dup4\n        /* \"#utility.yul\":15033:15051   */\n      add\n        /* \"#utility.yul\":15024:15030   */\n      dup5\n        /* \"#utility.yul\":14980:15052   */\n      tag_354\n      jump\t// in\n    tag_538:\n        /* \"#utility.yul\":14727:15059   */\n      swap4\n      swap3\n      pop\n      pop\n      pop\n      jump\t// out\n        /* \"#utility.yul\":15065:15208   */\n    tag_369:\n        /* \"#utility.yul\":15122:15127   */\n      0x00\n        /* \"#utility.yul\":15153:15159   */\n      dup2\n        /* \"#utility.yul\":15147:15160   */\n      mload\n        /* \"#utility.yul\":15138:15160   */\n      swap1\n      pop\n        /* \"#utility.yul\":15169:15202   */\n      tag_540\n        /* \"#utility.yul\":15196:15201   */\n      dup2\n        /* \"#utility.yul\":15169:15202   */\n      tag_343\n      jump\t// in\n    tag_540:\n        /* \"#utility.yul\":15065:15208   */\n      swap3\n      swap2\n      pop\n      pop\n      jump\t// out\n        /* \"#utility.yul\":15214:15565   */\n    tag_177:\n        /* \"#utility.yul\":15284:15290   */\n      0x00\n        /* \"#utility.yul\":15333:15335   */\n      0x20\n        /* \"#utility.yul\":15321:15330   */\n      dup3\n        /* \"#utility.yul\":15312:15319   */\n      dup5\n        /* \"#utility.yul\":15308:15331   */\n      sub\n        /* \"#utility.yul\":15304:15336   */\n      slt\n        /* \"#utility.yul\":15301:15420   */\n      iszero\n      tag_542\n      jumpi\n        /* \"#utility.yul\":15339:15418   */\n      tag_543\n      tag_334\n      jump\t// in\n    tag_543:\n        /* \"#utility.yul\":15301:15420   */\n    tag_542:\n        /* \"#utility.yul\":15459:15460   */\n      0x00\n        /* \"#utility.yul\":15484:15548   */\n      tag_544\n        /* \"#utility.yul\":15540:15547   */\n      dup5\n        /* \"#utility.yul\":15531:15537   */\n      dup3\n        /* \"#utility.yul\":15520:15529   */\n      dup6\n        /* \"#utility.yul\":15516:15538   */\n      add\n        /* \"#utility.yul\":15484:15548   */\n      tag_369\n      jump\t// in\n    tag_544:\n        /* \"#utility.yul\":15474:15548   */\n      swap2\n      pop\n        /* \"#utility.yul\":15430:15558   */\n      pop\n        /* \"#utility.yul\":15214:15565   */\n      swap3\n      swap2\n      pop\n      pop\n      jump\t// out\n        /* \"#utility.yul\":15571:15741   */\n    tag_370:\n        /* \"#utility.yul\":15711:15733   */\n      0x496e73756666696369656e742062616c616e6365000000000000000000000000\n        /* \"#utility.yul\":15707:15708   */\n      0x00\n        /* \"#utility.yul\":15699:15705   */\n      dup3\n        /* \"#utility.yul\":15695:15709   */\n      add\n        /* \"#utility.yul\":15688:15734   */\n      mstore\n        /* \"#utility.yul\":15571:15741   */\n      pop\n      jump\t// out\n        /* \"#utility.yul\":15747:16113   */\n    tag_371:\n        /* \"#utility.yul\":15889:15892   */\n      0x00\n        /* \"#utility.yul\":15910:15977   */\n      tag_547\n        /* \"#utility.yul\":15974:15976   */\n      0x14\n        /* \"#utility.yul\":15969:15972   */\n      dup4\n        /* \"#utility.yul\":15910:15977   */\n      tag_358\n      jump\t// in\n    tag_547:\n        /* \"#utility.yul\":15903:15977   */\n      swap2\n      pop\n        /* \"#utility.yul\":15986:16079   */\n      tag_548\n        /* \"#utility.yul\":16075:16078   */\n      dup3\n        /* \"#utility.yul\":15986:16079   */\n      tag_370\n      jump\t// in\n    tag_548:\n        /* \"#utility.yul\":16104:16106   */\n      0x20\n        /* \"#utility.yul\":16099:16102   */\n      dup3\n        /* \"#utility.yul\":16095:16107   */\n      add\n        /* \"#utility.yul\":16088:16107   */\n      swap1\n      pop\n        /* \"#utility.yul\":15747:16113   */\n      swap2\n      swap1\n      pop\n      jump\t// out\n        /* \"#utility.yul\":16119:16538   */\n    tag_180:\n        /* \"#utility.yul\":16285:16289   */\n      0x00\n        /* \"#utility.yul\":16323:16325   */\n      0x20\n        /* \"#utility.yul\":16312:16321   */\n      dup3\n        /* \"#utility.yul\":16308:16326   */\n      add\n        /* \"#utility.yul\":16300:16326   */\n      swap1\n      pop\n        /* \"#utility.yul\":16372:16381   */\n      dup2\n        /* \"#utility.yul\":16366:16370   */\n      dup2\n        /* \"#utility.yul\":16362:16382   */\n      sub\n        /* \"#utility.yul\":16358:16359   */\n      0x00\n        /* \"#utility.yul\":16347:16356   */\n      dup4\n        /* \"#utility.yul\":16343:16360   */\n      add\n        /* \"#utility.yul\":16336:16383   */\n      mstore\n        /* \"#utility.yul\":16400:16531   */\n      tag_550\n        /* \"#utility.yul\":16526:16530   */\n      dup2\n        /* \"#utility.yul\":16400:16531   */\n      tag_371\n      jump\t// in\n    tag_550:\n        /* \"#utility.yul\":16392:16531   */\n      swap1\n      pop\n        /* \"#utility.yul\":16119:16538   */\n      swap2\n      swap1\n      pop\n      jump\t// out\n        /* \"#utility.yul\":16544:16876   */\n    tag_182:\n        /* \"#utility.yul\":16665:16669   */\n      0x00\n        /* \"#utility.yul\":16703:16705   */\n      0x40\n        /* \"#utility.yul\":16692:16701   */\n      dup3\n        /* \"#utility.yul\":16688:16706   */\n      add\n        /* \"#utility.yul\":16680:16706   */\n      swap1\n      pop\n        /* \"#utility.yul\":16716:16787   */\n      tag_552\n        /* \"#utility.yul\":16784:16785   */\n      0x00\n        /* \"#utility.yul\":16773:16782   */\n      dup4\n        /* \"#utility.yul\":16769:16786   */\n      add\n        /* \"#utility.yul\":16760:16766   */\n      dup6\n        /* \"#utility.yul\":16716:16787   */\n      tag_355\n      jump\t// in\n    tag_552:\n        /* \"#utility.yul\":16797:16869   */\n      tag_553\n        /* \"#utility.yul\":16865:16867   */\n      0x20\n        /* \"#utility.yul\":16854:16863   */\n      dup4\n        /* \"#utility.yul\":16850:16868   */\n      add\n        /* \"#utility.yul\":16841:16847   */\n      dup5\n        /* \"#utility.yul\":16797:16869   */\n      tag_354\n      jump\t// in\n    tag_553:\n        /* \"#utility.yul\":16544:16876   */\n      swap4\n      swap3\n      pop\n      pop\n      pop\n      jump\t// out\n        /* \"#utility.yul\":16882:17029   */\n    tag_372:\n        /* \"#utility.yul\":16983:16994   */\n      0x00\n        /* \"#utility.yul\":17020:17023   */\n      dup2\n        /* \"#utility.yul\":17005:17023   */\n      swap1\n      pop\n        /* \"#utility.yul\":16882:17029   */\n      swap3\n      swap2\n      pop\n      pop\n      jump\t// out\n        /* \"#utility.yul\":17035:17149   */\n    tag_373:\n      pop\n      jump\t// out\n        /* \"#utility.yul\":17155:17553   */\n    tag_374:\n        /* \"#utility.yul\":17314:17317   */\n      0x00\n        /* \"#utility.yul\":17335:17418   */\n      tag_557\n        /* \"#utility.yul\":17416:17417   */\n      0x00\n        /* \"#utility.yul\":17411:17414   */\n      dup4\n        /* \"#utility.yul\":17335:17418   */\n      tag_372\n      jump\t// in\n    tag_557:\n        /* \"#utility.yul\":17328:17418   */\n      swap2\n      pop\n        /* \"#utility.yul\":17427:17520   */\n      tag_558\n        /* \"#utility.yul\":17516:17519   */\n      dup3\n        /* \"#utility.yul\":17427:17520   */\n      tag_373\n      jump\t// in\n    tag_558:\n        /* \"#utility.yul\":17545:17546   */\n      0x00\n        /* \"#utility.yul\":17540:17543   */\n      dup3\n        /* \"#utility.yul\":17536:17547   */\n      add\n        /* \"#utility.yul\":17529:17547   */\n      swap1\n      pop\n        /* \"#utility.yul\":17155:17553   */\n      swap2\n      swap1\n      pop\n      jump\t// out\n        /* \"#utility.yul\":17559:17938   */\n    tag_187:\n        /* \"#utility.yul\":17743:17746   */\n      0x00\n        /* \"#utility.yul\":17765:17912   */\n      tag_560\n        /* \"#utility.yul\":17908:17911   */\n      dup3\n        /* \"#utility.yul\":17765:17912   */\n      tag_374\n      jump\t// in\n    tag_560:\n        /* \"#utility.yul\":17758:17912   */\n      swap2\n      pop\n        /* \"#utility.yul\":17929:17932   */\n      dup2\n        /* \"#utility.yul\":17922:17932   */\n      swap1\n      pop\n        /* \"#utility.yul\":17559:17938   */\n      swap2\n      swap1\n      pop\n      jump\t// out\n        /* \"#utility.yul\":17944:18109   */\n    tag_375:\n        /* \"#utility.yul\":18084:18101   */\n      0x5472616e73666572206661696c65640000000000000000000000000000000000\n        /* \"#utility.yul\":18080:18081   */\n      0x00\n        /* \"#utility.yul\":18072:18078   */\n      dup3\n        /* \"#utility.yul\":18068:18082   */\n      add\n        /* \"#utility.yul\":18061:18102   */\n      mstore\n        /* \"#utility.yul\":17944:18109   */\n      pop\n      jump\t// out\n        /* \"#utility.yul\":18115:18481   */\n    tag_376:\n        /* \"#utility.yul\":18257:18260   */\n      0x00\n        /* \"#utility.yul\":18278:18345   */\n      tag_563\n        /* \"#utility.yul\":18342:18344   */\n      0x0f\n        /* \"#utility.yul\":18337:18340   */\n      dup4\n        /* \"#utility.yul\":18278:18345   */\n      tag_358\n      jump\t// in\n    tag_563:\n        /* \"#utility.yul\":18271:18345   */\n      swap2\n      pop\n        /* \"#utility.yul\":18354:18447   */\n      tag_564\n        /* \"#utility.yul\":18443:18446   */\n      dup3\n        /* \"#utility.yul\":18354:18447   */\n      tag_375\n      jump\t// in\n    tag_564:\n        /* \"#utility.yul\":18472:18474   */\n      0x20\n        /* \"#utility.yul\":18467:18470   */\n      dup3\n        /* \"#utility.yul\":18463:18475   */\n      add\n        /* \"#utility.yul\":18456:18475   */\n      swap1\n      pop\n        /* \"#utility.yul\":18115:18481   */\n      swap2\n      swap1\n      pop\n      jump\t// out\n        /* \"#utility.yul\":18487:18906   */\n    tag_193:\n        /* \"#utility.yul\":18653:18657   */\n      0x00\n        /* \"#utility.yul\":18691:18693   */\n      0x20\n        /* \"#utility.yul\":18680:18689   */\n      dup3\n        /* \"#utility.yul\":18676:18694   */\n      add\n        /* \"#utility.yul\":18668:18694   */\n      swap1\n      pop\n        /* \"#utility.yul\":18740:18749   */\n      dup2\n        /* \"#utility.yul\":18734:18738   */\n      dup2\n        /* \"#utility.yul\":18730:18750   */\n      sub\n        /* \"#utility.yul\":18726:18727   */\n      0x00\n        /* \"#utility.yul\":18715:18724   */\n      dup4\n        /* \"#utility.yul\":18711:18728   */\n      add\n        /* \"#utility.yul\":18704:18751   */\n      mstore\n        /* \"#utility.yul\":18768:18899   */\n      tag_566\n        /* \"#utility.yul\":18894:18898   */\n      dup2\n        /* \"#utility.yul\":18768:18899   */\n      tag_376\n      jump\t// in\n    tag_566:\n        /* \"#utility.yul\":18760:18899   */\n      swap1\n      pop\n        /* \"#utility.yul\":18487:18906   */\n      swap2\n      swap1\n      pop\n      jump\t// out\n        /* \"#utility.yul\":18912:19074   */\n    tag_377:\n        /* \"#utility.yul\":19052:19066   */\n      0x46656520746f6f20686967680000000000000000000000000000000000000000\n        /* \"#utility.yul\":19048:19049   */\n      0x00\n        /* \"#utility.yul\":19040:19046   */\n      dup3\n        /* \"#utility.yul\":19036:19050   */\n      add\n        /* \"#utility.yul\":19029:19067   */\n      mstore\n        /* \"#utility.yul\":18912:19074   */\n      pop\n      jump\t// out\n        /* \"#utility.yul\":19080:19446   */\n    tag_378:\n        /* \"#utility.yul\":19222:19225   */\n      0x00\n        /* \"#utility.yul\":19243:19310   */\n      tag_569\n        /* \"#utility.yul\":19307:19309   */\n      0x0c\n        /* \"#utility.yul\":19302:19305   */\n      dup4\n        /* \"#utility.yul\":19243:19310   */\n      tag_358\n      jump\t// in\n    tag_569:\n        /* \"#utility.yul\":19236:19310   */\n      swap2\n      pop\n        /* \"#utility.yul\":19319:19412   */\n      tag_570\n        /* \"#utility.yul\":19408:19411   */\n      dup3\n        /* \"#utility.yul\":19319:19412   */\n      tag_377\n      jump\t// in\n    tag_570:\n        /* \"#utility.yul\":19437:19439   */\n      0x20\n        /* \"#utility.yul\":19432:19435   */\n      dup3\n        /* \"#utility.yul\":19428:19440   */\n      add\n        /* \"#utility.yul\":19421:19440   */\n      swap1\n      pop\n        /* \"#utility.yul\":19080:19446   */\n      swap2\n      swap1\n      pop\n      jump\t// out\n        /* \"#utility.yul\":19452:19871   */\n    tag_223:\n        /* \"#utility.yul\":19618:19622   */\n      0x00\n        /* \"#utility.yul\":19656:19658   */\n      0x20\n        /* \"#utility.yul\":19645:19654   */\n      dup3\n        /* \"#utility.yul\":19641:19659   */\n      add\n        /* \"#utility.yul\":19633:19659   */\n      swap1\n      pop\n        /* \"#utility.yul\":19705:19714   */\n      dup2\n        /* \"#utility.yul\":19699:19703   */\n      dup2\n        /* \"#utility.yul\":19695:19715   */\n      sub\n        /* \"#utility.yul\":19691:19692   */\n      0x00\n        /* \"#utility.yul\":19680:19689   */\n      dup4\n        /* \"#utility.yul\":19676:19693   */\n      add\n        /* \"#utility.yul\":19669:19716   */\n      mstore\n        /* \"#utility.yul\":19733:19864   */\n      tag_572\n        /* \"#utility.yul\":19859:19863   */\n      dup2\n        /* \"#utility.yul\":19733:19864   */\n      tag_378\n      jump\t// in\n    tag_572:\n        /* \"#utility.yul\":19725:19864   */\n      swap1\n      pop\n        /* \"#utility.yul\":19452:19871   */\n      swap2\n      swap1\n      pop\n      jump\t// out\n        /* \"#utility.yul\":19877:20041   */\n    tag_379:\n        /* \"#utility.yul\":20017:20033   */\n      0x4e6f742072656769737465726564000000000000000000000000000000000000\n        /* \"#utility.yul\":20013:20014   */\n      0x00\n        /* \"#utility.yul\":20005:20011   */\n      dup3\n        /* \"#utility.yul\":20001:20015   */\n      add\n        /* \"#utility.yul\":19994:20034   */\n      mstore\n        /* \"#utility.yul\":19877:20041   */\n      pop\n      jump\t// out\n        /* \"#utility.yul\":20047:20413   */\n    tag_380:\n        /* \"#utility.yul\":20189:20192   */\n      0x00\n        /* \"#utility.yul\":20210:20277   */\n      tag_575\n        /* \"#utility.yul\":20274:20276   */\n      0x0e\n        /* \"#utility.yul\":20269:20272   */\n      dup4\n        /* \"#utility.yul\":20210:20277   */\n      tag_358\n      jump\t// in\n    tag_575:\n        /* \"#utility.yul\":20203:20277   */\n      swap2\n      pop\n        /* \"#utility.yul\":20286:20379   */\n      tag_576\n        /* \"#utility.yul\":20375:20378   */\n      dup3\n        /* \"#utility.yul\":20286:20379   */\n      tag_379\n      jump\t// in\n    tag_576:\n        /* \"#utility.yul\":20404:20406   */\n      0x20\n        /* \"#utility.yul\":20399:20402   */\n      dup3\n        /* \"#utility.yul\":20395:20407   */\n      add\n        /* \"#utility.yul\":20388:20407   */\n      swap1\n      pop\n        /* \"#utility.yul\":20047:20413   */\n      swap2\n      swap1\n      pop\n      jump\t// out\n        /* \"#utility.yul\":20419:20838   */\n    tag_229:\n        /* \"#utility.yul\":20585:20589   */\n      0x00\n        /* \"#utility.yul\":20623:20625   */\n      0x20\n        /* \"#utility.yul\":20612:20621   */\n      dup3\n        /* \"#utility.yul\":20608:20626   */\n      add\n        /* \"#utility.yul\":20600:20626   */\n      swap1\n      pop\n        /* \"#utility.yul\":20672:20681   */\n      dup2\n        /* \"#utility.yul\":20666:20670   */\n      dup2\n        /* \"#utility.yul\":20662:20682   */\n      sub\n        /* \"#utility.yul\":20658:20659   */\n      0x00\n        /* \"#utility.yul\":20647:20656   */\n      dup4\n        /* \"#utility.yul\":20643:20660   */\n      add\n        /* \"#utility.yul\":20636:20683   */\n      mstore\n        /* \"#utility.yul\":20700:20831   */\n      tag_578\n        /* \"#utility.yul\":20826:20830   */\n      dup2\n        /* \"#utility.yul\":20700:20831   */\n      tag_380\n      jump\t// in\n    tag_578:\n        /* \"#utility.yul\":20692:20831   */\n      swap1\n      pop\n        /* \"#utility.yul\":20419:20838   */\n      swap2\n      swap1\n      pop\n      jump\t// out\n        /* \"#utility.yul\":20844:21009   */\n    tag_381:\n        /* \"#utility.yul\":20984:21001   */\n      0x416d6f756e74206d69736d617463680000000000000000000000000000000000\n        /* \"#utility.yul\":20980:20981   */\n      0x00\n        /* \"#utility.yul\":20972:20978   */\n      dup3\n        /* \"#utility.yul\":20968:20982   */\n      add\n        /* \"#utility.yul\":20961:21002   */\n      mstore\n        /* \"#utility.yul\":20844:21009   */\n      pop\n      jump\t// out\n        /* \"#utility.yul\":21015:21381   */\n    tag_382:\n        /* \"#utility.yul\":21157:21160   */\n      0x00\n        /* \"#utility.yul\":21178:21245   */\n      tag_581\n        /* \"#utility.yul\":21242:21244   */\n      0x0f\n        /* \"#utility.yul\":21237:21240   */\n      dup4\n        /* \"#utility.yul\":21178:21245   */\n      tag_358\n      jump\t// in\n    tag_581:\n        /* \"#utility.yul\":21171:21245   */\n      swap2\n      pop\n        /* \"#utility.yul\":21254:21347   */\n      tag_582\n        /* \"#utility.yul\":21343:21346   */\n      dup3\n        /* \"#utility.yul\":21254:21347   */\n      tag_381\n      jump\t// in\n    tag_582:\n        /* \"#utility.yul\":21372:21374   */\n      0x20\n        /* \"#utility.yul\":21367:21370   */\n      dup3\n        /* \"#utility.yul\":21363:21375   */\n      add\n        /* \"#utility.yul\":21356:21375   */\n      swap1\n      pop\n        /* \"#utility.yul\":21015:21381   */\n      swap2\n      swap1\n      pop\n      jump\t// out\n        /* \"#utility.yul\":21387:21806   */\n    tag_232:\n        /* \"#utility.yul\":21553:21557   */\n      0x00\n        /* \"#utility.yul\":21591:21593   */\n      0x20\n        /* \"#utility.yul\":21580:21589   */\n      dup3\n        /* \"#utility.yul\":21576:21594   */\n      add\n        /* \"#utility.yul\":21568:21594   */\n      swap1\n      pop\n        /* \"#utility.yul\":21640:21649   */\n      dup2\n        /* \"#utility.yul\":21634:21638   */\n      dup2\n        /* \"#utility.yul\":21630:21650   */\n      sub\n        /* \"#utility.yul\":21626:21627   */\n      0x00\n        /* \"#utility.yul\":21615:21624   */\n      dup4\n        /* \"#utility.yul\":21611:21628   */\n      add\n        /* \"#utility.yul\":21604:21651   */\n      mstore\n        /* \"#utility.yul\":21668:21799   */\n      tag_584\n        /* \"#utility.yul\":21794:21798   */\n      dup2\n        /* \"#utility.yul\":21668:21799   */\n      tag_382\n      jump\t// in\n    tag_584:\n        /* \"#utility.yul\":21660:21799   */\n      swap1\n      pop\n        /* \"#utility.yul\":21387:21806   */\n      swap2\n      swap1\n      pop\n      jump\t// out\n        /* \"#utility.yul\":21812:21970   */\n    tag_383:\n        /* \"#utility.yul\":21952:21962   */\n      0x416c6c2070616964000000000000000000000000000000000000000000000000\n        /* \"#utility.yul\":21948:21949   */\n      0x00\n        /* \"#utility.yul\":21940:21946   */\n      dup3\n        /* \"#utility.yul\":21936:21950   */\n      add\n        /* \"#utility.yul\":21929:21963   */\n      mstore\n        /* \"#utility.yul\":21812:21970   */\n      pop\n      jump\t// out\n        /* \"#utility.yul\":21976:22341   */\n    tag_384:\n        /* \"#utility.yul\":22118:22121   */\n      0x00\n        /* \"#utility.yul\":22139:22205   */\n      tag_587\n        /* \"#utility.yul\":22203:22204   */\n      0x08\n        /* \"#utility.yul\":22198:22201   */\n      dup4\n        /* \"#utility.yul\":22139:22205   */\n      tag_358\n      jump\t// in\n    tag_587:\n        /* \"#utility.yul\":22132:22205   */\n      swap2\n      pop\n        /* \"#utility.yul\":22214:22307   */\n      tag_588\n        /* \"#utility.yul\":22303:22306   */\n      dup3\n        /* \"#utility.yul\":22214:22307   */\n      tag_383\n      jump\t// in\n    tag_588:\n        /* \"#utility.yul\":22332:22334   */\n      0x20\n        /* \"#utility.yul\":22327:22330   */\n      dup3\n        /* \"#utility.yul\":22323:22335   */\n      add\n        /* \"#utility.yul\":22316:22335   */\n      swap1\n      pop\n        /* \"#utility.yul\":21976:22341   */\n      swap2\n      swap1\n      pop\n      jump\t// out\n        /* \"#utility.yul\":22347:22766   */\n    tag_247:\n        /* \"#utility.yul\":22513:22517   */\n      0x00\n        /* \"#utility.yul\":22551:22553   */\n      0x20\n        /* \"#utility.yul\":22540:22549   */\n      dup3\n        /* \"#utility.yul\":22536:22554   */\n      add\n        /* \"#utility.yul\":22528:22554   */\n      swap1\n      pop\n        /* \"#utility.yul\":22600:22609   */\n      dup2\n        /* \"#utility.yul\":22594:22598   */\n      dup2\n        /* \"#utility.yul\":22590:22610   */\n      sub\n        /* \"#utility.yul\":22586:22587   */\n      0x00\n        /* \"#utility.yul\":22575:22584   */\n      dup4\n        /* \"#utility.yul\":22571:22588   */\n      add\n        /* \"#utility.yul\":22564:22611   */\n      mstore\n        /* \"#utility.yul\":22628:22759   */\n      tag_590\n        /* \"#utility.yul\":22754:22758   */\n      dup2\n        /* \"#utility.yul\":22628:22759   */\n      tag_384\n      jump\t// in\n    tag_590:\n        /* \"#utility.yul\":22620:22759   */\n      swap1\n      pop\n        /* \"#utility.yul\":22347:22766   */\n      swap2\n      swap1\n      pop\n      jump\t// out\n        /* \"#utility.yul\":22772:23005   */\n    tag_252:\n        /* \"#utility.yul\":22811:22814   */\n      0x00\n        /* \"#utility.yul\":22834:22858   */\n      tag_592\n        /* \"#utility.yul\":22852:22857   */\n      dup3\n        /* \"#utility.yul\":22834:22858   */\n      tag_342\n      jump\t// in\n    tag_592:\n        /* \"#utility.yul\":22825:22858   */\n      swap2\n      pop\n        /* \"#utility.yul\":22880:22946   */\n      0xffffffffffffffffffffffffffffffffffffffffffffffffffffffffffffffff\n        /* \"#utility.yul\":22873:22878   */\n      dup3\n        /* \"#utility.yul\":22870:22947   */\n      sub\n        /* \"#utility.yul\":22867:22970   */\n      tag_593\n      jumpi\n        /* \"#utility.yul\":22950:22968   */\n      tag_594\n      tag_363\n      jump\t// in\n    tag_594:\n        /* \"#utility.yul\":22867:22970   */\n    tag_593:\n        /* \"#utility.yul\":22997:22998   */\n      0x01\n        /* \"#utility.yul\":22990:22995   */\n      dup3\n        /* \"#utility.yul\":22986:22999   */\n      add\n        /* \"#utility.yul\":22979:22999   */\n      swap1\n      pop\n        /* \"#utility.yul\":22772:23005   */\n      swap2\n      swap1\n      pop\n      jump\t// out\n        /* \"#utility.yul\":23011:23182   */\n    tag_385:\n        /* \"#utility.yul\":23151:23174   */\n      0x4c656e646572206e6f7420726567697374657265640000000000000000000000\n        /* \"#utility.yul\":23147:23148   */\n      0x00\n        /* \"#utility.yul\":23139:23145   */\n      dup3\n        /* \"#utility.yul\":23135:23149   */\n      add\n        /* \"#utility.yul\":23128:23175   */\n      mstore\n        /* \"#utility.yul\":23011:23182   */\n      pop\n      jump\t// out\n        /* \"#utility.yul\":23188:23554   */\n    tag_386:\n        /* \"#utility.yul\":23330:23333   */\n      0x00\n        /* \"#utility.yul\":23351:23418   */\n      tag_597\n        /* \"#utility.yul\":23415:23417   */\n      0x15\n        /* \"#utility.yul\":23410:23413   */\n      dup4\n        /* \"#utility.yul\":23351:23418   */\n      tag_358\n      jump\t// in\n    tag_597:\n        /* \"#utility.yul\":23344:23418   */\n      swap2\n      pop\n        /* \"#utility.yul\":23427:23520   */\n      tag_598\n        /* \"#utility.yul\":23516:23519   */\n      dup3\n        /* \"#utility.yul\":23427:23520   */\n      tag_385\n      jump\t// in\n    tag_598:\n        /* \"#utility.yul\":23545:23547   */\n      0x20\n        /* \"#utility.yul\":23540:23543   */\n      dup3\n        /* \"#utility.yul\":23536:23548   */\n      add\n        /* \"#utility.yul\":23529:23548   */\n      swap1\n      pop\n        /* \"#utility.yul\":23188:23554   */\n      swap2\n      swap1\n      pop\n      jump\t// out\n        /* \"#utility.yul\":23560:23979   */\n    tag_264:\n        /* \"#utility.yul\":23726:23730   */\n      0x00\n        /* \"#utility.yul\":23764:23766   */\n      0x20\n        /* \"#utility.yul\":23753:23762   */\n      dup3\n        /* \"#utility.yul\":23749:23767   */\n      add\n        /* \"#utility.yul\":23741:23767   */\n      swap1\n      pop\n        /* \"#utility.yul\":23813:23822   */\n      dup2\n        /* \"#utility.yul\":23807:23811   */\n      dup2\n        /* \"#utility.yul\":23803:23823   */\n      sub\n        /* \"#utility.yul\":23799:23800   */\n      0x00\n        /* \"#utility.yul\":23788:23797   */\n      dup4\n        /* \"#utility.yul\":23784:23801   */\n      add\n        /* \"#utility.yul\":23777:23824   */\n      mstore\n        /* \"#utility.yul\":23841:23972   */\n      tag_600\n        /* \"#utility.yul\":23967:23971   */\n      dup2\n        /* \"#utility.yul\":23841:23972   */\n      tag_386\n      jump\t// in\n    tag_600:\n        /* \"#utility.yul\":23833:23972   */\n      swap1\n      pop\n        /* \"#utility.yul\":23560:23979   */\n      swap2\n      swap1\n      pop\n      jump\t// out\n        /* \"#utility.yul\":23985:24158   */\n    tag_387:\n        /* \"#utility.yul\":24125:24150   */\n      0x426f72726f776572206e6f742072656769737465726564000000000000000000\n        /* \"#utility.yul\":24121:24122   */\n      0x00\n        /* \"#utility.yul\":24113:24119   */\n      dup3\n        /* \"#utility.yul\":24109:24123   */\n      add\n        /* \"#utility.yul\":24102:24151   */\n      mstore\n        /* \"#utility.yul\":23985:24158   */\n      pop\n      jump\t// out\n        /* \"#utility.yul\":24164:24530   */\n    tag_388:\n        /* \"#utility.yul\":24306:24309   */\n      0x00\n        /* \"#utility.yul\":24327:24394   */\n      tag_603\n        /* \"#utility.yul\":24391:24393   */\n      0x17\n        /* \"#utility.yul\":24386:24389   */\n      dup4\n        /* \"#utility.yul\":24327:24394   */\n      tag_358\n      jump\t// in\n    tag_603:\n        /* \"#utility.yul\":24320:24394   */\n      swap2\n      pop\n        /* \"#utility.yul\":24403:24496   */\n      tag_604\n        /* \"#utility.yul\":24492:24495   */\n      dup3\n        /* \"#utility.yul\":24403:24496   */\n      tag_387\n      jump\t// in\n    tag_604:\n        /* \"#utility.yul\":24521:24523   */\n      0x20\n        /* \"#utility.yul\":24516:24519   */\n      dup3\n        /* \"#utility.yul\":24512:24524   */\n      add\n        /* \"#utility.yul\":24505:24524   */\n      swap1\n      pop\n        /* \"#utility.yul\":24164:24530   */\n      swap2\n      swap1\n      pop\n      jump\t// out\n        /* \"#utility.yul\":24536:24955   */\n    tag_267:\n        /* \"#utility.yul\":24702:24706   */\n      0x00\n        /* \"#utility.yul\":24740:24742   */\n      0x20\n        /* \"#utility.yul\":24729:24738   */\n      dup3\n        /* \"#utility.yul\":24725:24743   */\n      add\n        /* \"#utility.yul\":24717:24743   */\n      swap1\n      pop\n        /* \"#utility.yul\":24789:24798   */\n      dup2\n        /* \"#utility.yul\":24783:24787   */\n      dup2\n        /* \"#utility.yul\":24779:24799   */\n      sub\n        /* \"#utility.yul\":24775:24776   */\n      0x00\n        /* \"#utility.yul\":24764:24773   */\n      dup4\n        /* \"#utility.yul\":24760:24777   */\n      add\n        /* \"#utility.yul\":24753:24800   */\n      mstore\n        /* \"#utility.yul\":24817:24948   */\n      tag_606\n        /* \"#utility.yul\":24943:24947   */\n      dup2\n        /* \"#utility.yul\":24817:24948   */\n      tag_388\n      jump\t// in\n    tag_606:\n        /* \"#utility.yul\":24809:24948   */\n      swap1\n      pop\n        /* \"#utility.yul\":24536:24955   */\n      swap2\n      swap1\n      pop\n      jump\t// out\n        /* \"#utility.yul\":24961:25325   */\n    tag_389:\n        /* \"#utility.yul\":25103:25106   */\n      0x00\n        /* \"#utility.yul\":25124:25190   */\n      tag_608\n        /* \"#utility.yul\":25188:25189   */\n      0x00\n        /* \"#utility.yul\":25183:25186   */\n      dup4\n        /* \"#utility.yul\":25124:25190   */\n      tag_358\n      jump\t// in\n    tag_608:\n        /* \"#utility.yul\":25117:25190   */\n      swap2\n      pop\n        /* \"#utility.yul\":25199:25292   */\n      tag_609\n        /* \"#utility.yul\":25288:25291   */\n      dup3\n        /* \"#utility.yul\":25199:25292   */\n      tag_373\n      jump\t// in\n    tag_609:\n        /* \"#utility.yul\":25317:25318   */\n      0x00\n        /* \"#utility.yul\":25312:25315   */\n      dup3\n        /* \"#utility.yul\":25308:25319   */\n      add\n        /* \"#utility.yul\":25301:25319   */\n      swap1\n      pop\n        /* \"#utility.yul\":24961:25325   */\n      swap2\n      swap1\n      pop\n      jump\t// out\n        /* \"#utility.yul\":25331:25970   */\n    tag_288:\n        /* \"#utility.yul\":25553:25557   */\n      0x00\n        /* \"#utility.yul\":25591:25593   */\n      0x60\n        /* \"#utility.yul\":25580:25589   */\n      dup3\n        /* \"#utility.yul\":25576:25594   */\n      add\n        /* \"#utility.yul\":25568:25594   */\n      swap1\n      pop\n        /* \"#utility.yul\":25604:25675   */\n      tag_611\n        /* \"#utility.yul\":25672:25673   */\n      0x00\n        /* \"#utility.yul\":25661:25670   */\n      dup4\n        /* \"#utility.yul\":25657:25674   */\n      add\n        /* \"#utility.yul\":25648:25654   */\n      dup6\n        /* \"#utility.yul\":25604:25675   */\n      tag_355\n      jump\t// in\n    tag_611:\n        /* \"#utility.yul\":25685:25757   */\n      tag_612\n        /* \"#utility.yul\":25753:25755   */\n      0x20\n        /* \"#utility.yul\":25742:25751   */\n      dup4\n        /* \"#utility.yul\":25738:25756   */\n      add\n        /* \"#utility.yul\":25729:25735   */\n      dup5\n        /* \"#utility.yul\":25685:25757   */\n      tag_354\n      jump\t// in\n    tag_612:\n        /* \"#utility.yul\":25804:25813   */\n      dup2\n        /* \"#utility.yul\":25798:25802   */\n      dup2\n        /* \"#utility.yul\":25794:25814   */\n      sub\n        /* \"#utility.yul\":25789:25791   */\n      0x40\n        /* \"#utility.yul\":25778:25787   */\n      dup4\n        /* \"#utility.yul\":25774:25792   */\n      add\n        /* \"#utility.yul\":25767:25815   */\n      mstore\n        /* \"#utility.yul\":25832:25963   */\n      tag_613\n        /* \"#utility.yul\":25958:25962   */\n      dup2\n        /* \"#utility.yul\":25832:25963   */\n      tag_389\n      jump\t// in\n    tag_613:\n        /* \"#utility.yul\":25824:25963   */\n      swap1\n      pop\n        /* \"#utility.yul\":25331:25970   */\n      swap4\n      swap3\n      pop\n      pop\n      pop\n      jump\t// out\n        /* \"#utility.yul\":25976:26529   */\n    tag_293:\n        /* \"#utility.yul\":26153:26157   */\n      0x00\n        /* \"#utility.yul\":26191:26194   */\n      0x80\n        /* \"#utility.yul\":26180:26189   */\n      dup3\n        /* \"#utility.yul\":26176:26195   */\n      add\n        /* \"#utility.yul\":26168:26195   */\n      swap1\n      pop\n        /* \"#utility.yul\":26205:26276   */\n      tag_615\n        /* \"#utility.yul\":26273:26274   */\n      0x00\n        /* \"#utility.yul\":26262:26271   */\n      dup4\n        /* \"#utility.yul\":26258:26275   */\n      add\n        /* \"#utility.yul\":26249:26255   */\n      dup8\n        /* \"#utility.yul\":26205:26276   */\n      tag_354\n      jump\t// in\n    tag_615:\n        /* \"#utility.yul\":26286:26358   */\n      tag_616\n        /* \"#utility.yul\":26354:26356   */\n      0x20\n        /* \"#utility.yul\":26343:26352   */\n      dup4\n        /* \"#utility.yul\":26339:26357   */\n      add\n        /* \"#utility.yul\":26330:26336   */\n      dup7\n        /* \"#utility.yul\":26286:26358   */\n      tag_355\n      jump\t// in\n    tag_616:\n        /* \"#utility.yul\":26368:26440   */\n      tag_617\n        /* \"#utility.yul\":26436:26438   */\n      0x40\n        /* \"#utility.yul\":26425:26434   */\n      dup4\n        /* \"#utility.yul\":26421:26439   */\n      add\n        /* \"#utility.yul\":26412:26418   */\n      dup6\n        /* \"#utility.yul\":26368:26440   */\n      tag_355\n      jump\t// in\n    tag_617:\n        /* \"#utility.yul\":26450:26522   */\n      tag_618\n        /* \"#utility.yul\":26518:26520   */\n      0x60\n        /* \"#utility.yul\":26507:26516   */\n      dup4\n        /* \"#utility.yul\":26503:26521   */\n      add\n        /* \"#utility.yul\":26494:26500   */\n      dup5\n        /* \"#utility.yul\":26450:26522   */\n      tag_354\n      jump\t// in\n    tag_618:\n        /* \"#utility.yul\":25976:26529   */\n      swap6\n      swap5\n      pop\n      pop\n      pop\n      pop\n      pop\n      jump\t// out\n        /* \"#utility.yul\":26535:26716   */\n    tag_390:\n        /* \"#utility.yul\":26675:26708   */\n      0x5265656e7472616e637947756172643a207265656e7472616e742063616c6c00\n        /* \"#utility.yul\":26671:26672   */\n      0x00\n        /* \"#utility.yul\":26663:26669   */\n      dup3\n        /* \"#utility.yul\":26659:26673   */\n      add\n        /* \"#utility.yul\":26652:26709   */\n      mstore\n        /* \"#utility.yul\":26535:26716   */\n      pop\n      jump\t// out\n        /* \"#utility.yul\":26722:27088   */\n    tag_391:\n        /* \"#utility.yul\":26864:26867   */\n      0x00\n        /* \"#utility.yul\":26885:26952   */\n      tag_621\n        /* \"#utility.yul\":26949:26951   */\n      0x1f\n        /* \"#utility.yul\":26944:26947   */\n      dup4\n        /* \"#utility.yul\":26885:26952   */\n      tag_358\n      jump\t// in\n    tag_621:\n        /* \"#utility.yul\":26878:26952   */\n      swap2\n      pop\n        /* \"#utility.yul\":26961:27054   */\n      tag_622\n        /* \"#utility.yul\":27050:27053   */\n      dup3\n        /* \"#utility.yul\":26961:27054   */\n      tag_390\n      jump\t// in\n    tag_622:\n        /* \"#utility.yul\":27079:27081   */\n      0x20\n        /* \"#utility.yul\":27074:27077   */\n      dup3\n        /* \"#utility.yul\":27070:27082   */\n      add\n        /* \"#utility.yul\":27063:27082   */\n      swap1\n      pop\n        /* \"#utility.yul\":26722:27088   */\n      swap2\n      swap1\n      pop\n      jump\t// out\n        /* \"#utility.yul\":27094:27513   */\n    tag_312:\n        /* \"#utility.yul\":27260:27264   */\n      0x00\n        /* \"#utility.yul\":27298:27300   */\n      0x20\n        /* \"#utility.yul\":27287:27296   */\n      dup3\n        /* \"#utility.yul\":27283:27301   */\n      add\n        /* \"#utility.yul\":27275:27301   */\n      swap1\n      pop\n        /* \"#utility.yul\":27347:27356   */\n      dup2\n        /* \"#utility.yul\":27341:27345   */\n      dup2\n        /* \"#utility.yul\":27337:27357   */\n      sub\n        /* \"#utility.yul\":27333:27334   */\n      0x00\n        /* \"#utility.yul\":27322:27331   */\n      dup4\n        /* \"#utility.yul\":27318:27335   */\n      add\n        /* \"#utility.yul\":27311:27358   */\n      mstore\n        /* \"#utility.yul\":27375:27506   */\n      tag_624\n        /* \"#utility.yul\":27501:27505   */\n      dup2\n        /* \"#utility.yul\":27375:27506   */\n      tag_391\n      jump\t// in\n    tag_624:\n        /* \"#utility.yul\":27367:27506   */\n      swap1\n      pop\n        /* \"#utility.yul\":27094:27513   */\n      swap2\n      swap1\n      pop\n      jump\t// out\n\n    auxdata: 0xa2646970667358221220e68ece8e9764d3132783ef0df160c27a60539b0f84baae257fd3cf6bfdc79d5164736f6c634300081e0033\n}\n",
				"bytecode": {
					"linkReferences": {},
					"object": "6080604052600160075560c8600855348015610019575f5ffd5b50604051612cbd380380612cbd833981810160405281019061003b919061026b565b3360015f819055505f73ffffffffffffffffffffffffffffffffffffffff168173ffffffffffffffffffffffffffffffffffffffff16036100b3575f6040517f1e4fbdf70000000000000000000000000000000000000000000000000000000081526004016100aa91906102b8565b60405180910390fd5b6100c28161014a60201b60201c565b508160025f6101000a81548173ffffffffffffffffffffffffffffffffffffffff021916908373ffffffffffffffffffffffffffffffffffffffff1602179055508060035f6101000a81548173ffffffffffffffffffffffffffffffffffffffff021916908373ffffffffffffffffffffffffffffffffffffffff16021790555050506102d1565b5f60015f9054906101000a900473ffffffffffffffffffffffffffffffffffffffff1690508160015f6101000a81548173ffffffffffffffffffffffffffffffffffffffff021916908373ffffffffffffffffffffffffffffffffffffffff1602179055508173ffffffffffffffffffffffffffffffffffffffff168173ffffffffffffffffffffffffffffffffffffffff167f8be0079c531659141344cd1fd0a4f28419497f9722a3daafe3b4186f6b6457e060405160405180910390a35050565b5f5ffd5b5f73ffffffffffffffffffffffffffffffffffffffff82169050919050565b5f61023a82610211565b9050919050565b61024a81610230565b8114610254575f5ffd5b50565b5f8151905061026581610241565b92915050565b5f5f604083850312156102815761028061020d565b5b5f61028e85828601610257565b925050602061029f85828601610257565b9150509250929050565b6102b281610230565b82525050565b5f6020820190506102cb5f8301846102a9565b92915050565b6129df806102de5f395ff3fe608060405260043610610143575f3560e01c80639012c4a8116100b5578063e3d7b24d1161006e578063e3d7b24d14610423578063e831878d1461045f578063eaf6e48314610475578063f2fde38b146104b1578063f8b2cb4f146104d9578063fbfd9a77146105155761014a565b80639012c4a814610318578063b6b55f2514610340578063bf5d50c41461035c578063ddca3f4314610398578063e1ec3c68146103c2578063e2f8a017146104075761014a565b80635312ea8e116101075780635312ea8e14610234578063709b89611461025c578063715018a6146102985780637df21f7a146102ae57806387c51459146102c45780638da5cb5b146102ee5761014a565b806328fd10d71461014e5780632cf340af1461018a5780632e1a7d4d146101a657806334a41177146101ce578063504006ca146101f85761014a565b3661014a57005b5f5ffd5b348015610159575f5ffd5b50610174600480360381019061016f9190611d93565b61053f565b6040516101819190611dd8565b60405180910390f35b6101a4600480360381019061019f9190611e24565b61055c565b005b3480156101b1575f5ffd5b506101cc60048036038101906101c79190611e24565b6107d8565b005b3480156101d9575f5ffd5b506101e26109f8565b6040516101ef9190611eaa565b60405180910390f35b348015610203575f5ffd5b5061021e60048036038101906102199190611e24565b610a1d565b60405161022b9190611fba565b60405180910390f35b34801561023f575f5ffd5b5061025a60048036038101906102559190611e24565b610b52565b005b348015610267575f5ffd5b50610282600480360381019061027d9190611d93565b610c0d565b60405161028f9190611dd8565b60405180910390f35b3480156102a3575f5ffd5b506102ac610c5f565b005b3480156102b9575f5ffd5b506102c2610c72565b005b3480156102cf575f5ffd5b506102d8610d00565b6040516102e59190611fe3565b60405180910390f35b3480156102f9575f5ffd5b50610302610d06565b60405161030f919061200b565b60405180910390f35b348015610323575f5ffd5b5061033e60048036038101906103399190611e24565b610d2e565b005b61035a60048036038101906103559190611e24565b610d85565b005b348015610367575f5ffd5b50610382600480360381019061037d9190611d93565b610eec565b60405161038f9190611dd8565b60405180910390f35b3480156103a3575f5ffd5b506103ac610f09565b6040516103b99190611fe3565b60405180910390f35b3480156103cd575f5ffd5b506103e860048036038101906103e39190611e24565b610f0f565b6040516103fe9a99989796959493929190612024565b60405180910390f35b610421600480360381019061041c9190611e24565b610fa9565b005b34801561042e575f5ffd5b50610449600480360381019061044491906120be565b6111cf565b6040516104569190611fe3565b60405180910390f35b34801561046a575f5ffd5b5061047361178d565b005b348015610480575f5ffd5b5061049b60048036038101906104969190611d93565b61181b565b6040516104a89190611dd8565b60405180910390f35b3480156104bc575f5ffd5b506104d760048036038101906104d29190611d93565b61186d565b005b3480156104e4575f5ffd5b506104ff60048036038101906104fa9190611d93565b6118f1565b60405161050c9190611fe3565b60405180910390f35b348015610520575f5ffd5b50610529611992565b6040516105369190612155565b60405180910390f35b6005602052805f5260405f205f915054906101000a900460ff1681565b6105646119b7565b5f60045f8381526020019081526020015f209050806009015f9054906101000a900460ff166105c8576040517f08c379a00000000000000000000000000000000000000000000000000000000081526004016105bf906121c8565b60405180910390fd5b3373ffffffffffffffffffffffffffffffffffffffff16816001015f9054906101000a900473ffffffffffffffffffffffffffffffffffffffff1673ffffffffffffffffffffffffffffffffffffffff1614610659576040517f08c379a000000000000000000000000000000000000000000000000000000000815260040161065090612230565b60405180910390fd5b5f6201518082600501544261066e919061227b565b61067891906122db565b90505f810361068657600190505b5f601e905080821115610697578091505b5f81846002015485600301546106ad919061227b565b6106b791906122db565b90505f83826106c6919061230b565b85600201546106d5919061234c565b90505f8560040154826106e8919061227b565b90505f811161072c576040517f08c379a0000000000000000000000000000000000000000000000000000000008152600401610723906123c9565b60405180910390fd5b80341461076e576040517f08c379a000000000000000000000000000000000000000000000000000000000815260040161076590612431565b60405180910390fd5b8186600401819055508560060154866008018190555061078d87611a04565b867fe03c0f5f6b9d1f552be959c424317360ade987d25a5d0ac6afd7b2f43ab3eb5382876040516107bf92919061244f565b60405180910390a25050505050506107d5611b64565b50565b6107e06119b7565b8060025f9054906101000a900473ffffffffffffffffffffffffffffffffffffffff1673ffffffffffffffffffffffffffffffffffffffff166370a08231336040518263ffffffff1660e01b815260040161083b919061200b565b602060405180830381865afa158015610856573d5f5f3e3d5ffd5b505050506040513d601f19601f8201168201806040525081019061087a919061248a565b10156108bb576040517f08c379a00000000000000000000000000000000000000000000000000000000081526004016108b2906124ff565b60405180910390fd5b60025f9054906101000a900473ffffffffffffffffffffffffffffffffffffffff1673ffffffffffffffffffffffffffffffffffffffff16639dc29fac33836040518363ffffffff1660e01b815260040161091792919061251d565b5f604051808303815f87803b15801561092e575f5ffd5b505af1158015610940573d5f5f3e3d5ffd5b505050505f3373ffffffffffffffffffffffffffffffffffffffff168260405161096990612571565b5f6040518083038185875af1925050503d805f81146109a3576040519150601f19603f3d011682016040523d82523d5f602084013e6109a8565b606091505b50509050806109ec576040517f08c379a00000000000000000000000000000000000000000000000000000000081526004016109e3906125cf565b60405180910390fd5b506109f5611b64565b50565b60035f9054906101000a900473ffffffffffffffffffffffffffffffffffffffff1681565b610a25611cbe565b60045f8381526020019081526020015f20604051806101400160405290815f82015f9054906101000a900473ffffffffffffffffffffffffffffffffffffffff1673ffffffffffffffffffffffffffffffffffffffff1673ffffffffffffffffffffffffffffffffffffffff168152602001600182015f9054906101000a900473ffffffffffffffffffffffffffffffffffffffff1673ffffffffffffffffffffffffffffffffffffffff1673ffffffffffffffffffffffffffffffffffffffff16815260200160028201548152602001600382015481526020016004820154815260200160058201548152602001600682015481526020016007820154815260200160088201548152602001600982015f9054906101000a900460ff1615151515815250509050919050565b610b5a611b6d565b5f610b63610d06565b73ffffffffffffffffffffffffffffffffffffffff1682604051610b8690612571565b5f6040518083038185875af1925050503d805f8114610bc0576040519150601f19603f3d011682016040523d82523d5f602084013e610bc5565b606091505b5050905080610c09576040517f08c379a0000000000000000000000000000000000000000000000000000000008152600401610c00906125cf565b60405180910390fd5b5050565b5f60055f8373ffffffffffffffffffffffffffffffffffffffff1673ffffffffffffffffffffffffffffffffffffffff1681526020019081526020015f205f9054906101000a900460ff169050919050565b610c67611b6d565b610c705f611bf4565b565b600160055f3373ffffffffffffffffffffffffffffffffffffffff1673ffffffffffffffffffffffffffffffffffffffff1681526020019081526020015f205f6101000a81548160ff0219169083151502179055507f35999cadc5f1a750104410f15263cc04190a1095143f37917467434d7f32c3c433604051610cf6919061200b565b60405180910390a1565b60075481565b5f60015f9054906101000a900473ffffffffffffffffffffffffffffffffffffffff16905090565b610d36611b6d565b6103e8811115610d7b576040517f08c379a0000000000000000000000000000000000000000000000000000000008152600401610d7290612637565b60405180910390fd5b8060088190555050565b610d8d6119b7565b60055f3373ffffffffffffffffffffffffffffffffffffffff1673ffffffffffffffffffffffffffffffffffffffff1681526020019081526020015f205f9054906101000a900460ff16610e16576040517f08c379a0000000000000000000000000000000000000000000000000000000008152600401610e0d9061269f565b60405180910390fd5b803414610e58576040517f08c379a0000000000000000000000000000000000000000000000000000000008152600401610e4f90612707565b60405180910390fd5b60025f9054906101000a900473ffffffffffffffffffffffffffffffffffffffff1673ffffffffffffffffffffffffffffffffffffffff166340c10f1933836040518363ffffffff1660e01b8152600401610eb492919061251d565b5f604051808303815f87803b158015610ecb575f5ffd5b505af1158015610edd573d5f5f3e3d5ffd5b50505050610ee9611b64565b50565b6006602052805f5260405f205f915054906101000a900460ff1681565b60085481565b6004602052805f5260405f205f91509050805f015f9054906101000a900473ffffffffffffffffffffffffffffffffffffffff1690806001015f9054906101000a900473ffffffffffffffffffffffffffffffffffffffff1690806002015490806003015490806004015490806005015490806006015490806007015490806008015490806009015f9054906101000a900460ff1690508a565b610fb16119b7565b5f60045f8381526020019081526020015f209050806009015f9054906101000a900460ff16611015576040517f08c379a000000000000000000000000000000000000000000000000000000000815260040161100c906121c8565b60405180910390fd5b3373ffffffffffffffffffffffffffffffffffffffff16816001015f9054906101000a900473ffffffffffffffffffffffffffffffffffffffff1673ffffffffffffffffffffffffffffffffffffffff16146110a6576040517f08c379a000000000000000000000000000000000000000000000000000000000815260040161109d90612230565b60405180910390fd5b80600601548160080154106110f0576040517f08c379a00000000000000000000000000000000000000000000000000000000081526004016110e79061276f565b60405180910390fd5b80600701543414611136576040517f08c379a000000000000000000000000000000000000000000000000000000000815260040161112d90612431565b60405180910390fd5b8060070154816004015f82825461114d919061234c565b92505081905550806008015f8154809291906111689061278d565b91905055507f0e9e4ec6fa83fe2a2893fd5d6517a890df20f72cc0ba40495b21e65d122235038282600701546040516111a292919061244f565b60405180910390a180600601548160080154106111c3576111c282611a04565b5b506111cc611b64565b50565b5f6111d8611b6d565b6111e06119b7565b60055f8773ffffffffffffffffffffffffffffffffffffffff1673ffffffffffffffffffffffffffffffffffffffff1681526020019081526020015f205f9054906101000a900460ff16611269576040517f08c379a00000000000000000000000000000000000000000000000000000000081526004016112609061281e565b60405180910390fd5b60065f8673ffffffffffffffffffffffffffffffffffffffff1673ffffffffffffffffffffffffffffffffffffffff1681526020019081526020015f205f9054906101000a900460ff166112f2576040517f08c379a00000000000000000000000000000000000000000000000000000000081526004016112e990612886565b60405180910390fd5b8360025f9054906101000a900473ffffffffffffffffffffffffffffffffffffffff1673ffffffffffffffffffffffffffffffffffffffff166370a08231886040518263ffffffff1660e01b815260040161134d919061200b565b602060405180830381865afa158015611368573d5f5f3e3d5ffd5b505050506040513d601f19601f8201168201806040525081019061138c919061248a565b10156113cd576040517f08c379a00000000000000000000000000000000000000000000000000000000081526004016113c4906124ff565b60405180910390fd5b5f60075f8154809291906113e09061278d565b9190505590505f84866113f3919061234c565b90505f848261140291906122db565b90506040518061014001604052808a73ffffffffffffffffffffffffffffffffffffffff1681526020018973ffffffffffffffffffffffffffffffffffffffff1681526020018881526020018381526020015f81526020014281526020018681526020018281526020015f81526020016001151581525060045f8581526020019081526020015f205f820151815f015f6101000a81548173ffffffffffffffffffffffffffffffffffffffff021916908373ffffffffffffffffffffffffffffffffffffffff1602179055506020820151816001015f6101000a81548173ffffffffffffffffffffffffffffffffffffffff021916908373ffffffffffffffffffffffffffffffffffffffff16021790555060408201518160020155606082015181600301556080820151816004015560a0820151816005015560c0820151816006015560e082015181600701556101008201518160080155610120820151816009015f6101000a81548160ff02191690831515021790555090505060025f9054906101000a900473ffffffffffffffffffffffffffffffffffffffff1673ffffffffffffffffffffffffffffffffffffffff16639dc29fac8a896040518363ffffffff1660e01b81526004016115da92919061251d565b5f604051808303815f87803b1580156115f1575f5ffd5b505af1158015611603573d5f5f3e3d5ffd5b505050505f8873ffffffffffffffffffffffffffffffffffffffff168860405161162c90612571565b5f6040518083038185875af1925050503d805f8114611666576040519150601f19603f3d011682016040523d82523d5f602084013e61166b565b606091505b50509050806116af576040517f08c379a00000000000000000000000000000000000000000000000000000000081526004016116a6906125cf565b60405180910390fd5b60035f9054906101000a900473ffffffffffffffffffffffffffffffffffffffff1673ffffffffffffffffffffffffffffffffffffffff1663d3fc98648b866040518363ffffffff1660e01b815260040161170b9291906128c4565b5f604051808303815f87803b158015611722575f5ffd5b505af1158015611734573d5f5f3e3d5ffd5b505050507f74b3e97b2a36ecfc8a1c59a0f98862174d98f86769a3420cf68024a054f87b6d848b8b8b60405161176d94939291906128fe565b60405180910390a183945050505050611784611b64565b95945050505050565b600160065f3373ffffffffffffffffffffffffffffffffffffffff1673ffffffffffffffffffffffffffffffffffffffff1681526020019081526020015f205f6101000a81548160ff0219169083151502179055507f57c3b463895a0da2fe39978165ab8b71864d9225a91dd3bda7184006e52cdd0c33604051611811919061200b565b60405180910390a1565b5f60065f8373ffffffffffffffffffffffffffffffffffffffff1673ffffffffffffffffffffffffffffffffffffffff1681526020019081526020015f205f9054906101000a900460ff169050919050565b611875611b6d565b5f73ffffffffffffffffffffffffffffffffffffffff168173ffffffffffffffffffffffffffffffffffffffff16036118e5575f6040517f1e4fbdf70000000000000000000000000000000000000000000000000000000081526004016118dc919061200b565b60405180910390fd5b6118ee81611bf4565b50565b5f60025f9054906101000a900473ffffffffffffffffffffffffffffffffffffffff1673ffffffffffffffffffffffffffffffffffffffff166370a08231836040518263ffffffff1660e01b815260040161194c919061200b565b602060405180830381865afa158015611967573d5f5f3e3d5ffd5b505050506040513d601f19601f8201168201806040525081019061198b919061248a565b9050919050565b60025f9054906101000a900473ffffffffffffffffffffffffffffffffffffffff1681565b60025f54036119fb576040517f08c379a00000000000000000000000000000000000000000000000000000000081526004016119f29061298b565b60405180910390fd5b60025f81905550565b5f60045f8381526020019081526020015f2090505f816009015f6101000a81548160ff0219169083151502179055505f81600201548260040154611a48919061227b565b90505f61271060085483611a5c919061230b565b611a6691906122db565b90505f818460040154611a79919061227b565b905060025f9054906101000a900473ffffffffffffffffffffffffffffffffffffffff1673ffffffffffffffffffffffffffffffffffffffff166340c10f19855f015f9054906101000a900473ffffffffffffffffffffffffffffffffffffffff16836040518363ffffffff1660e01b8152600401611af992919061251d565b5f604051808303815f87803b158015611b10575f5ffd5b505af1158015611b22573d5f5f3e3d5ffd5b505050507f02ca5489b37dd363d1302bac719e8ee40e540ffbe8c12253570fea63e11cad7185604051611b559190611fe3565b60405180910390a15050505050565b60015f81905550565b611b75611cb7565b73ffffffffffffffffffffffffffffffffffffffff16611b93610d06565b73ffffffffffffffffffffffffffffffffffffffff1614611bf257611bb6611cb7565b6040517f118cdaa7000000000000000000000000000000000000000000000000000000008152600401611be9919061200b565b60405180910390fd5b565b5f60015f9054906101000a900473ffffffffffffffffffffffffffffffffffffffff1690508160015f6101000a81548173ffffffffffffffffffffffffffffffffffffffff021916908373ffffffffffffffffffffffffffffffffffffffff1602179055508173ffffffffffffffffffffffffffffffffffffffff168173ffffffffffffffffffffffffffffffffffffffff167f8be0079c531659141344cd1fd0a4f28419497f9722a3daafe3b4186f6b6457e060405160405180910390a35050565b5f33905090565b6040518061014001604052805f73ffffffffffffffffffffffffffffffffffffffff1681526020015f73ffffffffffffffffffffffffffffffffffffffff1681526020015f81526020015f81526020015f81526020015f81526020015f81526020015f81526020015f81526020015f151581525090565b5f5ffd5b5f73ffffffffffffffffffffffffffffffffffffffff82169050919050565b5f611d6282611d39565b9050919050565b611d7281611d58565b8114611d7c575f5ffd5b50565b5f81359050611d8d81611d69565b92915050565b5f60208284031215611da857611da7611d35565b5b5f611db584828501611d7f565b91505092915050565b5f8115159050919050565b611dd281611dbe565b82525050565b5f602082019050611deb5f830184611dc9565b92915050565b5f819050919050565b611e0381611df1565b8114611e0d575f5ffd5b50565b5f81359050611e1e81611dfa565b92915050565b5f60208284031215611e3957611e38611d35565b5b5f611e4684828501611e10565b91505092915050565b5f819050919050565b5f611e72611e6d611e6884611d39565b611e4f565b611d39565b9050919050565b5f611e8382611e58565b9050919050565b5f611e9482611e79565b9050919050565b611ea481611e8a565b82525050565b5f602082019050611ebd5f830184611e9b565b92915050565b611ecc81611d58565b82525050565b611edb81611df1565b82525050565b611eea81611dbe565b82525050565b61014082015f820151611f055f850182611ec3565b506020820151611f186020850182611ec3565b506040820151611f2b6040850182611ed2565b506060820151611f3e6060850182611ed2565b506080820151611f516080850182611ed2565b5060a0820151611f6460a0850182611ed2565b5060c0820151611f7760c0850182611ed2565b5060e0820151611f8a60e0850182611ed2565b50610100820151611f9f610100850182611ed2565b50610120820151611fb4610120850182611ee1565b50505050565b5f61014082019050611fce5f830184611ef0565b92915050565b611fdd81611df1565b82525050565b5f602082019050611ff65f830184611fd4565b92915050565b61200581611d58565b82525050565b5f60208201905061201e5f830184611ffc565b92915050565b5f610140820190506120385f83018d611ffc565b612045602083018c611ffc565b612052604083018b611fd4565b61205f606083018a611fd4565b61206c6080830189611fd4565b61207960a0830188611fd4565b61208660c0830187611fd4565b61209360e0830186611fd4565b6120a1610100830185611fd4565b6120af610120830184611dc9565b9b9a5050505050505050505050565b5f5f5f5f5f60a086880312156120d7576120d6611d35565b5b5f6120e488828901611d7f565b95505060206120f588828901611d7f565b945050604061210688828901611e10565b935050606061211788828901611e10565b925050608061212888828901611e10565b9150509295509295909350565b5f61213f82611e79565b9050919050565b61214f81612135565b82525050565b5f6020820190506121685f830184612146565b92915050565b5f82825260208201905092915050565b7f4c6f616e206e6f742061637469766500000000000000000000000000000000005f82015250565b5f6121b2600f8361216e565b91506121bd8261217e565b602082019050919050565b5f6020820190508181035f8301526121df816121a6565b9050919050565b7f4e6f7420796f7572206c6f616e000000000000000000000000000000000000005f82015250565b5f61221a600d8361216e565b9150612225826121e6565b602082019050919050565b5f6020820190508181035f8301526122478161220e565b9050919050565b7f4e487b71000000000000000000000000000000000000000000000000000000005f52601160045260245ffd5b5f61228582611df1565b915061229083611df1565b92508282039050818111156122a8576122a761224e565b5b92915050565b7f4e487b71000000000000000000000000000000000000000000000000000000005f52601260045260245ffd5b5f6122e582611df1565b91506122f083611df1565b925082612300576122ff6122ae565b5b828204905092915050565b5f61231582611df1565b915061232083611df1565b925082820261232e81611df1565b915082820484148315176123455761234461224e565b5b5092915050565b5f61235682611df1565b915061236183611df1565b92508282019050808211156123795761237861224e565b5b92915050565b7f416c7265616479207061696400000000000000000000000000000000000000005f82015250565b5f6123b3600c8361216e565b91506123be8261237f565b602082019050919050565b5f6020820190508181035f8301526123e0816123a7565b9050919050565b7f496e636f7272656374207061796d656e740000000000000000000000000000005f82015250565b5f61241b60118361216e565b9150612426826123e7565b602082019050919050565b5f6020820190508181035f8301526124488161240f565b9050919050565b5f6040820190506124625f830185611fd4565b61246f6020830184611fd4565b9392505050565b5f8151905061248481611dfa565b92915050565b5f6020828403121561249f5761249e611d35565b5b5f6124ac84828501612476565b91505092915050565b7f496e73756666696369656e742062616c616e63650000000000000000000000005f82015250565b5f6124e960148361216e565b91506124f4826124b5565b602082019050919050565b5f6020820190508181035f830152612516816124dd565b9050919050565b5f6040820190506125305f830185611ffc565b61253d6020830184611fd4565b9392505050565b5f81905092915050565b50565b5f61255c5f83612544565b91506125678261254e565b5f82019050919050565b5f61257b82612551565b9150819050919050565b7f5472616e73666572206661696c656400000000000000000000000000000000005f82015250565b5f6125b9600f8361216e565b91506125c482612585565b602082019050919050565b5f6020820190508181035f8301526125e6816125ad565b9050919050565b7f46656520746f6f206869676800000000000000000000000000000000000000005f82015250565b5f612621600c8361216e565b915061262c826125ed565b602082019050919050565b5f6020820190508181035f83015261264e81612615565b9050919050565b7f4e6f7420726567697374657265640000000000000000000000000000000000005f82015250565b5f612689600e8361216e565b915061269482612655565b602082019050919050565b5f6020820190508181035f8301526126b68161267d565b9050919050565b7f416d6f756e74206d69736d6174636800000000000000000000000000000000005f82015250565b5f6126f1600f8361216e565b91506126fc826126bd565b602082019050919050565b5f6020820190508181035f83015261271e816126e5565b9050919050565b7f416c6c20706169640000000000000000000000000000000000000000000000005f82015250565b5f61275960088361216e565b915061276482612725565b602082019050919050565b5f6020820190508181035f8301526127868161274d565b9050919050565b5f61279782611df1565b91507fffffffffffffffffffffffffffffffffffffffffffffffffffffffffffffffff82036127c9576127c861224e565b5b600182019050919050565b7f4c656e646572206e6f74207265676973746572656400000000000000000000005f82015250565b5f61280860158361216e565b9150612813826127d4565b602082019050919050565b5f6020820190508181035f830152612835816127fc565b9050919050565b7f426f72726f776572206e6f7420726567697374657265640000000000000000005f82015250565b5f61287060178361216e565b915061287b8261283c565b602082019050919050565b5f6020820190508181035f83015261289d81612864565b9050919050565b5f6128af5f8361216e565b91506128ba8261254e565b5f82019050919050565b5f6060820190506128d75f830185611ffc565b6128e46020830184611fd4565b81810360408301526128f5816128a4565b90509392505050565b5f6080820190506129115f830187611fd4565b61291e6020830186611ffc565b61292b6040830185611ffc565b6129386060830184611fd4565b95945050505050565b7f5265656e7472616e637947756172643a207265656e7472616e742063616c6c005f82015250565b5f612975601f8361216e565b915061298082612941565b602082019050919050565b5f6020820190508181035f8301526129a281612969565b905091905056fea2646970667358221220e68ece8e9764d3132783ef0df160c27a60539b0f84baae257fd3cf6bfdc79d5164736f6c634300081e0033",
					"opcodes": "PUSH1 0x80 PUSH1 0x40 MSTORE PUSH1 0x1 PUSH1 0x7 SSTORE PUSH1 0xC8 PUSH1 0x8 SSTORE CALLVALUE DUP1 ISZERO PUSH2 0x19 JUMPI PUSH0 PUSH0 REVERT JUMPDEST POP PUSH1 0x40 MLOAD PUSH2 0x2CBD CODESIZE SUB DUP1 PUSH2 0x2CBD DUP4 CODECOPY DUP2 DUP2 ADD PUSH1 0x40 MSTORE DUP2 ADD SWAP1 PUSH2 0x3B SWAP2 SWAP1 PUSH2 0x26B JUMP JUMPDEST CALLER PUSH1 0x1 PUSH0 DUP2 SWAP1 SSTORE POP PUSH0 PUSH20 0xFFFFFFFFFFFFFFFFFFFFFFFFFFFFFFFFFFFFFFFF AND DUP2 PUSH20 0xFFFFFFFFFFFFFFFFFFFFFFFFFFFFFFFFFFFFFFFF AND SUB PUSH2 0xB3 JUMPI PUSH0 PUSH1 0x40 MLOAD PUSH32 0x1E4FBDF700000000000000000000000000000000000000000000000000000000 DUP2 MSTORE PUSH1 0x4 ADD PUSH2 0xAA SWAP2 SWAP1 PUSH2 0x2B8 JUMP JUMPDEST PUSH1 0x40 MLOAD DUP1 SWAP2 SUB SWAP1 REVERT JUMPDEST PUSH2 0xC2 DUP2 PUSH2 0x14A PUSH1 0x20 SHL PUSH1 0x20 SHR JUMP JUMPDEST POP DUP2 PUSH1 0x2 PUSH0 PUSH2 0x100 EXP DUP2 SLOAD DUP2 PUSH20 0xFFFFFFFFFFFFFFFFFFFFFFFFFFFFFFFFFFFFFFFF MUL NOT AND SWAP1 DUP4 PUSH20 0xFFFFFFFFFFFFFFFFFFFFFFFFFFFFFFFFFFFFFFFF AND MUL OR SWAP1 SSTORE POP DUP1 PUSH1 0x3 PUSH0 PUSH2 0x100 EXP DUP2 SLOAD DUP2 PUSH20 0xFFFFFFFFFFFFFFFFFFFFFFFFFFFFFFFFFFFFFFFF MUL NOT AND SWAP1 DUP4 PUSH20 0xFFFFFFFFFFFFFFFFFFFFFFFFFFFFFFFFFFFFFFFF AND MUL OR SWAP1 SSTORE POP POP POP PUSH2 0x2D1 JUMP JUMPDEST PUSH0 PUSH1 0x1 PUSH0 SWAP1 SLOAD SWAP1 PUSH2 0x100 EXP SWAP1 DIV PUSH20 0xFFFFFFFFFFFFFFFFFFFFFFFFFFFFFFFFFFFFFFFF AND SWAP1 POP DUP2 PUSH1 0x1 PUSH0 PUSH2 0x100 EXP DUP2 SLOAD DUP2 PUSH20 0xFFFFFFFFFFFFFFFFFFFFFFFFFFFFFFFFFFFFFFFF MUL NOT AND SWAP1 DUP4 PUSH20 0xFFFFFFFFFFFFFFFFFFFFFFFFFFFFFFFFFFFFFFFF AND MUL OR SWAP1 SSTORE POP DUP2 PUSH20 0xFFFFFFFFFFFFFFFFFFFFFFFFFFFFFFFFFFFFFFFF AND DUP2 PUSH20 0xFFFFFFFFFFFFFFFFFFFFFFFFFFFFFFFFFFFFFFFF AND PUSH32 0x8BE0079C531659141344CD1FD0A4F28419497F9722A3DAAFE3B4186F6B6457E0 PUSH1 0x40 MLOAD PUSH1 0x40 MLOAD DUP1 SWAP2 SUB SWAP1 LOG3 POP POP JUMP JUMPDEST PUSH0 PUSH0 REVERT JUMPDEST PUSH0 PUSH20 0xFFFFFFFFFFFFFFFFFFFFFFFFFFFFFFFFFFFFFFFF DUP3 AND SWAP1 POP SWAP2 SWAP1 POP JUMP JUMPDEST PUSH0 PUSH2 0x23A DUP3 PUSH2 0x211 JUMP JUMPDEST SWAP1 POP SWAP2 SWAP1 POP JUMP JUMPDEST PUSH2 0x24A DUP2 PUSH2 0x230 JUMP JUMPDEST DUP2 EQ PUSH2 0x254 JUMPI PUSH0 PUSH0 REVERT JUMPDEST POP JUMP JUMPDEST PUSH0 DUP2 MLOAD SWAP1 POP PUSH2 0x265 DUP2 PUSH2 0x241 JUMP JUMPDEST SWAP3 SWAP2 POP POP JUMP JUMPDEST PUSH0 PUSH0 PUSH1 0x40 DUP4 DUP6 SUB SLT ISZERO PUSH2 0x281 JUMPI PUSH2 0x280 PUSH2 0x20D JUMP JUMPDEST JUMPDEST PUSH0 PUSH2 0x28E DUP6 DUP3 DUP7 ADD PUSH2 0x257 JUMP JUMPDEST SWAP3 POP POP PUSH1 0x20 PUSH2 0x29F DUP6 DUP3 DUP7 ADD PUSH2 0x257 JUMP JUMPDEST SWAP2 POP POP SWAP3 POP SWAP3 SWAP1 POP JUMP JUMPDEST PUSH2 0x2B2 DUP2 PUSH2 0x230 JUMP JUMPDEST DUP3 MSTORE POP POP JUMP JUMPDEST PUSH0 PUSH1 0x20 DUP3 ADD SWAP1 POP PUSH2 0x2CB PUSH0 DUP4 ADD DUP5 PUSH2 0x2A9 JUMP JUMPDEST SWAP3 SWAP2 POP POP JUMP JUMPDEST PUSH2 0x29DF DUP1 PUSH2 0x2DE PUSH0 CODECOPY PUSH0 RETURN INVALID PUSH1 0x80 PUSH1 0x40 MSTORE PUSH1 0x4 CALLDATASIZE LT PUSH2 0x143 JUMPI PUSH0 CALLDATALOAD PUSH1 0xE0 SHR DUP1 PUSH4 0x9012C4A8 GT PUSH2 0xB5 JUMPI DUP1 PUSH4 0xE3D7B24D GT PUSH2 0x6E JUMPI DUP1 PUSH4 0xE3D7B24D EQ PUSH2 0x423 JUMPI DUP1 PUSH4 0xE831878D EQ PUSH2 0x45F JUMPI DUP1 PUSH4 0xEAF6E483 EQ PUSH2 0x475 JUMPI DUP1 PUSH4 0xF2FDE38B EQ PUSH2 0x4B1 JUMPI DUP1 PUSH4 0xF8B2CB4F EQ PUSH2 0x4D9 JUMPI DUP1 PUSH4 0xFBFD9A77 EQ PUSH2 0x515 JUMPI PUSH2 0x14A JUMP JUMPDEST DUP1 PUSH4 0x9012C4A8 EQ PUSH2 0x318 JUMPI DUP1 PUSH4 0xB6B55F25 EQ PUSH2 0x340 JUMPI DUP1 PUSH4 0xBF5D50C4 EQ PUSH2 0x35C JUMPI DUP1 PUSH4 0xDDCA3F43 EQ PUSH2 0x398 JUMPI DUP1 PUSH4 0xE1EC3C68 EQ PUSH2 0x3C2 JUMPI DUP1 PUSH4 0xE2F8A017 EQ PUSH2 0x407 JUMPI PUSH2 0x14A JUMP JUMPDEST DUP1 PUSH4 0x5312EA8E GT PUSH2 0x107 JUMPI DUP1 PUSH4 0x5312EA8E EQ PUSH2 0x234 JUMPI DUP1 PUSH4 0x709B8961 EQ PUSH2 0x25C JUMPI DUP1 PUSH4 0x715018A6 EQ PUSH2 0x298 JUMPI DUP1 PUSH4 0x7DF21F7A EQ PUSH2 0x2AE JUMPI DUP1 PUSH4 0x87C51459 EQ PUSH2 0x2C4 JUMPI DUP1 PUSH4 0x8DA5CB5B EQ PUSH2 0x2EE JUMPI PUSH2 0x14A JUMP JUMPDEST DUP1 PUSH4 0x28FD10D7 EQ PUSH2 0x14E JUMPI DUP1 PUSH4 0x2CF340AF EQ PUSH2 0x18A JUMPI DUP1 PUSH4 0x2E1A7D4D EQ PUSH2 0x1A6 JUMPI DUP1 PUSH4 0x34A41177 EQ PUSH2 0x1CE JUMPI DUP1 PUSH4 0x504006CA EQ PUSH2 0x1F8 JUMPI PUSH2 0x14A JUMP JUMPDEST CALLDATASIZE PUSH2 0x14A JUMPI STOP JUMPDEST PUSH0 PUSH0 REVERT JUMPDEST CALLVALUE DUP1 ISZERO PUSH2 0x159 JUMPI PUSH0 PUSH0 REVERT JUMPDEST POP PUSH2 0x174 PUSH1 0x4 DUP1 CALLDATASIZE SUB DUP2 ADD SWAP1 PUSH2 0x16F SWAP2 SWAP1 PUSH2 0x1D93 JUMP JUMPDEST PUSH2 0x53F JUMP JUMPDEST PUSH1 0x40 MLOAD PUSH2 0x181 SWAP2 SWAP1 PUSH2 0x1DD8 JUMP JUMPDEST PUSH1 0x40 MLOAD DUP1 SWAP2 SUB SWAP1 RETURN JUMPDEST PUSH2 0x1A4 PUSH1 0x4 DUP1 CALLDATASIZE SUB DUP2 ADD SWAP1 PUSH2 0x19F SWAP2 SWAP1 PUSH2 0x1E24 JUMP JUMPDEST PUSH2 0x55C JUMP JUMPDEST STOP JUMPDEST CALLVALUE DUP1 ISZERO PUSH2 0x1B1 JUMPI PUSH0 PUSH0 REVERT JUMPDEST POP PUSH2 0x1CC PUSH1 0x4 DUP1 CALLDATASIZE SUB DUP2 ADD SWAP1 PUSH2 0x1C7 SWAP2 SWAP1 PUSH2 0x1E24 JUMP JUMPDEST PUSH2 0x7D8 JUMP JUMPDEST STOP JUMPDEST CALLVALUE DUP1 ISZERO PUSH2 0x1D9 JUMPI PUSH0 PUSH0 REVERT JUMPDEST POP PUSH2 0x1E2 PUSH2 0x9F8 JUMP JUMPDEST PUSH1 0x40 MLOAD PUSH2 0x1EF SWAP2 SWAP1 PUSH2 0x1EAA JUMP JUMPDEST PUSH1 0x40 MLOAD DUP1 SWAP2 SUB SWAP1 RETURN JUMPDEST CALLVALUE DUP1 ISZERO PUSH2 0x203 JUMPI PUSH0 PUSH0 REVERT JUMPDEST POP PUSH2 0x21E PUSH1 0x4 DUP1 CALLDATASIZE SUB DUP2 ADD SWAP1 PUSH2 0x219 SWAP2 SWAP1 PUSH2 0x1E24 JUMP JUMPDEST PUSH2 0xA1D JUMP JUMPDEST PUSH1 0x40 MLOAD PUSH2 0x22B SWAP2 SWAP1 PUSH2 0x1FBA JUMP JUMPDEST PUSH1 0x40 MLOAD DUP1 SWAP2 SUB SWAP1 RETURN JUMPDEST CALLVALUE DUP1 ISZERO PUSH2 0x23F JUMPI PUSH0 PUSH0 REVERT JUMPDEST POP PUSH2 0x25A PUSH1 0x4 DUP1 CALLDATASIZE SUB DUP2 ADD SWAP1 PUSH2 0x255 SWAP2 SWAP1 PUSH2 0x1E24 JUMP JUMPDEST PUSH2 0xB52 JUMP JUMPDEST STOP JUMPDEST CALLVALUE DUP1 ISZERO PUSH2 0x267 JUMPI PUSH0 PUSH0 REVERT JUMPDEST POP PUSH2 0x282 PUSH1 0x4 DUP1 CALLDATASIZE SUB DUP2 ADD SWAP1 PUSH2 0x27D SWAP2 SWAP1 PUSH2 0x1D93 JUMP JUMPDEST PUSH2 0xC0D JUMP JUMPDEST PUSH1 0x40 MLOAD PUSH2 0x28F SWAP2 SWAP1 PUSH2 0x1DD8 JUMP JUMPDEST PUSH1 0x40 MLOAD DUP1 SWAP2 SUB SWAP1 RETURN JUMPDEST CALLVALUE DUP1 ISZERO PUSH2 0x2A3 JUMPI PUSH0 PUSH0 REVERT JUMPDEST POP PUSH2 0x2AC PUSH2 0xC5F JUMP JUMPDEST STOP JUMPDEST CALLVALUE DUP1 ISZERO PUSH2 0x2B9 JUMPI PUSH0 PUSH0 REVERT JUMPDEST POP PUSH2 0x2C2 PUSH2 0xC72 JUMP JUMPDEST STOP JUMPDEST CALLVALUE DUP1 ISZERO PUSH2 0x2CF JUMPI PUSH0 PUSH0 REVERT JUMPDEST POP PUSH2 0x2D8 PUSH2 0xD00 JUMP JUMPDEST PUSH1 0x40 MLOAD PUSH2 0x2E5 SWAP2 SWAP1 PUSH2 0x1FE3 JUMP JUMPDEST PUSH1 0x40 MLOAD DUP1 SWAP2 SUB SWAP1 RETURN JUMPDEST CALLVALUE DUP1 ISZERO PUSH2 0x2F9 JUMPI PUSH0 PUSH0 REVERT JUMPDEST POP PUSH2 0x302 PUSH2 0xD06 JUMP JUMPDEST PUSH1 0x40 MLOAD PUSH2 0x30F SWAP2 SWAP1 PUSH2 0x200B JUMP JUMPDEST PUSH1 0x40 MLOAD DUP1 SWAP2 SUB SWAP1 RETURN JUMPDEST CALLVALUE DUP1 ISZERO PUSH2 0x323 JUMPI PUSH0 PUSH0 REVERT JUMPDEST POP PUSH2 0x33E PUSH1 0x4 DUP1 CALLDATASIZE SUB DUP2 ADD SWAP1 PUSH2 0x339 SWAP2 SWAP1 PUSH2 0x1E24 JUMP JUMPDEST PUSH2 0xD2E JUMP JUMPDEST STOP JUMPDEST PUSH2 0x35A PUSH1 0x4 DUP1 CALLDATASIZE SUB DUP2 ADD SWAP1 PUSH2 0x355 SWAP2 SWAP1 PUSH2 0x1E24 JUMP JUMPDEST PUSH2 0xD85 JUMP JUMPDEST STOP JUMPDEST CALLVALUE DUP1 ISZERO PUSH2 0x367 JUMPI PUSH0 PUSH0 REVERT JUMPDEST POP PUSH2 0x382 PUSH1 0x4 DUP1 CALLDATASIZE SUB DUP2 ADD SWAP1 PUSH2 0x37D SWAP2 SWAP1 PUSH2 0x1D93 JUMP JUMPDEST PUSH2 0xEEC JUMP JUMPDEST PUSH1 0x40 MLOAD PUSH2 0x38F SWAP2 SWAP1 PUSH2 0x1DD8 JUMP JUMPDEST PUSH1 0x40 MLOAD DUP1 SWAP2 SUB SWAP1 RETURN JUMPDEST CALLVALUE DUP1 ISZERO PUSH2 0x3A3 JUMPI PUSH0 PUSH0 REVERT JUMPDEST POP PUSH2 0x3AC PUSH2 0xF09 JUMP JUMPDEST PUSH1 0x40 MLOAD PUSH2 0x3B9 SWAP2 SWAP1 PUSH2 0x1FE3 JUMP JUMPDEST PUSH1 0x40 MLOAD DUP1 SWAP2 SUB SWAP1 RETURN JUMPDEST CALLVALUE DUP1 ISZERO PUSH2 0x3CD JUMPI PUSH0 PUSH0 REVERT JUMPDEST POP PUSH2 0x3E8 PUSH1 0x4 DUP1 CALLDATASIZE SUB DUP2 ADD SWAP1 PUSH2 0x3E3 SWAP2 SWAP1 PUSH2 0x1E24 JUMP JUMPDEST PUSH2 0xF0F JUMP JUMPDEST PUSH1 0x40 MLOAD PUSH2 0x3FE SWAP11 SWAP10 SWAP9 SWAP8 SWAP7 SWAP6 SWAP5 SWAP4 SWAP3 SWAP2 SWAP1 PUSH2 0x2024 JUMP JUMPDEST PUSH1 0x40 MLOAD DUP1 SWAP2 SUB SWAP1 RETURN JUMPDEST PUSH2 0x421 PUSH1 0x4 DUP1 CALLDATASIZE SUB DUP2 ADD SWAP1 PUSH2 0x41C SWAP2 SWAP1 PUSH2 0x1E24 JUMP JUMPDEST PUSH2 0xFA9 JUMP JUMPDEST STOP JUMPDEST CALLVALUE DUP1 ISZERO PUSH2 0x42E JUMPI PUSH0 PUSH0 REVERT JUMPDEST POP PUSH2 0x449 PUSH1 0x4 DUP1 CALLDATASIZE SUB DUP2 ADD SWAP1 PUSH2 0x444 SWAP2 SWAP1 PUSH2 0x20BE JUMP JUMPDEST PUSH2 0x11CF JUMP JUMPDEST PUSH1 0x40 MLOAD PUSH2 0x456 SWAP2 SWAP1 PUSH2 0x1FE3 JUMP JUMPDEST PUSH1 0x40 MLOAD DUP1 SWAP2 SUB SWAP1 RETURN JUMPDEST CALLVALUE DUP1 ISZERO PUSH2 0x46A JUMPI PUSH0 PUSH0 REVERT JUMPDEST POP PUSH2 0x473 PUSH2 0x178D JUMP JUMPDEST STOP JUMPDEST CALLVALUE DUP1 ISZERO PUSH2 0x480 JUMPI PUSH0 PUSH0 REVERT JUMPDEST POP PUSH2 0x49B PUSH1 0x4 DUP1 CALLDATASIZE SUB DUP2 ADD SWAP1 PUSH2 0x496 SWAP2 SWAP1 PUSH2 0x1D93 JUMP JUMPDEST PUSH2 0x181B JUMP JUMPDEST PUSH1 0x40 MLOAD PUSH2 0x4A8 SWAP2 SWAP1 PUSH2 0x1DD8 JUMP JUMPDEST PUSH1 0x40 MLOAD DUP1 SWAP2 SUB SWAP1 RETURN JUMPDEST CALLVALUE DUP1 ISZERO PUSH2 0x4BC JUMPI PUSH0 PUSH0 REVERT JUMPDEST POP PUSH2 0x4D7 PUSH1 0x4 DUP1 CALLDATASIZE SUB DUP2 ADD SWAP1 PUSH2 0x4D2 SWAP2 SWAP1 PUSH2 0x1D93 JUMP JUMPDEST PUSH2 0x186D JUMP JUMPDEST STOP JUMPDEST CALLVALUE DUP1 ISZERO PUSH2 0x4E4 JUMPI PUSH0 PUSH0 REVERT JUMPDEST POP PUSH2 0x4FF PUSH1 0x4 DUP1 CALLDATASIZE SUB DUP2 ADD SWAP1 PUSH2 0x4FA SWAP2 SWAP1 PUSH2 0x1D93 JUMP JUMPDEST PUSH2 0x18F1 JUMP JUMPDEST PUSH1 0x40 MLOAD PUSH2 0x50C SWAP2 SWAP1 PUSH2 0x1FE3 JUMP JUMPDEST PUSH1 0x40 MLOAD DUP1 SWAP2 SUB SWAP1 RETURN JUMPDEST CALLVALUE DUP1 ISZERO PUSH2 0x520 JUMPI PUSH0 PUSH0 REVERT JUMPDEST POP PUSH2 0x529 PUSH2 0x1992 JUMP JUMPDEST PUSH1 0x40 MLOAD PUSH2 0x536 SWAP2 SWAP1 PUSH2 0x2155 JUMP JUMPDEST PUSH1 0x40 MLOAD DUP1 SWAP2 SUB SWAP1 RETURN JUMPDEST PUSH1 0x5 PUSH1 0x20 MSTORE DUP1 PUSH0 MSTORE PUSH1 0x40 PUSH0 KECCAK256 PUSH0 SWAP2 POP SLOAD SWAP1 PUSH2 0x100 EXP SWAP1 DIV PUSH1 0xFF AND DUP2 JUMP JUMPDEST PUSH2 0x564 PUSH2 0x19B7 JUMP JUMPDEST PUSH0 PUSH1 0x4 PUSH0 DUP4 DUP2 MSTORE PUSH1 0x20 ADD SWAP1 DUP2 MSTORE PUSH1 0x20 ADD PUSH0 KECCAK256 SWAP1 POP DUP1 PUSH1 0x9 ADD PUSH0 SWAP1 SLOAD SWAP1 PUSH2 0x100 EXP SWAP1 DIV PUSH1 0xFF AND PUSH2 0x5C8 JUMPI PUSH1 0x40 MLOAD PUSH32 0x8C379A000000000000000000000000000000000000000000000000000000000 DUP2 MSTORE PUSH1 0x4 ADD PUSH2 0x5BF SWAP1 PUSH2 0x21C8 JUMP JUMPDEST PUSH1 0x40 MLOAD DUP1 SWAP2 SUB SWAP1 REVERT JUMPDEST CALLER PUSH20 0xFFFFFFFFFFFFFFFFFFFFFFFFFFFFFFFFFFFFFFFF AND DUP2 PUSH1 0x1 ADD PUSH0 SWAP1 SLOAD SWAP1 PUSH2 0x100 EXP SWAP1 DIV PUSH20 0xFFFFFFFFFFFFFFFFFFFFFFFFFFFFFFFFFFFFFFFF AND PUSH20 0xFFFFFFFFFFFFFFFFFFFFFFFFFFFFFFFFFFFFFFFF AND EQ PUSH2 0x659 JUMPI PUSH1 0x40 MLOAD PUSH32 0x8C379A000000000000000000000000000000000000000000000000000000000 DUP2 MSTORE PUSH1 0x4 ADD PUSH2 0x650 SWAP1 PUSH2 0x2230 JUMP JUMPDEST PUSH1 0x40 MLOAD DUP1 SWAP2 SUB SWAP1 REVERT JUMPDEST PUSH0 PUSH3 0x15180 DUP3 PUSH1 0x5 ADD SLOAD TIMESTAMP PUSH2 0x66E SWAP2 SWAP1 PUSH2 0x227B JUMP JUMPDEST PUSH2 0x678 SWAP2 SWAP1 PUSH2 0x22DB JUMP JUMPDEST SWAP1 POP PUSH0 DUP2 SUB PUSH2 0x686 JUMPI PUSH1 0x1 SWAP1 POP JUMPDEST PUSH0 PUSH1 0x1E SWAP1 POP DUP1 DUP3 GT ISZERO PUSH2 0x697 JUMPI DUP1 SWAP2 POP JUMPDEST PUSH0 DUP2 DUP5 PUSH1 0x2 ADD SLOAD DUP6 PUSH1 0x3 ADD SLOAD PUSH2 0x6AD SWAP2 SWAP1 PUSH2 0x227B JUMP JUMPDEST PUSH2 0x6B7 SWAP2 SWAP1 PUSH2 0x22DB JUMP JUMPDEST SWAP1 POP PUSH0 DUP4 DUP3 PUSH2 0x6C6 SWAP2 SWAP1 PUSH2 0x230B JUMP JUMPDEST DUP6 PUSH1 0x2 ADD SLOAD PUSH2 0x6D5 SWAP2 SWAP1 PUSH2 0x234C JUMP JUMPDEST SWAP1 POP PUSH0 DUP6 PUSH1 0x4 ADD SLOAD DUP3 PUSH2 0x6E8 SWAP2 SWAP1 PUSH2 0x227B JUMP JUMPDEST SWAP1 POP PUSH0 DUP2 GT PUSH2 0x72C JUMPI PUSH1 0x40 MLOAD PUSH32 0x8C379A000000000000000000000000000000000000000000000000000000000 DUP2 MSTORE PUSH1 0x4 ADD PUSH2 0x723 SWAP1 PUSH2 0x23C9 JUMP JUMPDEST PUSH1 0x40 MLOAD DUP1 SWAP2 SUB SWAP1 REVERT JUMPDEST DUP1 CALLVALUE EQ PUSH2 0x76E JUMPI PUSH1 0x40 MLOAD PUSH32 0x8C379A000000000000000000000000000000000000000000000000000000000 DUP2 MSTORE PUSH1 0x4 ADD PUSH2 0x765 SWAP1 PUSH2 0x2431 JUMP JUMPDEST PUSH1 0x40 MLOAD DUP1 SWAP2 SUB SWAP1 REVERT JUMPDEST DUP2 DUP7 PUSH1 0x4 ADD DUP2 SWAP1 SSTORE POP DUP6 PUSH1 0x6 ADD SLOAD DUP7 PUSH1 0x8 ADD DUP2 SWAP1 SSTORE POP PUSH2 0x78D DUP8 PUSH2 0x1A04 JUMP JUMPDEST DUP7 PUSH32 0xE03C0F5F6B9D1F552BE959C424317360ADE987D25A5D0AC6AFD7B2F43AB3EB53 DUP3 DUP8 PUSH1 0x40 MLOAD PUSH2 0x7BF SWAP3 SWAP2 SWAP1 PUSH2 0x244F JUMP JUMPDEST PUSH1 0x40 MLOAD DUP1 SWAP2 SUB SWAP1 LOG2 POP POP POP POP POP POP PUSH2 0x7D5 PUSH2 0x1B64 JUMP JUMPDEST POP JUMP JUMPDEST PUSH2 0x7E0 PUSH2 0x19B7 JUMP JUMPDEST DUP1 PUSH1 0x2 PUSH0 SWAP1 SLOAD SWAP1 PUSH2 0x100 EXP SWAP1 DIV PUSH20 0xFFFFFFFFFFFFFFFFFFFFFFFFFFFFFFFFFFFFFFFF AND PUSH20 0xFFFFFFFFFFFFFFFFFFFFFFFFFFFFFFFFFFFFFFFF AND PUSH4 0x70A08231 CALLER PUSH1 0x40 MLOAD DUP3 PUSH4 0xFFFFFFFF AND PUSH1 0xE0 SHL DUP2 MSTORE PUSH1 0x4 ADD PUSH2 0x83B SWAP2 SWAP1 PUSH2 0x200B JUMP JUMPDEST PUSH1 0x20 PUSH1 0x40 MLOAD DUP1 DUP4 SUB DUP2 DUP7 GAS STATICCALL ISZERO DUP1 ISZERO PUSH2 0x856 JUMPI RETURNDATASIZE PUSH0 PUSH0 RETURNDATACOPY RETURNDATASIZE PUSH0 REVERT JUMPDEST POP POP POP POP PUSH1 0x40 MLOAD RETURNDATASIZE PUSH1 0x1F NOT PUSH1 0x1F DUP3 ADD AND DUP3 ADD DUP1 PUSH1 0x40 MSTORE POP DUP2 ADD SWAP1 PUSH2 0x87A SWAP2 SWAP1 PUSH2 0x248A JUMP JUMPDEST LT ISZERO PUSH2 0x8BB JUMPI PUSH1 0x40 MLOAD PUSH32 0x8C379A000000000000000000000000000000000000000000000000000000000 DUP2 MSTORE PUSH1 0x4 ADD PUSH2 0x8B2 SWAP1 PUSH2 0x24FF JUMP JUMPDEST PUSH1 0x40 MLOAD DUP1 SWAP2 SUB SWAP1 REVERT JUMPDEST PUSH1 0x2 PUSH0 SWAP1 SLOAD SWAP1 PUSH2 0x100 EXP SWAP1 DIV PUSH20 0xFFFFFFFFFFFFFFFFFFFFFFFFFFFFFFFFFFFFFFFF AND PUSH20 0xFFFFFFFFFFFFFFFFFFFFFFFFFFFFFFFFFFFFFFFF AND PUSH4 0x9DC29FAC CALLER DUP4 PUSH1 0x40 MLOAD DUP4 PUSH4 0xFFFFFFFF AND PUSH1 0xE0 SHL DUP2 MSTORE PUSH1 0x4 ADD PUSH2 0x917 SWAP3 SWAP2 SWAP1 PUSH2 0x251D JUMP JUMPDEST PUSH0 PUSH1 0x40 MLOAD DUP1 DUP4 SUB DUP2 PUSH0 DUP8 DUP1 EXTCODESIZE ISZERO DUP1 ISZERO PUSH2 0x92E JUMPI PUSH0 PUSH0 REVERT JUMPDEST POP GAS CALL ISZERO DUP1 ISZERO PUSH2 0x940 JUMPI RETURNDATASIZE PUSH0 PUSH0 RETURNDATACOPY RETURNDATASIZE PUSH0 REVERT JUMPDEST POP POP POP POP PUSH0 CALLER PUSH20 0xFFFFFFFFFFFFFFFFFFFFFFFFFFFFFFFFFFFFFFFF AND DUP3 PUSH1 0x40 MLOAD PUSH2 0x969 SWAP1 PUSH2 0x2571 JUMP JUMPDEST PUSH0 PUSH1 0x40 MLOAD DUP1 DUP4 SUB DUP2 DUP6 DUP8 GAS CALL SWAP3 POP POP POP RETURNDATASIZE DUP1 PUSH0 DUP2 EQ PUSH2 0x9A3 JUMPI PUSH1 0x40 MLOAD SWAP2 POP PUSH1 0x1F NOT PUSH1 0x3F RETURNDATASIZE ADD AND DUP3 ADD PUSH1 0x40 MSTORE RETURNDATASIZE DUP3 MSTORE RETURNDATASIZE PUSH0 PUSH1 0x20 DUP5 ADD RETURNDATACOPY PUSH2 0x9A8 JUMP JUMPDEST PUSH1 0x60 SWAP2 POP JUMPDEST POP POP SWAP1 POP DUP1 PUSH2 0x9EC JUMPI PUSH1 0x40 MLOAD PUSH32 0x8C379A000000000000000000000000000000000000000000000000000000000 DUP2 MSTORE PUSH1 0x4 ADD PUSH2 0x9E3 SWAP1 PUSH2 0x25CF JUMP JUMPDEST PUSH1 0x40 MLOAD DUP1 SWAP2 SUB SWAP1 REVERT JUMPDEST POP PUSH2 0x9F5 PUSH2 0x1B64 JUMP JUMPDEST POP JUMP JUMPDEST PUSH1 0x3 PUSH0 SWAP1 SLOAD SWAP1 PUSH2 0x100 EXP SWAP1 DIV PUSH20 0xFFFFFFFFFFFFFFFFFFFFFFFFFFFFFFFFFFFFFFFF AND DUP2 JUMP JUMPDEST PUSH2 0xA25 PUSH2 0x1CBE JUMP JUMPDEST PUSH1 0x4 PUSH0 DUP4 DUP2 MSTORE PUSH1 0x20 ADD SWAP1 DUP2 MSTORE PUSH1 0x20 ADD PUSH0 KECCAK256 PUSH1 0x40 MLOAD DUP1 PUSH2 0x140 ADD PUSH1 0x40 MSTORE SWAP1 DUP2 PUSH0 DUP3 ADD PUSH0 SWAP1 SLOAD SWAP1 PUSH2 0x100 EXP SWAP1 DIV PUSH20 0xFFFFFFFFFFFFFFFFFFFFFFFFFFFFFFFFFFFFFFFF AND PUSH20 0xFFFFFFFFFFFFFFFFFFFFFFFFFFFFFFFFFFFFFFFF AND PUSH20 0xFFFFFFFFFFFFFFFFFFFFFFFFFFFFFFFFFFFFFFFF AND DUP2 MSTORE PUSH1 0x20 ADD PUSH1 0x1 DUP3 ADD PUSH0 SWAP1 SLOAD SWAP1 PUSH2 0x100 EXP SWAP1 DIV PUSH20 0xFFFFFFFFFFFFFFFFFFFFFFFFFFFFFFFFFFFFFFFF AND PUSH20 0xFFFFFFFFFFFFFFFFFFFFFFFFFFFFFFFFFFFFFFFF AND PUSH20 0xFFFFFFFFFFFFFFFFFFFFFFFFFFFFFFFFFFFFFFFF AND DUP2 MSTORE PUSH1 0x20 ADD PUSH1 0x2 DUP3 ADD SLOAD DUP2 MSTORE PUSH1 0x20 ADD PUSH1 0x3 DUP3 ADD SLOAD DUP2 MSTORE PUSH1 0x20 ADD PUSH1 0x4 DUP3 ADD SLOAD DUP2 MSTORE PUSH1 0x20 ADD PUSH1 0x5 DUP3 ADD SLOAD DUP2 MSTORE PUSH1 0x20 ADD PUSH1 0x6 DUP3 ADD SLOAD DUP2 MSTORE PUSH1 0x20 ADD PUSH1 0x7 DUP3 ADD SLOAD DUP2 MSTORE PUSH1 0x20 ADD PUSH1 0x8 DUP3 ADD SLOAD DUP2 MSTORE PUSH1 0x20 ADD PUSH1 0x9 DUP3 ADD PUSH0 SWAP1 SLOAD SWAP1 PUSH2 0x100 EXP SWAP1 DIV PUSH1 0xFF AND ISZERO ISZERO ISZERO ISZERO DUP2 MSTORE POP POP SWAP1 POP SWAP2 SWAP1 POP JUMP JUMPDEST PUSH2 0xB5A PUSH2 0x1B6D JUMP JUMPDEST PUSH0 PUSH2 0xB63 PUSH2 0xD06 JUMP JUMPDEST PUSH20 0xFFFFFFFFFFFFFFFFFFFFFFFFFFFFFFFFFFFFFFFF AND DUP3 PUSH1 0x40 MLOAD PUSH2 0xB86 SWAP1 PUSH2 0x2571 JUMP JUMPDEST PUSH0 PUSH1 0x40 MLOAD DUP1 DUP4 SUB DUP2 DUP6 DUP8 GAS CALL SWAP3 POP POP POP RETURNDATASIZE DUP1 PUSH0 DUP2 EQ PUSH2 0xBC0 JUMPI PUSH1 0x40 MLOAD SWAP2 POP PUSH1 0x1F NOT PUSH1 0x3F RETURNDATASIZE ADD AND DUP3 ADD PUSH1 0x40 MSTORE RETURNDATASIZE DUP3 MSTORE RETURNDATASIZE PUSH0 PUSH1 0x20 DUP5 ADD RETURNDATACOPY PUSH2 0xBC5 JUMP JUMPDEST PUSH1 0x60 SWAP2 POP JUMPDEST POP POP SWAP1 POP DUP1 PUSH2 0xC09 JUMPI PUSH1 0x40 MLOAD PUSH32 0x8C379A000000000000000000000000000000000000000000000000000000000 DUP2 MSTORE PUSH1 0x4 ADD PUSH2 0xC00 SWAP1 PUSH2 0x25CF JUMP JUMPDEST PUSH1 0x40 MLOAD DUP1 SWAP2 SUB SWAP1 REVERT JUMPDEST POP POP JUMP JUMPDEST PUSH0 PUSH1 0x5 PUSH0 DUP4 PUSH20 0xFFFFFFFFFFFFFFFFFFFFFFFFFFFFFFFFFFFFFFFF AND PUSH20 0xFFFFFFFFFFFFFFFFFFFFFFFFFFFFFFFFFFFFFFFF AND DUP2 MSTORE PUSH1 0x20 ADD SWAP1 DUP2 MSTORE PUSH1 0x20 ADD PUSH0 KECCAK256 PUSH0 SWAP1 SLOAD SWAP1 PUSH2 0x100 EXP SWAP1 DIV PUSH1 0xFF AND SWAP1 POP SWAP2 SWAP1 POP JUMP JUMPDEST PUSH2 0xC67 PUSH2 0x1B6D JUMP JUMPDEST PUSH2 0xC70 PUSH0 PUSH2 0x1BF4 JUMP JUMPDEST JUMP JUMPDEST PUSH1 0x1 PUSH1 0x5 PUSH0 CALLER PUSH20 0xFFFFFFFFFFFFFFFFFFFFFFFFFFFFFFFFFFFFFFFF AND PUSH20 0xFFFFFFFFFFFFFFFFFFFFFFFFFFFFFFFFFFFFFFFF AND DUP2 MSTORE PUSH1 0x20 ADD SWAP1 DUP2 MSTORE PUSH1 0x20 ADD PUSH0 KECCAK256 PUSH0 PUSH2 0x100 EXP DUP2 SLOAD DUP2 PUSH1 0xFF MUL NOT AND SWAP1 DUP4 ISZERO ISZERO MUL OR SWAP1 SSTORE POP PUSH32 0x35999CADC5F1A750104410F15263CC04190A1095143F37917467434D7F32C3C4 CALLER PUSH1 0x40 MLOAD PUSH2 0xCF6 SWAP2 SWAP1 PUSH2 0x200B JUMP JUMPDEST PUSH1 0x40 MLOAD DUP1 SWAP2 SUB SWAP1 LOG1 JUMP JUMPDEST PUSH1 0x7 SLOAD DUP2 JUMP JUMPDEST PUSH0 PUSH1 0x1 PUSH0 SWAP1 SLOAD SWAP1 PUSH2 0x100 EXP SWAP1 DIV PUSH20 0xFFFFFFFFFFFFFFFFFFFFFFFFFFFFFFFFFFFFFFFF AND SWAP1 POP SWAP1 JUMP JUMPDEST PUSH2 0xD36 PUSH2 0x1B6D JUMP JUMPDEST PUSH2 0x3E8 DUP2 GT ISZERO PUSH2 0xD7B JUMPI PUSH1 0x40 MLOAD PUSH32 0x8C379A000000000000000000000000000000000000000000000000000000000 DUP2 MSTORE PUSH1 0x4 ADD PUSH2 0xD72 SWAP1 PUSH2 0x2637 JUMP JUMPDEST PUSH1 0x40 MLOAD DUP1 SWAP2 SUB SWAP1 REVERT JUMPDEST DUP1 PUSH1 0x8 DUP2 SWAP1 SSTORE POP POP JUMP JUMPDEST PUSH2 0xD8D PUSH2 0x19B7 JUMP JUMPDEST PUSH1 0x5 PUSH0 CALLER PUSH20 0xFFFFFFFFFFFFFFFFFFFFFFFFFFFFFFFFFFFFFFFF AND PUSH20 0xFFFFFFFFFFFFFFFFFFFFFFFFFFFFFFFFFFFFFFFF AND DUP2 MSTORE PUSH1 0x20 ADD SWAP1 DUP2 MSTORE PUSH1 0x20 ADD PUSH0 KECCAK256 PUSH0 SWAP1 SLOAD SWAP1 PUSH2 0x100 EXP SWAP1 DIV PUSH1 0xFF AND PUSH2 0xE16 JUMPI PUSH1 0x40 MLOAD PUSH32 0x8C379A000000000000000000000000000000000000000000000000000000000 DUP2 MSTORE PUSH1 0x4 ADD PUSH2 0xE0D SWAP1 PUSH2 0x269F JUMP JUMPDEST PUSH1 0x40 MLOAD DUP1 SWAP2 SUB SWAP1 REVERT JUMPDEST DUP1 CALLVALUE EQ PUSH2 0xE58 JUMPI PUSH1 0x40 MLOAD PUSH32 0x8C379A000000000000000000000000000000000000000000000000000000000 DUP2 MSTORE PUSH1 0x4 ADD PUSH2 0xE4F SWAP1 PUSH2 0x2707 JUMP JUMPDEST PUSH1 0x40 MLOAD DUP1 SWAP2 SUB SWAP1 REVERT JUMPDEST PUSH1 0x2 PUSH0 SWAP1 SLOAD SWAP1 PUSH2 0x100 EXP SWAP1 DIV PUSH20 0xFFFFFFFFFFFFFFFFFFFFFFFFFFFFFFFFFFFFFFFF AND PUSH20 0xFFFFFFFFFFFFFFFFFFFFFFFFFFFFFFFFFFFFFFFF AND PUSH4 0x40C10F19 CALLER DUP4 PUSH1 0x40 MLOAD DUP4 PUSH4 0xFFFFFFFF AND PUSH1 0xE0 SHL DUP2 MSTORE PUSH1 0x4 ADD PUSH2 0xEB4 SWAP3 SWAP2 SWAP1 PUSH2 0x251D JUMP JUMPDEST PUSH0 PUSH1 0x40 MLOAD DUP1 DUP4 SUB DUP2 PUSH0 DUP8 DUP1 EXTCODESIZE ISZERO DUP1 ISZERO PUSH2 0xECB JUMPI PUSH0 PUSH0 REVERT JUMPDEST POP GAS CALL ISZERO DUP1 ISZERO PUSH2 0xEDD JUMPI RETURNDATASIZE PUSH0 PUSH0 RETURNDATACOPY RETURNDATASIZE PUSH0 REVERT JUMPDEST POP POP POP POP PUSH2 0xEE9 PUSH2 0x1B64 JUMP JUMPDEST POP JUMP JUMPDEST PUSH1 0x6 PUSH1 0x20 MSTORE DUP1 PUSH0 MSTORE PUSH1 0x40 PUSH0 KECCAK256 PUSH0 SWAP2 POP SLOAD SWAP1 PUSH2 0x100 EXP SWAP1 DIV PUSH1 0xFF AND DUP2 JUMP JUMPDEST PUSH1 0x8 SLOAD DUP2 JUMP JUMPDEST PUSH1 0x4 PUSH1 0x20 MSTORE DUP1 PUSH0 MSTORE PUSH1 0x40 PUSH0 KECCAK256 PUSH0 SWAP2 POP SWAP1 POP DUP1 PUSH0 ADD PUSH0 SWAP1 SLOAD SWAP1 PUSH2 0x100 EXP SWAP1 DIV PUSH20 0xFFFFFFFFFFFFFFFFFFFFFFFFFFFFFFFFFFFFFFFF AND SWAP1 DUP1 PUSH1 0x1 ADD PUSH0 SWAP1 SLOAD SWAP1 PUSH2 0x100 EXP SWAP1 DIV PUSH20 0xFFFFFFFFFFFFFFFFFFFFFFFFFFFFFFFFFFFFFFFF AND SWAP1 DUP1 PUSH1 0x2 ADD SLOAD SWAP1 DUP1 PUSH1 0x3 ADD SLOAD SWAP1 DUP1 PUSH1 0x4 ADD SLOAD SWAP1 DUP1 PUSH1 0x5 ADD SLOAD SWAP1 DUP1 PUSH1 0x6 ADD SLOAD SWAP1 DUP1 PUSH1 0x7 ADD SLOAD SWAP1 DUP1 PUSH1 0x8 ADD SLOAD SWAP1 DUP1 PUSH1 0x9 ADD PUSH0 SWAP1 SLOAD SWAP1 PUSH2 0x100 EXP SWAP1 DIV PUSH1 0xFF AND SWAP1 POP DUP11 JUMP JUMPDEST PUSH2 0xFB1 PUSH2 0x19B7 JUMP JUMPDEST PUSH0 PUSH1 0x4 PUSH0 DUP4 DUP2 MSTORE PUSH1 0x20 ADD SWAP1 DUP2 MSTORE PUSH1 0x20 ADD PUSH0 KECCAK256 SWAP1 POP DUP1 PUSH1 0x9 ADD PUSH0 SWAP1 SLOAD SWAP1 PUSH2 0x100 EXP SWAP1 DIV PUSH1 0xFF AND PUSH2 0x1015 JUMPI PUSH1 0x40 MLOAD PUSH32 0x8C379A000000000000000000000000000000000000000000000000000000000 DUP2 MSTORE PUSH1 0x4 ADD PUSH2 0x100C SWAP1 PUSH2 0x21C8 JUMP JUMPDEST PUSH1 0x40 MLOAD DUP1 SWAP2 SUB SWAP1 REVERT JUMPDEST CALLER PUSH20 0xFFFFFFFFFFFFFFFFFFFFFFFFFFFFFFFFFFFFFFFF AND DUP2 PUSH1 0x1 ADD PUSH0 SWAP1 SLOAD SWAP1 PUSH2 0x100 EXP SWAP1 DIV PUSH20 0xFFFFFFFFFFFFFFFFFFFFFFFFFFFFFFFFFFFFFFFF AND PUSH20 0xFFFFFFFFFFFFFFFFFFFFFFFFFFFFFFFFFFFFFFFF AND EQ PUSH2 0x10A6 JUMPI PUSH1 0x40 MLOAD PUSH32 0x8C379A000000000000000000000000000000000000000000000000000000000 DUP2 MSTORE PUSH1 0x4 ADD PUSH2 0x109D SWAP1 PUSH2 0x2230 JUMP JUMPDEST PUSH1 0x40 MLOAD DUP1 SWAP2 SUB SWAP1 REVERT JUMPDEST DUP1 PUSH1 0x6 ADD SLOAD DUP2 PUSH1 0x8 ADD SLOAD LT PUSH2 0x10F0 JUMPI PUSH1 0x40 MLOAD PUSH32 0x8C379A000000000000000000000000000000000000000000000000000000000 DUP2 MSTORE PUSH1 0x4 ADD PUSH2 0x10E7 SWAP1 PUSH2 0x276F JUMP JUMPDEST PUSH1 0x40 MLOAD DUP1 SWAP2 SUB SWAP1 REVERT JUMPDEST DUP1 PUSH1 0x7 ADD SLOAD CALLVALUE EQ PUSH2 0x1136 JUMPI PUSH1 0x40 MLOAD PUSH32 0x8C379A000000000000000000000000000000000000000000000000000000000 DUP2 MSTORE PUSH1 0x4 ADD PUSH2 0x112D SWAP1 PUSH2 0x2431 JUMP JUMPDEST PUSH1 0x40 MLOAD DUP1 SWAP2 SUB SWAP1 REVERT JUMPDEST DUP1 PUSH1 0x7 ADD SLOAD DUP2 PUSH1 0x4 ADD PUSH0 DUP3 DUP3 SLOAD PUSH2 0x114D SWAP2 SWAP1 PUSH2 0x234C JUMP JUMPDEST SWAP3 POP POP DUP2 SWAP1 SSTORE POP DUP1 PUSH1 0x8 ADD PUSH0 DUP2 SLOAD DUP1 SWAP3 SWAP2 SWAP1 PUSH2 0x1168 SWAP1 PUSH2 0x278D JUMP JUMPDEST SWAP2 SWAP1 POP SSTORE POP PUSH32 0xE9E4EC6FA83FE2A2893FD5D6517A890DF20F72CC0BA40495B21E65D12223503 DUP3 DUP3 PUSH1 0x7 ADD SLOAD PUSH1 0x40 MLOAD PUSH2 0x11A2 SWAP3 SWAP2 SWAP1 PUSH2 0x244F JUMP JUMPDEST PUSH1 0x40 MLOAD DUP1 SWAP2 SUB SWAP1 LOG1 DUP1 PUSH1 0x6 ADD SLOAD DUP2 PUSH1 0x8 ADD SLOAD LT PUSH2 0x11C3 JUMPI PUSH2 0x11C2 DUP3 PUSH2 0x1A04 JUMP JUMPDEST JUMPDEST POP PUSH2 0x11CC PUSH2 0x1B64 JUMP JUMPDEST POP JUMP JUMPDEST PUSH0 PUSH2 0x11D8 PUSH2 0x1B6D JUMP JUMPDEST PUSH2 0x11E0 PUSH2 0x19B7 JUMP JUMPDEST PUSH1 0x5 PUSH0 DUP8 PUSH20 0xFFFFFFFFFFFFFFFFFFFFFFFFFFFFFFFFFFFFFFFF AND PUSH20 0xFFFFFFFFFFFFFFFFFFFFFFFFFFFFFFFFFFFFFFFF AND DUP2 MSTORE PUSH1 0x20 ADD SWAP1 DUP2 MSTORE PUSH1 0x20 ADD PUSH0 KECCAK256 PUSH0 SWAP1 SLOAD SWAP1 PUSH2 0x100 EXP SWAP1 DIV PUSH1 0xFF AND PUSH2 0x1269 JUMPI PUSH1 0x40 MLOAD PUSH32 0x8C379A000000000000000000000000000000000000000000000000000000000 DUP2 MSTORE PUSH1 0x4 ADD PUSH2 0x1260 SWAP1 PUSH2 0x281E JUMP JUMPDEST PUSH1 0x40 MLOAD DUP1 SWAP2 SUB SWAP1 REVERT JUMPDEST PUSH1 0x6 PUSH0 DUP7 PUSH20 0xFFFFFFFFFFFFFFFFFFFFFFFFFFFFFFFFFFFFFFFF AND PUSH20 0xFFFFFFFFFFFFFFFFFFFFFFFFFFFFFFFFFFFFFFFF AND DUP2 MSTORE PUSH1 0x20 ADD SWAP1 DUP2 MSTORE PUSH1 0x20 ADD PUSH0 KECCAK256 PUSH0 SWAP1 SLOAD SWAP1 PUSH2 0x100 EXP SWAP1 DIV PUSH1 0xFF AND PUSH2 0x12F2 JUMPI PUSH1 0x40 MLOAD PUSH32 0x8C379A000000000000000000000000000000000000000000000000000000000 DUP2 MSTORE PUSH1 0x4 ADD PUSH2 0x12E9 SWAP1 PUSH2 0x2886 JUMP JUMPDEST PUSH1 0x40 MLOAD DUP1 SWAP2 SUB SWAP1 REVERT JUMPDEST DUP4 PUSH1 0x2 PUSH0 SWAP1 SLOAD SWAP1 PUSH2 0x100 EXP SWAP1 DIV PUSH20 0xFFFFFFFFFFFFFFFFFFFFFFFFFFFFFFFFFFFFFFFF AND PUSH20 0xFFFFFFFFFFFFFFFFFFFFFFFFFFFFFFFFFFFFFFFF AND PUSH4 0x70A08231 DUP9 PUSH1 0x40 MLOAD DUP3 PUSH4 0xFFFFFFFF AND PUSH1 0xE0 SHL DUP2 MSTORE PUSH1 0x4 ADD PUSH2 0x134D SWAP2 SWAP1 PUSH2 0x200B JUMP JUMPDEST PUSH1 0x20 PUSH1 0x40 MLOAD DUP1 DUP4 SUB DUP2 DUP7 GAS STATICCALL ISZERO DUP1 ISZERO PUSH2 0x1368 JUMPI RETURNDATASIZE PUSH0 PUSH0 RETURNDATACOPY RETURNDATASIZE PUSH0 REVERT JUMPDEST POP POP POP POP PUSH1 0x40 MLOAD RETURNDATASIZE PUSH1 0x1F NOT PUSH1 0x1F DUP3 ADD AND DUP3 ADD DUP1 PUSH1 0x40 MSTORE POP DUP2 ADD SWAP1 PUSH2 0x138C SWAP2 SWAP1 PUSH2 0x248A JUMP JUMPDEST LT ISZERO PUSH2 0x13CD JUMPI PUSH1 0x40 MLOAD PUSH32 0x8C379A000000000000000000000000000000000000000000000000000000000 DUP2 MSTORE PUSH1 0x4 ADD PUSH2 0x13C4 SWAP1 PUSH2 0x24FF JUMP JUMPDEST PUSH1 0x40 MLOAD DUP1 SWAP2 SUB SWAP1 REVERT JUMPDEST PUSH0 PUSH1 0x7 PUSH0 DUP2 SLOAD DUP1 SWAP3 SWAP2 SWAP1 PUSH2 0x13E0 SWAP1 PUSH2 0x278D JUMP JUMPDEST SWAP2 SWAP1 POP SSTORE SWAP1 POP PUSH0 DUP5 DUP7 PUSH2 0x13F3 SWAP2 SWAP1 PUSH2 0x234C JUMP JUMPDEST SWAP1 POP PUSH0 DUP5 DUP3 PUSH2 0x1402 SWAP2 SWAP1 PUSH2 0x22DB JUMP JUMPDEST SWAP1 POP PUSH1 0x40 MLOAD DUP1 PUSH2 0x140 ADD PUSH1 0x40 MSTORE DUP1 DUP11 PUSH20 0xFFFFFFFFFFFFFFFFFFFFFFFFFFFFFFFFFFFFFFFF AND DUP2 MSTORE PUSH1 0x20 ADD DUP10 PUSH20 0xFFFFFFFFFFFFFFFFFFFFFFFFFFFFFFFFFFFFFFFF AND DUP2 MSTORE PUSH1 0x20 ADD DUP9 DUP2 MSTORE PUSH1 0x20 ADD DUP4 DUP2 MSTORE PUSH1 0x20 ADD PUSH0 DUP2 MSTORE PUSH1 0x20 ADD TIMESTAMP DUP2 MSTORE PUSH1 0x20 ADD DUP7 DUP2 MSTORE PUSH1 0x20 ADD DUP3 DUP2 MSTORE PUSH1 0x20 ADD PUSH0 DUP2 MSTORE PUSH1 0x20 ADD PUSH1 0x1 ISZERO ISZERO DUP2 MSTORE POP PUSH1 0x4 PUSH0 DUP6 DUP2 MSTORE PUSH1 0x20 ADD SWAP1 DUP2 MSTORE PUSH1 0x20 ADD PUSH0 KECCAK256 PUSH0 DUP3 ADD MLOAD DUP2 PUSH0 ADD PUSH0 PUSH2 0x100 EXP DUP2 SLOAD DUP2 PUSH20 0xFFFFFFFFFFFFFFFFFFFFFFFFFFFFFFFFFFFFFFFF MUL NOT AND SWAP1 DUP4 PUSH20 0xFFFFFFFFFFFFFFFFFFFFFFFFFFFFFFFFFFFFFFFF AND MUL OR SWAP1 SSTORE POP PUSH1 0x20 DUP3 ADD MLOAD DUP2 PUSH1 0x1 ADD PUSH0 PUSH2 0x100 EXP DUP2 SLOAD DUP2 PUSH20 0xFFFFFFFFFFFFFFFFFFFFFFFFFFFFFFFFFFFFFFFF MUL NOT AND SWAP1 DUP4 PUSH20 0xFFFFFFFFFFFFFFFFFFFFFFFFFFFFFFFFFFFFFFFF AND MUL OR SWAP1 SSTORE POP PUSH1 0x40 DUP3 ADD MLOAD DUP2 PUSH1 0x2 ADD SSTORE PUSH1 0x60 DUP3 ADD MLOAD DUP2 PUSH1 0x3 ADD SSTORE PUSH1 0x80 DUP3 ADD MLOAD DUP2 PUSH1 0x4 ADD SSTORE PUSH1 0xA0 DUP3 ADD MLOAD DUP2 PUSH1 0x5 ADD SSTORE PUSH1 0xC0 DUP3 ADD MLOAD DUP2 PUSH1 0x6 ADD SSTORE PUSH1 0xE0 DUP3 ADD MLOAD DUP2 PUSH1 0x7 ADD SSTORE PUSH2 0x100 DUP3 ADD MLOAD DUP2 PUSH1 0x8 ADD SSTORE PUSH2 0x120 DUP3 ADD MLOAD DUP2 PUSH1 0x9 ADD PUSH0 PUSH2 0x100 EXP DUP2 SLOAD DUP2 PUSH1 0xFF MUL NOT AND SWAP1 DUP4 ISZERO ISZERO MUL OR SWAP1 SSTORE POP SWAP1 POP POP PUSH1 0x2 PUSH0 SWAP1 SLOAD SWAP1 PUSH2 0x100 EXP SWAP1 DIV PUSH20 0xFFFFFFFFFFFFFFFFFFFFFFFFFFFFFFFFFFFFFFFF AND PUSH20 0xFFFFFFFFFFFFFFFFFFFFFFFFFFFFFFFFFFFFFFFF AND PUSH4 0x9DC29FAC DUP11 DUP10 PUSH1 0x40 MLOAD DUP4 PUSH4 0xFFFFFFFF AND PUSH1 0xE0 SHL DUP2 MSTORE PUSH1 0x4 ADD PUSH2 0x15DA SWAP3 SWAP2 SWAP1 PUSH2 0x251D JUMP JUMPDEST PUSH0 PUSH1 0x40 MLOAD DUP1 DUP4 SUB DUP2 PUSH0 DUP8 DUP1 EXTCODESIZE ISZERO DUP1 ISZERO PUSH2 0x15F1 JUMPI PUSH0 PUSH0 REVERT JUMPDEST POP GAS CALL ISZERO DUP1 ISZERO PUSH2 0x1603 JUMPI RETURNDATASIZE PUSH0 PUSH0 RETURNDATACOPY RETURNDATASIZE PUSH0 REVERT JUMPDEST POP POP POP POP PUSH0 DUP9 PUSH20 0xFFFFFFFFFFFFFFFFFFFFFFFFFFFFFFFFFFFFFFFF AND DUP9 PUSH1 0x40 MLOAD PUSH2 0x162C SWAP1 PUSH2 0x2571 JUMP JUMPDEST PUSH0 PUSH1 0x40 MLOAD DUP1 DUP4 SUB DUP2 DUP6 DUP8 GAS CALL SWAP3 POP POP POP RETURNDATASIZE DUP1 PUSH0 DUP2 EQ PUSH2 0x1666 JUMPI PUSH1 0x40 MLOAD SWAP2 POP PUSH1 0x1F NOT PUSH1 0x3F RETURNDATASIZE ADD AND DUP3 ADD PUSH1 0x40 MSTORE RETURNDATASIZE DUP3 MSTORE RETURNDATASIZE PUSH0 PUSH1 0x20 DUP5 ADD RETURNDATACOPY PUSH2 0x166B JUMP JUMPDEST PUSH1 0x60 SWAP2 POP JUMPDEST POP POP SWAP1 POP DUP1 PUSH2 0x16AF JUMPI PUSH1 0x40 MLOAD PUSH32 0x8C379A000000000000000000000000000000000000000000000000000000000 DUP2 MSTORE PUSH1 0x4 ADD PUSH2 0x16A6 SWAP1 PUSH2 0x25CF JUMP JUMPDEST PUSH1 0x40 MLOAD DUP1 SWAP2 SUB SWAP1 REVERT JUMPDEST PUSH1 0x3 PUSH0 SWAP1 SLOAD SWAP1 PUSH2 0x100 EXP SWAP1 DIV PUSH20 0xFFFFFFFFFFFFFFFFFFFFFFFFFFFFFFFFFFFFFFFF AND PUSH20 0xFFFFFFFFFFFFFFFFFFFFFFFFFFFFFFFFFFFFFFFF AND PUSH4 0xD3FC9864 DUP12 DUP7 PUSH1 0x40 MLOAD DUP4 PUSH4 0xFFFFFFFF AND PUSH1 0xE0 SHL DUP2 MSTORE PUSH1 0x4 ADD PUSH2 0x170B SWAP3 SWAP2 SWAP1 PUSH2 0x28C4 JUMP JUMPDEST PUSH0 PUSH1 0x40 MLOAD DUP1 DUP4 SUB DUP2 PUSH0 DUP8 DUP1 EXTCODESIZE ISZERO DUP1 ISZERO PUSH2 0x1722 JUMPI PUSH0 PUSH0 REVERT JUMPDEST POP GAS CALL ISZERO DUP1 ISZERO PUSH2 0x1734 JUMPI RETURNDATASIZE PUSH0 PUSH0 RETURNDATACOPY RETURNDATASIZE PUSH0 REVERT JUMPDEST POP POP POP POP PUSH32 0x74B3E97B2A36ECFC8A1C59A0F98862174D98F86769A3420CF68024A054F87B6D DUP5 DUP12 DUP12 DUP12 PUSH1 0x40 MLOAD PUSH2 0x176D SWAP5 SWAP4 SWAP3 SWAP2 SWAP1 PUSH2 0x28FE JUMP JUMPDEST PUSH1 0x40 MLOAD DUP1 SWAP2 SUB SWAP1 LOG1 DUP4 SWAP5 POP POP POP POP POP PUSH2 0x1784 PUSH2 0x1B64 JUMP JUMPDEST SWAP6 SWAP5 POP POP POP POP POP JUMP JUMPDEST PUSH1 0x1 PUSH1 0x6 PUSH0 CALLER PUSH20 0xFFFFFFFFFFFFFFFFFFFFFFFFFFFFFFFFFFFFFFFF AND PUSH20 0xFFFFFFFFFFFFFFFFFFFFFFFFFFFFFFFFFFFFFFFF AND DUP2 MSTORE PUSH1 0x20 ADD SWAP1 DUP2 MSTORE PUSH1 0x20 ADD PUSH0 KECCAK256 PUSH0 PUSH2 0x100 EXP DUP2 SLOAD DUP2 PUSH1 0xFF MUL NOT AND SWAP1 DUP4 ISZERO ISZERO MUL OR SWAP1 SSTORE POP PUSH32 0x57C3B463895A0DA2FE39978165AB8B71864D9225A91DD3BDA7184006E52CDD0C CALLER PUSH1 0x40 MLOAD PUSH2 0x1811 SWAP2 SWAP1 PUSH2 0x200B JUMP JUMPDEST PUSH1 0x40 MLOAD DUP1 SWAP2 SUB SWAP1 LOG1 JUMP JUMPDEST PUSH0 PUSH1 0x6 PUSH0 DUP4 PUSH20 0xFFFFFFFFFFFFFFFFFFFFFFFFFFFFFFFFFFFFFFFF AND PUSH20 0xFFFFFFFFFFFFFFFFFFFFFFFFFFFFFFFFFFFFFFFF AND DUP2 MSTORE PUSH1 0x20 ADD SWAP1 DUP2 MSTORE PUSH1 0x20 ADD PUSH0 KECCAK256 PUSH0 SWAP1 SLOAD SWAP1 PUSH2 0x100 EXP SWAP1 DIV PUSH1 0xFF AND SWAP1 POP SWAP2 SWAP1 POP JUMP JUMPDEST PUSH2 0x1875 PUSH2 0x1B6D JUMP JUMPDEST PUSH0 PUSH20 0xFFFFFFFFFFFFFFFFFFFFFFFFFFFFFFFFFFFFFFFF AND DUP2 PUSH20 0xFFFFFFFFFFFFFFFFFFFFFFFFFFFFFFFFFFFFFFFF AND SUB PUSH2 0x18E5 JUMPI PUSH0 PUSH1 0x40 MLOAD PUSH32 0x1E4FBDF700000000000000000000000000000000000000000000000000000000 DUP2 MSTORE PUSH1 0x4 ADD PUSH2 0x18DC SWAP2 SWAP1 PUSH2 0x200B JUMP JUMPDEST PUSH1 0x40 MLOAD DUP1 SWAP2 SUB SWAP1 REVERT JUMPDEST PUSH2 0x18EE DUP2 PUSH2 0x1BF4 JUMP JUMPDEST POP JUMP JUMPDEST PUSH0 PUSH1 0x2 PUSH0 SWAP1 SLOAD SWAP1 PUSH2 0x100 EXP SWAP1 DIV PUSH20 0xFFFFFFFFFFFFFFFFFFFFFFFFFFFFFFFFFFFFFFFF AND PUSH20 0xFFFFFFFFFFFFFFFFFFFFFFFFFFFFFFFFFFFFFFFF AND PUSH4 0x70A08231 DUP4 PUSH1 0x40 MLOAD DUP3 PUSH4 0xFFFFFFFF AND PUSH1 0xE0 SHL DUP2 MSTORE PUSH1 0x4 ADD PUSH2 0x194C SWAP2 SWAP1 PUSH2 0x200B JUMP JUMPDEST PUSH1 0x20 PUSH1 0x40 MLOAD DUP1 DUP4 SUB DUP2 DUP7 GAS STATICCALL ISZERO DUP1 ISZERO PUSH2 0x1967 JUMPI RETURNDATASIZE PUSH0 PUSH0 RETURNDATACOPY RETURNDATASIZE PUSH0 REVERT JUMPDEST POP POP POP POP PUSH1 0x40 MLOAD RETURNDATASIZE PUSH1 0x1F NOT PUSH1 0x1F DUP3 ADD AND DUP3 ADD DUP1 PUSH1 0x40 MSTORE POP DUP2 ADD SWAP1 PUSH2 0x198B SWAP2 SWAP1 PUSH2 0x248A JUMP JUMPDEST SWAP1 POP SWAP2 SWAP1 POP JUMP JUMPDEST PUSH1 0x2 PUSH0 SWAP1 SLOAD SWAP1 PUSH2 0x100 EXP SWAP1 DIV PUSH20 0xFFFFFFFFFFFFFFFFFFFFFFFFFFFFFFFFFFFFFFFF AND DUP2 JUMP JUMPDEST PUSH1 0x2 PUSH0 SLOAD SUB PUSH2 0x19FB JUMPI PUSH1 0x40 MLOAD PUSH32 0x8C379A000000000000000000000000000000000000000000000000000000000 DUP2 MSTORE PUSH1 0x4 ADD PUSH2 0x19F2 SWAP1 PUSH2 0x298B JUMP JUMPDEST PUSH1 0x40 MLOAD DUP1 SWAP2 SUB SWAP1 REVERT JUMPDEST PUSH1 0x2 PUSH0 DUP2 SWAP1 SSTORE POP JUMP JUMPDEST PUSH0 PUSH1 0x4 PUSH0 DUP4 DUP2 MSTORE PUSH1 0x20 ADD SWAP1 DUP2 MSTORE PUSH1 0x20 ADD PUSH0 KECCAK256 SWAP1 POP PUSH0 DUP2 PUSH1 0x9 ADD PUSH0 PUSH2 0x100 EXP DUP2 SLOAD DUP2 PUSH1 0xFF MUL NOT AND SWAP1 DUP4 ISZERO ISZERO MUL OR SWAP1 SSTORE POP PUSH0 DUP2 PUSH1 0x2 ADD SLOAD DUP3 PUSH1 0x4 ADD SLOAD PUSH2 0x1A48 SWAP2 SWAP1 PUSH2 0x227B JUMP JUMPDEST SWAP1 POP PUSH0 PUSH2 0x2710 PUSH1 0x8 SLOAD DUP4 PUSH2 0x1A5C SWAP2 SWAP1 PUSH2 0x230B JUMP JUMPDEST PUSH2 0x1A66 SWAP2 SWAP1 PUSH2 0x22DB JUMP JUMPDEST SWAP1 POP PUSH0 DUP2 DUP5 PUSH1 0x4 ADD SLOAD PUSH2 0x1A79 SWAP2 SWAP1 PUSH2 0x227B JUMP JUMPDEST SWAP1 POP PUSH1 0x2 PUSH0 SWAP1 SLOAD SWAP1 PUSH2 0x100 EXP SWAP1 DIV PUSH20 0xFFFFFFFFFFFFFFFFFFFFFFFFFFFFFFFFFFFFFFFF AND PUSH20 0xFFFFFFFFFFFFFFFFFFFFFFFFFFFFFFFFFFFFFFFF AND PUSH4 0x40C10F19 DUP6 PUSH0 ADD PUSH0 SWAP1 SLOAD SWAP1 PUSH2 0x100 EXP SWAP1 DIV PUSH20 0xFFFFFFFFFFFFFFFFFFFFFFFFFFFFFFFFFFFFFFFF AND DUP4 PUSH1 0x40 MLOAD DUP4 PUSH4 0xFFFFFFFF AND PUSH1 0xE0 SHL DUP2 MSTORE PUSH1 0x4 ADD PUSH2 0x1AF9 SWAP3 SWAP2 SWAP1 PUSH2 0x251D JUMP JUMPDEST PUSH0 PUSH1 0x40 MLOAD DUP1 DUP4 SUB DUP2 PUSH0 DUP8 DUP1 EXTCODESIZE ISZERO DUP1 ISZERO PUSH2 0x1B10 JUMPI PUSH0 PUSH0 REVERT JUMPDEST POP GAS CALL ISZERO DUP1 ISZERO PUSH2 0x1B22 JUMPI RETURNDATASIZE PUSH0 PUSH0 RETURNDATACOPY RETURNDATASIZE PUSH0 REVERT JUMPDEST POP POP POP POP PUSH32 0x2CA5489B37DD363D1302BAC719E8EE40E540FFBE8C12253570FEA63E11CAD71 DUP6 PUSH1 0x40 MLOAD PUSH2 0x1B55 SWAP2 SWAP1 PUSH2 0x1FE3 JUMP JUMPDEST PUSH1 0x40 MLOAD DUP1 SWAP2 SUB SWAP1 LOG1 POP POP POP POP POP JUMP JUMPDEST PUSH1 0x1 PUSH0 DUP2 SWAP1 SSTORE POP JUMP JUMPDEST PUSH2 0x1B75 PUSH2 0x1CB7 JUMP JUMPDEST PUSH20 0xFFFFFFFFFFFFFFFFFFFFFFFFFFFFFFFFFFFFFFFF AND PUSH2 0x1B93 PUSH2 0xD06 JUMP JUMPDEST PUSH20 0xFFFFFFFFFFFFFFFFFFFFFFFFFFFFFFFFFFFFFFFF AND EQ PUSH2 0x1BF2 JUMPI PUSH2 0x1BB6 PUSH2 0x1CB7 JUMP JUMPDEST PUSH1 0x40 MLOAD PUSH32 0x118CDAA700000000000000000000000000000000000000000000000000000000 DUP2 MSTORE PUSH1 0x4 ADD PUSH2 0x1BE9 SWAP2 SWAP1 PUSH2 0x200B JUMP JUMPDEST PUSH1 0x40 MLOAD DUP1 SWAP2 SUB SWAP1 REVERT JUMPDEST JUMP JUMPDEST PUSH0 PUSH1 0x1 PUSH0 SWAP1 SLOAD SWAP1 PUSH2 0x100 EXP SWAP1 DIV PUSH20 0xFFFFFFFFFFFFFFFFFFFFFFFFFFFFFFFFFFFFFFFF AND SWAP1 POP DUP2 PUSH1 0x1 PUSH0 PUSH2 0x100 EXP DUP2 SLOAD DUP2 PUSH20 0xFFFFFFFFFFFFFFFFFFFFFFFFFFFFFFFFFFFFFFFF MUL NOT AND SWAP1 DUP4 PUSH20 0xFFFFFFFFFFFFFFFFFFFFFFFFFFFFFFFFFFFFFFFF AND MUL OR SWAP1 SSTORE POP DUP2 PUSH20 0xFFFFFFFFFFFFFFFFFFFFFFFFFFFFFFFFFFFFFFFF AND DUP2 PUSH20 0xFFFFFFFFFFFFFFFFFFFFFFFFFFFFFFFFFFFFFFFF AND PUSH32 0x8BE0079C531659141344CD1FD0A4F28419497F9722A3DAAFE3B4186F6B6457E0 PUSH1 0x40 MLOAD PUSH1 0x40 MLOAD DUP1 SWAP2 SUB SWAP1 LOG3 POP POP JUMP JUMPDEST PUSH0 CALLER SWAP1 POP SWAP1 JUMP JUMPDEST PUSH1 0x40 MLOAD DUP1 PUSH2 0x140 ADD PUSH1 0x40 MSTORE DUP1 PUSH0 PUSH20 0xFFFFFFFFFFFFFFFFFFFFFFFFFFFFFFFFFFFFFFFF AND DUP2 MSTORE PUSH1 0x20 ADD PUSH0 PUSH20 0xFFFFFFFFFFFFFFFFFFFFFFFFFFFFFFFFFFFFFFFF AND DUP2 MSTORE PUSH1 0x20 ADD PUSH0 DUP2 MSTORE PUSH1 0x20 ADD PUSH0 DUP2 MSTORE PUSH1 0x20 ADD PUSH0 DUP2 MSTORE PUSH1 0x20 ADD PUSH0 DUP2 MSTORE PUSH1 0x20 ADD PUSH0 DUP2 MSTORE PUSH1 0x20 ADD PUSH0 DUP2 MSTORE PUSH1 0x20 ADD PUSH0 DUP2 MSTORE PUSH1 0x20 ADD PUSH0 ISZERO ISZERO DUP2 MSTORE POP SWAP1 JUMP JUMPDEST PUSH0 PUSH0 REVERT JUMPDEST PUSH0 PUSH20 0xFFFFFFFFFFFFFFFFFFFFFFFFFFFFFFFFFFFFFFFF DUP3 AND SWAP1 POP SWAP2 SWAP1 POP JUMP JUMPDEST PUSH0 PUSH2 0x1D62 DUP3 PUSH2 0x1D39 JUMP JUMPDEST SWAP1 POP SWAP2 SWAP1 POP JUMP JUMPDEST PUSH2 0x1D72 DUP2 PUSH2 0x1D58 JUMP JUMPDEST DUP2 EQ PUSH2 0x1D7C JUMPI PUSH0 PUSH0 REVERT JUMPDEST POP JUMP JUMPDEST PUSH0 DUP2 CALLDATALOAD SWAP1 POP PUSH2 0x1D8D DUP2 PUSH2 0x1D69 JUMP JUMPDEST SWAP3 SWAP2 POP POP JUMP JUMPDEST PUSH0 PUSH1 0x20 DUP3 DUP5 SUB SLT ISZERO PUSH2 0x1DA8 JUMPI PUSH2 0x1DA7 PUSH2 0x1D35 JUMP JUMPDEST JUMPDEST PUSH0 PUSH2 0x1DB5 DUP5 DUP3 DUP6 ADD PUSH2 0x1D7F JUMP JUMPDEST SWAP2 POP POP SWAP3 SWAP2 POP POP JUMP JUMPDEST PUSH0 DUP2 ISZERO ISZERO SWAP1 POP SWAP2 SWAP1 POP JUMP JUMPDEST PUSH2 0x1DD2 DUP2 PUSH2 0x1DBE JUMP JUMPDEST DUP3 MSTORE POP POP JUMP JUMPDEST PUSH0 PUSH1 0x20 DUP3 ADD SWAP1 POP PUSH2 0x1DEB PUSH0 DUP4 ADD DUP5 PUSH2 0x1DC9 JUMP JUMPDEST SWAP3 SWAP2 POP POP JUMP JUMPDEST PUSH0 DUP2 SWAP1 POP SWAP2 SWAP1 POP JUMP JUMPDEST PUSH2 0x1E03 DUP2 PUSH2 0x1DF1 JUMP JUMPDEST DUP2 EQ PUSH2 0x1E0D JUMPI PUSH0 PUSH0 REVERT JUMPDEST POP JUMP JUMPDEST PUSH0 DUP2 CALLDATALOAD SWAP1 POP PUSH2 0x1E1E DUP2 PUSH2 0x1DFA JUMP JUMPDEST SWAP3 SWAP2 POP POP JUMP JUMPDEST PUSH0 PUSH1 0x20 DUP3 DUP5 SUB SLT ISZERO PUSH2 0x1E39 JUMPI PUSH2 0x1E38 PUSH2 0x1D35 JUMP JUMPDEST JUMPDEST PUSH0 PUSH2 0x1E46 DUP5 DUP3 DUP6 ADD PUSH2 0x1E10 JUMP JUMPDEST SWAP2 POP POP SWAP3 SWAP2 POP POP JUMP JUMPDEST PUSH0 DUP2 SWAP1 POP SWAP2 SWAP1 POP JUMP JUMPDEST PUSH0 PUSH2 0x1E72 PUSH2 0x1E6D PUSH2 0x1E68 DUP5 PUSH2 0x1D39 JUMP JUMPDEST PUSH2 0x1E4F JUMP JUMPDEST PUSH2 0x1D39 JUMP JUMPDEST SWAP1 POP SWAP2 SWAP1 POP JUMP JUMPDEST PUSH0 PUSH2 0x1E83 DUP3 PUSH2 0x1E58 JUMP JUMPDEST SWAP1 POP SWAP2 SWAP1 POP JUMP JUMPDEST PUSH0 PUSH2 0x1E94 DUP3 PUSH2 0x1E79 JUMP JUMPDEST SWAP1 POP SWAP2 SWAP1 POP JUMP JUMPDEST PUSH2 0x1EA4 DUP2 PUSH2 0x1E8A JUMP JUMPDEST DUP3 MSTORE POP POP JUMP JUMPDEST PUSH0 PUSH1 0x20 DUP3 ADD SWAP1 POP PUSH2 0x1EBD PUSH0 DUP4 ADD DUP5 PUSH2 0x1E9B JUMP JUMPDEST SWAP3 SWAP2 POP POP JUMP JUMPDEST PUSH2 0x1ECC DUP2 PUSH2 0x1D58 JUMP JUMPDEST DUP3 MSTORE POP POP JUMP JUMPDEST PUSH2 0x1EDB DUP2 PUSH2 0x1DF1 JUMP JUMPDEST DUP3 MSTORE POP POP JUMP JUMPDEST PUSH2 0x1EEA DUP2 PUSH2 0x1DBE JUMP JUMPDEST DUP3 MSTORE POP POP JUMP JUMPDEST PUSH2 0x140 DUP3 ADD PUSH0 DUP3 ADD MLOAD PUSH2 0x1F05 PUSH0 DUP6 ADD DUP3 PUSH2 0x1EC3 JUMP JUMPDEST POP PUSH1 0x20 DUP3 ADD MLOAD PUSH2 0x1F18 PUSH1 0x20 DUP6 ADD DUP3 PUSH2 0x1EC3 JUMP JUMPDEST POP PUSH1 0x40 DUP3 ADD MLOAD PUSH2 0x1F2B PUSH1 0x40 DUP6 ADD DUP3 PUSH2 0x1ED2 JUMP JUMPDEST POP PUSH1 0x60 DUP3 ADD MLOAD PUSH2 0x1F3E PUSH1 0x60 DUP6 ADD DUP3 PUSH2 0x1ED2 JUMP JUMPDEST POP PUSH1 0x80 DUP3 ADD MLOAD PUSH2 0x1F51 PUSH1 0x80 DUP6 ADD DUP3 PUSH2 0x1ED2 JUMP JUMPDEST POP PUSH1 0xA0 DUP3 ADD MLOAD PUSH2 0x1F64 PUSH1 0xA0 DUP6 ADD DUP3 PUSH2 0x1ED2 JUMP JUMPDEST POP PUSH1 0xC0 DUP3 ADD MLOAD PUSH2 0x1F77 PUSH1 0xC0 DUP6 ADD DUP3 PUSH2 0x1ED2 JUMP JUMPDEST POP PUSH1 0xE0 DUP3 ADD MLOAD PUSH2 0x1F8A PUSH1 0xE0 DUP6 ADD DUP3 PUSH2 0x1ED2 JUMP JUMPDEST POP PUSH2 0x100 DUP3 ADD MLOAD PUSH2 0x1F9F PUSH2 0x100 DUP6 ADD DUP3 PUSH2 0x1ED2 JUMP JUMPDEST POP PUSH2 0x120 DUP3 ADD MLOAD PUSH2 0x1FB4 PUSH2 0x120 DUP6 ADD DUP3 PUSH2 0x1EE1 JUMP JUMPDEST POP POP POP POP JUMP JUMPDEST PUSH0 PUSH2 0x140 DUP3 ADD SWAP1 POP PUSH2 0x1FCE PUSH0 DUP4 ADD DUP5 PUSH2 0x1EF0 JUMP JUMPDEST SWAP3 SWAP2 POP POP JUMP JUMPDEST PUSH2 0x1FDD DUP2 PUSH2 0x1DF1 JUMP JUMPDEST DUP3 MSTORE POP POP JUMP JUMPDEST PUSH0 PUSH1 0x20 DUP3 ADD SWAP1 POP PUSH2 0x1FF6 PUSH0 DUP4 ADD DUP5 PUSH2 0x1FD4 JUMP JUMPDEST SWAP3 SWAP2 POP POP JUMP JUMPDEST PUSH2 0x2005 DUP2 PUSH2 0x1D58 JUMP JUMPDEST DUP3 MSTORE POP POP JUMP JUMPDEST PUSH0 PUSH1 0x20 DUP3 ADD SWAP1 POP PUSH2 0x201E PUSH0 DUP4 ADD DUP5 PUSH2 0x1FFC JUMP JUMPDEST SWAP3 SWAP2 POP POP JUMP JUMPDEST PUSH0 PUSH2 0x140 DUP3 ADD SWAP1 POP PUSH2 0x2038 PUSH0 DUP4 ADD DUP14 PUSH2 0x1FFC JUMP JUMPDEST PUSH2 0x2045 PUSH1 0x20 DUP4 ADD DUP13 PUSH2 0x1FFC JUMP JUMPDEST PUSH2 0x2052 PUSH1 0x40 DUP4 ADD DUP12 PUSH2 0x1FD4 JUMP JUMPDEST PUSH2 0x205F PUSH1 0x60 DUP4 ADD DUP11 PUSH2 0x1FD4 JUMP JUMPDEST PUSH2 0x206C PUSH1 0x80 DUP4 ADD DUP10 PUSH2 0x1FD4 JUMP JUMPDEST PUSH2 0x2079 PUSH1 0xA0 DUP4 ADD DUP9 PUSH2 0x1FD4 JUMP JUMPDEST PUSH2 0x2086 PUSH1 0xC0 DUP4 ADD DUP8 PUSH2 0x1FD4 JUMP JUMPDEST PUSH2 0x2093 PUSH1 0xE0 DUP4 ADD DUP7 PUSH2 0x1FD4 JUMP JUMPDEST PUSH2 0x20A1 PUSH2 0x100 DUP4 ADD DUP6 PUSH2 0x1FD4 JUMP JUMPDEST PUSH2 0x20AF PUSH2 0x120 DUP4 ADD DUP5 PUSH2 0x1DC9 JUMP JUMPDEST SWAP12 SWAP11 POP POP POP POP POP POP POP POP POP POP POP JUMP JUMPDEST PUSH0 PUSH0 PUSH0 PUSH0 PUSH0 PUSH1 0xA0 DUP7 DUP9 SUB SLT ISZERO PUSH2 0x20D7 JUMPI PUSH2 0x20D6 PUSH2 0x1D35 JUMP JUMPDEST JUMPDEST PUSH0 PUSH2 0x20E4 DUP9 DUP3 DUP10 ADD PUSH2 0x1D7F JUMP JUMPDEST SWAP6 POP POP PUSH1 0x20 PUSH2 0x20F5 DUP9 DUP3 DUP10 ADD PUSH2 0x1D7F JUMP JUMPDEST SWAP5 POP POP PUSH1 0x40 PUSH2 0x2106 DUP9 DUP3 DUP10 ADD PUSH2 0x1E10 JUMP JUMPDEST SWAP4 POP POP PUSH1 0x60 PUSH2 0x2117 DUP9 DUP3 DUP10 ADD PUSH2 0x1E10 JUMP JUMPDEST SWAP3 POP POP PUSH1 0x80 PUSH2 0x2128 DUP9 DUP3 DUP10 ADD PUSH2 0x1E10 JUMP JUMPDEST SWAP2 POP POP SWAP3 SWAP6 POP SWAP3 SWAP6 SWAP1 SWAP4 POP JUMP JUMPDEST PUSH0 PUSH2 0x213F DUP3 PUSH2 0x1E79 JUMP JUMPDEST SWAP1 POP SWAP2 SWAP1 POP JUMP JUMPDEST PUSH2 0x214F DUP2 PUSH2 0x2135 JUMP JUMPDEST DUP3 MSTORE POP POP JUMP JUMPDEST PUSH0 PUSH1 0x20 DUP3 ADD SWAP1 POP PUSH2 0x2168 PUSH0 DUP4 ADD DUP5 PUSH2 0x2146 JUMP JUMPDEST SWAP3 SWAP2 POP POP JUMP JUMPDEST PUSH0 DUP3 DUP3 MSTORE PUSH1 0x20 DUP3 ADD SWAP1 POP SWAP3 SWAP2 POP POP JUMP JUMPDEST PUSH32 0x4C6F616E206E6F74206163746976650000000000000000000000000000000000 PUSH0 DUP3 ADD MSTORE POP JUMP JUMPDEST PUSH0 PUSH2 0x21B2 PUSH1 0xF DUP4 PUSH2 0x216E JUMP JUMPDEST SWAP2 POP PUSH2 0x21BD DUP3 PUSH2 0x217E JUMP JUMPDEST PUSH1 0x20 DUP3 ADD SWAP1 POP SWAP2 SWAP1 POP JUMP JUMPDEST PUSH0 PUSH1 0x20 DUP3 ADD SWAP1 POP DUP2 DUP2 SUB PUSH0 DUP4 ADD MSTORE PUSH2 0x21DF DUP2 PUSH2 0x21A6 JUMP JUMPDEST SWAP1 POP SWAP2 SWAP1 POP JUMP JUMPDEST PUSH32 0x4E6F7420796F7572206C6F616E00000000000000000000000000000000000000 PUSH0 DUP3 ADD MSTORE POP JUMP JUMPDEST PUSH0 PUSH2 0x221A PUSH1 0xD DUP4 PUSH2 0x216E JUMP JUMPDEST SWAP2 POP PUSH2 0x2225 DUP3 PUSH2 0x21E6 JUMP JUMPDEST PUSH1 0x20 DUP3 ADD SWAP1 POP SWAP2 SWAP1 POP JUMP JUMPDEST PUSH0 PUSH1 0x20 DUP3 ADD SWAP1 POP DUP2 DUP2 SUB PUSH0 DUP4 ADD MSTORE PUSH2 0x2247 DUP2 PUSH2 0x220E JUMP JUMPDEST SWAP1 POP SWAP2 SWAP1 POP JUMP JUMPDEST PUSH32 0x4E487B7100000000000000000000000000000000000000000000000000000000 PUSH0 MSTORE PUSH1 0x11 PUSH1 0x4 MSTORE PUSH1 0x24 PUSH0 REVERT JUMPDEST PUSH0 PUSH2 0x2285 DUP3 PUSH2 0x1DF1 JUMP JUMPDEST SWAP2 POP PUSH2 0x2290 DUP4 PUSH2 0x1DF1 JUMP JUMPDEST SWAP3 POP DUP3 DUP3 SUB SWAP1 POP DUP2 DUP2 GT ISZERO PUSH2 0x22A8 JUMPI PUSH2 0x22A7 PUSH2 0x224E JUMP JUMPDEST JUMPDEST SWAP3 SWAP2 POP POP JUMP JUMPDEST PUSH32 0x4E487B7100000000000000000000000000000000000000000000000000000000 PUSH0 MSTORE PUSH1 0x12 PUSH1 0x4 MSTORE PUSH1 0x24 PUSH0 REVERT JUMPDEST PUSH0 PUSH2 0x22E5 DUP3 PUSH2 0x1DF1 JUMP JUMPDEST SWAP2 POP PUSH2 0x22F0 DUP4 PUSH2 0x1DF1 JUMP JUMPDEST SWAP3 POP DUP3 PUSH2 0x2300 JUMPI PUSH2 0x22FF PUSH2 0x22AE JUMP JUMPDEST JUMPDEST DUP3 DUP3 DIV SWAP1 POP SWAP3 SWAP2 POP POP JUMP JUMPDEST PUSH0 PUSH2 0x2315 DUP3 PUSH2 0x1DF1 JUMP JUMPDEST SWAP2 POP PUSH2 0x2320 DUP4 PUSH2 0x1DF1 JUMP JUMPDEST SWAP3 POP DUP3 DUP3 MUL PUSH2 0x232E DUP2 PUSH2 0x1DF1 JUMP JUMPDEST SWAP2 POP DUP3 DUP3 DIV DUP5 EQ DUP4 ISZERO OR PUSH2 0x2345 JUMPI PUSH2 0x2344 PUSH2 0x224E JUMP JUMPDEST JUMPDEST POP SWAP3 SWAP2 POP POP JUMP JUMPDEST PUSH0 PUSH2 0x2356 DUP3 PUSH2 0x1DF1 JUMP JUMPDEST SWAP2 POP PUSH2 0x2361 DUP4 PUSH2 0x1DF1 JUMP JUMPDEST SWAP3 POP DUP3 DUP3 ADD SWAP1 POP DUP1 DUP3 GT ISZERO PUSH2 0x2379 JUMPI PUSH2 0x2378 PUSH2 0x224E JUMP JUMPDEST JUMPDEST SWAP3 SWAP2 POP POP JUMP JUMPDEST PUSH32 0x416C726561647920706169640000000000000000000000000000000000000000 PUSH0 DUP3 ADD MSTORE POP JUMP JUMPDEST PUSH0 PUSH2 0x23B3 PUSH1 0xC DUP4 PUSH2 0x216E JUMP JUMPDEST SWAP2 POP PUSH2 0x23BE DUP3 PUSH2 0x237F JUMP JUMPDEST PUSH1 0x20 DUP3 ADD SWAP1 POP SWAP2 SWAP1 POP JUMP JUMPDEST PUSH0 PUSH1 0x20 DUP3 ADD SWAP1 POP DUP2 DUP2 SUB PUSH0 DUP4 ADD MSTORE PUSH2 0x23E0 DUP2 PUSH2 0x23A7 JUMP JUMPDEST SWAP1 POP SWAP2 SWAP1 POP JUMP JUMPDEST PUSH32 0x496E636F7272656374207061796D656E74000000000000000000000000000000 PUSH0 DUP3 ADD MSTORE POP JUMP JUMPDEST PUSH0 PUSH2 0x241B PUSH1 0x11 DUP4 PUSH2 0x216E JUMP JUMPDEST SWAP2 POP PUSH2 0x2426 DUP3 PUSH2 0x23E7 JUMP JUMPDEST PUSH1 0x20 DUP3 ADD SWAP1 POP SWAP2 SWAP1 POP JUMP JUMPDEST PUSH0 PUSH1 0x20 DUP3 ADD SWAP1 POP DUP2 DUP2 SUB PUSH0 DUP4 ADD MSTORE PUSH2 0x2448 DUP2 PUSH2 0x240F JUMP JUMPDEST SWAP1 POP SWAP2 SWAP1 POP JUMP JUMPDEST PUSH0 PUSH1 0x40 DUP3 ADD SWAP1 POP PUSH2 0x2462 PUSH0 DUP4 ADD DUP6 PUSH2 0x1FD4 JUMP JUMPDEST PUSH2 0x246F PUSH1 0x20 DUP4 ADD DUP5 PUSH2 0x1FD4 JUMP JUMPDEST SWAP4 SWAP3 POP POP POP JUMP JUMPDEST PUSH0 DUP2 MLOAD SWAP1 POP PUSH2 0x2484 DUP2 PUSH2 0x1DFA JUMP JUMPDEST SWAP3 SWAP2 POP POP JUMP JUMPDEST PUSH0 PUSH1 0x20 DUP3 DUP5 SUB SLT ISZERO PUSH2 0x249F JUMPI PUSH2 0x249E PUSH2 0x1D35 JUMP JUMPDEST JUMPDEST PUSH0 PUSH2 0x24AC DUP5 DUP3 DUP6 ADD PUSH2 0x2476 JUMP JUMPDEST SWAP2 POP POP SWAP3 SWAP2 POP POP JUMP JUMPDEST PUSH32 0x496E73756666696369656E742062616C616E6365000000000000000000000000 PUSH0 DUP3 ADD MSTORE POP JUMP JUMPDEST PUSH0 PUSH2 0x24E9 PUSH1 0x14 DUP4 PUSH2 0x216E JUMP JUMPDEST SWAP2 POP PUSH2 0x24F4 DUP3 PUSH2 0x24B5 JUMP JUMPDEST PUSH1 0x20 DUP3 ADD SWAP1 POP SWAP2 SWAP1 POP JUMP JUMPDEST PUSH0 PUSH1 0x20 DUP3 ADD SWAP1 POP DUP2 DUP2 SUB PUSH0 DUP4 ADD MSTORE PUSH2 0x2516 DUP2 PUSH2 0x24DD JUMP JUMPDEST SWAP1 POP SWAP2 SWAP1 POP JUMP JUMPDEST PUSH0 PUSH1 0x40 DUP3 ADD SWAP1 POP PUSH2 0x2530 PUSH0 DUP4 ADD DUP6 PUSH2 0x1FFC JUMP JUMPDEST PUSH2 0x253D PUSH1 0x20 DUP4 ADD DUP5 PUSH2 0x1FD4 JUMP JUMPDEST SWAP4 SWAP3 POP POP POP JUMP JUMPDEST PUSH0 DUP2 SWAP1 POP SWAP3 SWAP2 POP POP JUMP JUMPDEST POP JUMP JUMPDEST PUSH0 PUSH2 0x255C PUSH0 DUP4 PUSH2 0x2544 JUMP JUMPDEST SWAP2 POP PUSH2 0x2567 DUP3 PUSH2 0x254E JUMP JUMPDEST PUSH0 DUP3 ADD SWAP1 POP SWAP2 SWAP1 POP JUMP JUMPDEST PUSH0 PUSH2 0x257B DUP3 PUSH2 0x2551 JUMP JUMPDEST SWAP2 POP DUP2 SWAP1 POP SWAP2 SWAP1 POP JUMP JUMPDEST PUSH32 0x5472616E73666572206661696C65640000000000000000000000000000000000 PUSH0 DUP3 ADD MSTORE POP JUMP JUMPDEST PUSH0 PUSH2 0x25B9 PUSH1 0xF DUP4 PUSH2 0x216E JUMP JUMPDEST SWAP2 POP PUSH2 0x25C4 DUP3 PUSH2 0x2585 JUMP JUMPDEST PUSH1 0x20 DUP3 ADD SWAP1 POP SWAP2 SWAP1 POP JUMP JUMPDEST PUSH0 PUSH1 0x20 DUP3 ADD SWAP1 POP DUP2 DUP2 SUB PUSH0 DUP4 ADD MSTORE PUSH2 0x25E6 DUP2 PUSH2 0x25AD JUMP JUMPDEST SWAP1 POP SWAP2 SWAP1 POP JUMP JUMPDEST PUSH32 0x46656520746F6F20686967680000000000000000000000000000000000000000 PUSH0 DUP3 ADD MSTORE POP JUMP JUMPDEST PUSH0 PUSH2 0x2621 PUSH1 0xC DUP4 PUSH2 0x216E JUMP JUMPDEST SWAP2 POP PUSH2 0x262C DUP3 PUSH2 0x25ED JUMP JUMPDEST PUSH1 0x20 DUP3 ADD SWAP1 POP SWAP2 SWAP1 POP JUMP JUMPDEST PUSH0 PUSH1 0x20 DUP3 ADD SWAP1 POP DUP2 DUP2 SUB PUSH0 DUP4 ADD MSTORE PUSH2 0x264E DUP2 PUSH2 0x2615 JUMP JUMPDEST SWAP1 POP SWAP2 SWAP1 POP JUMP JUMPDEST PUSH32 0x4E6F742072656769737465726564000000000000000000000000000000000000 PUSH0 DUP3 ADD MSTORE POP JUMP JUMPDEST PUSH0 PUSH2 0x2689 PUSH1 0xE DUP4 PUSH2 0x216E JUMP JUMPDEST SWAP2 POP PUSH2 0x2694 DUP3 PUSH2 0x2655 JUMP JUMPDEST PUSH1 0x20 DUP3 ADD SWAP1 POP SWAP2 SWAP1 POP JUMP JUMPDEST PUSH0 PUSH1 0x20 DUP3 ADD SWAP1 POP DUP2 DUP2 SUB PUSH0 DUP4 ADD MSTORE PUSH2 0x26B6 DUP2 PUSH2 0x267D JUMP JUMPDEST SWAP1 POP SWAP2 SWAP1 POP JUMP JUMPDEST PUSH32 0x416D6F756E74206D69736D617463680000000000000000000000000000000000 PUSH0 DUP3 ADD MSTORE POP JUMP JUMPDEST PUSH0 PUSH2 0x26F1 PUSH1 0xF DUP4 PUSH2 0x216E JUMP JUMPDEST SWAP2 POP PUSH2 0x26FC DUP3 PUSH2 0x26BD JUMP JUMPDEST PUSH1 0x20 DUP3 ADD SWAP1 POP SWAP2 SWAP1 POP JUMP JUMPDEST PUSH0 PUSH1 0x20 DUP3 ADD SWAP1 POP DUP2 DUP2 SUB PUSH0 DUP4 ADD MSTORE PUSH2 0x271E DUP2 PUSH2 0x26E5 JUMP JUMPDEST SWAP1 POP SWAP2 SWAP1 POP JUMP JUMPDEST PUSH32 0x416C6C2070616964000000000000000000000000000000000000000000000000 PUSH0 DUP3 ADD MSTORE POP JUMP JUMPDEST PUSH0 PUSH2 0x2759 PUSH1 0x8 DUP4 PUSH2 0x216E JUMP JUMPDEST SWAP2 POP PUSH2 0x2764 DUP3 PUSH2 0x2725 JUMP JUMPDEST PUSH1 0x20 DUP3 ADD SWAP1 POP SWAP2 SWAP1 POP JUMP JUMPDEST PUSH0 PUSH1 0x20 DUP3 ADD SWAP1 POP DUP2 DUP2 SUB PUSH0 DUP4 ADD MSTORE PUSH2 0x2786 DUP2 PUSH2 0x274D JUMP JUMPDEST SWAP1 POP SWAP2 SWAP1 POP JUMP JUMPDEST PUSH0 PUSH2 0x2797 DUP3 PUSH2 0x1DF1 JUMP JUMPDEST SWAP2 POP PUSH32 0xFFFFFFFFFFFFFFFFFFFFFFFFFFFFFFFFFFFFFFFFFFFFFFFFFFFFFFFFFFFFFFFF DUP3 SUB PUSH2 0x27C9 JUMPI PUSH2 0x27C8 PUSH2 0x224E JUMP JUMPDEST JUMPDEST PUSH1 0x1 DUP3 ADD SWAP1 POP SWAP2 SWAP1 POP JUMP JUMPDEST PUSH32 0x4C656E646572206E6F7420726567697374657265640000000000000000000000 PUSH0 DUP3 ADD MSTORE POP JUMP JUMPDEST PUSH0 PUSH2 0x2808 PUSH1 0x15 DUP4 PUSH2 0x216E JUMP JUMPDEST SWAP2 POP PUSH2 0x2813 DUP3 PUSH2 0x27D4 JUMP JUMPDEST PUSH1 0x20 DUP3 ADD SWAP1 POP SWAP2 SWAP1 POP JUMP JUMPDEST PUSH0 PUSH1 0x20 DUP3 ADD SWAP1 POP DUP2 DUP2 SUB PUSH0 DUP4 ADD MSTORE PUSH2 0x2835 DUP2 PUSH2 0x27FC JUMP JUMPDEST SWAP1 POP SWAP2 SWAP1 POP JUMP JUMPDEST PUSH32 0x426F72726F776572206E6F742072656769737465726564000000000000000000 PUSH0 DUP3 ADD MSTORE POP JUMP JUMPDEST PUSH0 PUSH2 0x2870 PUSH1 0x17 DUP4 PUSH2 0x216E JUMP JUMPDEST SWAP2 POP PUSH2 0x287B DUP3 PUSH2 0x283C JUMP JUMPDEST PUSH1 0x20 DUP3 ADD SWAP1 POP SWAP2 SWAP1 POP JUMP JUMPDEST PUSH0 PUSH1 0x20 DUP3 ADD SWAP1 POP DUP2 DUP2 SUB PUSH0 DUP4 ADD MSTORE PUSH2 0x289D DUP2 PUSH2 0x2864 JUMP JUMPDEST SWAP1 POP SWAP2 SWAP1 POP JUMP JUMPDEST PUSH0 PUSH2 0x28AF PUSH0 DUP4 PUSH2 0x216E JUMP JUMPDEST SWAP2 POP PUSH2 0x28BA DUP3 PUSH2 0x254E JUMP JUMPDEST PUSH0 DUP3 ADD SWAP1 POP SWAP2 SWAP1 POP JUMP JUMPDEST PUSH0 PUSH1 0x60 DUP3 ADD SWAP1 POP PUSH2 0x28D7 PUSH0 DUP4 ADD DUP6 PUSH2 0x1FFC JUMP JUMPDEST PUSH2 0x28E4 PUSH1 0x20 DUP4 ADD DUP5 PUSH2 0x1FD4 JUMP JUMPDEST DUP2 DUP2 SUB PUSH1 0x40 DUP4 ADD MSTORE PUSH2 0x28F5 DUP2 PUSH2 0x28A4 JUMP JUMPDEST SWAP1 POP SWAP4 SWAP3 POP POP POP JUMP JUMPDEST PUSH0 PUSH1 0x80 DUP3 ADD SWAP1 POP PUSH2 0x2911 PUSH0 DUP4 ADD DUP8 PUSH2 0x1FD4 JUMP JUMPDEST PUSH2 0x291E PUSH1 0x20 DUP4 ADD DUP7 PUSH2 0x1FFC JUMP JUMPDEST PUSH2 0x292B PUSH1 0x40 DUP4 ADD DUP6 PUSH2 0x1FFC JUMP JUMPDEST PUSH2 0x2938 PUSH1 0x60 DUP4 ADD DUP5 PUSH2 0x1FD4 JUMP JUMPDEST SWAP6 SWAP5 POP POP POP POP POP JUMP JUMPDEST PUSH32 0x5265656E7472616E637947756172643A207265656E7472616E742063616C6C00 PUSH0 DUP3 ADD MSTORE POP JUMP JUMPDEST PUSH0 PUSH2 0x2975 PUSH1 0x1F DUP4 PUSH2 0x216E JUMP JUMPDEST SWAP2 POP PUSH2 0x2980 DUP3 PUSH2 0x2941 JUMP JUMPDEST PUSH1 0x20 DUP3 ADD SWAP1 POP SWAP2 SWAP1 POP JUMP JUMPDEST PUSH0 PUSH1 0x20 DUP3 ADD SWAP1 POP DUP2 DUP2 SUB PUSH0 DUP4 ADD MSTORE PUSH2 0x29A2 DUP2 PUSH2 0x2969 JUMP JUMPDEST SWAP1 POP SWAP2 SWAP1 POP JUMP INVALID LOG2 PUSH5 0x6970667358 0x22 SLT KECCAK256 DUPN 0x8E 0xCE DUP15 SWAP8 PUSH5 0xD3132783EF 0xD CALL PUSH1 0xC2 PUSH27 0x60539B0F84BAAE257FD3CF6BFDC79D5164736F6C634300081E0033 "
				},
				"gasEstimates": {
					"creation": {
						"codeDepositCost": "2143800",
						"executionCost": "infinite",
						"totalCost": "infinite"
					},
					"external": {
						"borrowers(address)": "2900",
						"createLoan(address,address,uint256,uint256,uint256)": "infinite",
						"deposit(uint256)": "infinite",
						"emergencyWithdraw(uint256)": "infinite",
						"fee()": "2514",
						"getBalance(address)": "infinite",
						"getLoan(uint256)": "infinite",
						"isBorrower(address)": "2936",
						"isLender(address)": "2915",
						"lenders(address)": "2857",
						"loanNFT()": "infinite",
						"loans(uint256)": "infinite",
						"nextLoanId()": "2536",
						"numusToken()": "infinite",
						"owner()": "2648",
						"payEarly(uint256)": "infinite",
						"payInstallment(uint256)": "infinite",
						"registerBorrower()": "25775",
						"registerLender()": "25820",
						"renounceOwnership()": "infinite",
						"transferOwnership(address)": "infinite",
						"updateFee(uint256)": "infinite",
						"withdraw(uint256)": "infinite"
					},
					"internal": {
						"_completeLoan(uint256)": "infinite"
					}
				},
				"methodIdentifiers": {
					"borrowers(address)": "bf5d50c4",
					"createLoan(address,address,uint256,uint256,uint256)": "e3d7b24d",
					"deposit(uint256)": "b6b55f25",
					"emergencyWithdraw(uint256)": "5312ea8e",
					"fee()": "ddca3f43",
					"getBalance(address)": "f8b2cb4f",
					"getLoan(uint256)": "504006ca",
					"isBorrower(address)": "eaf6e483",
					"isLender(address)": "709b8961",
					"lenders(address)": "28fd10d7",
					"loanNFT()": "34a41177",
					"loans(uint256)": "e1ec3c68",
					"nextLoanId()": "87c51459",
					"numusToken()": "fbfd9a77",
					"owner()": "8da5cb5b",
					"payEarly(uint256)": "2cf340af",
					"payInstallment(uint256)": "e2f8a017",
					"registerBorrower()": "e831878d",
					"registerLender()": "7df21f7a",
					"renounceOwnership()": "715018a6",
					"transferOwnership(address)": "f2fde38b",
					"updateFee(uint256)": "9012c4a8",
					"withdraw(uint256)": "2e1a7d4d"
				}
			},
			"storageLayout": {
				"storage": [
					{
						"astId": 158,
						"contract": "NummoraCoreSomnia.sol:NummoraCore",
						"label": "_status",
						"offset": 0,
						"slot": "0",
						"type": "t_uint256"
					},
					{
						"astId": 8,
						"contract": "NummoraCoreSomnia.sol:NummoraCore",
						"label": "_owner",
						"offset": 0,
						"slot": "1",
						"type": "t_address"
					},
					{
						"astId": 306,
						"contract": "NummoraCoreSomnia.sol:NummoraCore",
						"label": "numusToken",
						"offset": 0,
						"slot": "2",
						"type": "t_contract(INUMUSToken)268"
					},
					{
						"astId": 309,
						"contract": "NummoraCoreSomnia.sol:NummoraCore",
						"label": "loanNFT",
						"offset": 0,
						"slot": "3",
						"type": "t_contract(ILoanNFT)278"
					},
					{
						"astId": 314,
						"contract": "NummoraCoreSomnia.sol:NummoraCore",
						"label": "loans",
						"offset": 0,
						"slot": "4",
						"type": "t_mapping(t_uint256,t_struct(Loan)303_storage)"
					},
					{
						"astId": 318,
						"contract": "NummoraCoreSomnia.sol:NummoraCore",
						"label": "lenders",
						"offset": 0,
						"slot": "5",
						"type": "t_mapping(t_address,t_bool)"
					},
					{
						"astId": 322,
						"contract": "NummoraCoreSomnia.sol:NummoraCore",
						"label": "borrowers",
						"offset": 0,
						"slot": "6",
						"type": "t_mapping(t_address,t_bool)"
					},
					{
						"astId": 325,
						"contract": "NummoraCoreSomnia.sol:NummoraCore",
						"label": "nextLoanId",
						"offset": 0,
						"slot": "7",
						"type": "t_uint256"
					},
					{
						"astId": 328,
						"contract": "NummoraCoreSomnia.sol:NummoraCore",
						"label": "fee",
						"offset": 0,
						"slot": "8",
						"type": "t_uint256"
					}
				],
				"types": {
					"t_address": {
						"encoding": "inplace",
						"label": "address",
						"numberOfBytes": "20"
					},
					"t_bool": {
						"encoding": "inplace",
						"label": "bool",
						"numberOfBytes": "1"
					},
					"t_contract(ILoanNFT)278": {
						"encoding": "inplace",
						"label": "contract ILoanNFT",
						"numberOfBytes": "20"
					},
					"t_contract(INUMUSToken)268": {
						"encoding": "inplace",
						"label": "contract INUMUSToken",
						"numberOfBytes": "20"
					},
					"t_mapping(t_address,t_bool)": {
						"encoding": "mapping",
						"key": "t_address",
						"label": "mapping(address => bool)",
						"numberOfBytes": "32",
						"value": "t_bool"
					},
					"t_mapping(t_uint256,t_struct(Loan)303_storage)": {
						"encoding": "mapping",
						"key": "t_uint256",
						"label": "mapping(uint256 => struct NummoraCore.Loan)",
						"numberOfBytes": "32",
						"value": "t_struct(Loan)303_storage"
					},
					"t_struct(Loan)303_storage": {
						"encoding": "inplace",
						"label": "struct NummoraCore.Loan",
						"members": [
							{
								"astId": 284,
								"contract": "NummoraCoreSomnia.sol:NummoraCore",
								"label": "lender",
								"offset": 0,
								"slot": "0",
								"type": "t_address"
							},
							{
								"astId": 286,
								"contract": "NummoraCoreSomnia.sol:NummoraCore",
								"label": "borrower",
								"offset": 0,
								"slot": "1",
								"type": "t_address"
							},
							{
								"astId": 288,
								"contract": "NummoraCoreSomnia.sol:NummoraCore",
								"label": "amount",
								"offset": 0,
								"slot": "2",
								"type": "t_uint256"
							},
							{
								"astId": 290,
								"contract": "NummoraCoreSomnia.sol:NummoraCore",
								"label": "totalToPay",
								"offset": 0,
								"slot": "3",
								"type": "t_uint256"
							},
							{
								"astId": 292,
								"contract": "NummoraCoreSomnia.sol:NummoraCore",
								"label": "totalPaid",
								"offset": 0,
								"slot": "4",
								"type": "t_uint256"
							},
							{
								"astId": 294,
								"contract": "NummoraCoreSomnia.sol:NummoraCore",
								"label": "startTime",
								"offset": 0,
								"slot": "5",
								"type": "t_uint256"
							},
							{
								"astId": 296,
								"contract": "NummoraCoreSomnia.sol:NummoraCore",
								"label": "installments",
								"offset": 0,
								"slot": "6",
								"type": "t_uint256"
							},
							{
								"astId": 298,
								"contract": "NummoraCoreSomnia.sol:NummoraCore",
								"label": "installmentAmount",
								"offset": 0,
								"slot": "7",
								"type": "t_uint256"
							},
							{
								"astId": 300,
								"contract": "NummoraCoreSomnia.sol:NummoraCore",
								"label": "installmentsPaid",
								"offset": 0,
								"slot": "8",
								"type": "t_uint256"
							},
							{
								"astId": 302,
								"contract": "NummoraCoreSomnia.sol:NummoraCore",
								"label": "active",
								"offset": 0,
								"slot": "9",
								"type": "t_bool"
							}
						],
						"numberOfBytes": "320"
					},
					"t_uint256": {
						"encoding": "inplace",
						"label": "uint256",
						"numberOfBytes": "32"
					}
				}
			},
			"userdoc": {
				"kind": "user",
				"methods": {},
				"version": 1
			}
		}
	}
}